:020000040000FA
:0400000059EF36F08E
:106CAC00486900486F00AC0EF66E6C0EF76E000E65
:106CBC00F86E00EE21F010EE06F00900F5CFEEFFB5
:106CCC00E550E150FAE1286A276A000EF86E0001DF
:106CDC0074EF37F07AEF36F020EE04F00150D9263D
:106CEC000250DA22000EDF6E20EE04F00150D9269D
:106CFC000250DA22DE04D8B486EF36F088EF36F094
:106D0C0072EF36F08AEF36F01200026E0250D8B4F1
:106D1C0092EF36F094EF36F098EF36F08A808A9244
:106D2C009CEF36F08A928A829CEF36F0000E956EBC
:106D3C008A9601C08CFF8A8800D08A9800D08A90ED
:106D4C008A92120001C0D9FF02C0DAFF000EDF6E7A
:106D5C0020EE01F00150D9260250DA22640EDF6ECB
:106D6C0020EE02F00150D9260250DA22640EDF6EBA
:106D7C0020EE03F00150D9260250DA22640EDF6EA9
:106D8C0020EE04F00150D9260250DA22010EDF6EFB
:106D9C001200F3EF36F00E50D8B4D7EF36F0D9EF2F
:106DAC0036F0E4EF36F00FC003F00CC0D9FF0DC085
:106DBC00DAFFDF5065EC38F0EFEF36F00FC003F080
:106DCC000CC0D9FF0DC0DAFFDF50FBEC38F0EFEF51
:106DDC0036F00C4A0D2AF3EF36F00CC0D9FF0DC07B
:106DEC00DAFFDF50D8A4FDEF36F0FFEF36F0D1EF2D
:106DFC0036F001EF37F01200056E000E046E800EB7
:106E0C0005600BEF37F00DEF37F039EF37F0070E69
:106E1C00036413EF37F015EF37F019EF37F039EF54
:106E2C0037F039EF37F005C028F003C027F03F0EDC
:106E3C00056423EF37F025EF37F02BEF37F0400EDA
:106E4C00055E010E046E2BEF37F08A940550400955
:106E5C00016E04508BEC36F00350B809016E0450EF
:106E6C008BEC36F08A841200000E09EC38F024C04A
:106E7C0012F025C013F026C014F021C015F022C06A
:106E8C0016F023C017F0000E036E360E02EC37F02E
:106E9C00120E0C6E000E0D6E010E0E6E010E0F6EAC
:106EAC00CFEC36F0010E036E230E02EC37F0150E0C
:106EBC000C6E000E0D6E010E0E6E010E0F6ECFECF1
:106ECC0036F0020E116E040E106EBA0EE82EFED7BE
:106EDC00102EFCD7112EFAD700D01200070E926E8E
:106EEC00070E806E9568000E836E010EB9EC37F0BC
:106EFC00000E1F6E000E206E000E1E6E010E1D6E1B
:106F0C00ACEF37F01FC001F020C002F0A8EC36F057
:106F1C003AEC37F01FC001F020C002F070EC36F0F4
:106F2C0020EE04F01F50D9262050DA22DF50D8A4CE
:106F3C00A2EF37F0A4EF37F0ACEF37F0000E1E6E77
:106F4C00000E1D6EACEF37F0ACEF37F01D041E10C9
:106F5C00D8B4B3EF37F0B5EF37F088EF37F0B7EFC1
:106F6C0037F000EF00F0066E000E836E8A9A210E49
:106F7C00E82EFED700F08A8A8A988A908A928A94A0
:106F8C0000D0C00E016E000E8BEC36F0C00E016E00
:106F9C00010E8BEC36F0400E016E000E8BEC36F0D1
:106FAC00400E016E010E8BEC36F0B80E016E000E29
:106FBC008BEC36F0B80E016E010E8BEC36F006043D
:106FCC00D8A4EBEF37F0EDEF37F0F9EF37F03F0ED9
:106FDC00016E000E8BEC36F03F0E016E010E8BEC49
:106FEC0036F005EF38F03E0E016E000E8BEC36F0ED
:106FFC003E0E016E010E8BEC36F005EF38F0000EF4
:10700C0009EC38F01200036E000E056E070E0564D5
:10701C0012EF38F014EF38F018EF38F064EF38F066
:10702C0064EF38F08A94400E016E000E8BEC36F053
:10703C00400E016E010E8BEC36F00550B809016E56
:10704C00000E8BEC36F00550B809016E010E8BEC7E
:10705C0036F08A84000E046E3F0E046438EF38F06C
:10706C003AEF38F03EEF38F059EF38F059EF38F08E
:10707C000350010DF3500008016E000E8BEC36F03E
:10708C000350010DF3500008016E010E8BEC36F02D
:10709C00042A3F0E046455EF38F057EF38F03EEFFA
:1070AC0038F059EF38F0052A070E056460EF38F018
:1070BC0062EF38F018EF38F064EF38F01200086E19
:1070CC00000E0B6E0A0E0818D8A46FEF38F071EF93
:1070DC0038F078EF38F0000E286E272AFAEF38F0E7
:1070EC00FAEF38F03F0E28647EEF38F080EF38F07E
:1070FC0087EF38F0010E0B6E2850C00F096E8BEF26
:10710C0038F028C009F08BEF38F00850080DF3CF99
:10711C0006F0F4CF07F0000E0A6E070E0A6499EF22
:10712C0038F09BEF38F09FEF38F0F8EF38F0F8EFCD
:10713C0038F03F0E0964A5EF38F0A7EF38F0BBEF3D
:10714C0038F0400E095E010E0B6E8A94095040090E
:10715C00016E0B508BEC36F02750B809016E0B50BA
:10716C008BEC36F08A84BBEF38F00350D8B4C1EF07
:10717C0038F0C3EF38F0D7EF38F00A500624046E1D
:10718C00000E0720056E3B0E0424F66E730E0520D0
:10719C00F76E0800F5CF01F00B508BEC36F0ECEFEE
:1071AC0038F00A500624046E000E0720056E3B0EC4
:1071BC000424F66E730E0520F76E0800F550FF0AD6
:1071CC00016E0B508BEC36F0ECEF38F0092A0A2AE2
:1071DC00070E0A64F4EF38F0F6EF38F09FEF38F052
:1071EC00F8EF38F0080E28261200076E000E096E14
:1071FC000A0E0718D8A405EF39F007EF39F00EEF97
:10720C0039F0000E286E272A9CEF39F09CEF39F0EC
:10721C003F0E286414EF39F016EF39F01DEF39F0FA
:10722C00010E096E2850C00F066E21EF39F028C0F0
:10723C0006F021EF39F0200E075E000E086E020EEC
:10724C0008642BEF39F02DEF39F031EF39F09AEF6C
:10725C0039F09AEF39F03F0E066437EF39F039EF19
:10726C0039F04DEF39F0400E065E010E096E8A942E
:10727C0006504009016E09508BEC36F02750B809C6
:10728C00016E09508BEC36F08A844DEF39F00350C7
:10729C00D8B453EF39F055EF39F071EF39F007509E
:1072AC00030D3B0E046E7F0E056EF3500426F45056
:1072BC0005220850010DF3500426F450052204C099
:1072CC00F6FF05C0F7FF0800F5CF01F009508BEC75
:1072DC0036F08EEF39F00750030D3B0E046E7F0E27
:1072EC00056EF3500426F45005220850010DF3509E
:1072FC000426F450052204C0F6FF05C0F7FF080071
:10730C00F550FF0A016E09508BEC36F08EEF39F018
:10731C00062A082A020E086496EF39F098EF39F025
:10732C0031EF39F09AEF39F0050E282612000000E3
:10733C000000000000000000000000000000000041
:10734C000000000000000000000000000000000031
:10735C000000000000000000000000000000000021
:10736C000000000000000000000000000000000011
:10737C000000000000000000000000000000000001
:10738C0000000000000000000000000000000000F1
:10739C0000000000000000000000000000000000E1
:1073AC0000000000000000000000000000000000D1
:1073BC0000000000000000000000000000000000C1
:1073CC0000000000000000000000000000000000B1
:1073DC0000000000000000000000000000000000A1
:1073EC000000000000000000000000000000000091
:1073FC000000000000000000000000000000000081
:10740C000000000000000000000000000000000070
:10741C000000000000000000000000000000000060
:10742C000000000000000000000000000000000050
:10743C000000000000000000065F5F060000000076
:10744C0007070007070000147F7F147F7F140024B8
:10745C002E6B6B3A120000466630180C66620030D8
:10746C007A4F5D377A4800040703000000000000E3
:10747C001C3E63410000000041633E1C00000008FC
:10748C002A3E1C1C3E2A0808083E3E080800000044
:10749C0080E06000000000080808080808000000F0
:1074AC00006060000000006030180C060301003E14
:1074BC007F71594D7F3E0040427F7F40400000620B
:1074CC007359496F660000226349497F36000018E2
:1074DC001C16537F7F5000276745457D3900003CC3
:1074EC007E4B4979300000030371790F0700003699
:1074FC007F49497F360000064F49693F1E00000056
:10750C00006666000000000080E6660000000008CF
:10751C001C36634100000024242424242400000091
:10752C004163361C080000020351590F0600003E4F
:10753C007F415D5D1F1E007C7E13137E7C0000412D
:10754C007F7F49497F36001C3E63414163220041E5
:10755C007F7F41633E1C00417F7F495D4163004159
:10756C007F7F491D0103001C3E6341517372007FF4
:10757C007F08087F7F000000417F7F4100000030C2
:10758C007040417F3F0100417F7F081C77630041C1
:10759C007F7F41406070007F7F0E1C0E7F7F007FDD
:1075AC007F060C187F7F001C3E6341633E1C00412C
:1075BC007F7F49090F06001E3F21717F5E0000414D
:1075CC007F7F09197F6600266F4D597332000003C7
:1075DC00417F7F410300007F7F40407F7F00001F81
:1075EC003F60603F1F00007F7F3018307F7F00437B
:1075FC00673C183C674300074F78784F07000047FB
:10760C006371594D677300007F7F41410000000199
:10761C0003060C183060000041417F7F0000000819
:10762C000C0603060C08008080808080808080001F
:10763C0000030704000000207454543C78400041BF
:10764C007F3F4848783000387C44446C2800003038
:10765C007848493F7F4000387C54545C18000048FF
:10766C007E7F490302000098BCA4A4F87C0400416E
:10767C007F7F08047C780000447D7D400000006022
:10768C00E08080FD7D0000417F7F10386C4400005D
:10769C00417F7F400000007C7C18381C7C78007C8B
:1076AC007C04047C780000387C44447C38000084E2
:1076BC00FCF8A4243C1800183C24A4F8FC840044D6
:1076CC007C784C041C1800485C5454742400000052
:1076DC00043E7F442400003C7C40403C7C40001C29
:1076EC003C60603C1C00003C7C7038707C3C00446E
:1076FC006C3810386C44009CBCA0A0FC7C00004C86
:10770C0064745C4C64000008083E77414100000042
:10771C00000077770000004141773E080800000226
:10772C000301030203010070784C464C7870000E84
:10773C009F91B1FB4A00003A7A40407A7A40003877
:10774C007C54555D19000002237555557D7B4221F3
:10775C007554547D794000217555547C7840002037
:10776C007457577C784000183CA4A4E440000002F5
:10777C003B7D55555D1B02397D54545D1900003914
:10778C007D55545C18000001457C7C4101000002D1
:10779C0003457D7D43020001457D7C40000000795E
:1077AC007D1612167D790070782B2B7870000044B2
:1077BC007C7C5555450000207454547C7C54547C7E
:1077CC007E0B097F7F4900327B49497B32000032B6
:1077DC007A48487A320000327A4A48783000003AC7
:1077EC007B41417B7A40003A7A4240787840009A5B
:1077FC00BAA0A0FA7A000001193C66663C19013D5A
:10780C007D40407D3D0000183C24E7E724240068BF
:10781C007E7F49436620002B2FFCFC2F2B0000FFA2
:10782C00FF09092FF6F8A040C088FE7F090302204B
:10783C007454557D79400000447D7D41000000303A
:10784C0078484A7A320000387840427A7A40007A96
:10785C007A0A0A7A7000007D7D19317D7D00000066
:10786C00262F292F2F280000262F292F2600003005
:10787C00784D4560200000383808080808000008DA
:10788C00080808383800004F6F3018CCEEBB914F09
:10789C006F30186C76FBF90000007B7B0000000851
:1078AC001C3622081C362222361C0822361C08AA3A
:1078BC00005500AA005500AA55AA55AA55AA55DD8F
:1078CC00FFAA77DDAAFF77000000FFFF0000001081
:1078DC001010FFFF000000141414FFFF0000001034
:1078EC0010FFFF00FFFF001010F0F010F0F000147C
:1078FC001414FCFC0000001414F7F700FFFF000048
:10790C0000FFFF00FFFF001414F4F404FCFC00144F
:10791C00141717101F1F0010101F1F101F1F00140B
:10792C0014141F1F000000101010F0F000000000D5
:10793C0000001F1F1010101010101F1F101010101F
:10794C001010F0F0101010000000FFFF10101010BD
:10795C0010101010101010101010FFFF101010004D
:10796C000000FFFF1414140000FFFF00FFFF1000C5
:10797C00001F1F101717140000FCFC04F4F414145F
:10798C00141717101717141414F4F404F4F4140047
:10799C0000FFFF00F7F71414141414141414141427
:1079AC0014F7F700F7F71414141417171414141011
:1079BC00101F1F101F1F10141414F4F4141414109F
:1079CC0010F0F010F0F01000001F1F101F1F10001F
:1079DC0000001F1F141414000000FCFC14141400ED
:1079EC0000F0F010F0F0101010FFFF10FFFF10145B
:1079FC001414FFFF1414141010101F1F00000000AB
:107A0C000000F0F0101010FFFFFFFFFFFFFFFFF072
:107A1C00F0F0F0F0F0F0F0FFFFFFFF0000000000CE
:107A2C00000000FFFFFFFF0F0F0F0F0F0F0F0F389E
:107A3C007C446C386C4400FCFE2A2A3E1400007E08
:107A4C007E020206060000027E7E027E7E0200633B
:107A5C00775D4963630000387C447C3C04040080FF
:107A6C00FE7E20203E1E000406027E7C060200994B
:107A7C00BDE7E7BD9900001C3E6B496B3E1C004CFA
:107A8C007E7301737E4C0030784A4F7D39000018AC
:107A9C003C243C3C243C1898FC643C3E273D18009C
:107AAC0000000000000000000000000000000000CA
:107ABC0000000000000000000000000000000000BA
:107ACC0000000000000000000000000000000000AA
:107ADC00000000000000000000000000000000009A
:107AEC00000000000000000000000000000000008A
:107AFC00000000000000000000000000000000007A
:107B0C000000000000000000000000000000000069
:107B1C000000000000000000000000000000000059
:107B2C000000000000000000000000000000000049
:107B3C000000000000000080808080000000000039
:107B4C000000000000000000000000800000800029
:107B5C000080000000000000000000000000000099
:107B6C000000000000000000000000000000000009
:107B7C0000000000000000000000000000000000F9
:107B8C0000000000000000000000000000000000E9
:107B9C0000000000000000000000000000000000D9
:107BAC0000000000000000000000000000000000C9
:107BBC0000000000003E4180808080413E0000D8E3
:107BCC0094A46C00007884844C0088FC8081FF8035
:107BDC0081FF800078848484780000D894A46C00A1
:107BEC00007884844C000078848484780008FC48F5
:107BFC008484780000789494580000000000D89495
:107C0C00A46C00041C6480740C0400D894A46C0054
:107C1C0004FF844000789494580088FC8804FC8805
:107C2C0004F88000000000000000000000000000CC
:107C3C000000000000000000000000000000000038
:107C4C000000000000000000000000000000000028
:107C5C000000000000000000000000000000000018
:107C6C0000000000000000000000000000040704F9
:107C7C0000000000000000000000000000000000F8
:107C8C0000000004040601000000000000000000D9
:107C9C0000000000000000000000000000000000D8
:107CAC0000000000000000000000000000000000C8
:107CBC0000000000000000000000000000000000B8
:107CCC0000000000000000000000000000000000A8
:107CDC000000000000000000000000000000008018
:107CEC00F0F8181C0E0E1C1878F0C0800000000074
:107CFC000000000000000000000000000080F0F810
:107D0C00181C0C0E0E1C18F8F0800000000000006F
:107D1C000000000000000000000000000000000057
:107D2C000000000000000000000000000000000047
:107D3C000000000000000000000000000000000037
:107D4C000000000000000000000000000000000027
:107D5C000000000000000000000000000000F8FF20
:107D6C000F0000000000000000000FFFF8000000F2
:107D7C00000000000000000000000000F8FF0F00F1
:107D8C0000000000000000000FFFF80000000000E1
:107D9C0000000000000000000000000000000000D7
:107DAC0000000000000000000000000000000000C7
:107DBC0000000000000000000000000000000000B7
:107DCC00000000000000000800080008001CFCF87F
:107DDC00800800080008000800080008E0FF3F09C0
:107DEC000008000800080008000800093FFFE00830
:107DFC0000080008000800080008E0FF3F09000820
:107E0C00000800080008000800090F0F000800080F
:107E1C00000800000000000000000000000000004E
:107E2C000000000000000000000000000000000046
:107E3C000000000000000000000000000000000036
:107E4C00000000000000000000000000000000071F
:107E5C003FFCE000000000000080C0FC7F07000039
:107E6C0000000000000000000000000000073FFCC4
:107E7C00E000000000000000C0FC7F0700000000D4
:107E8C0000000000000000000000000000000000E6
:107E9C0000000000000000000000000000000000D6
:107EAC0000000000000000000000000000000000C6
:107EBC0000000000000000000000000000000000B6
:107ECC0000000000000000000000000000000000A6
:107EDC000001070F1C18181C0F0701000000000000
:107EEC000000000000000000000000000000000185
:107EFC00070F1C18181C0C0F0701000000000000D5
:107F0C000000000000000000000000000000000065
:107F1C000000000000000000000000000000000055
:107F2C000000000000000000000000000000000045
:107F3C000000005C000C000C7C287C7C447C241031
:107F4C0048285408000C003844004438002010081D
:107F5C00103810804000101010004000201008381D
:107F6C004438007C006454484454281C107C4C5405
:107F7C002438542004740C28542808543800500019
:107F8C00805000102844282828442810045408380D
:107F9C004C5C7814787C54283844447C44387C54A9
:107FAC00447C14043844347C107C007C0020403C1D
:107FBC007C106C7C40407C087C7C047C7C447C7C0D
:107FCC0014083844787C1468485424047C047C409D
:107FDC007C3C403C7C207C6C106C1C601C64544CC5
:107FEC007C4400081020447C000804088080800435
:037FFC000800007A
:020000040020DA
:08000000FFFFFFFFFFFFFFFF00
:020000040030CA
:0E00000000051F1FFF8385FF0FC00FE00F409C
:00000001FF
