:020000040000FA
:0400000007EF00F016
:100008005782CFED0DF064EF0BF0000E90EC13F07B
:10001800000E116E000E46EC16F0D4EC10F0FF0E38
:100028002E6E2D68000E306E010E2F6EDBEC0AF07E
:1000380033EC15F0000E0001F06F000EEF6F000EAC
:10004800EA6F000EE96F000EEE6F000EED6FB5EF70
:1000580001F0ED51EE11D8A434EF00F036EF00F0C6
:10006800B3EF00F082A03BEF00F03DEF00F068EF47
:1000780000F0000EEE6F010EED6FEFC02DF0F0C036
:100088002EF0000E306E000E2F6EDBEC0AF0000131
:10009800EF07D8A0F007F0BF56EF00F054EF00F0DC
:1000A8005CEF00F0000EF06F070EEF6F5CEF00F0F2
:1000B800EFC02DF0F0C02EF0000E306E010E2F6E46
:1000C800DBEC0AF0B3EF00F082A46DEF00F06FEF05
:1000D80000F0A0EF00F0000EEE6F010EED6FEFC024
:1000E8002DF0F0C02EF0000E306E000E2F6EDBECFF
:1000F8000AF00001EF4BF02BF0BF8CEF00F0F0514D
:1001080009E1080EEF5DD8A08CEF00F08EEF00F04B
:1001180094EF00F0000EF06F000EEF6F94EF00F018
:10012800EFC02DF0F0C02EF0000E306E010E2F6ED5
:10013800DBEC0AF0B3EF00F082A2A5EF00F0A7EF26
:1001480000F0B3EF00F0000EEE6F020EED6FB3EFAC
:1001580000F0B3EF00F0B3EF00F0B3EF00F082B0BF
:10016800B8EF00F0BAEF00F0FCEF00F082B2BFEF9A
:1001780000F0C1EF00F0FCEF00F082B4C6EF00F031
:10018800C8EF00F0FCEF00F00001ED51EE11D8B41B
:10019800D0EF00F0D2EF00F0FCEF00F0020EED1906
:1001A800EE11D8A4DAEF00F0DCEF00F0F5EF00F084
:1001B800EFC048F0F0C049F0A6EC11F0000E116E47
:1001C800000E46EC16F0D4EC10F0EFC02DF0F0C0A5
:1001D8002EF0000E306E010E2F6EDBEC0AF0F5EFFC
:1001E80000F0000E0001EE6F000EED6FFCEF00F066
:1001F8000001D705D8A403EF01F005EF01F052EF95
:1002080001F0E8EC0BF00001EB4BEC2B1E0EEB19A8
:10021800EC11D8A412EF01F014EF01F070EF01F027
:10022800000EEC6F000EEB6F000ED76F7E0E186E8F
:10023800010E196E000E1B6E580E1A6E000E1D6E02
:10024800140E1C6E000E1F6E060E1E6E000E216E22
:10025800060E206E000E236E000E226E48EC0AF089
:10026800B20E186E000E196E000E1B6E5F0E1A6E1F
:10027800000E1D6E120E1C6E000E1F6E040E1E6EFA
:10028800000E216E040E206E000E236E000E226EEC
:1002980048EC0AF070EF01F070EF01F0320E000147
:1002A800D36159EF01F05BEF01F05FEF01F095ECDE
:1002B80014F070EF01F00001D705D8B466EF01F033
:1002C80068EF01F070EF01F033EC15F070EF01F01A
:1002D80070EF01F070EF01F0330E0001D86177EF95
:1002E80001F079EF01F07DEF01F07EEC16F0B5EF4B
:1002F80001F0000E186E020E196E000E1B6E1E0E17
:100308001A6E000E1D6E250E1C6E000E1F6E090E55
:100318001E6E000E216E0E0E206E000E236E000E55
:10032800226E48EC0AF0820E186E000E196E000E4E
:100338001B6E200E1A6E000E1D6E200E1C6E000E17
:100348001F6E040E1E6E000E216E060E206E000E2D
:10035800236E000E226E48EC0AF0B5EF01F0B5EFFF
:1003680001F00001D605D8B4BCEF01F0BEEF01F0F2
:100378002DEF00F0C0EF01F0000E90EC13F0000E2E
:10038800116E000E46EC16F0FB0E1A6E7F0E1B6EF9
:10039800010E1C6E010E1D6EECEC13F0E4EC14F073
:1003A8001200000E476E000E466E000E476E000EDD
:1003B800466E17EF03F0DB0E3A6E000E3B6ED890D8
:1003C8004634D96E4734DA6ED890D936DA363A5090
:1003D800D9263B50DA22DF503C6E3D6A0001D951E4
:1003E80062253E6E000E63213F6E3C503E5C3F50DE
:1003F800800A406E3D50800A4058D8A006EF02F0AF
:1004080008EF02F013EF03F0D95162253A6E000E9F
:1004180063213B6EDB0E3C6E000E3D6ED890463479
:10042800D96E4734DA6ED890D936DA363C50D926A8
:100438003D50DA22DF503E6E3F6A46C040F047C06A
:1004480041F0D89040364136D89040364136030EB8
:100458004026000E4122DB0E4024D96E000E4120BA
:10046800DA6EDF50426E42503E26000E3F223A506E
:100478003E5C3F50800A436E3B50800A4358D8A0E8
:1004880048EF02F04AEF02F013EF03F046C03AF0EB
:1004980047C03BF0D8903A363B36D8903A363B3690
:1004A800010E3A26000E3B22DB0E3A24D96E000ECE
:1004B8003B20DA6EDF503C6E3D6ADA5160253E6EB5
:1004C800000E61213F6E3C503E5C3F50800A406EFA
:1004D8003D50800A4058D8A074EF02F076EF02F041
:1004E80013EF03F0DA5160253A6E000E61213B6E7E
:1004F80046C03CF047C03DF0D8903C363D36D890D9
:100508003C363D36010E3C26000E3D22DB0E3C24D7
:10051800D96E000E3D20DA6EDF503E6E3F6A46C04F
:1005280040F047C041F0D89040364136D890403628
:100538004136020E4026000E4122DB0E4024D96EC1
:10054800000E4120DA6EDF50426E42503E26000E09
:100558003F223A503E5C3F50800A436E3B50800A2F
:100568004358D8A0BAEF02F0BCEF02F013EF03F043
:10057800000EE46F010EE36FFF0E5324536EFF0E5F
:100588005420546E53C015F054C016F0500E176E18
:10059800000E186E69EC10F0000E116E640E46EC39
:1005A80016F0500E1A6E000E1B6E010E1C6E010E18
:1005B8001D6EECEC13F0500E076E000E086E000E68
:1005C8000A6E000E096E000E0C6E030E0B6E6BECBD
:1005D80007F0000E0001D96F000EDA6F000E186EDA
:1005E800010E196E000E1B6E1E0E1A6E000E1D6E89
:1005F800280E1C6E000E1F6E090E1E6E000E216E58
:100608000E0E206E000E236E000E226E48EC0AF0CD
:10061800000E116E640E46EC16F013EF03F0464A16
:10062800472A17EF03F05550465C4750800A3A6E48
:100638005650800A3A58D8A024EF03F026EF03F06A
:10064800DFEF01F028EF03F00001E305E411D8A47F
:1006580030EF03F032EF03F08CEF03F0000E456E3D
:10066800000E446E1E0ED96F000EDA6F79EF03F09C
:100678000DEC12F00DEC12F00DEC12F0000E186EED
:10068800010E196ED9C01AF01B6ADAC01CF01D6A77
:10069800000E1F6E090E1E6E000E216E0E0E206ECD
:1006A800000E236E000E226E48EC0AF00A0E0001BE
:1006B800DA27000E186E010E196ED9C01AF01B6ADF
:1006C800DAC01CF01D6A000E1F6E090E1E6E000EA9
:1006D800216E0E0E206E000E236E010E226E48EC67
:1006E8000AF0444A452A79EF03F0040E44184510ED
:1006F800D8A481EF03F083EF03F03CEF03F085EF1C
:1007080003F0000E0001E46F000EE36F8CEF03F0BE
:1007180012000000000000000000000000000000BF
:1007280000000000000000000000000000000000C1
:1007380000000000000000000000000000000000B1
:1007480000000000000000000000000000000000A1
:100758000000000000000000000000000000000091
:100768000000000000000000000000000000000081
:100778000000000000000000000000000000000071
:100788000000000000000000000000000000000061
:100798000000000000000000000000000000000051
:1007A8000000000000000000000000000000000041
:1007B8000000000000000000000000000000000031
:1007C8000000000000000000000000000000000021
:1007D8000000000000000000000000000000000011
:1007E8000000000000000000000000000000000001
:1007F80000000000000000000000000000000000F1
:1008080000000000000000000000000000000000E0
:1008180000000000010000010101010000000100CA
:1008280000000000000000010101010101010101B7
:1008380001010101010101000000000000000000A9
:10084800010101000000000001000000000000009C
:10085800000000000000000001000000000000008F
:10086800000000000100000000010000000000007E
:100878000000000000000000000000000000000070
:10088800000000000000010000010101000000005C
:100898000000000000000000000000000000000050
:1008A800000000000000000001000100000000003E
:1008B8000000000000000000000000000000000030
:1008C800000000000000000000000100010000001E
:1008D8000000000000000000000000000000000010
:1008E80000000000000000000000000001000100FE
:1008F80000000000000000000000000000000000F0
:1009080000000000000000000000000000000100DE
:1009180001010100000000000000000000000000CC
:1009280000000000000000000000000000000000BF
:1009380001000000000100000000010100000000AB
:10094800000000000000000000000000000000009F
:10095800000001000000000100000000000001018B
:10096800000000000000000000000000000000007F
:10097800000000010000000000010000000000006D
:100988000001010101010000000000000000000159
:100998000101010101000000000000010000000049
:1009A800000000000000000001000000000000003E
:1009B800000000000001000000000000000100002D
:1009C800000000000000000000000100000001001D
:1009D800000000000000000100000000000000010D
:1009E80000000000000000000000000001000000FE
:1009F80001000000000000000001000000000000ED
:100A080000010101010101010101010101010101CF
:100A180001010101010101010101010100000000C2
:100A2800000E90EC13F0000E116E000E46EC16F05E
:100A3800C00E1A6E7F0E1B6E010E1C6E010E1D6E0F
:100A4800ECEC13F0000E116E320E46EC16F0930E1D
:100A58001A6E7F0E1B6E010E1C6E010E1D6EECECE5
:100A680013F0000E1F6E000E1E6E3BEF05F0020E17
:100A7800116E000E46EC16F0D90E1A6E7F0E1B6E24
:100A8800010E1C6E010E1D6EECEC13F0020E116EC1
:100A9800320E46EC16F0D3C015F0166A500E176EDB
:100AA800000E186E69EC10F0500E1A6E000E1B6ED8
:100AB800010E1C6E010E1D6EECEC13F0500E076E4D
:100AC800000E086E000E0A6E000E096E000E0C6E07
:100AD800030E0B6E6BEC07F0030E116E000E46EC66
:100AE80016F08A0E1A6E7F0E1B6E010E1C6E010E1A
:100AF8001D6EECEC13F0030E116E410E46EC16F071
:100B0800D4C015F0166A500E176E000E186E69ECF8
:100B180010F0500E1A6E000E1B6E010E1C6E010EA8
:100B28001D6EECEC13F0500E076E000E086E000EF2
:100B38000A6E000E096E000E0C6E030E0B6E6BEC47
:100B480007F0040E116E000E46EC16F0B90E1A6E80
:100B58007F0E1B6E010E1C6E010E1D6EECEC13F069
:100B6800040E116E370E46EC16F0D5C015F0166A55
:100B7800500E176E000E186E69EC10F0500E1A6EBB
:100B8800000E1B6E010E1C6E010E1D6EECEC13F0B8
:100B9800500E076E000E086E000E0A6E000E096EEB
:100BA800000E0C6E030E0B6E6BEC07F0050E116E4B
:100BB800000E46EC16F09C0E1A6E7F0E1B6E010E90
:100BC8001C6E010E1D6EECEC13F0050E116E3C0E42
:100BD80046EC16F0D8C015F0166A500E176E000EC7
:100BE800186E69EC10F0500E1A6E000E1B6E010E96
:100BF8001C6E010E1D6EECEC13F0500E076E000E0D
:100C0800086E000E0A6E000E096E000E0C6E030EC2
:100C18000B6E6BEC07F0060E116E000E46EC16F02C
:100C2800EE0E1A6E7F0E1B6E010E1C6E010E1D6EEF
:100C3800ECEC13F0060E116E1E0E46EC16F0D2C048
:100C480015F0166A500E176E000E186E69EC10F04B
:100C5800500E1A6E000E1B6E010E1C6E010E1D6EDC
:100C6800ECEC13F0500E076E000E086E000E0A6EC4
:100C7800000E096E000E0C6E030E0B6E6BEC07F087
:100C880082A249EF06F04BEF06F051EF06F0000E96
:100C98001F6E010E1E6E51EF06F01E041F10D8B411
:100CA80058EF06F05AEF06F065EF06F082A25FEF04
:100CB80006F061EF06F03BEF05F065EF06F065EF33
:100CC80006F0000E90EC13F012009D90000E90ECD0
:100CD80013F0CBEC15F01E0E0001D96F280EDA6F59
:100CE800000E186E010E196ED9C01AF01B6ADAC010
:100CF8001CF01D6A000E1F6E090E1E6E000E216E7E
:100D08000E0E206E000E236E010E226E48EC0AF0C5
:100D18008EEF06F00DEC12F0D5EC01F082A297EF01
:100D280006F099EF06F09DEF06F04AEC08F09DEF0B
:100D380006F053C015F054C016F0500E176E000E92
:100D4800186E69EC10F0000E116E640E46EC16F089
:100D5800500E1A6E000E1B6E010E1C6E010E1D6EDB
:100D6800ECEC13F054BEC4EF06F0545007E1060E45
:100D7800535CD8B0C2EF06F0C4EF06F0D5EF06F02A
:100D880054BED1EF06F0545006E15304D8B0CFEF6B
:100D980006F0D1EF06F08EEF06F0D5EF06F0D5EFAE
:100DA80006F053505410D8A4DCEF06F0DEEF06F03E
:100DB8001FEF07F0E0EF06F0000E116E000E46EC94
:100DC80016F0E40E1A6E7F0E1B6E010E1C6E010EDD
:100DD8001D6EECEC13F0040E116E000E46EC16F0CE
:100DE800A40E1A6E7F0E1B6E010E1C6E010E1D6E78
:100DF800ECEC13F0060E116E000E46EC16F0DF0E4A
:100E08001A6E7F0E1B6E010E1C6E010E1D6EECEC31
:100E180013F082A012EF07F014EF07F0E0EF06F0EE
:100E2800000E546E030E536E9D801FEF07F0E0EF27
:100E380006F01FEF07F0060E53185410D8A427EF3A
:100E480007F029EF07F06AEF07F02BEF07F0000E25
:100E5800116E000E46EC16F0F30E1A6E7F0E1B6E26
:100E6800010E1C6E010E1D6EECEC13F0040E116EDB
:100E7800000E46EC16F0A40E1A6E7F0E1B6E010EC5
:100E88001C6E010E1D6EECEC13F0060E116E000EBA
:100E980046EC16F0DF0E1A6E7F0E1B6E010E1C6EEE
:100EA800010E1D6EECEC13F082A05DEF07F05FEF12
:100EB80007F02BEF07F0000E546E030E536E9D8063
:100EC8006AEF07F02BEF07F06AEF07F0120007C090
:100ED80013F008C014F00B500C10D8A476EF07F0EC
:100EE80078EF07F07CEF07F049EF08F049EF08F0DA
:100EF80013C0D9FF14C0DAFF09C0DFFFFF0E0D6E63
:100F0800FF0E0E6E0BC00FF00CC010F00D500F2628
:100F18000E5010220F501324D96E10501420DA6E80
:100F280009C0DFFF0C5007E1030E0B5CD8B09FEF40
:100F380007F0A1EF07F0A5EF07F049EF08F049EF38
:100F480008F020EE01F01350D9261450DA2209C017
:100F5800DFFF20EE02F01350D9261450DA2209C020
:100F6800DFFFFE0E0D6EFF0E0E6E0BC00FF00CC0F5
:100F780010F00D500F260E5010220F501324D96E6A
:100F880010501420DA6E09C0DFFFFD0E0D6EFF0E43
:100F98000E6E0BC00FF00CC010F00D500F260E5047
:100FA80010220F501324D96E10501420DA6E09C085
:100FB800DFFF0C5007E1070E0B5CD8B0E6EF07F037
:100FC800E8EF07F0ECEF07F049EF08F049EF08F019
:100FD80020EE03F01350D9261450DA2209C0DFFF9F
:100FE800FC0E0D6EFF0E0E6E0BC00FF00CC010F055
:100FF8000D500F260E5010220F501324D96E10508A
:101008001420DA6E09C0DFFF0C5007E1090E0B5CF3
:10101800D8B011EF08F013EF08F017EF08F049EF18
:1010280008F049EF08F013C00DF014C00EF00D1EC3
:101038000E1E0D4A0E2A030E0D14116E126A11505F
:1010480013261250142211500B5E12500C5AFC0E2B
:101058000B16FF0E0C163EEF08F013C0D9FF14C094
:10106800DAFF09C0DFFF0B06D8A00C06134A142AC2
:101078003EEF08F00B500C10D8A445EF08F047EFEE
:1010880008F031EF08F049EF08F01200000E3D6E4D
:10109800000E3C6E000E3B6E000E3A6E010E53249D
:1010A800536E000E5420546E000E116E640E46EC02
:1010B80016F053C015F054C016F0500E176E000EFF
:1010C800186E69EC10F0500E1A6E000E1B6E010EB1
:1010D8001C6E010E1D6EECEC13F0500E076E000E28
:1010E800086E000E0A6E000E096E000E0C6E030EDE
:1010F8000B6E6BEC07F0BAEF08F00DEC12F0000E77
:10110800186E010E196ED9C01AF01B6ADAC01CF0ED
:101118001D6A000E1F6E090E1E6E000E216E0E0E49
:10112800206E000E236E000E226E48EC0AF0040EAC
:101138000001DA5F000E186E010E196ED9C01AF0A0
:101148001B6ADAC01CF01D6A000E1F6E090E1E6EA7
:10115800000E216E0E0E206E000E236E010E226E02
:1011680048EC0AF03C4A3D2ABAEF08F0050E3C1854
:101178003D10D8A4C2EF08F0C4EF08F081EF08F0E2
:1011880003EF09F003EF09F00DEC12F0000E186EF2
:10119800010E196ED9C01AF01B6ADAC01CF01D6A5C
:1011A800000E1F6E090E1E6E000E216E0E0E206EB2
:1011B800000E236E000E226E48EC0AF0040E0001A9
:1011C800DA27000E186E010E196ED9C01AF01B6AC4
:1011D800DAC01CF01D6A000E1F6E090E1E6E000E8E
:1011E800216E0E0E206E000E236E010E226E48EC4C
:1011F8000AF00DEC12F03C4A3D2A03EF09F00A0E02
:101208003C183D10D8A40BEF09F00DEF09F0C8EF1A
:1012180008F00FEF09F01200156E000E176E0A0E97
:101228001518D8A41AEF09F01CEF09F023EF09F0FC
:10123800000E4F6E4E2AB1EF09F0B1EF09F03F0EE4
:101248004F6429EF09F02BEF09F032EF09F0010E96
:10125800176E4F50C00F146E36EF09F04FC014F0E0
:1012680036EF09F0200E155E000E166E020E16649B
:1012780040EF09F042EF09F046EF09F0AFEF09F04F
:10128800AFEF09F03F0E14644CEF09F04EEF09F090
:1012980062EF09F0400E145E010E176E8A94145026
:1012A80040090F6E1750DCEC16F04E50B8090F6E5F
:1012B8001750DCEC16F08A8462EF09F01150D8B4AC
:1012C80068EF09F06AEF09F086EF09F01550030D91
:1012D800BF0E126E7E0E136EF3501226F4501322B8
:1012E8001650010DF3501226F450132212C0F6FFC7
:1012F80013C0F7FF0800F5CF0FF01750DCEC16F01D
:10130800A3EF09F01550030DBF0E126E7E0E136E7B
:10131800F3501226F45013221650010DF3501226E2
:10132800F450132212C0F6FF13C0F7FF0800F5505F
:10133800FF0A0F6E1750DCEC16F0A3EF09F0142A21
:10134800162A020E1664ABEF09F0ADEF09F046EF6E
:1013580009F0AFEF09F0050E4F261200146E000ECB
:10136800196E0A0E1418D8A4BCEF09F0BEEF09F0E4
:10137800C5EF09F0000E4F6E4E2A47EF0AF047EF0F
:101388000AF03F0E4F64CBEF09F0CDEF09F0D4EF30
:1013980009F0010E196E4F50C00F176ED8EF09F003
:1013A8004FC017F0D8EF09F01450080DF3CF15F01F
:1013B800F4CF16F0000E186E070E1864E6EF09F069
:1013C800E8EF09F0ECEF09F045EF0AF045EF0AF015
:1013D8003F0E1764F2EF09F0F4EF09F008EF0AF096
:1013E800400E175E010E196E8A94175040090F6E51
:1013F8001950DCEC16F04E50B8090F6E1950DCECA1
:1014080016F08A8408EF0AF01150D8B40EEF0AF0EB
:1014180010EF0AF024EF0AF018501524126E000E8F
:101428001620136EBF0E1224F66E720E1320F76E7E
:101438000800F5CF0FF01950DCEC16F039EF0AF080
:1014480018501524126E000E1620136EBF0E1224AB
:10145800F66E720E1320F76E0800F550FF0A0F6E35
:101468001950DCEC16F039EF0AF0172A182A070E83
:10147800186441EF0AF043EF0AF0ECEF09F045EF8A
:101488000AF0080E4F261200000E2A6E000E296E72
:10149800000E2C6E000E2B6E000E286E000E276EAE
:1014A8001CC029F01DC02AF0C3EF0AF01AC02BF0A7
:1014B8001BC02CF0A8EF0AF027501824D96E28502A
:1014C8001920DA6EDF50D8B46CEF0AF06EEF0AF02C
:1014D80080EF0AF022042310D8A475EF0AF077EF02
:1014E8000AF080EF0AF029C011F0010E126E2B509D
:1014F80024EC0FF0A2EF0AF027501824D96E2850D8
:101508001920DA6EDF50D8B48CEF0AF08EEF0AF0AB
:10151800A2EF0AF022502310D8A495EF0AF097EF13
:101528000AF0A2EF0AF029C011F0000E126E2B503B
:1015380024EC0FF0A2EF0AF0A2EF0AF0274A282ABB
:101548002B4A2C2AA8EF0AF020501A24246E215086
:101558001B20256E24502B5C2C50800A266E2550AB
:10156800800A2658D8A0BBEF0AF0BDEF0AF060EF5A
:101578000AF0BFEF0AF0294A2A2AC3EF0AF01E50E0
:101588001C24246E1F501D20256E2450295C2A50CF
:10159800800A266E2550800A2658D8A0D6EF0AF071
:1015A800D8EF0AF05AEF0AF0DAEF0AF012002D2805
:1015B80006E12E28D8A4E3EF0AF0E5EF0AF001EFE0
:1015C8000BF0640E186E000E196E000E1B6E0C0EDA
:1015D8001A6E000E1D6E0A0E1C6E000E1F6E030E94
:1015E8001E6E000E216E0A0E206E2FC022F030C033
:1015F80023F048EC0AF063EF0BF02EBE0FEF0BF070
:101608002E5007E1040E2D5CD8B00DEF0BF00FEF54
:101618000BF038EF0BF0640E186E000E196E2DC02B
:1016280031F02EC032F0050ED89031363236E82E21
:1016380018EF0BF00C0E31241A6E000E32201B6EC0
:10164800000E1D6E0A0E1C6E000E1F6E030E1E6E1F
:10165800000E216E0A0E206E2FC022F030C023F03B
:1016680048EC0AF063EF0BF0640E186E000E196E6A
:101678002DC031F02EC032F0050ED89031363236FA
:10168800E82E41EF0BF08C0E31241A6EFF0E32203B
:101698001B6E000E1D6E320E1C6E000E1F6E030EAA
:1016A8001E6E000E216E0A0E206E2FC022F030C072
:1016B80023F048EC0AF063EF0BF063EF0BF0120035
:1016C8001A0EF66E070EF76E000EF86E04EEEEF0C8
:1016D80013EE0EF00900F5CFEEFFE550E150FAE108
:1016E800E250F8E1C40EF66E190EF76E000EF86EB1
:1016F80004EE00F010EEEEF00900F5CFEEFFE55035
:10170800E150FAE1D60EF66E180EF76E000EF86E7E
:1017180003EE00F010EEEEF00900F5CFEEFFE55015
:10172800E150FAE18A0EF66E1C0EF76E000EF86EA6
:1017380002EE00F010EEE4F00900F5CFEEFFE55000
:10174800E150FAE1DE0EF66E240EF76E000EF86E2A
:1017580001EE00F010EEC2F00900F5CFEEFFE55003
:10176800E150FAE11A0EF66E2C0EF76E000EF86EC6
:1017780000EE60F010EE72F00900F5CFEEFFE550D4
:10178800E150FAE1200EF66E2F0EF76E000EF86E9D
:1017980000EE53F010EE04F00900F5CFEEFFE5502F
:1017A800E150FAE100EED2F0170EEE6AE806FDE12C
:1017B800526A516A506A4F6A4E6A57905792000EA1
:1017C800F86E000141EF14F0EE0E186E040E196E5B
:1017D800000E1B6E340E1A6E000E1D6E170E1C6E58
:1017E800000E1F6E180E1E6E000E216E220E206E49
:1017F800000E236E010E226E48EC0AF0000E186EE1
:10180800030E196E000E1B6E340E1A6E000E1D6E3E
:10181800170E1C6E000E1F6E070E1E6E000E216E38
:10182800220E206E000E236E010E226E48EC0AF086
:10183800C20E186E000E196E000E1B6E4B0E1A6E3D
:10184800000E1D6E230E1C6E000E1F6E020E1E6E05
:10185800000E216E080E206E000E236E010E226E01
:1018680048EC0AF07E0E186E010E196E000E1B6E03
:10187800580E1A6E000E1D6E140E1C6E000E1F6E92
:10188800060E1E6E000E216E060E206E000E236ED2
:10189800010E226E48EC0AF0B20E186E000E196E98
:1018A800000E1B6E5F0E1A6E000E1D6E120E1C6E61
:1018B800000E1F6E040E1E6E000E216E040E206EAA
:1018C800000E236E010E226E48EC0AF01200000092
:1018D8000000000000000000000000000000000000
:1018E80000010101010100000101010100000000E7
:1018F80000000000000000000000000000000000E0
:1019080000000001000000010000010000010000CB
:1019180000000000000000000000000000000000BF
:1019280000000000000101000001000001000001AA
:10193800000000000000000000000000000000009F
:10194800000000000000000001000001000001008C
:10195800000100000000000000000000000000007E
:10196800000000000000000000000100000100006D
:10197800010000010000000000000000000000005D
:10198800000000000000000000000000010000014D
:10199800000001000001000000000000000000003D
:1019A800000000000000000000000000000001002E
:1019B800000100000100000101000000000000001B
:1019C800000000000000000000000000000000000F
:1019D80000000000000000000000000000000000FF
:1019E80000000000000000000000000000000000EF
:1019F80000010101010100010101010100000000D5
:101A080000000000000000000000000000000000CE
:101A180000000001000000010001000000010000BA
:101A280000000000000000000000000000000000AE
:101A38000000000000010100000100010100000198
:101A4800000000000000000000000000000000008E
:101A5800000000000000000001000001000001007B
:101A6800000100000000000000000000000000006D
:101A7800000000000000000000000100000100005C
:101A8800010000010000000000000000000000004C
:101A9800000000000000000000000000010000013C
:101AA80000000100000101000000000E0C6E0ABEDB
:101AB80062EF0DF060EF0DF06AEF0DF0096C0A1E91
:101AC800D8B00A2A010E0C6E6AEF0DF008BE71EF4D
:101AD8000DF06FEF0DF079EF0DF0076C081ED8B020
:101AE800082A010E0C1A79EF0DF0000E0E6E000E8A
:101AF8000D6E09500A10D8B484EF0DF086EF0DF082
:101B0800BAEF0DF0010E0B6E90EF0DF0D89009367C
:101B18000A360B2A90EF0DF00AAE95EF0DF097EF0D
:101B28000DF08AEF0DF09BEF0DF09BEF0DF0D890C4
:101B38000D360E360950075C0A500858D8A0A7EF92
:101B48000DF0A9EF0DF0B0EF0DF00950075E0A5047
:101B5800085A0D80B0EF0DF0D8900A3209320B2EDA
:101B68009BEF0DF0BAEF0DF0BAEF0DF00C50D8B4B2
:101B7800C0EF0DF0C2EF0DF0C8EF0DF00D6C0E1EAA
:101B8800D8B00E2AC8EF0DF00DC007F00EC008F04F
:101B9800CEEF0DF0120006009EA0D5EF0DF0D7EFA6
:101BA8000DF0DEEF0DF00001E74BE82B9D809E90D5
:101BB800DEEF0DF0E7C001F0E8C002F0000E046EA1
:101BC800C80E036EFDEC0FF001500210D8A4EFEF21
:101BD8000DF0F1EF0DF002EF0EF0050E0001D35FEE
:101BE800D351D8A4FAEF0DF0FCEF0DF002EF0EF090
:101BF800000ED66F02EF0EF002EF0EF0E7C001F014
:101C0800E8C002F0000E046E960E036EFDEC0FF0B5
:101C180001500210D8A413EF0EF015EF0EF027EFC5
:101C28000EF00001D407D807D507D451D8A41FEF68
:101C38000EF021EF0EF027EF0EF0000ED66F27EF13
:101C48000EF027EF0EF0E7C001F0E8C002F0010E39
:101C5800046EF40E036EFDEC0FF001500210D8A4D0
:101C680038EF0EF03AEF0EF043EF0EF07DEC17F080
:101C7800000E0001E86F000EE76F43EF0EF0579279
:101C8800110000000000000000000000000000003B
:101C9800000000000000000100000000000000003B
:101CA8000000000001010100000000000000000029
:101CB8000001010101010000000000000000010115
:101CC8000101010101000000000000010100010103
:101CD80001000101000000000001010000010000F6
:101CE80001010000000001010101010101010101E0
:101CF80001000000010101010000000101010100D3
:101D080000000001000000000000000000000000CA
:101D180000000000000000010101000001010100B5
:101D280000000001010100000000000000000000A8
:101D38000000000000000000000101010000010196
:101D48000100000001000000000000000000000089
:101D58000000000000000000000000010101000078
:101D6800010101000000000E90EC13F0000E116E4E
:101D7800000E46EC16F0B20E1A6E7F0E1B6E010EA8
:101D88001C6E010E1D6EECEC13F0010E116E000EB0
:101D980046EC16F0D30E1A6E7F0E1B6E010E1C6EEB
:101DA800010E1D6EECEC13F0010E116E290E46ECBF
:101DB80016F0CD0E1A6E7F0E1B6E010E1C6E010EF4
:101DC8001D6EECEC13F0030E116E000E46EC16F0CF
:101DD800AB0E1A6E7F0E1B6E010E1C6E010E1D6E71
:101DE800ECEC13F0030E116E2F0E46EC16F0E90E14
:101DF8001A6E7F0E1B6E010E1C6E010E1D6EECEC32
:101E080013F0040E116E000E46EC16F0C70E1A6E93
:101E18007F0E1B6E010E1C6E010E1D6EECEC13F096
:101E2800050E116E000E46EC16F0F70E1A6E7F0EB8
:101E38001B6E010E1C6E010E1D6EECEC13F01200F1
:101E4800156E000E176E3F0E15642DEF0FF02FEF75
:101E58000FF035EF0FF0400E155E010E176E35EFDF
:101E68000FF08A94159E158C15C00FF01750DCECF6
:101E780016F011C007F0086A000E0A6E080E096E07
:101E880059EC0DF00750BF0BB8090F6E1750DCEC7A
:101E980016F08A841750FFEC16F01750FFEC16F076
:101EA800166E8A9415C00FF01750DCEC16F012501D
:101EB800D8B461EF0FF063EF0FF076EF0FF011C0B9
:101EC80013F0070E1316010E146E132A6EEF0FF09F
:101ED800D8901436132E6CEF0FF014501610166E9F
:101EE8008AEF0FF011C013F0070E1316010E146ECF
:101EF800132A81EF0FF0D8901436132E7FEF0FF0CE
:101F08001450FF0A1614166E8AEF0FF08A8416C052
:101F18000FF01750DCEC16F01200000E0C6E08BE25
:101F28009AEF0FF098EF0FF0A2EF0FF0076C081E72
:101F3800D8B0082A010E0C6EA2EF0FF00ABEA9EF66
:101F48000FF0A7EF0FF0AFEF0FF0096C0A1ED8B033
:101F58000A2AAFEF0FF009500A10D8B4B6EF0FF005
:101F6800B8EF0FF0E8EF0FF0010E0B6EC2EF0FF0B5
:101F7800D89009360A360B2AC2EF0FF00AAEC7EF1F
:101F88000FF0C9EF0FF0BCEF0FF0CDEF0FF0CDEF72
:101F98000FF00950075C0A500858D8A0D6EF0FF088
:101FA800D8EF0FF0DEEF0FF00950075E0A50085A1D
:101FB800DEEF0FF0D8900A3209320B2ECDEF0FF07A
:101FC800E8EF0FF0E8EF0FF00C50D8B4EEEF0FF099
:101FD800F0EF0FF0F6EF0FF0076C081ED8B0082AE4
:101FE800F6EF0FF007C007F008C008F0FCEF0FF09D
:101FF8001200000E066E02BE06EF10F004EF10F09D
:102008000EEF10F0016C021ED8B0022A010E066E07
:102018000EEF10F004BE15EF10F013EF10F01BEFE9
:1020280010F0036C041ED8B0042A1BEF10F0035004
:102038000410D8B422EF10F024EF10F054EF10F091
:10204800010E056E2EEF10F0D89003360436052ADF
:102058002EEF10F004AE33EF10F035EF10F028EF4C
:1020680010F039EF10F039EF10F00350015C045014
:102078000258D8A042EF10F044EF10F04AEF10F0E9
:102088000350015E0450025A4AEF10F0D89004320F
:102098000332052E39EF10F054EF10F054EF10F022
:1020A8000650D8B45AEF10F05CEF10F062EF10F061
:1020B800016C021ED8B0022A62EF10F001C001F0D4
:1020C80002C002F068EF10F0120015C019F016C037
:1020D8001AF01ABE74EF10F072EF10F07AEF10F0E9
:1020E800156C161ED8B0162A7AEF10F0000E1C6E6A
:1020F800000E1B6E80EF10F01B501724D96E1C5079
:102108001820DA6E15C007F016C008F0000E0A6E27
:102118000A0E096E91EC0FF00750300FDF6E1B4A64
:102128001C2A15C007F016C008F0000E0A6E0A0E29
:10213800096E59EC0DF007C015F008C016F016BE70
:10214800B0EF10F0165006E11504D8B0AEEF10F05D
:10215800B0EF10F080EF10F0B2EF10F01ABEB9EF48
:1021680010F0B7EF10F0C5EF10F01B501724D96E20
:102178001C501820DA6E2D0EDF6E1B4A1C2AC5EF84
:1021880010F01B501724D96E1C501820DA6E000E60
:10219800DF6E17C00DF018C00EF082EC15F01200BB
:1021A800000E126E000E116E000E146E070E1464EF
:1021B800E0EF10F0E2EF10F0E6EF10F03CEF11F076
:1021C8003CEF11F0000E156E010E1564EEEF10F0E5
:1021D800F0EF10F0F4EF10F033EF11F033EF11F0EF
:1021E8008A94400E0F6E1550DCEC16F01450B809A6
:1021F8000F6E1550DCEC16F08A84000E136E3F0E3D
:10220800136409EF11F00BEF11F00FEF11F028EF45
:1022180011F028EF11F0BF0E1124F66E7A0E12207D
:10222800F76E0800F5CF0FF01550DCEC16F0114AE8
:10223800122A132A3F0E136424EF11F026EF11F02F
:102248000FEF11F028EF11F0152A010E15642FEF8A
:1022580011F031EF11F0F4EF10F033EF11F0142A10
:10226800070E14643AEF11F03CEF11F0E6EF10F0AE
:102278008A908A921200156E9268000E806E0F0E78
:10228800C16E000E936E000E816E000E956E000EEC
:10229800836E000E836E8A9A310E146EB20EE82E8B
:1022A800FED7142EFCD700D08A8A8A988A908A9200
:1022B8008A94530EE82EFED700F0C00E0F6E000E63
:1022C800DCEC16F0C00E0F6E010EDCEC16F0400EC2
:1022D8000F6E000EDCEC16F0400E0F6E010EDCECFB
:1022E80016F0B80E0F6E000EDCEC16F0B80E0F6E7E
:1022F800010EDCEC16F01504D8A485EF11F087EF79
:1023080011F096EF11F0000E926E80683F0E0F6E7E
:10231800000EDCEC16F03F0E0F6E010EDCEC16F032
:10232800A2EF11F03E0E0F6E000EDCEC16F03E0E22
:102338000F6E010EDCEC16F0A2EF11F0000E90EC1F
:1023480013F0120082B2ABEF11F0ADEF11F0A6EF6F
:1023580011F0AFEF11F048504910D8A4B6EF11F0C2
:10236800B8EF11F0BCEF11F04AEC17F0BCEF11F028
:1023780048044910D8A4C3EF11F0C5EF11F0C9EF14
:1023880011F05CEC17F0C9EF11F0020E4818491073
:10239800D8A4D1EF11F0D3EF11F0D7EF11F06DEC15
:1023A80017F0D7EF11F0030E48184910D8A4DFEF43
:1023B80011F0E1EF11F0E5EF11F069EC06F0E5EF4F
:1023C80011F0040E48184910D8A4EDEF11F0EFEF02
:1023D80011F0F3EF11F08CEC17F0F3EF11F0070E9A
:1023E80048184910D8A4FBEF11F0FDEF11F003EFE6
:1023F80012F014EC05F003EF12F003EF12F082B2C2
:1024080008EF12F00AEF12F003EF12F00CEF12F0DF
:102418001200D0EC12F0000E396E000E386E000E6D
:10242800396E000E386E5BEF12F0DB0E356E000E63
:10243800366ED8903834D96E3934DA6ED890D936A9
:10244800DA363550D9263650DA22030EDF5EDB0E37
:10245800356E000E366ED8903834D96E3934DA6E4F
:10246800D890D936DA363550D9263650DA22050EC4
:10247800DF6041EF12F043EF12F057EF12F0DB0E7E
:10248800356E000E366ED8903834D96E3934DA6E1F
:10249800D890D936DA363550D9263650DA226E0E2B
:1024A800DF6E57EF12F0384A392A5BEF12F05550B9
:1024B800385C3950800A356E5650800A3558D8A095
:1024C80068EF12F06AEF12F019EF12F06CEF12F0E9
:1024D80030EC13F0120000000000000000010101C0
:1024E80000010101000000000000000100010001DE
:1024F80000010000000000000001000100010001CF
:1025080000000001010101010001010100010000BA
:1025180000010000000000000000000100000001B0
:10252800000000000001000100010001010100009D
:10253800000000010001000100010000000000008F
:102548000000000000010001010101010101010179
:102558000101010101010101010100000000010068
:102568000000000100000000010000000001000060
:102578000000010101010101010100000000010149
:102588000001010000010100010101000001010139
:102598000101010000010101000E346E000E336ECE
:1025A800000E346E000E336E1EEF13F0000E186E20
:1025B800020E196EDB0E2D6E000E2E6ED89033347F
:1025C800D96E3434DA6ED890D936DA362D50D92609
:1025D8002E50DA22DF502F6E2F501A6E1B6A33C02E
:1025E80030F034C031F0D89030363136D8903036AB
:1025F8003136010E3026000E3122DB0E3024D96E22
:10260800000E3120DA6EDF50326E32501C6E1D6AB9
:10261800000E1F6E090E1E6E000E216E0E0E206E2D
:10262800000E236E000E226E48EC0AF0334A342A5C
:102638001EEF13F05550335C3450800A2D6E5650FF
:10264800800A2D58D8A02BEF13F02DEF13F0DAEFF6
:1026580012F02FEF13F01200000E346E000E336EDE
:10266800000E346E000E336E7EEF13F0000E186EFF
:10267800020E196EDB0E2D6E000E2E6ED8903334BE
:10268800D96E3434DA6ED890D936DA362D50D92648
:102698002E50DA22DF502F6E2F501A6E1B6A33C06D
:1026A80030F034C031F0D89030363136D8903036EA
:1026B8003136010E3026000E3122DB0E3024D96E61
:1026C800000E3120DA6EDF50326E32501C6E1D6AF9
:1026D800000E1F6E090E1E6E000E216E0E0E206E6D
:1026E800000E236E010E226E48EC0AF0334A342A9B
:1026F8007EEF13F05550335C3450800A2D6E5650DF
:10270800800A2D58D8A08BEF13F08DEF13F03AEF15
:1027180013F08FEF13F01200116E000E136E070EF8
:10272800136499EF13F09BEF13F09FEF13F0EBEFA7
:1027380013F0EBEF13F08A94400E0F6E000EDCECF2
:1027480016F0400E0F6E010EDCEC16F01350B809AF
:102758000F6E000EDCEC16F01350B8090F6E010E68
:10276800DCEC16F08A84000E126E3F0E1264BFEF86
:1027780013F0C1EF13F0C5EF13F0E0EF13F0E0EF43
:1027880013F01150010DF35000080F6E000EDCEC31
:1027980016F01150010DF35000080F6E010EDCEC1D
:1027A80016F0122A3F0E1264DCEF13F0DEEF13F07E
:1027B800C5EF13F0E0EF13F0132A070E1364E7EFE9
:1027C80013F0E9EF13F09FEF13F0EBEF13F01200A3
:1027D80026EF14F01C50D8B4F4EF13F0F6EF13F012
:1027E8000CEF14F01DC011F01AC0F6FF1BC0F7FF64
:1027F800F86A070EF76403D00800F55005D0F6CF45
:10280800E1FFF7CFE2FFE750B2EC09F022EF14F056
:102818001DC011F01AC0F6FF1BC0F7FFF86A070EBB
:10282800F76403D00800F55005D0F6CFE1FFF7CFE5
:10283800E2FFE75010EC09F022EF14F01A4A1B2AC5
:1028480026EF14F01AC0F6FF1BC0F7FFF86A070E50
:10285800F76403D00800F55005D0F6CFE1FFF7CFB5
:10286800E2FFE7500009D8A43CEF14F03EEF14F063
:10287800EEEF13F040EF14F012000F0EC16E9568E2
:10288800000E836E070E946E000E826ECD80CD9280
:10289800CD9ACD98F28C9D809E90F28E000E4D6E52
:1028A800010E4C6E010E3FEC11F088EF14F022EC93
:1028B80017F0B7EC0EF00B0E4B6E260E4A6E5E0E3E
:1028C800E82EFED74A2EFCD74B2EFAD709EC00F09B
:1028D8000B0E4B6E260E4A6E5E0EE82EFED74A2E63
:1028E800FCD74B2EFAD70001D651D8A47EEF14F0AE
:1028F80080EF14F088EF14F0000E4D6E000E4C6E51
:1029080088EF14F088EF14F04C044D10D8B48FEF12
:1029180014F091EF14F05BEF14F093EF14F007EF5D
:1029280000F0EE0E186E040E196E000E1B6E340EBB
:102938001A6E000E1D6E170E1C6E000E1F6E180EFE
:102948001E6E000E216E220E206E000E236E010EEA
:10295800226E48EC0AF0000E186E030E196E000E77
:102968001B6E340E1A6E000E1D6E170E1C6E000EB6
:102978001F6E070E1E6E000E216E220E206E000EB8
:10298800236E010E226E48EC0AF0A20E186E010E9C
:10299800196E000E1B6E4B0E1A6E000E1D6E210E68
:1029A8001C6E000E1F6E040E1E6E000E216E080EA9
:1029B800206E000E236E010E226E48EC0AF0120003
:1029C800EE0E186E040E196E000E1B6E340E1A6E83
:1029D800000E1D6E170E1C6E000E1F6E180E1E6E5A
:1029E800000E216E220E206E000E236E010E226E46
:1029F80048EC0AF0000E186E030E196E000E1B6EDE
:102A0800340E1A6E000E1D6E170E1C6E000E1F6E11
:102A1800070E1E6E000E216E220E206E000E236E13
:102A2800010E226E48EC0AF09A0E186E000E196E0E
:102A3800000E1B6E4B0E1A6E000E1D6E210E1C6EC4
:102A4800000E1F6E030E1E6E000E216E080E206E05
:102A5800000E236E010E226E48EC0AF01200EE0EF4
:102A6800186E040E196E000E1B6E340E1A6E000ED0
:102A78001D6E170E1C6E000E1F6E180E1E6E000EB9
:102A8800216E220E206E000E236E010E226E48EC7F
:102A98000AF0000E186E030E196E000E1B6E340E2F
:102AA8001A6E000E1D6E170E1C6E000E1F6E070E9E
:102AB8001E6E000E216E220E206E000E236E010E79
:102AC800226E48EC0AF07E0E186E020E196E000E89
:102AD8001B6E340E1A6E000E1D6E210E1C6E000E3B
:102AE8001F6E030E1E6E000E216E220E206E000E4B
:102AF800236E010E226E48EC0AF01200000E126ED0
:102B0800000E116E0DC007F00EC008F0B3EC16F001
:102B1800FF0E0724136EFF0E0820146EB9EF15F090
:102B280011500D24D96E12500E20DA6EDF50106E3F
:102B380013500D24D96E14500E20DA6E11500D2446
:102B4800E16E12500E20E26EDFCFE7FF13500D2426
:102B5800D96E14500E20DA6E10C0DFFF114A122A07
:102B68001306D8A01406B9EF15F01350115C1250D3
:102B7800800A0F6E1450800A0F58D8A0C6EF15F0BF
:102B8800C8EF15F094EF15F0CAEF15F01200640EB7
:102B9800126E000E146E000E136E000E146E000EF0
:102BA800136EFBEF15F0280E076E125036EC17F077
:102BB800DB0E106E000E116ED8901334D96E1434DB
:102BC800DA6ED890D936DA361050D9261150DA2272
:102BD80007C0DEFF08C0DEFF09C0DEFF0AC0DEFF57
:102BE80012503C0F126E134A142AFBEF15F0555081
:102BF800135C1450800A106E5650800A1058D8A0E2
:102C080008EF16F00AEF16F0D7EF15F00CEF16F0F4
:102C1800120008000D00010101010101010101017B
:102C2800010101010101010101010101010101018C
:102C38000101010101000000000100010000010084
:102C48000000010100000000010100000100010076
:102C58000001000100010000000001000100010066
:102C68000001000101010101000001000001000054
:102C7800010101010101010000010101010101003F
:102C880000010101136E000E126E800E13604FEFEB
:102C980016F051EF16F07DEF16F0070E116457EF9E
:102CA80016F059EF16F05DEF16F07DEF16F07DEF98
:102CB80016F013C04FF011C04EF03F0E136467EFCB
:102CC80016F069EF16F06FEF16F0400E135E010E66
:102CD800126E6FEF16F08A94135040090F6E12505F
:102CE800DCEC16F01150B8090F6E1250DCEC16F03F
:102CF8008A841200000E186E020E196E000E1B6EEA
:102D08001E0E1A6E000E1D6E250E1C6E000E1F6E16
:102D1800090E1E6E000E216E0E0E206E000E236E22
:102D2800010E226E48EC0AF0820E186E000E196E23
:102D3800000E1B6E200E1A6E000E1D6E200E1C6EED
:102D4800000E1F6E040E1E6E000E216E060E206E03
:102D5800000E236E010E226E48EC0AF0120007C026
:102D68000BF008C00CF0BDEF16F0074A082ABDEFBB
:102D780016F007C0D9FF08C0DAFFDF50D8A4C7EFA4
:102D880016F0C9EF16F0B9EF16F0CBEF16F00BC03E
:102D980009F00CC00AF0091E0A1E094A0A2A07503F
:102DA8000924076E08500A20086EDBEF16F012009F
:102DB800106E1050D8B4E3EF16F0E5EF16F0E9EF17
:102DC80016F08A808A92EDEF16F08A928A82EDEFE9
:102DD80016F0000E956E8A960FC08CFF8A88080E32
:102DE800E82EFED700F08A98080EE82EFED700F0ED
:102DF8008A908A921200076E0750D8B406EF17F02F
:102E080008EF17F00CEF17F08A808A920EEF17F090
:102E18008A928A8295688A868A88080EE82EFED762
:102E280000F083CF08F08A98080EE82EFED700F04D
:102E38008A908A92085021EF17F01200010E0001C3
:102E4800D26F500ED36F500ED46F500ED56F010E47
:102E5800D66F3C0ED96F3C0EDA6F000ED76F5A0E44
:102E6800D86F12000B6E0BC00CF007C00DF0090EE6
:102E78000E6E0A0E0F6E0CC007F00DC008F00EC0E3
:102E880009F00FC00AF049EF17F01200140E000104
:102E9800D327640ED36553EF17F055EF17F059EFAA
:102EA80017F0640ED36F59EF17F0280ED85F120091
:102EB8000001D551140FD56F640ED56566EF17F074
:102EC80068EF17F06CEF17F0640ED56F6CEF17F022
:102ED80012001E0E0001D427640ED46576EF17F099
:102EE80078EF17F07AEF17F0640ED46F010ED76FF2
:102EF80012000001D22B630ED26585EF17F087EF21
:102F080017F08BEF17F0000ED66F8BEF17F012004B
:0C2F1800640E0001D86F120003000200DC
:1072BE0000000000000000000000000000000000C0
:1072CE0000000000000000000000000000000000B0
:1072DE0000000000000000000000000000000000A0
:1072EE000000000000000000000000000000000090
:1072FE000000000000000000000000000000000080
:10730E00000000000000000000000000000000006F
:10731E00000000000000000000000000000000005F
:10732E00000000000000000000000000000000004F
:10733E00000000000000000000000000000000003F
:10734E00000000000000000000000000000000002F
:10735E00000000000000000000000000000000001F
:10736E00000000000000000000000000000000000F
:10737E0000000000000000000000000000000000FF
:10738E0000000000000000000000000000000000EF
:10739E0000000000000000000000000000000000DF
:1073AE0000000000000000000000000000000000CF
:1073BE0000000000000000000000065F5F060000F5
:1073CE00000007070007070000147F7F147F7F145B
:1073DE0000242E6B6B3A120000466630180C666263
:1073EE0000307A4F5D377A48000407030000000032
:1073FE0000001C3E63410000000041633E1C000083
:10740E0000082A3E1C1C3E2A0808083E3E080800BA
:10741E00000080E06000000000080808080808006E
:10742E000000006060000000006030180C060301D0
:10743E00003E7F71594D7F3E0040427F7F404000AD
:10744E0000627359496F660000226349497F360016
:10745E0000181C16537F7F5000276745457D390065
:10746E00003C7E4B4979300000030371790F070011
:10747E0000367F49497F360000064F49693F1E009E
:10748E000000006666000000000080E66600000056
:10749E0000081C3663410000002424242424240008
:1074AE0000004163361C080000020351590F06000C
:1074BE00003E7F415D5D1F1E007C7E13137E7C00AF
:1074CE0000417F7F49497F36001C3E634141632264
:1074DE0000417F7F41633E1C00417F7F495D4163D8
:1074EE0000417F7F491D0103001C3E6341517372B1
:1074FE00007F7F08087F7F000000417F7F410000F2
:10750E0000307040417F3F0100417F7F081C776350
:10751E0000417F7F41406070007F7F0E1C0E7F7F99
:10752E00007F7F060C187F7F001C3E6341633E1C6C
:10753E0000417F7F49090F06001E3F21717F5E00CB
:10754E0000417F7F09197F6600266F4D5973320007
:10755E000003417F7F410300007F7F40407F7F001B
:10756E00001F3F60603F1F00007F7F3018307F7F1D
:10757E000043673C183C674300074F78784F07007D
:10758E0000476371594D677300007F7F41410000D2
:10759E00000103060C183060000041417F7F00009F
:1075AE0000080C0603060C08008080808080808016
:1075BE00800000030704000000207454543C7840FF
:1075CE0000417F3F4848783000387C44446C2800A6
:1075DE0000307848493F7F4000387C54545C180096
:1075EE0000487E7F490302000098BCA4A4F87C04E6
:1075FE0000417F7F08047C780000447D7D400000C0
:10760E000060E08080FD7D0000417F7F10386C447B
:10761E000000417F7F400000007C7C18381C7C7885
:10762E00007C7C04047C780000387C44447C380068
:10763E000084FCF8A4243C1800183C24A4F8FC8414
:10764E0000447C784C041C1800485C54547424008C
:10765E000000043E7F442400003C7C40403C7C40C3
:10766E00001C3C60603C1C00003C7C7038707C3C14
:10767E0000446C3810386C44009CBCA0A0FC7C000C
:10768E00004C64745C4C64000008083E7741410075
:10769E000000000077770000004141773E080800A7
:1076AE0000020301030203010070784C464C78700F
:1076BE00000E9F91B1FB4A00003A7A40407A7A4020
:1076CE0000387C54555D19000002237555557D7B9D
:1076DE0042217554547D794000217555547C784073
:1076EE0000207457577C784000183CA4A4E4400056
:1076FE0000023B7D55555D1B02397D54545D1900CA
:10770E0000397D55545C18000001457C7C41010018
:10771E00000203457D7D43020001457D7C40000053
:10772E0000797D1612167D790070782B2B787000FB
:10773E0000447C7C5555450000207454547C7C5488
:10774E00547C7E0B097F7F4900327B49497B320096
:10775E0000327A48487A320000327A4A487830004D
:10776E00003A7B41417B7A40003A7A424078784039
:10777E00009ABAA0A0FA7A000001193C66663C197C
:10778E00013D7D40407D3D0000183C24E7E7242468
:10779E0000687E7F49436620002B2FFCFC2F2B00B8
:1077AE0000FFFF09092FF6F8A040C088FE7F0903ED
:1077BE0002207454557D79400000447D7D410000C7
:1077CE00003078484A7A320000387840427A7A405F
:1077DE00007A7A0A0A7A7000007D7D19317D7D006B
:1077EE000000262F292F2F280000262F292F2600B4
:1077FE000030784D45602000003838080808080031
:10780E000008080808383800004F6F3018CCEEBB5F
:10781E00914F6F30186C76FBF90000007B7B0000F7
:10782E0000081C3622081C362222361C0822361C62
:10783E0008AA005500AA005500AA55AA55AA55AA8D
:10784E0055DDFFAA77DDAAFF77000000FFFF0000DD
:10785E0000101010FFFF000000141414FFFF0000B2
:10786E00001010FFFF00FFFF001010F0F010F0F0FE
:10787E0000141414FCFC0000001414F7F700FFFFB2
:10788E00000000FFFF00FFFF001414F4F404FCFCE2
:10789E000014141717101F1F0010101F1F101F1F8A
:1078AE00001414141F1F000000101010F0F0000040
:1078BE00000000001F1F1010101010101F1F1010BE
:1078CE0010101010F0F0101010000000FFFF10103C
:1078DE00101010101010101010101010FFFF1010BC
:1078EE0010000000FFFF1414140000FFFF00FFFF44
:1078FE001000001F1F101717140000FCFC04F4F4F6
:10790E001414141717101717141414F4F404F4F4B1
:10791E00140000FFFF00F7F71414141414141414B9
:10792E00141414F7F700F7F714141414171714148B
:10793E001410101F1F101F1F10141414F4F414141D
:10794E00141010F0F010F0F01000001F1F101F1F89
:10795E00100000001F1F141414000000FCFC14146F
:10796E00140000F0F010F0F0101010FFFF10FFFFE9
:10797E0010141414FFFF1414141010101F1F000005
:10798E0000000000F0F0101010FFFFFFFFFFFFFFE0
:10799E00FFF0F0F0F0F0F0F0F0FFFFFFFF0000005E
:1079AE000000000000FFFFFFFF0F0F0F0F0F0F0F64
:1079BE000F387C446C386C4400FCFE2A2A3E1400BE
:1079CE00007E7E020206060000027E7E027E7E029F
:1079DE000063775D4963630000387C447C3C04049B
:1079EE000080FE7E20203E1E000406027E7C0602E3
:1079FE000099BDE7E7BD9900001C3E6B496B3E1C2C
:107A0E00004C7E7301737E4C0030784A4F7D3900F6
:107A1E0000183C243C3C243C1898FC643C3E273D1A
:107A2E001800000000000000000000000000000030
:107A3E000000000000000000000000000000000038
:107A4E000000000000000000000000000000000028
:107A5E000000000000000000000000000000000018
:107A6E000000000000000000000000000000000008
:107A7E0000000000000000000000000000000000F8
:107A8E0000000000000000000000000000000000E8
:107A9E0000000000000000000000000000000000D8
:107AAE0000000000000000000000000000000000C8
:107ABE000000000000000000000000000F1FF8FF93
:107ACE00F81F0F0000FF3F1E000000000000000026
:107ADE00000000000000000000000000001E3F7FBC
:107AEE00FFFEFCFEFF7F3F1E0000000000000000B6
:107AFE0000000000000000000000000000007CFEFE
:107B0E00FFFFC7838382000000000000000000001A
:107B1E000000000000000000000000000000E0F087
:107B2E00F0F0F0FF0306000000000000000000006F
:107B3E000000000000000000000000000000010135
:107B4E000100000000010000000000000000000025
:107B5E000000000000000000000000000000000017
:107B6E000001010100000000000000000000000004
:107B7E0000000000000000000000000000000000F7
:107B8E0001010101010000000000000000000000E2
:107B9E0000000000000000000000000000000001D6
:107BAE0001010100000000000000000000000000C4
:107BBE0000000000000000000000000000000000B7
:107BCE0000000000000000000000000000000000A7
:107BDE000000000000000000000000000000000097
:107BEE000000000000000000000000000000000087
:107DCE000080000000000000000000000000000025
:107DDE000000000000000000000000000000000095
:107DEE000000000000000000000000000000000085
:107DFE000000000000000000000000000000000075
:107E0E000000000000000000000000000000000064
:107E1E000000000000000000000000000000000054
:107E2E000000000000000000000000000000000044
:107E3E000000000000000004080001E2E0FCFCFC71
:107E4E00FFFFFFFCFCFCE0E0000000000000000073
:107E5E000000000000000000000000000000000014
:107E6E000000000000000000000000000000000004
:107E7E0000000000000000000000000000000000F4
:107E8E0000000000000000000000000000000000E4
:107E9E000000000000000000000000FFFFFFFF8058
:107EAE00FCFCFCFC80E0E0E0E000000000000000D4
:107EBE0000000000005C000C000C7C287C7C447CE4
:107ECE00241048285408000C003844004438002080
:107EDE0010081038108040001010100040002010C4
:107EEE0008384438007C006454484454281C107CE4
:107EFE004C542438542004740C2854280854380048
:107F0E00500080500010284428282844281004547B
:107F1E0008384C5C7814787C54283844447C4438B7
:107F2E007C54447C14043844347C107C007C002047
:107F3E00403C7C106C7C40407C087C7C047C7C4407
:107F4E007C7C14083844787C1468485424047C04DF
:107F5E007C407C3C403C7C207C6C106C1C601C6427
:107F6E00544C7C4400081020447C00080408808097
:107F7E00800408000F0CFF0C0F00FF1E456E65728B
:107F8E006769653A005243323D65786974005072F4
:107F9E006F7072653A006578697420200041524511
:107FAE004E44410050726F6A657400416D6F757278
:107FBE003A0053746174733A005041474553006759
:107FCE006F636869004D6963726F004661696D3A4F
:107FDE000052433020004641494C0052534B490059
:107FEE004167653A0057494E0054414F005249507F
:027FFE00000081
:020000040020DA
:08000000FFFFFFFFFFFFFFFF00
:020000040030CA
:0E000000000C1F1FFF8381FF0FC00FE00F4099
:00000001FF
