:020000040000FA
:04000000E4EF31F008
:1063980020EE01F03F50D9264050DA22140EDF26B5
:1063A80012000101010101010101010101010101C5
:1063B80001010101010101010101010101010101C5
:1063C800AA0EF66E630EF76E000EF86E00EE60F021
:1063D80010EE1EF00900F5CFEEFFE550E150FAE1AE
:1063E800426A416A406A3F6A3E6A3D6A000EF86E38
:1063F80000015DEF33F00A6E0A50D8B406EF32F0B0
:1064080008EF32F00CEF32F08A808A9210EF32F007
:106418008A928A8210EF32F0000E956E8A9609C031
:106428008CFF8A88080EE82EFED700F08A98080E9E
:10643800E82EFED700F08A908A921200016E015071
:10644800D8B429EF32F02BEF32F02FEF32F08A80F8
:106458008A9231EF32F08A928A8295688A868A888F
:10646800080EE82EFED700F083CF02F08A98080EB7
:10647800E82EFED700F08A908A92025044EF32F05C
:10648800120001C0D9FF02C0DAFF000EDF6E20EE55
:1064980001F00150D9260250DA22640EDF6E20EE98
:1064A80002F00150D9260250DA22640EDF6E20EE87
:1064B80003F00150D9260250DA22640EDF6E20EE76
:1064C80004F00150D9260250DA22010EDF6E01C015
:1064D80001F002C002F071EF32F0120082B277EFE1
:1064E80032F079EF32F072EF32F07BEF32F01A507F
:1064F8001B10D8A482EF32F084EF32F088EF32F02C
:10650800CCEC31F088EF32F0070E1A181B10D8A423
:1065180090EF32F092EF32F098EF32F011EC33F066
:1065280098EF32F098EF32F082B29DEF32F09FEFA1
:1065380032F098EF32F0A1EF32F01200C8EF32F0EB
:106548001650D8B4AAEF32F0ACEF32F0B8EF32F010
:1065580017C00BF014C0F6FF15C0F7FF0800F55080
:1065680046EC37F0C4EF32F017C00BF014C0F6FF5A
:1065780015C0F7FF0800F550DCEC37F0C4EF32F037
:10658800144A152AC8EF32F014C0F6FF15C0F7FFF9
:106598000800F5500009D8A4D4EF32F0D6EF32F055
:1065A800A4EF32F0D8EF32F012000D6E000E0C6E30
:1065B800800E0D60E2EF32F0E4EF32F010EF33F0CE
:1065C800070E0B64EAEF32F0ECEF32F0F0EF32F046
:1065D80010EF33F010EF33F00DC042F00BC041F074
:1065E8003F0E0D64FAEF32F0FCEF32F002EF33F0B9
:1065F800400E0D5E010E0C6E02EF33F08A940D50C2
:106608004009096E0C50FFEC31F00B50B809096EC7
:106618000C50FFEC31F08A841200000EACEC33F021
:10662800000E0B6E000ED9EC32F0DD0E146E7F0EEC
:10663800156E010E166E010E176EA2EC32F0010EE9
:106648000B6E000ED9EC32F0C60E146E7F0E156E6E
:10665800010E166E010E176EA2EC32F0000E196EC6
:10666800000E186E38EF33F082A23DEF33F03FEFA3
:1066780033F045EF33F0000E196E010E186E45EF3A
:1066880033F018041910D8B44CEF33F04EEF33F050
:1066980059EF33F082A253EF33F055EF33F038EF70
:1066A80033F059EF33F059EF33F0000EACEC33F020
:1066B80012000F0EC16E9568000E836E070E946E61
:1066C800000E826E000E3C6E010E3B6E010E08EC51
:1066D80034F09FEF33F03FC001F040C002F045ECCA
:1066E80032F001C03FF002C040F047EC35F0150E23
:1066F8003A6E4B0E396EBE0EE82EFED7392EFCD7F9
:106708003A2EFAD700D07EEC38F020EE04F03F5055
:10671800D9264050DA22DF50D8A495EF33F097EF0E
:1067280033F09FEF33F0000E3C6E000E3B6E9FEF90
:1067380033F09FEF33F03B043C10D8B4A6EF33F0AE
:10674800A8EF33F06FEF33F0AAEF33F000EF00F06B
:106758000B6E000E0D6E070E0D64B5EF33F0B7EF3C
:1067680033F0BBEF33F007EF34F007EF34F08A94DF
:10677800400E096E000EFFEC31F0400E096E010E5E
:10678800FFEC31F00D50B809096E000EFFEC31F046
:106798000D50B809096E010EFFEC31F08A84000E25
:1067A8000C6E3F0E0C64DBEF33F0DDEF33F0E1EFFE
:1067B80033F0FCEF33F0FCEF33F00B50010DF350E6
:1067C8000008096E000EFFEC31F00B50010DF3507C
:1067D8000008096E010EFFEC31F00C2A3F0E0C6424
:1067E800F8EF33F0FAEF33F0E1EF33F0FCEF33F08A
:1067F8000D2A070E0D6403EF34F005EF34F0BBEFFC
:1068080033F007EF34F012000F6E9268000E806EBE
:106818000F0EC16E000E936E000E816E000E956E07
:10682800000E836E000E836E8A9A310E0E6EB20EC3
:10683800E82EFED70E2EFCD700D08A8A8A988A9036
:106848008A928A94530EE82EFED700F0C00E096E85
:10685800000EFFEC31F0C00E096E010EFFEC31F0B6
:10686800400E096E000EFFEC31F0400E096E010E6D
:10687800FFEC31F0B80E096E000EFFEC31F0B80EE7
:10688800096E010EFFEC31F00F04D8A44EEF34F07E
:1068980050EF34F05FEF34F0000E926E80683F0ED8
:1068A800096E000EFFEC31F03F0E096E010EFFEC91
:1068B80031F06BEF34F03E0E096E000EFFEC31F054
:1068C8003E0E096E010EFFEC31F06BEF34F0000E56
:1068D800ACEC33F01200000E0C6E000E0B6E000EC6
:1068E8000E6E070E0E647BEF34F07DEF34F081EF0F
:1068F80034F0D7EF34F0D7EF34F0000E0F6E010EFE
:106908000F6489EF34F08BEF34F08FEF34F0CEEF73
:1069180034F0CEEF34F08A94400E096E0F50FFEC3D
:1069280031F00E50B809096E0F50FFEC31F08A842F
:10693800000E0D6E3F0E0D64A4EF34F0A6EF34F098
:10694800AAEF34F0C3EF34F0C3EF34F0FB0E0B249E
:10695800F66E7A0E0C20F76E0800F5CF09F00F508E
:10696800FFEC31F00B4A0C2A0D2A3F0E0D64BFEFE5
:1069780034F0C1EF34F0AAEF34F0C3EF34F00F2A4B
:10698800010E0F64CAEF34F0CCEF34F08FEF34F01F
:10699800CEEF34F00E2A070E0E64D5EF34F0D7EFA1
:1069A80034F081EF34F08A908A9212000F6E000E54
:1069B800116E3F0E0F64E3EF34F0E5EF34F0EBEFC8
:1069C80034F0400E0F5E010E116EEBEF34F08A9436
:1069D8000F9E0F8C0FC009F01150FFEC31F00BC067
:1069E80001F0026A000E046E080E036EB4EC35F076
:1069F8000150BF0BB809096E1150FFEC31F08A84C1
:106A0800115022EC32F0115022EC32F0106E8A94C0
:106A18000FC009F01150FFEC31F00C50D8B417EF4B
:106A280035F019EF35F02CEF35F00BC00DF0070EEF
:106A38000D16010E0E6E0D2A24EF35F0D8900E3685
:106A48000D2E22EF35F00E501010106E40EF35F07D
:106A58000BC00DF0070E0D16010E0E6E0D2A37EF46
:106A680035F0D8900E360D2E35EF35F00E50FF0A62
:106A78001014106E40EF35F08A8410C009F01150E0
:106A8800FFEC31F01200000EACEC33F0000E0B6E90
:106A9800000ED9EC32F0D60E146E7F0E156E010E74
:106AA800166E010E176EA2EC32F0010E0B6E000E80
:106AB800D9EC32F0F00E146E7F0E156E010E166EC4
:106AC800010E176EA2EC32F0010E0B6E290ED9ECF6
:106AD80032F0EA0E146E7F0E156E010E166E010E60
:106AE800176EA2EC32F0030E0B6E000ED9EC32F0EA
:106AF800CF0E146E7F0E156E010E166E010E176EF8
:106B0800A2EC32F0030E0B6E2F0ED9EC32F0F60E1B
:106B1800146E7F0E156E010E166E010E176EA2EC26
:106B280032F0040E0B6E000ED9EC32F0E40E146E47
:106B38007F0E156E010E166E010E176EA2EC32F066
:106B4800050E0B6E000ED9EC32F0FB0E146E7F0EA4
:106B5800156E010E166E010E176EA2EC32F01200C1
:106B6800000E066E04BEBDEF35F0BBEF35F0C5EF85
:106B780035F0036C041ED8B0042A010E066EC5EF6A
:106B880035F002BECCEF35F0CAEF35F0D4EF35F072
:106B9800016C021ED8B0022A010E061AD4EF35F095
:106BA800000E086E000E076E03500410D8B4DFEF15
:106BB80035F0E1EF35F015EF36F0010E056EEBEF2D
:106BC80035F0D89003360436052AEBEF35F004AEDD
:106BD800F0EF35F0F2EF35F0E5EF35F0F6EF35F0A0
:106BE800F6EF35F0D890073608360350015C0450AC
:106BF8000258D8A002EF36F004EF36F00BEF36F06B
:106C08000350015E0450025A07800BEF36F0D8900B
:106C180004320332052EF6EF35F015EF36F015EF96
:106C280036F00650D8B41BEF36F01DEF36F023EFE0
:106C380036F0076C081ED8B0082A23EF36F007C0D4
:106C480001F008C002F029EF36F01200272806E10B
:106C58002828D8A432EF36F034EF36F050EF36F06B
:106C6800600E126E000E136E000E156E0C0E146E72
:106C7800000E176E0A0E166E000E196E030E186EB1
:106C8800000E1B6E0A0E1A6E29C01CF02AC01DF0D9
:106C9800B3EC36F0B2EF36F028BE5EEF36F028508F
:106CA80007E1040E275CD8B05CEF36F05EEF36F0F3
:106CB80087EF36F0600E126E000E136E27C02BF0B1
:106CC80028C02CF0050ED8902B362C36E82E67EF0E
:106CD80036F00C0E2B24146E000E2C20156E000EB0
:106CE800176E0A0E166E000E196E030E186E000E41
:106CF8001B6E0A0E1A6E29C01CF02AC01DF0B3ECD8
:106D080036F0B2EF36F0600E126E000E136E27C02A
:106D18002BF028C02CF0050ED8902B362C36E82EF8
:106D280090EF36F08C0E2B24146EFF0E2C20156E6F
:106D3800000E176E320E166E000E196E030E186EC8
:106D4800000E1B6E0A0E1A6E29C01CF02AC01DF018
:106D5800B3EC36F0B2EF36F0B2EF36F01200000EB8
:106D6800246E000E236E000E266E000E256E000E99
:106D7800226E000E216E16C023F017C024F02EEFED
:106D880037F014C025F015C026F013EF37F0215066
:106D98001224D96E22501320DA6EDF50D8B4D7EF00
:106DA80036F0D9EF36F0EBEF36F01C041D10D8A4FE
:106DB800E0EF36F0E2EF36F0EBEF36F023C00BF001
:106DC800010E0C6E2550DAEC34F00DEF37F021503F
:106DD8001224D96E22501320DA6EDF50D8B4F7EFA0
:106DE80036F0F9EF36F00DEF37F01C501D10D8A42F
:106DF80000EF37F002EF37F00DEF37F023C00BF05C
:106E0800000E0C6E2550DAEC34F00DEF37F00DEF74
:106E180037F0214A222A254A262A13EF37F01A503A
:106E280014241E6E1B5015201F6E1E50255C265004
:106E3800800A206E1F50800A2058D8A026EF37F00D
:106E480028EF37F0CBEF36F02AEF37F0234A242A21
:106E58002EEF37F0185016241E6E195017201F6E8B
:106E68001E50235C2450800A206E1F50800A205830
:106E7800D8A041EF37F043EF37F0C5EF36F045EFD4
:106E880037F01200106E000E136E0A0E1018D8A4F8
:106E980050EF37F052EF37F059EF37F0000E426EEF
:106EA800412ADBEF37F0DBEF37F03F0E42645FEF4C
:106EB80037F061EF37F068EF37F0010E136E42508C
:106EC800C00F116E6CEF37F042C011F06CEF37F065
:106ED8001050080DF3CF0EF0F4CF0FF0000E126E25
:106EE800070E12647AEF37F07CEF37F080EF37F057
:106EF800D9EF37F0D9EF37F03F0E116486EF37F04E
:106F080088EF37F09CEF37F0400E115E010E136EDC
:106F18008A9411504009096E1350FFEC31F041502A
:106F2800B809096E1350FFEC31F08A849CEF37F0F2
:106F38000B50D8B4A2EF37F0A4EF37F0B8EF37F022
:106F480012500E240C6E000E0F200D6EFB0E0C243A
:106F5800F66E720E0D20F76E0800F5CF09F013508B
:106F6800FFEC31F0CDEF37F012500E240C6E000E0E
:106F78000F200D6EFB0E0C24F66E720E0D20F76EB0
:106F88000800F550FF0A096E1350FFEC31F0CDEF01
:106F980037F0112A122A070E1264D5EF37F0D7EF0F
:106FA80037F080EF37F0D9EF37F0080E422612009D
:106FB8000F6E000E116E0A0E0F18D8A4E6EF37F008
:106FC800E8EF37F0EFEF37F0000E426E412A7DEF21
:106FD80038F07DEF38F03F0E4264F5EF37F0F7EF09
:106FE80037F0FEEF37F0010E116E4250C00F0E6EF3
:106FF80002EF38F042C00EF002EF38F0200E0F5EBC
:10700800000E106E020E10640CEF38F00EEF38F020
:1070180012EF38F07BEF38F07BEF38F03F0E0E645C
:1070280018EF38F01AEF38F02EEF38F0400E0E5EF9
:10703800010E116E8A940E504009096E1150FFEC32
:1070480031F04150B809096E1150FFEC31F08A84D3
:107058002EEF38F00B50D8B434EF38F036EF38F064
:1070680052EF38F00F50030DFB0E0C6E7E0E0D6EB6
:10707800F3500C26F4500D221050010DF3500C263D
:10708800F4500D220CC0F6FF0DC0F7FF0800F5CF35
:1070980009F01150FFEC31F06FEF38F00F50030D8D
:1070A800FB0E0C6E7E0E0D6EF3500C26F4500D2266
:1070B8001050010DF3500C26F4500D220CC0F6FFB1
:1070C8000DC0F7FF0800F550FF0A096E1150FFECDC
:1070D80031F06FEF38F00E2A102A020E106477EFA5
:1070E80038F079EF38F012EF38F07BEF38F0050E12
:1070F80042261200000EACEC33F0000E0B6E000EB0
:10710800D9EC32F06FEC34F0FF0E286E2768000ED1
:107118002A6E010E296E2AEC36F0000E336E000E30
:10712800326E000E2F6E000E2E6E000E316E000EA7
:10713800306E6CEF39F030503110D8A4A6EF38F02B
:10714800A8EF38F023EF39F082A0ADEF38F0AFEFB9
:1071580038F0D9EF38F0000E316E010E306E32C0C3
:1071680027F033C028F0000E2A6E000E296E2AEC94
:1071780036F03206D8A0330633BEC7EF38F0C5EF75
:1071880038F0CDEF38F0000E336E070E326ECDEFCB
:1071980038F032C027F033C028F0000E2A6E010EF6
:1071A800296E2AEC36F023EF39F082A4DEEF38F0AE
:1071B800E0EF38F010EF39F0000E316E010E306E4E
:1071C80032C027F033C028F0000E2A6E000E296E58
:1071D8002AEC36F0324A332A33BEFCEF38F033500B
:1071E80009E1080E325CD8A0FCEF38F0FEEF38F069
:1071F80004EF39F0000E336E000E326E04EF39F0F2
:1072080032C027F033C028F0000E2A6E010E296E16
:107218002AEC36F023EF39F082A215EF39F017EF98
:1072280039F023EF39F0000E316E020E306E23EF85
:1072380039F023EF39F023EF39F023EF39F082B03A
:1072480028EF39F02AEF39F06CEF39F082B22FEFDE
:1072580039F031EF39F06CEF39F082B436EF39F0AC
:1072680038EF39F06CEF39F030503110D8B43FEFC7
:1072780039F041EF39F06CEF39F0020E3018311067
:10728800D8A449EF39F04BEF39F064EF39F032C048
:107298001AF033C01BF072EC32F0000E0B6E000EC9
:1072A800D9EC32F06FEC34F032C027F033C028F05C
:1072B800000E2A6E010E296E2AEC36F064EF39F0C2
:1072C800000E316E000E306E6CEF39F06CEF39F055
:1072D80020EE04F03F50D9264050DA22DE04D8B41C
:1072E80078EF39F07AEF39F09FEF38F07CEF39F02A
:1072F8001200000000000000000000000000000074
:107308000000000000000000000000000000000075
:107318000000000000000000000000000000000065
:107328000000000000000000000000000000000055
:107338000000000000000000000000000000000045
:107348000000000000000000000000000000000035
:107358000000000000000000000000000000000025
:107368000000000000000000000000000000000015
:107378000000000000000000000000000000000005
:1073880000000000000000000000000000000000F5
:1073980000000000000000000000000000000000E5
:1073A80000000000000000000000000000000000D5
:1073B80000000000000000000000000000000000C5
:1073C80000000000000000000000000000000000B5
:1073D80000000000000000000000000000000000A5
:1073E8000000000000000000000000000000000095
:1073F800000000000000000000000000065F5F06BB
:107408000000000007070007070000147F7F147FB3
:107418007F1400242E6B6B3A120000466630180C5D
:10742800666200307A4F5D377A480004070300002F
:10743800000000001C3E63410000000041633E1C48
:10744800000000082A3E1C1C3E2A0808083E3E0888
:107458000800000080E06000000000080808080834
:1074680008000000006060000000006030180C0692
:107478000301003E7F71594D7F3E0040427F7F40AF
:10748800400000627359496F660000226349497FD2
:10749800360000181C16537F7F5000276745457D2E
:1074A8003900003C7E4B4979300000030371790FA5
:1074B800070000367F49497F360000064F49693F7B
:1074C8001E000000006666000000000080E66600FE
:1074D800000000081C3663410000002424242424F2
:1074E800240000004163361C080000020351590FB4
:1074F8000600003E7F415D5D1F1E007C7E13137EEB
:107508007C0000417F7F49497F36001C3E63414132
:10751800632200417F7F41633E1C00417F7F495DBC
:10752800416300417F7F491D0103001C3E634151B7
:107538007372007F7F08087F7F000000417F7F41D2
:10754800000000307040417F3F0100417F7F081CF0
:10755800776300417F7F41406070007F7F0E1C0E83
:107568007F7F007F7F060C187F7F001C3E6341638E
:107578003E1C00417F7F49090F06001E3F21717F95
:107588005E0000417F7F09197F6600266F4D5973A1
:1075980032000003417F7F410300007F7F40407F2E
:1075A8007F00001F3F60603F1F00007F7F30183062
:1075B8007F7F0043673C183C674300074F78784F4C
:1075C800070000476371594D677300007F7F414191
:1075D8000000000103060C183060000041417F7F65
:1075E800000000080C0603060C08008080808080DC
:1075F8008080800000030704000000207454543C7D
:10760800784000417F3F4848783000387C44446CDB
:10761800280000307848493F7F4000387C54545C4B
:10762800180000487E7F490302000098BCA4A4F813
:107638007C0400417F7F08047C780000447D7D4005
:1076480000000060E08080FD7D0000417F7F1038F1
:107658006C440000417F7F400000007C7C18381C8F
:107668007C78007C7C04047C780000387C44447C72
:1076780038000084FCF8A4243C1800183C24A4F822
:10768800FC8400447C784C041C1800485C545474F6
:1076980024000000043E7F442400003C7C40403C21
:1076A8007C40001C3C60603C1C00003C7C703870D6
:1076B8007C3C00446C3810386C44009CBCA0A0FC96
:1076C8007C00004C64745C4C64000008083E774100
:1076D80041000000000077770000004141773E0834
:1076E800080000020301030203010070784C464CB5
:1076F8007870000E9F91B1FB4A00003A7A40407AB8
:107708007A4000387C54555D1900000223755555A0
:107718007D7B42217554547D794000217555547CF8
:10772800784000207457577C784000183CA4A4E4A3
:10773800400000023B7D55555D1B02397D54545D68
:10774800190000397D55545C18000001457C7C41C6
:107758000100000203457D7D43020001457D7C4018
:10776800000000797D1612167D790070782B2B7831
:10777800700000447C7C5555450000207454547CAE
:107788007C54547C7E0B097F7F4900327B49497BBE
:10779800320000327A48487A320000327A4A487811
:1077A8003000003A7B41417B7A40003A7A42407887
:1077B8007840009ABAA0A0FA7A000001193C6666DF
:1077C8003C19013D7D40407D3D0000183C24E7E721
:1077D800242400687E7F49436620002B2FFCFC2F61
:1077E8002B0000FFFF09092FF6F8A040C088FE7F94
:1077F800090302207454557D79400000447D7D4181
:107808000000003078484A7A320000387840427ADE
:107818007A40007A7A0A0A7A7000007D7D19317DF3
:107828007D000000262F292F2F280000262F292F22
:1078380026000030784D45602000003838080808D8
:1078480008000008080808383800004F6F3018CCC6
:10785800EEBB914F6F30186C76FBF90000007B7B14
:10786800000000081C3622081C362222361C08227A
:10787800361C08AA005500AA005500AA55AA55AA00
:1078880055AA55DDFFAA77DDAAFF77000000FFFFA4
:10789800000000101010FFFF000000141414FFFF78
:1078A8000000001010FFFF00FFFF001010F0F010A4
:1078B800F0F000141414FCFC0000001414F7F70096
:1078C800FFFF000000FFFF00FFFF001414F4F404A2
:1078D800FCFC0014141717101F1F0010101F1F1096
:1078E8001F1F001414141F1F000000101010F0F0C8
:1078F8000000000000001F1F1010101010101F1FA4
:10790800101010101010F0F0101010000000FFFF01
:107918001010101010101010101010101010FFFF81
:10792800101010000000FFFF1414140000FFFF00E7
:10793800FFFF1000001F1F101717140000FCFC04A5
:10794800F4F41414141717101717141414F4F40477
:10795800F4F4140000FFFF00F7F7141414141414BF
:107968001414141414F7F700F7F714141414171751
:1079780014141410101F1F101F1F10141414F4F4E3
:107988001414141010F0F010F0F01000001F1F1065
:107998001F1F100000001F1F141414000000FCFC1F
:1079A8001414140000F0F010F0F0101010FFFF1085
:1079B800FFFF10141414FFFF1414141010101F1FCD
:1079C800000000000000F0F0101010FFFFFFFFFFA4
:1079D800FFFFFFF0F0F0F0F0F0F0F0FFFFFFFF0026
:1079E80000000000000000FFFFFFFF0F0F0F0F0F48
:1079F8000F0F0F387C446C386C4400FCFE2A2A3E7A
:107A08001400007E7E020206060000027E7E027ED0
:107A18007E020063775D4963630000387C447C3CE8
:107A280004040080FE7E20203E1E000406027E7CA8
:107A380006020099BDE7E7BD9900001C3E6B496B43
:107A48003E1C004C7E7301737E4C0030784A4F7D9B
:107A5800390000183C243C3C243C1898FC643C3E0B
:107A6800273D180000000000000000000000000092
:107A780000000000000000000000000000000000FE
:107A880000000000000000000000000000000000EE
:107A980000000000000000000000000000000000DE
:107AA80000000000000000000000000000000000CE
:107AB80000000000000000000000000000000000BE
:107AC80000000000000000000000000000000000AE
:107AD800000000000000000000000000000000009E
:107AE800000000000000000000000000000000008E
:107AF80000000000000000000000000000000F1F50
:107B0800F8FFF81F0F0000FF3F1E000000000000F4
:107B1800000000C300000000000000000000001E7C
:107B28003F7FFFFEFCFEFF7F3F1E000000000000BD
:107B3800000000200000000000000000000000001D
:107B48007CFEFFFFC7838382000000000000000066
:107B5800000000000000000000000000000000001D
:107B6800E0F0F0F0F0FF0306000000000000000065
:107B780000000000000000000000000000000000FD
:107B880001010100000000010000000000000000E9
:107B980000000203020000000000000000000000D6
:107BA80000000001010100000000000000000000CA
:107BB800000202190200000000000000000000009E
:107BC80000000101010101000000000000000000A8
:107BD8000000000702020000000000000000000092
:107BE8000001010101000000000000000000000089
:107BF800000000000000000000000000000000007D
:107C0800000000000000000000000000000000006C
:107C1800000000000000000000000000000000005C
:107C2800000000000000000000000000000000004C
:107E080000000000000000000000000000404040AA
:107E1800000000E04040404040000000000000003A
:107E2800000000000000000000000000000000004A
:107E3800004040C04040000000000000000000007A
:107E4800000000000000000000000000000000002A
:107E5800404040C04040000000000000000000001A
:107E6800000000000000000000000000000000000A
:107E780000000000000000000000000000000000FA
:107E880000000000000000000000000000000000EA
:107E980000000000000000000000000000000000DA
:107EA80000000000000000000000000000000000CA
:107EB800000000FF000000000000000000000000BB
:107EC80000000000000000000000000000000000AA
:107ED80000000003000000000000000000FFFFFF9A
:107EE800FF80FCFCFCFC80E0E0E0E000000000001B
:107EF800000000000000005C000C000C7C287C7C6A
:107F0800447C241048285408000C003844004438A5
:107F18000020100810381080400010101000400099
:107F2800201008384438007C006454484454281C05
:107F3800107C4C542438542004740C2854280854B9
:107F48003800500080500010284428282844281061
:107F5800045408384C5C7814787C54283844447CA1
:107F680044387C54447C14043844347C107C007CB1
:107F78000020403C7C106C7C40407C087C7C047C6D
:107F88007C447C7C14083844787C14684854240465
:107F98007C047C407C3C403C7C207C6C106C1C60ED
:107FA8001C64544C7C4400081020447C00080408DD
:107FB8008080800408000F0CFF0C0F00FF1E524346
:107FC800323D65786974004152454E444100507213
:107FD8006F6A65740053746174733A005041474581
:107FE8005300676F636869004D6963726F0052538D
:087FF8004B490054414F000009
:020000040020DA
:08000000FFFFFFFFFFFFFFFF00
:020000040030CA
:0E00000000051F1FFF8385FF0FC00FE00F409C
:00000001FF
