:020000040000FA
:0400000006EF38F0DF
:10700C001A6A196A000EF86E0001E1EF38F017EFFA
:10701C0038F020EE04F00150D9260250DA22000E8E
:10702C00DF6E20EE04F00150D9260250DA22DE0485
:10703C00D8B423EF38F025EF38F00FEF38F027EF06
:10704C0038F01200026E0250D8B42FEF38F031EF46
:10705C0038F035EF38F08A808A9239EF38F08A921E
:10706C008A8239EF38F0000E956E8A9601C08CFF3B
:10707C008A88080EE82EFED700F08A98080EE82EB3
:10708C00FED700F08A908A92120001C0D9FF02C08C
:10709C00DAFF000EDF6E20EE01F00150D92602500F
:1070AC00DA22640EDF6E20EE02F00150D926025077
:1070BC00DA22640EDF6E20EE03F00150D926025066
:1070CC00DA22640EDF6E20EE04F00150D926025055
:1070DC00DA22010EDF6E120098EF38F00E50D8B4A1
:1070EC007AEF38F07CEF38F088EF38F00FC003F00F
:1070FC000CC0F6FF0DC0F7FF0800F55051EC3AF04C
:10710C0094EF38F00FC003F00CC0F6FF0DC0F7FF82
:10711C000800F550E7EC3AF094EF38F00C4A0D2AE1
:10712C0098EF38F00CC0F6FF0DC0F7FF0800F550D3
:10713C000009D8A4A4EF38F0A6EF38F074EF38F0BB
:10714C00A8EF38F01200056E000E046E800E05607C
:10715C00B2EF38F0B4EF38F0E0EF38F0070E03641C
:10716C00BAEF38F0BCEF38F0C0EF38F0E0EF38F0A1
:10717C00E0EF38F005C01AF003C019F03F0E0564BB
:10718C00CAEF38F0CCEF38F0D2EF38F0400E055E95
:10719C00010E046ED2EF38F08A9405504009016E4E
:1071AC00045028EC38F00350B809016E045028EC58
:1071BC0038F08A8412000F0EC16E070E926E070E05
:1071CC00806E9568000E836E000E936E000E816EBD
:1071DC00000E176E000E186E000E166E010E156E58
:1071EC00010EEAEC39F01FEF39F017C001F018C0AE
:1071FC0002F04BEC38F088EC39F017C001F018C0F5
:10720C0002F00DEC38F020EE04F01750D92618508F
:10721C00DA22DF50D8A415EF39F017EF39F01FEF51
:10722C0039F0000E166E000E156E1FEF39F01FEFC1
:10723C0039F015041610D8B426EF39F028EF39F0D0
:10724C00FBEF38F02AEF39F000EF00F0036E000E80
:10725C00056E070E056435EF39F037EF39F03BEF6B
:10726C0039F087EF39F087EF39F08A94400E016ED0
:10727C00000E28EC38F0400E016E010E28EC38F0B0
:10728C000550B809016E000E28EC38F00550B8090D
:10729C00016E010E28EC38F08A84000E046E3F0E4D
:1072AC0004645BEF39F05DEF39F061EF39F07CEF9E
:1072BC0039F07CEF39F00350010DF3500008016EEA
:1072CC00000E28EC38F00350010DF3500008016E4D
:1072DC00010E28EC38F0042A3F0E046478EF39F0E4
:1072EC007AEF39F061EF39F07CEF39F0052A070EAF
:1072FC00056483EF39F085EF39F03BEF39F087EF18
:10730C0039F01200000E2CEC39F0000E036E000E5A
:10731C00A9EC38F0E10E0C6E7F0E0D6E010E0E6EA8
:10732C00010E0F6E72EC38F0010E036E000EA9EC1C
:10733C0038F0F40E0C6E7F0E0D6E010E0E6E010EFB
:10734C000F6E72EC38F0010E036E320EA9EC38F0B1
:10735C00EE0E0C6E7F0E0D6E010E0E6E010E0F6E8C
:10736C0072EC38F0030E036E000EA9EC38F0D60E5A
:10737C000C6E7F0E0D6E010E0E6E010E0F6E72EC0A
:10738C0038F0040E036E000EA9EC38F0E80E0C6E0B
:10739C007F0E0D6E010E0E6E010E0F6E72EC38F03C
:1073AC00050E036E000EA9EC38F0FA0E0C6E7F0E73
:1073BC000D6E010E0E6E010E0F6E72EC38F0C80ED3
:1073CC0000D0E82EFDD71200076E9268000E806E7A
:1073DC000F0EC16E000E936E000E816E000E956E38
:1073EC00000E836E000E836E8A9A310E066EB20EFC
:1073FC00E82EFED7062EFCD700D08A8A8A988A906F
:10740C008A928A94530EE82EFED700F0C00E016EBD
:10741C00000E28EC38F0C00E016E010E28EC38F08E
:10742C00400E016E000E28EC38F0400E016E010E7D
:10743C0028EC38F0B80E016E000E28EC38F0B80EBF
:10744C00016E010E28EC38F00704D8A430EF3AF0A6
:10745C0032EF3AF041EF3AF0000E926E80683F0E38
:10746C00016E000E28EC38F03F0E016E010E28EC78
:10747C0038F04DEF3AF03E0E016E000E28EC38F06D
:10748C003E0E016E010E28EC38F04DEF3AF0000E76
:10749C002CEC39F01200086E000E0B6E0A0E081858
:1074AC00D8A45BEF3AF05DEF3AF064EF3AF0000EDF
:1074BC001A6E192AE6EF3AF0E6EF3AF03F0E1A642C
:1074CC006AEF3AF06CEF3AF073EF3AF0010E0B6E94
:1074DC001A50C00F096E77EF3AF01AC009F077EF27
:1074EC003AF00850080DF3CF06F0F4CF07F0000E79
:1074FC000A6E070E0A6485EF3AF087EF3AF08BEFCD
:10750C003AF0E4EF3AF0E4EF3AF03F0E096491EF11
:10751C003AF093EF3AF0A7EF3AF0400E095E010E05
:10752C000B6E8A9409504009016E0B5028EC38F010
:10753C001950B809016E0B5028EC38F08A84A7EF6B
:10754C003AF00350D8B4ADEF3AF0AFEF3AF0C3EFE6
:10755C003AF00A500624046E000E0720056E130E36
:10756C000424F66E770E0520F76E0800F5CF01F0B7
:10757C000B5028EC38F0D8EF3AF00A500624046E81
:10758C00000E0720056E130E0424F66E770E0520F0
:10759C00F76E0800F550FF0A016E0B5028EC38F01E
:1075AC00D8EF3AF0092A0A2A070E0A64E0EF3AF0FB
:1075BC00E2EF3AF08BEF3AF0E4EF3AF0080E1A26CD
:1075CC001200076E000E096E0A0E0718D8A4F1EF10
:1075DC003AF0F3EF3AF0FAEF3AF0000E1A6E192A7D
:1075EC0088EF3BF088EF3BF03F0E1A6400EF3BF066
:1075FC0002EF3BF009EF3BF0010E096E1A50C00F81
:10760C00066E0DEF3BF01AC006F00DEF3BF0200EAE
:10761C00075E000E086E020E086417EF3BF019EFC0
:10762C003BF01DEF3BF086EF3BF086EF3BF03F0E5F
:10763C00066423EF3BF025EF3BF039EF3BF0400EB7
:10764C00065E010E096E8A9406504009016E0950BF
:10765C0028EC38F01950B809016E095028EC38F0B4
:10766C008A8439EF3BF00350D8B43FEF3BF041EF45
:10767C003BF05DEF3BF00750030D130E046E7F0ED5
:10768C00056EF3500426F45005220850010DF350FA
:10769C000426F450052204C0F6FF05C0F7FF0800CD
:1076AC00F5CF01F0095028EC38F07AEF3BF0075099
:1076BC00030D130E046E7F0E056EF3500426F4506A
:1076CC0005220850010DF3500426F450052204C085
:1076DC00F6FF05C0F7FF0800F550FF0A016E0950D0
:1076EC0028EC38F07AEF3BF0062A082A020E0864E0
:1076FC0082EF3BF084EF3BF01DEF3BF086EF3BF06D
:10770C00050E1A2612000000000000000000000008
:10771C00000000000000000000000000000000005D
:10772C00000000000000000000000000000000004D
:10773C00000000000000000000000000000000003D
:10774C00000000000000000000000000000000002D
:10775C00000000000000000000000000000000001D
:10776C00000000000000000000000000000000000D
:10777C0000000000000000000000000000000000FD
:10778C0000000000000000000000000000000000ED
:10779C0000000000000000000000000000000000DD
:1077AC0000000000000000000000000000000000CD
:1077BC0000000000000000000000000000000000BD
:1077CC0000000000000000000000000000000000AD
:1077DC00000000000000000000000000000000009D
:1077EC00000000000000000000000000000000008D
:1077FC00000000000000000000000000000000007D
:10780C00000000000000000000000000000000006C
:10781C00065F5F0600000000070700070700001462
:10782C007F7F147F7F1400242E6B6B3A120000466E
:10783C006630180C666200307A4F5D377A48000467
:10784C0007030000000000001C3E63410000000024
:10785C0041633E1C000000082A3E1C1C3E2A0808FE
:10786C00083E3E080800000080E0600000000008B0
:10787C0008080808080000000060600000000060B4
:10788C0030180C060301003E7F71594D7F3E0040BD
:10789C00427F7F40400000627359496F66000022AE
:1078AC006349497F360000181C16537F7F50002710
:1078BC006745457D3900003C7E4B4979300000031B
:1078CC000371790F070000367F49497F36000006A7
:1078DC004F49693F1E000000006666000000000072
:1078EC0080E66600000000081C366341000000249E
:1078FC0024242424240000004163361C08000002C8
:10790C000351590F0600003E7F415D5D1F1E007C38
:10791C007E13137E7C0000417F7F49497F36001C1B
:10792C003E634141632200417F7F41633E1C004125
:10793C007F7F495D416300417F7F491D0103001C2E
:10794C003E6341517372007F7F08087F7F00000007
:10795C00417F7F41000000307040417F3F0100417A
:10796C007F7F081C776300417F7F41406070007F00
:10797C007F0E1C0E7F7F007F7F060C187F7F001C04
:10798C003E6341633E1C00417F7F49090F06001E88
:10799C003F21717F5E0000417F7F09197F660026C1
:1079AC006F4D597332000003417F7F410300007F0C
:1079BC007F40407F7F00001F3F60603F1F00007FC3
:1079CC007F3018307F7F0043673C183C67430007CB
:1079DC004F78784F070000476371594D677300006B
:1079EC007F7F41410000000103060C18306000004D
:1079FC0041417F7F000000080C0603060C08008044
:107A0C0080808080808080000003070400000020BC
:107A1C007454543C784000417F3F484878300038DB
:107A2C007C44446C280000307848493F7F40003843
:107A3C007C54545C180000487E7F49030200009877
:107A4C00BCA4A4F87C0400417F7F08047C7800006F
:107A5C00447D7D4000000060E08080FD7D000041A1
:107A6C007F7F10386C440000417F7F400000007C19
:107A7C007C18381C7C78007C7C04047C78000038F2
:107A8C007C44447C38000084FCF8A4243C18001886
:107A9C003C24A4F8FC8400447C784C041C1800485A
:107AAC005C54547424000000043E7F442400003CC9
:107ABC007C40403C7C40001C3C60603C1C00003C1A
:107ACC007C7038707C3C00446C3810386C44009CE2
:107ADC00BCA0A0FC7C00004C64745C4C64000008EE
:107AEC00083E77414100000000007777000000411C
:107AFC0041773E08080000020301030203010070F5
:107B0C00784C464C7870000E9F91B1FB4A00003ABD
:107B1C007A40407A7A4000387C54555D1900000256
:107B2C00237555557D7B42217554547D7940002138
:107B3C007555547C784000207457577C7840001859
:107B4C003CA4A4E4400000023B7D55555D1B02396A
:107B5C007D54545D190000397D55545C18000001AA
:107B6C00457C7C410100000203457D7D4302000100
:107B7C00457D7C40000000797D1612167D790070E1
:107B8C00782B2B78700000447C7C555545000020E8
:107B9C007454547C7C54547C7E0B097F7F49003296
:107BAC007B49497B320000327A48487A32000032F5
:107BBC007A4A48783000003A7B41417B7A40003A5F
:107BCC007A4240787840009ABAA0A0FA7A00000174
:107BDC00193C66663C19013D7D40407D3D00001816
:107BEC003C24E7E7242400687E7F49436620002B71
:107BFC002FFCFC2F2B0000FFFF09092FF6F8A040EB
:107C0C00C088FE7F090302207454557D7940000022
:107C1C00447D7D410000003078484A7A32000038BB
:107C2C007840427A7A40007A7A0A0A7A7000007DAB
:107C3C007D19317D7D000000262F292F2F28000073
:107C4C00262F292F26000030784D45602000003863
:107C5C003808080808000008080808383800004FE1
:107C6C006F3018CCEEBB914F6F30186C76FBF9006F
:107C7C0000007B7B000000081C3622081C362222E8
:107C8C00361C0822361C08AA005500AA005500AA6A
:107C9C0055AA55AA55AA55DDFFAA77DDAAFF77008C
:107CAC000000FFFF000000101010FFFF0000001488
:107CBC001414FFFF0000001010FFFF00FFFF001066
:107CCC0010F0F010F0F000141414FCFC0000001480
:107CDC0014F7F700FFFF000000FFFF00FFFF001488
:107CEC0014F4F404FCFC0014141717101F1F0010DC
:107CFC00101F1F101F1F001414141F1F0000001052
:107D0C001010F0F00000000000001F1F10101010E9
:107D1C0010101F1F101010101010F0F01010100089
:107D2C000000FFFF10101010101010101010101089
:107D3C001010FFFF101010000000FFFF14141400AF
:107D4C0000FFFF00FFFF1000001F1F10171714008B
:107D5C0000FCFC04F4F41414141717101717141463
:107D6C0014F4F404F4F4140000FFFF00F7F71414F7
:107D7C00141414141414141414F7F700F7F714143F
:107D8C001414171714141410101F1F101F1F101485
:107D9C001414F4F41414141010F0F010F0F010008B
:107DAC00001F1F101F1F100000001F1F14141400B1
:107DBC000000FCFC1414140000F0F010F0F0101093
:107DCC0010FFFF10FFFF10141414FFFF14141410F5
:107DDC0010101F1F000000000000F0F0101010FF2A
:107DEC00FFFFFFFFFFFFFFF0F0F0F0F0F0F0F0FF0F
:107DFC00FFFFFF0000000000000000FFFFFFFF0F6F
:107E0C000F0F0F0F0F0F0F387C446C386C4400FCB5
:107E1C00FE2A2A3E1400007E7E02020606000002A4
:107E2C007E7E027E7E020063775D496363000038CC
:107E3C007C447C3C04040080FE7E20203E1E00041A
:107E4C0006027E7C06020099BDE7E7BD9900001C86
:107E5C003E6B496B3E1C004C7E7301737E4C0030B4
:107E6C00784A4F7D390000183C243C3C243C18983F
:107E7C00FC643C3E273D18000000000000000000A0
:107E8C0000000000000000000000000000000000E6
:107E9C0000000000000000000000000000000000D6
:107EAC0000000000000000000000000000000000C6
:107EBC0000000000000000000000000000000000B6
:107ECC0000000000000000000000000000000000A6
:107EDC000000000000000000000000000000000096
:107EEC000000000000000000000000000000000086
:107EFC000000000000000000000000000000000076
:107F0C0000000000000000000000005C000C000CF1
:107F1C007C287C7C447C241048285408000C0038B5
:107F2C004400443800201008103810804000101015
:107F3C0010004000201008384438007C006454487D
:107F4C004454281C107C4C542438542004740C28A1
:107F5C005428085438005000805000102844282819
:107F6C0028442810045408384C5C7814787C542825
:107F7C003844447C44387C54447C14043844347C69
:107F8C00107C007C0020403C7C106C7C40407C08C9
:107F9C007C7C047C7C447C7C14083844787C14689D
:107FAC00485424047C047C407C3C403C7C207C6C0D
:107FBC00106C1C601C64544C7C4400081020447CE5
:107FCC00000804088080800408004152454E44415A
:107FDC0052534B490050726F6A65740050414745CB
:107FEC005300676F636869004D6963726F00544199
:037FFC004F000033
:020000040020DA
:08000000FFFFFFFFFFFFFFFF00
:020000040030CA
:0E00000000051F1FFF8385FF0FC00FE00F409C
:00000001FF
