:020000040000FA
:0400000095EF37F051
:106F2A001C6A1B6A000EF86E0001BBEF39F0000EF6
:106F3A00046E000E036E03C001F004C002F0A6EF57
:106F4A0037F01200000E80EC38F009680A68B6EFD4
:106F5A0037F09CEC37F001C009F002C00AF0B6EF36
:106F6A0037F020EE04F00650D9260750DA22DE0464
:106F7A00D8B4C2EF37F0C4EF37F0AEEF37F0C6EF50
:106F8A0037F01200026E0250D8B4CEEF37F0D0EFCD
:106F9A0037F0D4EF37F08A808A92D8EF37F08A92A6
:106FAA008A82D8EF37F0000E956E8A9601C08CFF60
:106FBA008A88080EE82EFED700F08A98080EE82E76
:106FCA00FED700F08A908A92120001C0D9FF02C04F
:106FDA00DAFF000EDF6E20EE01F00150D9260250D2
:106FEA00DA22640EDF6E20EE02F00150D92602503A
:106FFA00DA22640EDF6E20EE03F00150D926025029
:10700A00DA22640EDF6E20EE04F00150D926025017
:10701A00DA22010EDF6E120037EF38F00E50D8B4C4
:10702A0019EF38F01BEF38F027EF38F00FC003F0F4
:10703A000CC0F6FF0DC0F7FF0800F5504AEC3AF015
:10704A0033EF38F00FC003F00CC0F6FF0DC0F7FFA6
:10705A000800F550E0EC3AF033EF38F00C4A0D2A0C
:10706A0037EF38F00CC0F6FF0DC0F7FF0800F550F7
:10707A000009D8A443EF38F045EF38F013EF38F0A1
:10708A0047EF38F01200056E000E046E800E0560A0
:10709A0051EF38F053EF38F07FEF38F0070E036402
:1070AA0059EF38F05BEF38F05FEF38F07FEF38F0E8
:1070BA007FEF38F005C01CF003C01BF03F0E0564DB
:1070CA0069EF38F06BEF38F071EF38F0400E055E7B
:1070DA00010E046E71EF38F08A9405504009016E72
:1070EA000450C7EC37F00350B809016E0450C7ECDE
:1070FA0037F08A841200036E000E056E070E0564CF
:10710A0089EF38F08BEF38F08FEF38F0DBEF38F09B
:10711A00DBEF38F08A94400E016E000EC7EC37F0B0
:10712A00400E016E010EC7EC37F00550B809016E2A
:10713A00000EC7EC37F00550B809016E010EC7EC16
:10714A0037F08A84000E046E3F0E0464AFEF38F005
:10715A00B1EF38F0B5EF38F0D0EF38F0D0EF38F0C3
:10716A000350010DF3500008016E000EC7EC37F012
:10717A000350010DF3500008016E010EC7EC37F001
:10718A00042A3F0E0464CCEF38F0CEEF38F0B5EFA6
:10719A0038F0D0EF38F0052A070E0564D7EF38F03B
:1071AA00D9EF38F08FEF38F0DBEF38F01200076EC6
:1071BA009268000E806E0F0EC16E000E936E000E66
:1071CA00816E000E956E000E836E000E836E8A9A93
:1071DA00310E066EB20EE82EFED7062EFCD700D070
:1071EA008A8A8A988A908A928A94530EE82EFED7BF
:1071FA0000F0C00E016E000EC7EC37F0C00E016E33
:10720A00010EC7EC37F0400E016E000EC7EC37F0E6
:10721A00400E016E010EC7EC37F0B80E016E000E7B
:10722A00C7EC37F0B80E016E010EC7EC37F0070451
:10723A00D8A422EF39F024EF39F033EF39F0000EF9
:10724A00926E80683F0E016E000EC7EC37F03F0E5B
:10725A00016E010EC7EC37F03FEF39F03E0E016EBA
:10726A00000EC7EC37F03E0E016E010EC7EC37F088
:10727A003FEF39F0000E80EC38F01200000E80EC7F
:10728A0038F0000E036E000E48EC38F0D70E0C6E84
:10729A007F0E0D6E010E0E6E010E0F6E11EC38F0A0
:1072AA00010E036E000E48EC38F0EA0E0C6E7F0EEB
:1072BA000D6E010E0E6E010E0F6E11EC38F0010EFE
:1072CA00036E320E48EC38F0E40E0C6E7F0E0D6E33
:1072DA00010E0E6E010E0F6E11EC38F0030E036EE6
:1072EA00000E48EC38F0D00E0C6E7F0E0D6E010EBB
:1072FA000E6E010E0F6E11EC38F0030E036E370E90
:10730A0048EC38F0F00E0C6E7F0E0D6E010E0E6E0C
:10731A00010E0F6E11EC38F0040E036E000E48ECED
:10732A0038F0DE0E0C6E7F0E0D6E010E0E6E010E23
:10733A000F6E11EC38F0050E036E000E48EC38F0B3
:10734A00FA0E0C6E7F0E0D6E010E0E6E010E0F6E92
:10735A0011EC38F00B0E116E260E106E5E0EE82E32
:10736A00FED7102EFCD7112EFAD712000F0EC16EBF
:10737A009568000E836E070E946E000E826E000EE4
:10738A00196E000E1A6E000E186E010E176E010E9F
:10739A00DCEC38F03DEF3AF082A0D6EF39F0D8EFC6
:1073AA0039F0E9EF39F0060E036E000E48EC38F0BA
:1073BA00F50E0C6E7F0E0D6E010E0E6E010E0F6E27
:1073CA0011EC38F0E9EF39F082A2EEEF39F0F0EF84
:1073DA0039F001EF3AF0060E036E000E48EC38F071
:1073EA00FC0E0C6E7F0E0D6E010E0E6E010E0F6EF0
:1073FA0011EC38F001EF3AF082A406EF3AF008EF08
:10740A003AF019EF3AF0060E036E000E48EC38F027
:10741A00C80E0C6E7F0E0D6E010E0E6E010E0F6EF3
:10742A0011EC38F019EF3AF019C001F01AC002F065
:10743A00EAEC37F043EC39F019C006F01AC007F04D
:10744A00A7EC37F020EE04F01950D9261A50DA22A8
:10745A00DF50D8A433EF3AF035EF3AF03DEF3AF087
:10746A00000E186E000E176E3DEF3AF03DEF3AF03F
:10747A0017041810D8B444EF3AF046EF3AF0D1EFB7
:10748A0039F048EF3AF000EF00F0086E000E0B6E8C
:10749A000A0E0818D8A454EF3AF056EF3AF05DEF06
:1074AA003AF0000E1C6E1B2ADFEF3AF0DFEF3AF0DB
:1074BA003F0E1C6463EF3AF065EF3AF06CEF3AF076
:1074CA00010E0B6E1C50C00F096E70EF3AF01CC013
:1074DA0009F070EF3AF00850080DF3CF06F0F4CF38
:1074EA0007F0000E0A6E070E0A647EEF3AF080EF8C
:1074FA003AF084EF3AF0DDEF3AF0DDEF3AF03F0E82
:10750A0009648AEF3AF08CEF3AF0A0EF3AF0400EB5
:10751A00095E010E0B6E8A9409504009016E0B50E8
:10752A00C7EC37F01B50B809016E0B50C7EC37F0A7
:10753A008A84A0EF3AF00350D8B4A6EF3AF0A8EF45
:10754A003AF0BCEF3AF00A500624046E000E072007
:10755A00056E050E0424F66E770E0520F76E0800F8
:10756A00F5CF01F00B50C7EC37F0D1EF3AF00A50E3
:10757A000624046E000E0720056E050E0424F66E1E
:10758A00770E0520F76E0800F550FF0A016E0B50C2
:10759A00C7EC37F0D1EF3AF0092A0A2A070E0A6433
:1075AA00D9EF3AF0DBEF3AF084EF3AF0DDEF3AF058
:1075BA00080E1C261200076E000E096E0A0E071826
:1075CA00D8A4EAEF3AF0ECEF3AF0F3EF3AF0000E13
:1075DA001C6E1B2A81EF3BF081EF3BF03F0E1C64CF
:1075EA00F9EF3AF0FBEF3AF002EF3BF0010E096EC9
:1075FA001C50C00F066E06EF3BF01CC006F006EFEB
:10760A003BF0200E075E000E086E020E086410EFB3
:10761A003BF012EF3BF016EF3BF07FEF3BF07FEFD2
:10762A003BF03F0E06641CEF3BF01EEF3BF032EFDF
:10763A003BF0400E065E010E096E8A940650400920
:10764A00016E0950C7EC37F01B50B809016E09509A
:10765A00C7EC37F08A8432EF3BF00350D8B438EFE6
:10766A003BF03AEF3BF056EF3BF00750030D050EA7
:10767A00046E7F0E056EF3500426F450052208505E
:10768A00010DF3500426F450052204C0F6FF05C08C
:10769A00F7FF0800F5CF01F00950C7EC37F073EF98
:1076AA003BF00750030D050E046E7F0E056EF35076
:1076BA000426F45005220850010DF3500426F45014
:1076CA00052204C0F6FF05C0F7FF0800F550FF0ABF
:1076DA00016E0950C7EC37F073EF3BF0062A082A0F
:1076EA00020E08647BEF3BF07DEF3BF016EF3BF0B8
:1076FA007FEF3BF0050E1C26120000000000000080
:10770A00000000000000000000000000000000006F
:10771A00000000000000000000000000000000005F
:10772A00000000000000000000000000000000004F
:10773A00000000000000000000000000000000003F
:10774A00000000000000000000000000000000002F
:10775A00000000000000000000000000000000001F
:10776A00000000000000000000000000000000000F
:10777A0000000000000000000000000000000000FF
:10778A0000000000000000000000000000000000EF
:10779A0000000000000000000000000000000000DF
:1077AA0000000000000000000000000000000000CF
:1077BA0000000000000000000000000000000000BF
:1077CA0000000000000000000000000000000000AF
:1077DA00000000000000000000000000000000009F
:1077EA00000000000000000000000000000000008F
:1077FA00000000000000000000000000000000007F
:10780A0000000000065F5F0600000000070700078F
:10781A00070000147F7F147F7F1400242E6B6B3ABD
:10782A00120000466630180C666200307A4F5D37E7
:10783A007A48000407030000000000001C3E634170
:10784A000000000041633E1C000000082A3E1C1C88
:10785A003E2A0808083E3E080800000080E0600052
:10786A00000000080808080808000000006060001E
:10787A000000006030180C060301003E7F71594D6C
:10788A007F3E0040427F7F40400000627359496F4B
:10789A00660000226349497F360000181C16537F90
:1078AA007F5000276745457D3900003C7E4B49796A
:1078BA00300000030371790F070000367F49497FC2
:1078CA00360000064F49693F1E0000000066660048
:1078DA000000000080E66600000000081C366341D4
:1078EA000000002424242424240000004163361CC0
:1078FA00080000020351590F0600003E7F415D5DFA
:10790A001F1E007C7E13137E7C0000417F7F494945
:10791A007F36001C3E634141632200417F7F416301
:10792A003E1C00417F7F495D416300417F7F491DC5
:10793A000103001C3E6341517372007F7F08087F78
:10794A007F000000417F7F41000000307040417F8E
:10795A003F0100417F7F081C776300417F7F4140E0
:10796A006070007F7F0E1C0E7F7F007F7F060C18E1
:10797A007F7F001C3E6341633E1C00417F7F4909B3
:10798A000F06001E3F21717F5E0000417F7F0919AB
:10799A007F6600266F4D597332000003417F7F4195
:1079AA000300007F7F40407F7F00001F3F60603FF1
:1079BA001F00007F7F3018307F7F0043673C183CF0
:1079CA00674300074F78784F070000476371594DA6
:1079DA00677300007F7F41410000000103060C1815
:1079EA003060000041417F7F000000080C0603065A
:1079FA000C0800808080808080808000000307045B
:107A0A00000000207454543C784000417F3F4848AD
:107A1A00783000387C44446C280000307848493F6C
:107A2A007F4000387C54545C180000487E7F49032C
:107A3A0002000098BCA4A4F87C0400417F7F0804DB
:107A4A007C780000447D7D4000000060E08080FD7D
:107A5A007D0000417F7F10386C440000417F7F40E9
:107A6A000000007C7C18381C7C78007C7C04047C38
:107A7A00780000387C44447C38000084FCF8A42454
:107A8A003C1800183C24A4F8FC8400447C784C047C
:107A9A001C1800485C54547424000000043E7F44BF
:107AAA002400003C7C40403C7C40001C3C60603C24
:107ABA001C00003C7C7038707C3C00446C381038E8
:107ACA006C44009CBCA0A0FC7C00004C64745C4C20
:107ADA0064000008083E7741410000000000777703
:107AEA000000004141773E0808000002030103023A
:107AFA0003010070784C464C7870000E9F91B1FBE0
:107B0A004A00003A7A40407A7A4000387C54555DFF
:107B1A0019000002237555557D7B42217554547D09
:107B2A00794000217555547C784000207457577C61
:107B3A00784000183CA4A4E4400000023B7D55555F
:107B4A005D1B02397D54545D190000397D55545C22
:107B5A0018000001457C7C410100000203457D7D3F
:107B6A0043020001457D7C40000000797D16121613
:107B7A007D790070782B2B78700000447C7C5555F9
:107B8A00450000207454547C7C54547C7E0B097F3D
:107B9A007F4900327B49497B320000327A48487A71
:107BAA00320000327A4A48783000003A7B41417B01
:107BBA007A40003A7A4240787840009ABAA0A0FA0D
:107BCA007A000001193C66663C19013D7D40407D02
:107BDA003D0000183C24E7E7242400687E7F4943DF
:107BEA006620002B2FFCFC2F2B0000FFFF09092F1A
:107BFA00F6F8A040C088FE7F090302207454557D20
:107C0A0079400000447D7D410000003078484A7A7E
:107C1A00320000387840427A7A40007A7A0A0A7A40
:107C2A007000007D7D19317D7D000000262F292FEF
:107C3A002F280000262F292F26000030784D456076
:107C4A002000003838080808080000080808083822
:107C5A003800004F6F3018CCEEBB914F6F30186C64
:107C6A0076FBF90000007B7B000000081C36220826
:107C7A001C362222361C0822361C08AA005500AAE5
:107C8A00005500AA55AA55AA55AA55DDFFAA77DDBF
:107C9A00AAFF77000000FFFF000000101010FFFF8E
:107CAA00000000141414FFFF0000001010FFFF0072
:107CBA00FFFF001010F0F010F0F000141414FCFC98
:107CCA000000001414F7F700FFFF000000FFFF0098
:107CDA00FFFF001414F4F404FCFC0014141717102A
:107CEA001F1F0010101F1F101F1F001414141F1F26
:107CFA00000000101010F0F00000000000001F1F2C
:107D0A001010101010101F1F101010101010F0F08B
:107D1A00101010000000FFFF1010101010101010AB
:107D2A00101010101010FFFF101010000000FFFFBD
:107D3A001414140000FFFF00FFFF1000001F1F10A3
:107D4A001717140000FCFC04F4F414141417171089
:107D5A001717141414F4F404F4F4140000FFFF00C9
:107D6A00F7F71414141414141414141414F7F70051
:107D7A00F7F714141414171714141410101F1F10E3
:107D8A001F1F10141414F4F41414141010F0F0102B
:107D9A00F0F01000001F1F101F1F100000001F1F0F
:107DAA00141414000000FCFC1414140000F0F01069
:107DBA00F0F0101010FFFF10FFFF10141414FFFF53
:107DCA001414141010101F1F000000000000F0F01F
:107DDA00101010FFFFFFFFFFFFFFFFF0F0F0F0F0C1
:107DEA00F0F0F0FFFFFFFF0000000000000000FFBE
:107DFA00FFFFFF0F0F0F0F0F0F0F0F387C446C3868
:107E0A006C4400FCFE2A2A3E1400007E7E02020612
:107E1A00060000027E7E027E7E020063775D496371
:107E2A00630000387C447C3C04040080FE7E2020F1
:107E3A003E1E000406027E7C06020099BDE7E7BDED
:107E4A009900001C3E6B496B3E1C004C7E7301730B
:107E5A007E4C0030784A4F7D390000183C243C3C67
:107E6A00243C1898FC643C3E273D180000000000A2
:107E7A0000000000000000000000000000000000F8
:107E8A0000000000000000000000000000000000E8
:107E9A0000000000000000000000000000000000D8
:107EAA0000000000000000000000000000000000C8
:107EBA0000000000000000000000000000000000B8
:107ECA0000000000000000000000000000000000A8
:107EDA000000000000000000000000000000000098
:107EEA000000000000000000000000000000000088
:107EFA000000000000000000000000000000005C1C
:107F0A00000C000C7C287C7C447C241048285408F3
:107F1A00000C003844004438002010081038108043
:107F2A004000101010004000201008384438007C2F
:107F3A00006454484454281C107C4C54243854205F
:107F4A0004740C285428085438005000805000103B
:107F5A002844282828442810045408384C5C7814EB
:107F6A00787C54283844447C44387C54447C140437
:107F7A003844347C107C007C0020403C7C106C7CB3
:107F8A0040407C087C7C047C7C447C7C140838441B
:107F9A00787C1468485424047C047C407C3C403C33
:107FAA007C207C6C106C1C601C64544C7C44000863
:107FBA001020447C00080408808080040800787837
:107FCA007878787878004152454E44410050726F73
:107FDA006A657400504147455300676F63686900DA
:107FEA004D6963726F0052534B490057455745001C
:057FFA0054414F00009E
:020000040020DA
:08000000FFFFFFFFFFFFFFFF00
:020000040030CA
:0E00000000051F1FFF8385FF0FC00FE00F409C
:00000001FF
