:020000040000FA
:04000000F2EF32F0F9
:1065B000000E046E000E036E03C001F004C002F072
:1065C000E2EF32F0120001010101010101010101BC
:1065D00001010101010101010101010101010101AB
:1065E00001010101C60EF66E650EF76E000EF86E23
:1065F00000EE3DF010EE1EF00900F5CFEEFFE55085
:10660000E150FAE15C6A5B6A000EF86E000111EF7E
:1066100034F00A6E0A50D8B410EF33F012EF33F0B2
:1066200016EF33F08A808A921AEF33F08A928A82C8
:106630001AEF33F0000E956E8A9609C08CFF8A8897
:10664000080EE82EFED700F08A98080EE82EFED736
:1066500000F08A908A921200016E0150D8B433EF94
:1066600033F035EF33F039EF33F08A808A923BEF25
:1066700033F08A928A8295688A868A88080EE82E84
:10668000FED700F083CF02F08A98080EE82EFED7DE
:1066900000F08A908A9202504EEF33F01200275099
:1066A0002810D8A456EF33F058EF33F074EF33F0DE
:1066B0003D0E126E000E136E000E156E0A0E146E55
:1066C000000E176E0A0E166E000E196E030E186E6F
:1066D000000E1B6E0A0E1A6E29C01CF02AC01DF097
:1066E000E6EC36F074EF33F0120001C0D9FF02C0BF
:1066F000DAFF000EDF6E20EE01F00150D9260250C5
:10670000DA22640EDF6E20EE02F00150D92602502C
:10671000DA22640EDF6E20EE03F00150D92602501B
:10672000DA22640EDF6E20EE04F00150D92602500A
:10673000DA22010EDF6E01C001F002C002F0A1EF0B
:1067400033F01200C8EF33F01650D8B4AAEF33F08C
:10675000ACEF33F0B8EF33F017C00BF014C0F6FF16
:1067600015C0F7FF0800F55079EC37F0C4EF33F0AF
:1067700017C00BF014C0F6FF15C0F7FF0800F55066
:106780000FEC38F0C4EF33F0144A152AC8EF33F099
:1067900014C0F6FF15C0F7FF0800F5500009D8A493
:1067A000D4EF33F0D6EF33F0A4EF33F0D8EF33F07B
:1067B00012000D6E000E0C6E800E0D60E2EF33F0D5
:1067C000E4EF33F010EF34F0070E0B64EAEF33F030
:1067D000ECEF33F0F0EF33F010EF34F010EF34F073
:1067E0000DC05CF00BC05BF03F0E0D64FAEF33F0B0
:1067F000FCEF33F002EF34F0400E0D5E010E0C6E34
:1068000002EF34F08A940D504009096E0C5009ECE7
:1068100033F00B50B809096E0C5009EC33F08A8440
:1068200012000F0EC16E9568000E836E070E946EF7
:10683000000E826E000E3B6E000E3C6E000E3A6E35
:10684000010E396E010EB8EC34F04FEF34F03BC05E
:1068500001F03CC002F075EC33F001C03BF002C027
:106860003CF06DEC36F03BC02BF03CC02CF0B1ECB2
:1068700038F020EE04F03B50D9263C50DA22DF50AD
:10688000D8A445EF34F047EF34F04FEF34F0000E6A
:106890003A6E000E396E4FEF34F04FEF34F039049A
:1068A0003A10D8B456EF34F058EF34F027EF34F004
:1068B0005AEF34F000EF00F00B6E000E0D6E070E75
:1068C0000D6465EF34F067EF34F06BEF34F0B7EF41
:1068D00034F0B7EF34F08A94400E096E000E09ECE4
:1068E00033F0400E096E010E09EC33F00D50B8097B
:1068F000096E000E09EC33F00D50B809096E010E57
:1069000009EC33F08A84000E0C6E3F0E0C648BEFA2
:1069100034F08DEF34F091EF34F0ACEF34F0ACEFB5
:1069200034F00B50010DF3500008096E000E09EC15
:1069300033F00B50010DF3500008096E010E09EC05
:1069400033F00C2A3F0E0C64A8EF34F0AAEF34F0B9
:1069500091EF34F0ACEF34F00D2A070E0D64B3EF75
:1069600034F0B5EF34F06BEF34F0B7EF34F01200E1
:106970000F6E9268000E806E0F0EC16E000E936E49
:10698000000E816E000E956E000E836E000E836EFB
:106990008A9A310E0E6EB20EE82EFED70E2EFCD75E
:1069A00000D08A8A8A988A908A928A94530EE82E16
:1069B000FED700F0C00E096E000E09EC33F0C00ED9
:1069C000096E010E09EC33F0400E096E000E09EC61
:1069D00033F0400E096E010E09EC33F0B80E096E6B
:1069E000000E09EC33F0B80E096E010E09EC33F01D
:1069F0000F04D8A4FEEF34F000EF35F00FEF35F0C0
:106A0000000E926E80683F0E096E000E09EC33F0A6
:106A10003F0E096E010E09EC33F01BEF35F03E0E10
:106A2000096E000E09EC33F03E0E096E010E09EC02
:106A300033F01BEF35F0000E5CEC34F01200000E6A
:106A40000C6E000E0B6E000E0E6E070E0E642BEF1A
:106A500035F02DEF35F031EF35F087EF35F087EF7A
:106A600035F0000E0F6E010E0F6439EF35F03BEF7D
:106A700035F03FEF35F07EEF35F07EEF35F08A945C
:106A8000400E096E0F5009EC33F00E50B809096E34
:106A90000F5009EC33F08A84000E0D6E3F0E0D642A
:106AA00054EF35F056EF35F05AEF35F073EF35F01F
:106AB00073EF35F0FD0E0B24F66E7A0E0C20F76E98
:106AC0000800F5CF09F00F5009EC33F00B4A0C2AFF
:106AD0000D2A3F0E0D646FEF35F071EF35F05AEF70
:106AE00035F073EF35F00F2A010E0F647AEF35F0B1
:106AF0007CEF35F03FEF35F07EEF35F00E2A070ED4
:106B00000E6485EF35F087EF35F031EF35F08A9080
:106B10008A9212000F6E000E116E3F0E0F6493EFFB
:106B200035F095EF35F09BEF35F0400E0F5E010E1E
:106B3000116E9BEF35F08A940F9E0F8C0FC009F0F9
:106B4000115009EC33F00BC001F0026A000E046E24
:106B5000080E036EF7EC35F00150BF0BB809096E53
:106B6000115009EC33F08A8411502CEC33F01150A1
:106B70002CEC33F0106E8A940FC009F0115009EC20
:106B800033F00C50D8B4C7EF35F0C9EF35F0DCEF77
:106B900035F00BC00DF0070E0D16010E0E6E0D2A0E
:106BA000D4EF35F0D8900E360D2ED2EF35F00E50D2
:106BB0001010106EF0EF35F00BC00DF0070E0D1633
:106BC000010E0E6E0D2AE7EF35F0D8900E360D2E21
:106BD000E5EF35F00E50FF0A1014106EF0EF35F0AF
:106BE0008A8410C009F0115009EC33F01200000E35
:106BF000066E04BE00EF36F0FEEF35F008EF36F01B
:106C0000036C041ED8B0042A010E066E08EF36F09D
:106C100002BE0FEF36F00DEF36F017EF36F0016CD5
:106C2000021ED8B0022A010E061A17EF36F0000E27
:106C3000086E000E076E03500410D8B422EF36F031
:106C400024EF36F058EF36F0010E056E2EEF36F0D9
:106C5000D89003360436052A2EEF36F004AE33EF13
:106C600036F035EF36F028EF36F039EF36F039EF01
:106C700036F0D890073608360350015C04500258AD
:106C8000D8A045EF36F047EF36F04EEF36F0035020
:106C9000015E0450025A07804EEF36F0D89004325D
:106CA0000332052E39EF36F058EF36F058EF36F054
:106CB0000650D8B45EEF36F060EF36F066EF36F08F
:106CC000076C081ED8B0082A66EF36F007C001F03E
:106CD00008C002F06CEF36F01200000E5CEC34F0ED
:106CE000000E0B6E000ED9EC33F0D70E146E7F0E33
:106CF000156E010E166E010E176EA2EC33F0010E2A
:106D00000B6E000ED9EC33F0EA0E146E7F0E156E8A
:106D1000010E166E010E176EA2EC33F0010E0B6E13
:106D2000320ED9EC33F0E40E146E7F0E156E010EA8
:106D3000166E010E176EA2EC33F0030E0B6E000EF2
:106D4000D9EC33F0D00E146E7F0E156E010E166E58
:106D5000010E176EA2EC33F0030E0B6E370ED9EC5A
:106D600033F0F00E146E7F0E156E010E166E010ECE
:106D7000176EA2EC33F0040E0B6E000ED9EC33F05C
:106D8000DE0E146E7F0E156E010E166E010E176E5E
:106D9000A2EC33F0050E0B6E000ED9EC33F0FA0EB8
:106DA000146E7F0E156E010E166E010E176EA2EC9C
:106DB00033F0150E196E4B0E186EBE0EE82EFED770
:106DC000182EFCD7192EFAD700D01200000E246E10
:106DD000000E236E000E266E000E256E000E226E33
:106DE000000E216E16C023F017C024F061EF37F0BB
:106DF00014C025F015C026F046EF37F021501224BC
:106E0000D96E22501320DA6EDF50D8B40AEF37F073
:106E10000CEF37F01EEF37F01C041D10D8A413EF51
:106E200037F015EF37F01EEF37F023C00BF0010EEF
:106E30000C6E25508AEC35F040EF37F021501224CB
:106E4000D96E22501320DA6EDF50D8B42AEF37F013
:106E50002CEF37F040EF37F01C501D10D8A433EF63
:106E600037F035EF37F040EF37F023C00BF0000E6E
:106E70000C6E25508AEC35F040EF37F040EF37F0DC
:106E8000214A222A254A262A46EF37F01A5014248E
:106E90001E6E1B5015201F6E1E50255C2650800A4A
:106EA000206E1F50800A2058D8A059EF37F05BEFB2
:106EB00037F0FEEF36F05DEF37F0234A242A61EF1A
:106EC00037F0185016241E6E195017201F6E1E50D2
:106ED000235C2450800A206E1F50800A2058D8A0BE
:106EE00074EF37F076EF37F0F8EF36F078EF37F0F1
:106EF0001200106E000E136E0A0E1018D8A483EF45
:106F000037F085EF37F08CEF37F0000E5C6E5B2AC0
:106F10000EEF38F00EEF38F03F0E5C6492EF37F072
:106F200094EF37F09BEF37F0010E136E5C50C00FFB
:106F3000116E9FEF37F05CC011F09FEF37F01050EB
:106F4000080DF3CF0EF0F4CF0FF0000E126E070E07
:106F50001264ADEF37F0AFEF37F0B3EF37F00CEF6F
:106F600038F00CEF38F03F0E1164B9EF37F0BBEF9B
:106F700037F0CFEF37F0400E115E010E136E8A949A
:106F800011504009096E135009EC33F05B50B809F9
:106F9000096E135009EC33F08A84CFEF37F00B50B1
:106FA000D8B4D5EF37F0D7EF37F0EBEF37F012501A
:106FB0000E240C6E000E0F200D6EFD0E0C24F66ECE
:106FC000720E0D20F76E0800F5CF09F0135009EC92
:106FD00033F000EF38F012500E240C6E000E0F202C
:106FE0000D6EFD0E0C24F66E720E0D20F76E08006D
:106FF000F550FF0A096E135009EC33F000EF38F03A
:10700000112A122A070E126408EF38F00AEF38F03E
:10701000B3EF37F00CEF38F0080E5C2612000F6E5D
:10702000000E116E0A0E0F18D8A419EF38F01BEFDE
:1070300038F022EF38F0000E5C6E5B2AB0EF38F0CB
:10704000B0EF38F03F0E5C6428EF38F02AEF38F0EC
:1070500031EF38F0010E116E5C50C00F0E6E35EF3F
:1070600038F05CC00EF035EF38F0200E0F5E000EE9
:10707000106E020E10643FEF38F041EF38F045EF2C
:1070800038F0AEEF38F0AEEF38F03F0E0E644BEF55
:1070900038F04DEF38F061EF38F0400E0E5E010E23
:1070A000116E8A940E504009096E115009EC33F0AC
:1070B0005B50B809096E115009EC33F08A8461EF16
:1070C00038F00B50D8B467EF38F069EF38F085EF3F
:1070D00038F00F50030DFD0E0C6E7E0E0D6EF3504A
:1070E0000C26F4500D221050010DF3500C26F450D4
:1070F0000D220CC0F6FF0DC0F7FF0800F5CF09F018
:10710000115009EC33F0A2EF38F00F50030DFD0ED3
:107110000C6E7E0E0D6EF3500C26F4500D221050A6
:10712000010DF3500C26F4500D220CC0F6FF0DC0DB
:10713000F7FF0800F550FF0A096E115009EC33F013
:10714000A2EF38F00E2A102A020E1064AAEF38F0CF
:10715000ACEF38F045EF38F0AEEF38F0050E5C26B6
:107160001200000E5CEC34F0000E0B6E000ED9EC39
:1071700033F01FEC35F0000E336E010E326E000E50
:10718000286E000E276E000E2A6E010E296E4FEC3F
:1071900033F0000E2F6E000E2E6E000E316E000EBC
:1071A000306E6DEF39F082A0D8EF38F0DAEF38F0BA
:1071B00019EF39F0000E316E010E306E32C027F03B
:1071C00033C028F0000E2A6E000E296E4FEC33F00B
:1071D0003206D8A0330633BEF8EF38F0335006E15C
:1071E0003204D8B0F6EF38F0F8EF38F0FEEF38F0B0
:1071F000000E336E010E326EFEEF38F032C027F013
:1072000033C028F0000E2A6E010E296E4FEC33F0C9
:10721000060E0B6E000ED9EC33F0F50E146E7F0ED9
:10722000156E010E166E010E176EA2EC33F065EFAF
:1072300039F082A41EEF39F020EF39F049EF39F030
:10724000324A332A33BE2EEF39F0335009E1050EAE
:10725000325CD8A02EEF39F030EF39F034EF39F04E
:10726000000E336E040E326E000E316E010E306E63
:10727000060E0B6E000ED9EC33F0C80E146E7F0EA6
:10728000156E010E166E010E176EA2EC33F065EF4F
:1072900039F082A24EEF39F050EF39F065EF39F056
:1072A000060E0B6E000ED9EC33F0FC0E146E7F0E42
:1072B000156E010E166E010E176EA2EC33F065EF1F
:1072C00039F065EF39F065EF39F0D8EC32F001C0F4
:1072D00032F002C033F06DEF39F020EE04F02B50A5
:1072E000D9262C50DA22DE04D8B479EF39F07BEFBE
:1072F00039F0D3EF38F07DEF39F0120000000000D4
:10730000000000000000000000000000000000007D
:10731000000000000000000000000000000000006D
:10732000000000000000000000000000000000005D
:10733000000000000000000000000000000000004D
:10734000000000000000000000000000000000003D
:10735000000000000000000000000000000000002D
:10736000000000000000000000000000000000001D
:10737000000000000000000000000000000000000D
:1073800000000000000000000000000000000000FD
:1073900000000000000000000000000000000000ED
:1073A00000000000000000000000000000000000DD
:1073B00000000000000000000000000000000000CD
:1073C00000000000000000000000000000000000BD
:1073D00000000000000000000000000000000000AD
:1073E000000000000000000000000000000000009D
:1073F000000000000000000000000000000000008D
:10740000000000000000065F5F06000000000707A4
:107410000007070000147F7F147F7F1400242E6B69
:107420006B3A120000466630180C666200307A4FE4
:107430005D377A48000407030000000000001C3E8E
:1074400063410000000041633E1C000000082A3E2A
:107450001C1C3E2A0808083E3E080800000080E088
:10746000600000000008080808080800000000602C
:1074700060000000006030180C060301003E7F71C0
:10748000594D7F3E0040427F7F404000006273596B
:10749000496F660000226349497F360000181C16B8
:1074A000537F7F5000276745457D3900003C7E4B68
:1074B0004979300000030371790F070000367F49D6
:1074C000497F360000064F49693F1E0000000066F4
:1074D00066000000000080E66600000000081C3620
:1074E000634100000024242424242400000041637C
:1074F000361C080000020351590F0600003E7F4170
:107500005D5D1F1E007C7E13137E7C0000417F7F2B
:1075100049497F36001C3E634141632200417F7F21
:1075200041633E1C00417F7F495D416300417F7F95
:10753000491D0103001C3E6341517372007F7F08A7
:10754000087F7F000000417F7F41000000307040D5
:10755000417F3F0100417F7F081C776300417F7FAF
:1075600041406070007F7F0E1C0E7F7F007F7F0692
:107570000C187F7F001C3E6341633E1C00417F7FEF
:1075800049090F06001E3F21717F5E0000417F7F89
:1075900009197F6600266F4D597332000003417F41
:1075A0007F410300007F7F40407F7F00001F3F60DE
:1075B000603F1F00007F7F3018307F7F0043673CB3
:1075C000183C674300074F78784F07000047637106
:1075D000594D677300007F7F4141000000010306A1
:1075E0000C183060000041417F7F000000080C064D
:1075F00003060C080080808080808080800000036B
:107600000704000000207454543C784000417F3F40
:107610004848783000387C44446C28000030784872
:10762000493F7F4000387C54545C180000487E7FFE
:10763000490302000098BCA4A4F87C0400417F7FA9
:1076400008047C780000447D7D4000000060E080FC
:1076500080FD7D0000417F7F10386C440000417F39
:107660007F400000007C7C18381C7C78007C7C0407
:10767000047C780000387C44447C38000084FCF8AA
:10768000A4243C1800183C24A4F8FC8400447C7812
:107690004C041C1800485C54547424000000043E40
:1076A0007F442400003C7C40403C7C40001C3C600B
:1076B000603C1C00003C7C7038707C3C00446C38A2
:1076C00010386C44009CBCA0A0FC7C00004C64748E
:1076D0005C4C64000008083E774141000000000057
:1076E00077770000004141773E080800000203015F
:1076F000030203010070784C464C7870000E9F9195
:10770000B1FB4A00003A7A40407A7A4000387C5413
:10771000555D19000002237555557D7B4221755436
:10772000547D794000217555547C78400020745771
:10773000577C784000183CA4A4E4400000023B7D44
:1077400055555D1B02397D54545D190000397D5536
:10775000545C18000001457C7C4101000002034597
:107760007D7D43020001457D7C40000000797D164F
:1077700012167D790070782B2B78700000447C7C89
:107780005555450000207454547C7C54547C7E0B29
:10779000097F7F4900327B49497B320000327A48B9
:1077A000487A320000327A4A48783000003A7B4109
:1077B000417B7A40003A7A4240787840009ABAA0F9
:1077C000A0FA7A000001193C66663C19013D7D4033
:1077D000407D3D0000183C24E7E7242400687E7FBC
:1077E00049436620002B2FFCFC2F2B0000FFFF09D4
:1077F000092FF6F8A040C088FE7F090302207454C8
:10780000557D79400000447D7D410000003078487E
:107810004A7A320000387840427A7A40007A7A0A0E
:107820000A7A7000007D7D19317D7D000000262FD1
:10783000292F2F280000262F292F26000030784DD1
:1078400045602000003838080808080000080808CB
:1078500008383800004F6F3018CCEEBB914F6F30B6
:10786000186C76FBF90000007B7B000000081C36DA
:1078700022081C362222361C0822361C08AA005573
:1078800000AA005500AA55AA55AA55AA55DDFFAA77
:1078900077DDAAFF77000000FFFF00000010101046
:1078A000FFFF000000141414FFFF0000001010FF81
:1078B000FF00FFFF001010F0F010F0F0001414149F
:1078C000FCFC0000001414F7F700FFFF000000FFAD
:1078D000FF00FFFF001414F4F404FCFC0014141760
:1078E00017101F1F0010101F1F101F1F001414144B
:1078F0001F1F000000101010F0F00000000000003A
:107900001F1F1010101010101F1F1010101010103B
:10791000F0F0101010000000FFFF101010101010F9
:107920001010101010101010FFFF101010000000A9
:10793000FFFF1414140000FFFF00FFFF1000001FE2
:107940001F101717140000FCFC04F4F4141414178F
:1079500017101717141414F4F404F4F4140000FFAF
:10796000FF00F7F71414141414141414141414F757
:10797000F700F7F714141414171714141410101F29
:107980001F101F1F10141414F4F41414141010F00A
:10799000F010F0F01000001F1F101F1F100000005B
:1079A0001F1F141414000000FCFC1414140000F039
:1079B000F010F0F0101010FFFF10FFFF101414145F
:1079C000FFFF1414141010101F1F0000000000000F
:1079D000F0F0101010FFFFFFFFFFFFFFFFF0F0F0CF
:1079E000F0F0F0F0F0FFFFFFFF00000000000000EB
:1079F00000FFFFFFFF0F0F0F0F0F0F0F0F387C441B
:107A00006C386C4400FCFE2A2A3E1400007E7E0284
:107A10000206060000027E7E027E7E020063775D23
:107A20004963630000387C447C3C04040080FE7E93
:107A300020203E1E000406027E7C06020099BDE75F
:107A4000E7BD9900001C3E6B496B3E1C004C7E73E9
:107A500001737E4C0030784A4F7D390000183C2479
:107A60003C3C243C1898FC643C3E273D1800000038
:107A70000000000000000000000000000000000006
:107A800000000000000000000000000000000000F6
:107A900000000000000000000000000000000000E6
:107AA00000000000000000000000000000000000D6
:107AB00000000000000000000000000000000000C6
:107AC00000000000000000000000000000000000B6
:107AD00000000000000000000000000000000000A6
:107AE0000000000000000000000000000000000096
:107AF0000000000000000000000000000000000086
:107B00000055AA00000000000F1FF8FFF81F0F002B
:107B100000FF3F1E000000000000000000C3000046
:107B20000000000000000000001E3F7FFFFEFCFE82
:107B3000FF7F3F1E0000000000000000002000004A
:107B4000000000000000000000007CFEFFFFC78373
:107B50008382000000000000000000000000000020
:107B600000000000000000000000E0F0F0F0F0FF76
:107B700003060000000000000000000000000000FC
:107B800000010202020202000000010101000000E7
:107B900000010000000202020000000002030200D7
:107BA00002020202000000000002020202010101C2
:107BB00000000202020000000002020202B90200FC
:107BC00000000000000202020000000001010101AB
:107BD000010000020202020202000000000702028D
:107BE0000000000002020202020200010101010085
:107BF0000000020202020202020000000000000077
:107C00000000000000000000000000000000000074
:107C10000000000000000000000000000000000064
:107C20000000000000000000000000000000000054
:107C3000000000000000000000000000000700003D
:107C40000000000000000000000000000000000034
:107C50000000000000000000000000000000000024
:107C60000000000000000000000000000000000014
:107C70000000000000000000000000000000000004
:107C800000000000000000000000000000000000F4
:107C900000000000000000000000000000000000E4
:107CA00000000000000000000000000000000000D4
:107CB00000000000000000000000000000000000C4
:107CC00000000000000000000000000000000000B4
:107CD00000000000000000000000000000000000A4
:107CE0000000000000000000000000000000000094
:107CF0000000000000000000000000000000000084
:107D00000000000000000000000000000000000073
:107D10000000000000000000000000000000000063
:107D20000000000000000000000000000000000053
:107D30000000000000000000000000000000000043
:107D40000000000000000000000000000000000033
:107D50000000000000000000000000000000000023
:107D60000000000000000000000000000000000013
:107D70000000000000000000000000000000000003
:107D800000000000000000000000000000000000F3
:107D900000000000000000000000000000000000E3
:107DA00000000000000000000000000000000000D3
:107DB00000000000000000000000000000000000C3
:107DC00000000000000000000000000000000000B3
:107DD00000000000000000000000000000000000A3
:107DE0000000000000000000000000000000000093
:107DF0000000000000000000000000000000000083
:107E00000000004040000000004040400000000032
:107E100040400000000040404040000000E0404082
:107E20004040400000000000404040400000000092
:107E300040000000000000004040404040C0404082
:107E40004040400000000040404000000000404032
:107E500040000000000000000000404040C04040E2
:107E60004040400000004040404000000000004012
:107E70000000000040404040000000000000000002
:107E800000000000000000000000000000000000F2
:107E900000000000000000000000000000000000E2
:107EA00000000000000000000000000000000000D2
:107EB00000000000000000000000000000FF0000C3
:107EC00000000000000000000000000000000000B2
:107ED000000000000000000000000000000300009F
:107EE0000000000000000000000000000000000092
:107EF0000000000000000000000000000000000082
:107F0000005C000C000C7C287C7C447C24104828FD
:107F10005408000C00384400443800201008103881
:107F20001080400010101000400020100838443825
:107F3000007C006454484454281C107C4C54243861
:107F4000542004740C2854280854380050008050E1
:107F500000102844282828442810045408384C5C71
:107F60007814787C54283844447C44387C54447CCD
:107F700014043844347C107C007C0020403C7C108D
:107F80006C7C40407C087C7C047C7C447C7C1408B9
:107F90003844787C1468485424047C047C407C3C3D
:107FA000403C7C207C6C106C1C601C64544C7C44F9
:107FB00000081020447C0008040880808004080029
:107FC0000F0CFF0C0F00FF1E787878787878780017
:107FD0004152454E44410050726F6A6574005041F1
:107FE00047455300676F636869004D6963726F00AE
:0F7FF00052534B4900574557450054414F00002D
:020000040020DA
:08000000FFFFFFFFFFFFFFFF00
:020000040030CA
:0E00000000051F1FFF8385FF0FC00FE00F409C
:00000001FF
