:020000040000FA
:0400000007EF00F016
:100008005A8266ED12F02CEF0AF0000E416E000ED7
:10001800406E000E416E000E406E1EEF01F0D40ED1
:10002800346E000E356ED8904034D96E4134DA6E95
:10003800D890D936DA363450D9263550DA22DF50FE
:10004800366E376A0001E1516425386E000E65216D
:10005800396E3650385C3950800A3A6E3750800A0B
:100068003A58D8A03AEF00F03CEF00F01AEF01F050
:10007800E1516425346E000E6521356ED40E366E5E
:10008800000E376ED8904034D96E4134DA6ED8906D
:10009800D936DA363650D9263750DA22DF50386E5C
:1000A800396A40C03AF041C03BF0D8903A363B3606
:1000B800D8903A363B36030E3A26000E3B22D40E31
:1000C8003A24D96E000E3B20DA6EDF503C6E3C506D
:1000D8003826000E39223450385C3950800A3D6E7B
:1000E8003550800A3D58D8A07CEF00F07EEF00F034
:1000F8001AEF01F040C034F041C035F0D8903436E2
:100108003536D89034363536010E3426000E352271
:10011800D40E3424D96E000E3520DA6EDF50366ED8
:10012800376AE2516225386E000E6321396E365007
:10013800385C3950800A3A6E3750800A3A58D8A04D
:10014800A8EF00F0AAEF00F01AEF01F0E2516225E3
:10015800346E000E6321356E40C036F041C037F072
:10016800D89036363736D89036363736010E36269A
:10017800000E3722D40E3624D96E000E3720DA6EE0
:10018800DF50386E396A40C03AF041C03BF0D89031
:100198003A363B36D8903A363B36020E3A26000EAF
:1001A8003B22D40E3A24D96E000E3B20DA6EDF5083
:1001B8003C6E3C503826000E39223450385C395099
:1001C800800A3D6E3550800A3D58D8A0EEEF00F009
:1001D800F0EF00F01AEF01F0000EE46F010EE36F8C
:1001E800FF0E6025606FFF0E6121616F000EE16FE9
:1001F800000EE26F000E126E010E136E000E156EE9
:100208001E0E146E000E176E280E166E000E196E56
:10021800090E186E000E1B6E0E0E1A6E000E1D6E65
:10022800000E1C6E10EC09F01AEF01F0404A412A4A
:100238001EEF01F05850405C4150800A346E59500E
:10024800800A3458D8A02BEF01F02DEF01F013EFFE
:1002580000F02FEF01F00001E305E411D8A437EF17
:1002680001F039EF01F093EF01F0000E3F6E000E40
:100278003E6E1E0EE16F000EE26F80EF01F005EC9E
:100288000FF005EC0FF005EC0FF0000E126E010EEA
:10029800136EE1C014F0156AE2C016F0176A000E7A
:1002A800196E090E186E000E1B6E0E0E1A6E000ED9
:1002B8001D6E000E1C6E10EC09F00A0E0001E227FC
:1002C800000E126E010E136EE1C014F0156AE2C042
:1002D80016F0176A000E196E090E186E000E1B6EC6
:1002E8000E0E1A6E000E1D6E010E1C6E10EC09F03B
:1002F8003E4A3F2A80EF01F0040E3E183F10D8A472
:1003080088EF01F08AEF01F043EF01F08CEF01F084
:10031800000E0001E46F000EE36F93EF01F012008E
:1003280000000000000000000000000000000000C5
:1003380000000000000000000000000000000000B5
:1003480000000000000000000000000000000000A5
:100358000000000000000000000000000000000095
:100368000000000000000000000000000000000085
:100378000000000000000000000000000000000075
:100388000000000000000000000000000000000065
:100398000000000000000000000000000000000055
:1003A8000000000000000000000000000000000045
:1003B8000000000000000000000000000000000035
:1003C8000000000000000000000000000000000025
:1003D8000000000000000000000000000000000015
:1003E8000000000000000000000000000000000005
:1003F80000000000000000000000000000000000F5
:1004080000000000000000000000000000000000E4
:1004180000000000000000000000000000000000D4
:1004280000000100000101010100000001000000BE
:1004380000000000000101010101010101010101A9
:10044800010101010100000000000000000001019D
:100458000100000000000100000000000000000092
:100468000000000000000100000000000000000083
:100478000000010000000001000000000000000072
:100488000000000000000000000000000000000064
:100498000000000001000001010100000000000050
:1004A8000000000000000000000000000000000044
:1004B8000000000000000100010000000000000032
:1004C8000000000000000000000000000000000024
:1004D8000000000000000000010001000000000012
:1004E8000000000000000000000000000000000004
:1004F80000000000000000000000010001000000F2
:1005080000000000000000000000000000000000E3
:1005180000000000000000000000000001000101D0
:1005280001000000000000000000000000000000C2
:1005380000000000000000000000000000000100B2
:1005480000000001000000000101000000000000A0
:100558000000000000000000000000000000000093
:10056800010000000001000000000000010100007F
:100578000000000000000000000000000000000073
:100588000001000000000001000000000000000160
:10059800010101010000000000000000000101014C
:1005A800010101000000000000010000000000003F
:1005B8000000000000000100000000000000000032
:1005C8000000000100000000000000010000000021
:1005D8000000000000000000010000000100000011
:1005E8000000000000010000000000000001000001
:1005F80000000000000000000000010000000100F1
:1006080000000000000000010000000000000001E0
:1006180001010101010101010101010101010101C2
:100628000101010101010101010100000000000EAA
:1006380088EC10F0000E0B6E000EDEEC12F033ECBE
:100648000EF0FF0E286E2768000E2A6E010E296E26
:10065800A3EC09F048EC07F0000E496E000E486E56
:10066800000E456E000E446E000E476E000E466E7C
:100678002AEF04F046504710D8A445EF03F047EF9F
:1006880003F0C2EF03F082A04CEF03F04EEF03F04B
:1006980078EF03F0000E476E010E466E48C027F053
:1006A80049C028F0000E2A6E000E296EA3EC09F04E
:1006B8004806D8A0490649BE66EF03F064EF03F088
:1006C8006CEF03F0000E496E070E486E6CEF03F0F6
:1006D80048C027F049C028F0000E2A6E010E296E86
:1006E800A3EC09F0C2EF03F082A47DEF03F07FEFE3
:1006F80003F0AFEF03F0000E476E010E466E48C0E0
:1007080027F049C028F0000E2A6E000E296EA3ECCF
:1007180009F0484A492A49BE9BEF03F0495009E1CC
:10072800080E485CD8A09BEF03F09DEF03F0A3EF01
:1007380003F0000E496E000E486EA3EF03F048C0A8
:1007480027F049C028F0000E2A6E010E296EA3EC8E
:1007580009F0C2EF03F082A2B4EF03F0B6EF03F0A2
:10076800C2EF03F0000E476E020E466EC2EF03F0B2
:10077800C2EF03F0C2EF03F0C2EF03F082B0C7EF9D
:1007880003F0C9EF03F009EF04F082B2CEEF03F0F3
:10079800D0EF03F009EF04F082B4D5EF03F0D7EF00
:1007A80003F009EF04F046504710D8B4DEEF03F029
:1007B800E0EF03F009EF04F0020E46184710D8A442
:1007C800E8EF03F0EAEF03F003EF04F048C042F06B
:1007D80049C043F0E4EC10F0000E0B6E000EDEECA6
:1007E80012F033EC0EF048C027F049C028F0000E94
:1007F8002A6E010E296EA3EC09F003EF04F0000E37
:10080800476E000E466E09EF04F0320E0001DD61FE
:1008180010EF04F012EF04F016EF04F016EC13F0EA
:100828001AEF04F048EC07F01AEF04F0640E000128
:10083800DD19D8A422EF04F024EF04F02AEF04F025
:100848004BEC13F02AEF04F02AEF04F00001E00566
:10085800D8B431EF04F033EF04F03EEF03F035EF96
:1008680004F01200000E88EC10F0000E0B6E000E63
:10087800DEEC12F0CC0E146E7F0E156E010E166EA5
:10088800010E176E3DEC11F0000E0B6E320EDEEC11
:1008980012F0A70E146E7F0E156E010E166E010E65
:1008A800176E3DEC11F0000E196E000E186E5DEF1C
:1008B80004F0020E0B6E000EDEEC12F0E50E146E64
:1008C8007F0E156E010E166E010E176E3DEC11F0BF
:1008D800020E0B6E320EDEEC12F0DDC00FF0106A65
:1008E800550E116E000E126EC8EC0DF0550E146EFA
:1008F800000E156E010E166E010E176E3DEC11F00E
:10090800550E016E000E026E000E046E000E036E90
:10091800000E066E030E056E21EC05F0030E0B6E3D
:10092800000EDEEC12F09E0E146E7F0E156E010E98
:10093800166E010E176E3DEC11F0030E0B6E410E94
:10094800DEEC12F0DEC00FF0106A550E116E000ECC
:10095800126EC8EC0DF0550E146E000E156E010ED9
:10096800166E010E176E3DEC11F0550E016E000E5D
:10097800026E000E046E000E036E000E066E030E6D
:10098800056E21EC05F0040E0B6E000EDEEC12F085
:10099800C50E146E7F0E156E010E166E010E176EC3
:1009A8003DEC11F0040E0B6E370EDEEC12F0DFC0DA
:1009B8000FF0106A550E116E000E126EC8EC0DF095
:1009C800550E146E000E156E010E166E010E176E82
:1009D8003DEC11F0550E016E000E026E000E046E15
:1009E800000E036E000E066E030E056E21EC05F078
:1009F80082A201EF05F003EF05F009EF05F0000E04
:100A0800196E010E186E09EF05F018041910D8B404
:100A180010EF05F012EF05F01DEF05F082A217EFB9
:100A280005F019EF05F05DEF04F01DEF05F01DEF7F
:100A380005F0000E88EC10F0120001C00DF002C0A5
:100A48000EF005500610D8A42CEF05F02EEF05F097
:100A580032EF05F0FFEF05F0FFEF05F00DC0D9FF0D
:100A68000EC0DAFF03C0DFFFFF0E076EFF0E086E31
:100A780005C009F006C00AF00750092608500A22E6
:100A880009500D24D96E0A500E20DA6E03C0DFFF1C
:100A9800065007E1030E055CD8B055EF05F057EF97
:100AA80005F05BEF05F0FFEF05F0FFEF05F020EE36
:100AB80001F00D50D9260E50DA2203C0DFFF20EED8
:100AC80002F00D50D9260E50DA2203C0DFFFFE0EC9
:100AD800076EFF0E086E05C009F006C00AF0075041
:100AE800092608500A2209500D24D96E0A500E20F2
:100AF800DA6E03C0DFFFFD0E076EFF0E086E05C03D
:100B080009F006C00AF00750092608500A220950C1
:100B18000D24D96E0A500E20DA6E03C0DFFF06508E
:100B280007E1070E055CD8B09CEF05F09EEF05F0D5
:100B3800A2EF05F0FFEF05F0FFEF05F020EE03F060
:100B48000D50D9260E50DA2203C0DFFFFC0E076EC7
:100B5800FF0E086E05C009F006C00AF00750092606
:100B680008500A2209500D24D96E0A500E20DA6E58
:100B780003C0DFFF065007E1090E055CD8B0C7EFD8
:100B880005F0C9EF05F0CDEF05F0FFEF05F0FFEF39
:100B980005F00DC007F00EC008F0071E081E074A32
:100BA800082A030E07140B6E0C6A0B500D260C5006
:100BB8000E220B50055E0C50065AFC0E0516FF0E51
:100BC8000616F4EF05F00DC0D9FF0EC0DAFF03C01A
:100BD800DFFF0506D8A006060D4A0E2AF4EF05F039
:100BE80005500610D8A4FBEF05F0FDEF05F0E7EF80
:100BF80005F0FFEF05F01200000E88EC10F024EC71
:100C080012F01E0E0001E16F280EE26F000E126E48
:100C1800010E136EE1C014F0156AE2C016F0176AEF
:100C2800000E196E090E186E000E1B6E0E0E1A6E4F
:100C3800000E1D6E010E1C6E10EC09F024EF06F07C
:100C480005EC0FF009EC00F082A22DEF06F02FEF73
:100C580006F033EF06F07BEC08F033EF06F0000EF9
:100C68000B6E640EDEEC12F060C00FF061C010F085
:100C7800550E116E000E126EC8EC0DF0550E146E66
:100C8800000E156E010E166E010E176E3DEC11F07A
:100C9800550E016E000E026E000E046E000E036EFD
:100CA800000E066E030E056E21EC05F00001605182
:100CB8006111D8A462EF06F064EF06F024EF06F0A5
:100CC80068EF06F068EF06F0000E0B6E000EDEEC23
:100CD80012F0F00E146E7F0E156E010E166E010ED8
:100CE800176E3DEC11F0040E0B6E000EDEEC12F0E8
:100CF800B00E146E7F0E156E010E166E010E176E75
:100D08003DEC11F0060E0B6E000EDEEC12F0EB0E51
:100D1800146E7F0E156E010E166E010E176E3DECE9
:100D280011F082A09AEF06F09CEF06F068EF06F04B
:100D3800000E0001616F030E606FA5EF06F068EF0B
:100D480006F012000F6E000E116E0A0E0F18D8A4CE
:100D5800B0EF06F0B2EF06F0B9EF06F0000E546EF1
:100D6800532A47EF07F047EF07F03F0E5464BFEFF1
:100D780006F0C1EF06F0C8EF06F0010E116E5450F0
:100D8800C00F0E6ECCEF06F054C00EF0CCEF06F09C
:100D9800200E0F5E000E106E020E1064D6EF06F0E5
:100DA800D8EF06F0DCEF06F045EF07F045EF07F067
:100DB8003F0E0E64E2EF06F0E4EF06F0F8EF06F0FF
:100DC800400E0E5E010E116E8A940E504009096E97
:100DD8001150A9EC13F05350B809096E1150A9EC41
:100DE80013F08A84F8EF06F00B50D8B4FEEF06F043
:100DF80000EF07F01CEF07F00F50030DD30E0C6E39
:100E08007E0E0D6EF3500C26F4500D221050010D7D
:100E1800F3500C26F4500D220CC0F6FF0DC0F7FF5E
:100E28000800F5CF09F01150A9EC13F039EF07F0DD
:100E38000F50030DD30E0C6E7E0E0D6EF3500C2664
:100E4800F4500D221050010DF3500C26F4500D22D1
:100E58000CC0F6FF0DC0F7FF0800F550FF0A096E39
:100E68001150A9EC13F039EF07F00E2A102A020EE0
:100E7800106441EF07F043EF07F0DCEF06F045EFB1
:100E880007F0050E54261200EE0E126E040E136EB5
:100E9800000E156E340E146E000E176E170E166EB9
:100EA800000E196E180E186E000E1B6E220E1A6EAA
:100EB800000E1D6E010E1C6E10EC09F0000E126E75
:100EC800030E136E000E156E340E146E000E176EA0
:100ED800170E166E000E196E070E186E000E1B6E9A
:100EE800220E1A6E000E1D6E010E1C6E10EC09F01B
:100EF8007E0E126E020E136E000E156E340E146EF8
:100F0800000E176E210E166E000E196E030E186E67
:100F1800000E1B6E220E1A6E000E1D6E010E1C6E48
:100F280010EC09F0000E126E030E136E000E156E13
:100F3800340E146E000E176E170E166E000E196E14
:100F4800070E186E000E1B6E220E1A6E000E1D6E16
:100F5800000E1C6E10EC09F0000E126E040E136EDB
:100F6800000E156E340E146E000E176E170E166EE8
:100F7800000E196E070E186E000E1B6E220E1A6EEA
:100F8800000E1D6E010E1C6E10EC09F0000E126EA4
:100F9800040E136E000E156E340E146E000E176ECE
:100FA800170E166E000E196E070E186E000E1B6EC9
:100FB800220E1A6E000E1D6E000E1C6E10EC09F04B
:100FC8001200106E000E136E0A0E1018D8A4EFEF60
:100FD80007F0F1EF07F0F8EF07F0000E546E532A10
:100FE8007AEF08F07AEF08F03F0E5464FEEF07F04E
:100FF80000EF08F007EF08F0010E136E5450C00F11
:10100800116E0BEF08F054C011F00BEF08F0105000
:10101800080DF3CF0EF0F4CF0FF0000E126E070E8E
:10102800126419EF08F01BEF08F01FEF08F078EFD3
:1010380008F078EF08F03F0E116425EF08F027EF6D
:1010480008F03BEF08F0400E115E010E136E8A9413
:1010580011504009096E1350A9EC13F05350B80908
:10106800096E1350A9EC13F08A843BEF08F00B507B
:10107800D8B441EF08F043EF08F057EF08F01250EA
:101088000E240C6E000E0F200D6ED30E0C24F66E7F
:10109800720E0D20F76E0800F5CF09F01350A9EC79
:1010A80013F06CEF08F012500E240C6E000E0F2097
:1010B8000D6ED30E0C24F66E720E0D20F76E08001E
:1010C800F550FF0A096E1350A9EC13F06CEF08F005
:1010D800112A122A070E126474EF08F076EF08F04E
:1010E8001FEF08F078EF08F0080E54261200000EE3
:1010F800356E000E346EBAEF08F005EC0FF0000EF6
:10110800126E010E136EE1C014F0156AE2C016F0FB
:10111800176A000E196E090E186E000E1B6E0E0E61
:101128001A6E000E1D6E000E1C6E10EC09F0040EF7
:101138000001E25F000E126E010E136EE1C014F0A2
:10114800156AE2C016F0176A000E196E090E186EBD
:10115800000E1B6E0E0E1A6E000E1D6E010E1C6E1A
:1011680010EC09F0344A352ABAEF08F0050E3418A5
:101178003510D8A4C2EF08F0C4EF08F081EF08F0EA
:1011880003EF09F003EF09F005EC0FF0000E126E03
:10119800010E136EE1C014F0156AE2C016F0176A6A
:1011A800000E196E090E186E000E1B6E0E0E1A6ECA
:1011B800000E1D6E000E1C6E10EC09F0040E0001EE
:1011C800E227000E126E010E136EE1C014F0156ACC
:1011D800E2C016F0176A000E196E090E186E000E9E
:1011E8001B6E0E0E1A6E000E1D6E010E1C6E10EC9C
:1011F80009F005EC0FF0344A352A03EF09F00A0E1E
:1012080034183510D8A40BEF09F00DEF09F0C8EF2A
:1012180008F00FEF09F01200000E246E000E236E86
:10122800000E266E000E256E000E226E000E216E38
:1012380016C023F017C024F08BEF09F014C025F076
:1012480015C026F070EF09F021501224D96E2250F3
:101258001320DA6EDF50D8B434EF09F036EF09F016
:1012680048EF09F01C041D10D8A43DEF09F03FEF2A
:1012780009F048EF09F023C00BF0010E0C6E255061
:10128800EFEC0CF06AEF09F021501224D96E2250CD
:101298001320DA6EDF50D8B454EF09F056EF09F096
:1012A8006AEF09F01C501D10D8A45DEF09F05FEF3C
:1012B80009F06AEF09F023C00BF0000E0C6E255000
:1012C800EFEC0CF06AEF09F06AEF09F0214A222AE4
:1012D800254A262A70EF09F01A5014241E6E1B5056
:1012E80015201F6E1E50255C2650800A206E1F5048
:1012F800800A2058D8A083EF09F085EF09F028EF7D
:1013080009F087EF09F0234A242A8BEF09F01850D7
:1013180016241E6E195017201F6E1E50235C245071
:10132800800A206E1F50800A2058D8A09EEF09F02E
:10133800A0EF09F022EF09F0A2EF09F01200272828
:1013480006E12828D8A4ABEF09F0ADEF09F0C9EF02
:1013580009F0660E126E000E136E000E156E0C0E5E
:10136800146E000E176E0A0E166E000E196E030E1E
:10137800186E000E1B6E0A0E1A6E29C01CF02AC0C9
:101388001DF010EC09F02BEF0AF028BED7EF09F09A
:10139800285007E1040E275CD8B0D5EF09F0D7EF45
:1013A80009F000EF0AF0660E126E000E136E27C0E9
:1013B8002BF028C02CF0050ED8902B362C36E82EB2
:1013C800E0EF09F00C0E2B24146E000E2C20156E85
:1013D800000E176E0A0E166E000E196E030E186EAA
:1013E800000E1B6E0A0E1A6E29C01CF02AC01DF0D2
:1013F80010EC09F02BEF0AF0660E126E000E136E59
:1014080027C02BF028C02CF0050ED8902B362C3690
:10141800E82E09EF0AF08C0E2B24146EFF0E2C20F8
:10142800156E000E176E320E166E000E196E030E34
:10143800186E000E1B6E0A0E1A6E29C01CF02AC008
:101448001DF010EC09F02BEF0AF02BEF0AF0120058
:10145800280EF66E030EF76E000EF86E04EEEEF030
:1014680013EE0EF00900F5CFEEFFE550E150FAE17A
:10147800E250F8E1460EF66E160EF76E000EF86EA4
:1014880004EE00F010EEEEF00900F5CFEEFFE550A7
:10149800E150FAE1580EF66E150EF76E000EF86E72
:1014A80003EE00F010EEEEF00900F5CFEEFFE55088
:1014B800E150FAE1200EF66E180EF76E000EF86E87
:1014C80002EE00F010EEE4F00900F5CFEEFFE55073
:1014D800E150FAE1CE0EF66E1E0EF76E000EF86EB3
:1014E80001EE00F010EEC2F00900F5CFEEFFE55076
:1014F800E150FAE1480EF66E250EF76E000EF86E12
:1015080000EE60F010EE74F00900F5CFEEFFE55044
:10151800E150FAE1400EF66E280EF76E000EF86EF6
:101528000900F5CF58F00900F5CF59F000EED4F0D6
:10153800150EEE6AE806FDE1576A566A556A546A5E
:10154800536A5A905A92000EF86E000192EF11F009
:101558000000000000000000000000000000000083
:10156800000000010101010100000101010100006A
:101578000000000000000000000000000000000063
:10158800000000000001000000010000010000014F
:101598000000000000000000000000000000000043
:1015A800000000000000000101000001000001002F
:1015B8000001000000000000000000000000000022
:1015C8000000000000000000000001000001000011
:1015D8000100000100000000000000000000000001
:1015E80000000000000000000000000001000001F1
:1015F80000000100000100000000000000000000E1
:1016080000000000000000000000000000000100D1
:1016180000010000010000010000000000000000BF
:1016280000000000000000000000000000000000B2
:10163800010000010000010000010100000000009D
:101648000000000000000000000000000000000092
:101658000000000000000000000000000000000082
:101668000000000000000000000000000000000072
:101678000000000101010101000101010101000058
:101688000000000000000000000000000000000052
:10169800000000000001000000010001000000013E
:1016A8000000000000000000000000000000000032
:1016B800000000000000000101000001000101001D
:1016C8000001000000000000000000000000000011
:1016D8000000000000000000000001000001000000
:1016E80001000001000000000000000000000000F0
:1016F80000000000000000000000000001000001E0
:1017080000000100000100000000000000000000CF
:1017180000000000000000000000000000000100C0
:10172800000100000100000101000000000E066E2B
:1017380004BEA3EF0BF0A1EF0BF0ABEF0BF0036CC3
:10174800041ED8B0042A010E066EABEF0BF002BEE1
:10175800B2EF0BF0B0EF0BF0BAEF0BF0016C021E1A
:10176800D8B0022A010E061ABAEF0BF0000E086E66
:10177800000E076E03500410D8B4C5EF0BF0C7EF86
:101788000BF0FBEF0BF0010E056ED1EF0BF0D890CC
:1017980003360436052AD1EF0BF004AED6EF0BF072
:1017A800D8EF0BF0CBEF0BF0DCEF0BF0DCEF0BF02E
:1017B800D890073608360350015C04500258D8A068
:1017C800E8EF0BF0EAEF0BF0F1EF0BF00350015EDE
:1017D8000450025A0780F1EF0BF0D890043203321C
:1017E800052EDCEF0BF0FBEF0BF0FBEF0BF00650D8
:1017F800D8B401EF0CF003EF0CF009EF0CF0076C14
:10180800081ED8B0082A09EF0CF007C001F008C07C
:1018180002F00FEF0CF012000000000000000000C2
:1018280000000000000000000000000000010000AF
:10183800000000000000000000000101010000009D
:10184800000000000000000101010101000000008B
:101858000000000001010101010101000000000079
:101868000001010001010100010100000000000168
:101878000100000100000101000000000101010158
:101888000101010101010100000001010101000045
:10189800000101010100000000010000000000003B
:1018A800000000000000000000000000000101012D
:1018B800000001010100000000010101000000001A
:1018C800000000000000000000000000000000010F
:1018D80001010000010101000000010000000000FA
:1018E80000000000000000000000000000000000F0
:1018F800000101010000010101000000000E88EC58
:1019080010F0000E0B6E000EDEEC12F0BE0E146E20
:101918007F0E156E010E166E010E176E3DEC11F05E
:10192800010E0B6E000EDEEC12F0DF0E146E7F0E51
:10193800156E010E166E010E176E3DEC11F0010EBC
:101948000B6E290EDEEC12F0D90E146E7F0E156E9A
:10195800010E166E010E176E3DEC11F0030E0B6EA4
:10196800000EDEEC12F0B70E146E7F0E156E010E2F
:10197800166E010E176E3DEC11F0030E0B6E2F0E56
:10198800DEEC12F0F50E146E7F0E156E010E166E5B
:10199800010E176E3DEC11F0040E0B6E000EDEEC1E
:1019A80012F0D30E146E7F0E156E010E166E010E18
:1019B800176E3DEC11F0050E0B6E000EDEEC12F00A
:1019C800FA0E146E7F0E156E010E166E010E176E4E
:1019D8003DEC11F012000F6E000E116E3F0E0F64F9
:1019E800F8EF0CF0FAEF0CF000EF0DF0400E0F5E80
:1019F800010E116E00EF0DF08A940F9E0F8C0FC030
:101A080009F01150A9EC13F00BC001F0026A000EA6
:101A1800046E080E036E9AEC0BF00150BF0BB80968
:101A2800096E1150A9EC13F08A841150CCEC13F014
:101A38001150CCEC13F0106E8A940FC009F01150BD
:101A4800A9EC13F00C50D8B42CEF0DF02EEF0DF0DC
:101A580041EF0DF00BC00DF0070E0D16010E0E6EC6
:101A68000D2A39EF0DF0D8900E360D2E37EF0DF008
:101A78000E501010106E55EF0DF00BC00DF0070E44
:101A88000D16010E0E6E0D2A4CEF0DF0D8900E3685
:101A98000D2E4AEF0DF00E50FF0A1014106E55EF80
:101AA8000DF08A8410C009F01150A9EC13F012004F
:101AB800000E066E02BE65EF0DF063EF0DF06DEFE0
:101AC8000DF0016C021ED8B0022A010E066E6DEFF1
:101AD8000DF004BE74EF0DF072EF0DF07AEF0DF01B
:101AE800036C041ED8B0042A7AEF0DF003500410DA
:101AF800D8B481EF0DF083EF0DF0B3EF0DF0010EC8
:101B0800056E8DEF0DF0D89003360436052A8DEF5B
:101B18000DF004AE92EF0DF094EF0DF087EF0DF09D
:101B280098EF0DF098EF0DF00350015C0450025847
:101B3800D8A0A1EF0DF0A3EF0DF0A9EF0DF0035021
:101B4800015E0450025AA9EF0DF0D8900432033216
:101B5800052E98EF0DF0B3EF0DF0B3EF0DF0065032
:101B6800D8B4B9EF0DF0BBEF0DF0C1EF0DF0016C7B
:101B7800021ED8B0022AC1EF0DF001C001F002C068
:101B880002F0C7EF0DF012000FC013F010C014F0F0
:101B980014BED3EF0DF0D1EF0DF0D9EF0DF00F6CAF
:101BA800101ED8B0102AD9EF0DF0000E166E000ED8
:101BB800156EDFEF0DF015501124D96E1650122056
:101BC800DA6E0FC001F010C002F0000E046E0A0EAB
:101BD800036E5CEC0DF00150300FDF6E154A162ACB
:101BE8000FC001F010C002F0000E046E0A0E036E62
:101BF8009AEC0BF001C00FF002C010F010BE0FEF0E
:101C08000EF0105006E10F04D8B00DEF0EF00FEFF4
:101C18000EF0DFEF0DF011EF0EF014BE18EF0EF01E
:101C280016EF0EF024EF0EF015501124D96E165051
:101C38001220DA6E2D0EDF6E154A162A24EF0EF0EA
:101C480015501124D96E16501220DA6E000EDF6E70
:101C580011C007F012C008F0DBEC11F01200000E02
:101C68000C6E000E0B6E000E0E6E070E0E643FEF2C
:101C78000EF041EF0EF045EF0EF09BEF0EF09BEFEC
:101C88000EF0000E0F6E010E0F644DEF0EF04FEFC9
:101C98000EF053EF0EF092EF0EF092EF0EF08A94E2
:101CA800400E096E0F50A9EC13F00E50B809096EDA
:101CB8000F50A9EC13F08A84000E0D6E3F0E0D64D0
:101CC80068EF0EF06AEF0EF06EEF0EF087EF0EF091
:101CD80087EF0EF0D30E0B24F66E7A0E0C20F76EFB
:101CE8000800F5CF09F00F50A9EC13F00B4A0C2AA5
:101CF8000D2A3F0E0D6483EF0EF085EF0EF06EEFA8
:101D08000EF087EF0EF00F2A010E0F648EEF0EF023
:101D180090EF0EF053EF0EF092EF0EF00E2A070E32
:101D28000E6499EF0EF09BEF0EF045EF0EF08A90DF
:101D38008A9212000F6E9268000E806E0F0EC16EAE
:101D4800000E936E000E816E000E956E000E836E6F
:101D5800000E836E8A9A310E0E6EB20EE82EFED7F2
:101D68000E2EFCD700D08A8A8A988A908A928A9402
:101D7800530EE82EFED700F0C00E096E000EA9EC37
:101D880013F0C00E096E010EA9EC13F0400E096E97
:101D9800000EA9EC13F0400E096E010EA9EC13F029
:101DA800B80E096E000EA9EC13F0B80E096E010EFC
:101DB800A9EC13F00F04D8A4E4EF0EF0E6EF0EF050
:101DC800F5EF0EF0000E926E80683F0E096E000E61
:101DD800A9EC13F03F0E096E010EA9EC13F001EF08
:101DE8000FF03E0E096E000EA9EC13F03E0E096EC0
:101DF800010EA9EC13F001EF0FF0000E88EC10F0C3
:101E08001200C8EC0FF0000E336E000E326E000E9A
:101E1800336E000E326E53EF0FF0D40E2F6E000E9D
:101E2800306ED8903234D96E3334DA6ED890D936D1
:101E3800DA362F50D9263050DA22030EDF5ED40E60
:101E48002F6E000E306ED8903234D96E3334DA6E7D
:101E5800D890D936DA362F50D9263050DA22050EE6
:101E6800DF6039EF0FF03BEF0FF04FEF0FF0D40EBC
:101E78002F6E000E306ED8903234D96E3334DA6E4D
:101E8800D890D936DA362F50D9263050DA226E0E4D
:101E9800DF6E4FEF0FF0324A332A53EF0FF05850EE
:101EA800325C3350800A2F6E5950800A2F58D8A0C0
:101EB80060EF0FF062EF0FF011EF0FF064EF0FF02B
:101EC80028EC10F0120000000000000000010101E1
:101ED80000010101000000000000000100010001F4
:101EE80000010000000000000001000100010001E5
:101EF80000000001010101010001010100010000D1
:101F080000010000000000000000000100000001C6
:101F180000000000000100010001000101010000B3
:101F280000000001000100010001000000000000A5
:101F3800000000000001000101010101010101018F
:101F4800010101010101010101010000000001007E
:101F58000000000100000000010000000001000076
:101F6800000001010101010101010000000001015F
:101F7800000101000001010001010100000101014F
:101F88000101010000010101000E2E6E000E2D6EF0
:101F9800000E2E6E000E2D6E16EF10F0000E126E53
:101FA800020E136ED40E276E000E286ED8902D34B4
:101FB800D96E2E34DA6ED890D936DA362750D9262B
:101FC8002850DA22DF50296E2950146E156A2DC068
:101FD8002AF02EC02BF0D8902A362B36D8902A36E5
:101FE8002B36010E2A26000E2B22D40E2A24D96E57
:101FF800000E2B20DA6EDF502C6E2C50166E176AEE
:10200800000E196E090E186E000E1B6E0E0E1A6E5B
:10201800000E1D6E000E1C6E10EC09F02D4A2E2AC3
:1020280016EF10F058502D5C2E50800A276E59502C
:10203800800A2758D8A023EF10F025EF10F0D2EF30
:102048000FF027EF10F01200000E2E6E000E2D6E0E
:10205800000E2E6E000E2D6E76EF10F0000E126E32
:10206800020E136ED40E276E000E286ED8902D34F3
:10207800D96E2E34DA6ED890D936DA362750D9266A
:102088002850DA22DF50296E2950146E156A2DC0A7
:102098002AF02EC02BF0D8902A362B36D8902A3624
:1020A8002B36010E2A26000E2B22D40E2A24D96E96
:1020B800000E2B20DA6EDF502C6E2C50166E176A2D
:1020C800000E196E090E186E000E1B6E0E0E1A6E9B
:1020D800000E1D6E010E1C6E10EC09F02D4A2E2A02
:1020E80076EF10F058502D5C2E50800A276E59500C
:1020F800800A2758D8A083EF10F085EF10F032EF50
:1021080010F087EF10F012000B6E000E0D6E070E28
:102118000D6491EF10F093EF10F097EF10F0E3EFEC
:1021280010F0E3EF10F08A94400E096E000EA9EC4F
:1021380013F0400E096E010EA9EC13F00D50B8090A
:10214800096E000EA9EC13F00D50B809096E010EC6
:10215800A9EC13F08A84000E0C6E3F0E0C64B7EFE6
:1021680010F0B9EF10F0BDEF10F0D8EF10F0D8EF85
:1021780010F00B50010DF3500008096E000EA9EC89
:1021880013F00B50010DF3500008096E010EA9EC75
:1021980013F00C2A3F0E0C64D4EF10F0D6EF10F0B9
:1021A800BDEF10F0D8EF10F00D2A070E0D64DFEF29
:1021B80010F0E1EF10F097EF10F0E3EF10F01200DD
:1021C80082B2E9EF10F0EBEF10F0E4EF10F0EDEF72
:1021D80010F042504310D8A4F4EF10F0F6EF10F0CE
:1021E800FAEF10F018EC14F0FAEF10F04204431074
:1021F800D8A401EF11F003EF11F007EF11F013EC81
:1022080014F007EF11F0020E42184310D8A40FEF94
:1022180011F011EF11F015EF11F01CEC14F015EF9F
:1022280011F0030E42184310D8A41DEF11F01FEF50
:1022380011F023EF11F000EC06F023EF11F0070E78
:1022480042184310D8A42BEF11F02DEF11F033EF03
:1022580011F036EC04F033EF11F033EF11F082B2E5
:1022680038EF11F03AEF11F033EF11F03CEF11F0C5
:10227800120077EF11F01650D8B445EF11F047EF80
:1022880011F05DEF11F017C00BF014C0F6FF15C088
:10229800F7FFF86A070EF76403D00800F55005D079
:1022A800F6CFE1FFF7CFE2FFE750E5EC07F073EF79
:1022B80011F017C00BF014C0F6FF15C0F7FFF86A4D
:1022C800070EF76403D00800F55005D0F6CFE1FFFC
:1022D800F7CFE2FFE750A6EC06F073EF11F0144ACF
:1022E800152A77EF11F014C0F6FF15C0F7FFF86A4A
:1022F800070EF76403D00800F55005D0F6CFE1FFCC
:10230800F7CFE2FFE7500009D8A48DEF11F08FEF67
:1023180011F03FEF11F091EF11F012000F0EC16EA6
:102328009568000E836E070E946E000E826ECD8047
:10233800CD92CD9ACD98F28C9D809E90F28E000E13
:10234800526E010E516E010E9EEC0EF0CEEF11F0A2
:1023580003EC14F082EC0CF00B0E506E260E4F6E50
:102368005E0EE82EFED74F2EFCD7502EFAD71BEC68
:1023780003F00001E051D8A4C4EF11F0C6EF11F04A
:10238800CEEF11F0000E526E000E516ECEEF11F02E
:10239800CEEF11F051045210D8B4D5EF11F0D7EFA9
:1023A80011F0ACEF11F0D9EF11F007EF00F0000ECB
:1023B8000C6E000E0B6E07C001F008C002F080EC36
:1023C80013F0FF0E01240D6EFF0E02200E6E12EFA9
:1023D80012F00B500724D96E0C500820DA6EDF502B
:1023E8000A6E0D500724D96E0E500820DA6E0B5075
:1023F8000724E16E0C500820E26EDFCFE7FF0D5096
:102408000724D96E0E500820DA6E0AC0DFFF0B4A87
:102418000C2A0D06D8A00E0612EF12F00D500B5C18
:102428000C50800A096E0E50800A0958D8A01FEF78
:1024380012F021EF12F0EDEF11F023EF12F012007D
:10244800640E0E6E000E0D6E000E0C6E000E0D6EFC
:10245800000E0C6E54EF12F0280E016E0E50EFECC9
:1024680013F0D40E0A6E000E0B6ED8900C34D96E91
:102478000D34DA6ED890D936DA360A50D9260B5090
:10248800DA2201C0DEFF02C0DEFF03C0DEFF04C0A7
:10249800DEFF0E503C0F0E6E0C4A0D2A54EF12F060
:1024A80058500C5C0D50800A0A6E5950800A0A5820
:1024B800D8A061EF12F063EF12F030EF12F065EF81
:1024C80012F0120006009EA06CEF12F06EEF12F0F0
:1024D80075EF12F00001E74BE82B9D809E9075EF99
:1024E80012F05A0E0001E719E811D8A47EEF12F095
:1024F80080EF12F082EF12F00A0EDD5F1E0EE71970
:10250800E811D8A48AEF12F08CEF12F090EF12F0D5
:10251800DE07DF0790EF12F02C0EE71906E1E80559
:10252800D8A499EF12F09BEF12F0A2EF12F0DC2B77
:10253800000EE86F000EE76FA2EF12F05A9211003A
:10254800030008000D000101010101010101010161
:102558000101010101010101010101010101010163
:10256800010101010100000000010001000001005B
:10257800000001010000000001010000010001004D
:10258800000100010001000000000100010001003D
:10259800000100010101010100000100000100002B
:1025A8000101010101010100000101010101010016
:1025B800000101010D6E000E0C6E800E0D60E7EF3C
:1025C80012F0E9EF12F015EF13F0070E0B64EFEFBE
:1025D80012F0F1EF12F0F5EF12F015EF13F015EF1E
:1025E80013F00DC054F00BC053F03F0E0D64FFEF15
:1025F80012F001EF13F007EF13F0400E0D5E010E1D
:102608000C6E07EF13F08A940D504009096E0C50B8
:10261800A9EC13F00B50B809096E0C50A9EC13F093
:102628008A8412007E0E126E020E136E000E156E54
:10263800340E146E000E176E210E166E000E196EF3
:10264800030E186E000E1B6E220E1A6E000E1D6E03
:10265800000E1C6E10EC09F0A20E126E010E136E25
:10266800000E156E4B0E146E000E176E210E166EB0
:10267800000E196E040E186E000E1B6E080E1A6EF0
:10268800000E1D6E010E1C6E10EC09F01200000EFB
:10269800126E020E136E000E156E1E0E146E000ED4
:1026A800176E250E166E000E196E090E186E000EA6
:1026B8001B6E0E0E1A6E000E1D6E010E1C6E10ECB7
:1026C80009F0840E126E000E136E000E156E200EA9
:1026D800146E000E176E200E166E000E196E040E84
:1026E800186E000E1B6E060E1A6E000E1D6E010E81
:1026F8001C6E10EC09F0120001C005F002C006F0D3
:102708008AEF13F0014A022A8AEF13F001C0D9FFB9
:1027180002C0DAFFDF50D8A494EF13F096EF13F05D
:1027280086EF13F098EF13F005C003F006C004F02D
:10273800031E041E034A042A01500324016E02509A
:102748000420026EA8EF13F012000A6E0A50D8B4E3
:10275800B0EF13F0B2EF13F0B6EF13F08A808A925D
:10276800BAEF13F08A928A82BAEF13F0000E956ED0
:102778008A9609C08CFF8A88080EE82EFED700F0DA
:102788008A98080EE82EFED700F08A908A921200E6
:10279800016E0150D8B4D3EF13F0D5EF13F0D9EF91
:1027A80013F08A808A92DBEF13F08A928A82956806
:1027B8008A868A88080EE82EFED700F083CF02F0BA
:1027C8008A98080EE82EFED700F08A908A92025066
:1027D800EEEF13F01200056E05C006F001C007F019
:1027E800090E086E0A0E096E06C001F007C002F055
:1027F80008C003F009C004F002EF14F01200000E44
:102808000001DC6F500EDD6F500EDE6F500EDF6F73
:10281800010EE06F3C0EE16F3C0EE26F120000010A
:10282800DF51140FDF6F1200140E0001DD271200B4
:0A283800140E0001DE27120002005A
:1072D20000000000000000000000000000000000AC
:1072E200000000000000000000000000000000009C
:1072F200000000000000000000000000000000008C
:10730200000000000000000000000000000000007B
:10731200000000000000000000000000000000006B
:10732200000000000000000000000000000000005B
:10733200000000000000000000000000000000004B
:10734200000000000000000000000000000000003B
:10735200000000000000000000000000000000002B
:10736200000000000000000000000000000000001B
:10737200000000000000000000000000000000000B
:1073820000000000000000000000000000000000FB
:1073920000000000000000000000000000000000EB
:1073A20000000000000000000000000000000000DB
:1073B20000000000000000000000000000000000CB
:1073C20000000000000000000000000000000000BB
:1073D20000000000000000000000065F5F060000E1
:1073E200000007070007070000147F7F147F7F1447
:1073F20000242E6B6B3A120000466630180C66624F
:1074020000307A4F5D377A4800040703000000001D
:1074120000001C3E63410000000041633E1C00006E
:1074220000082A3E1C1C3E2A0808083E3E080800A6
:10743200000080E06000000000080808080808005A
:107442000000006060000000006030180C060301BC
:10745200003E7F71594D7F3E0040427F7F40400099
:1074620000627359496F660000226349497F360002
:1074720000181C16537F7F5000276745457D390051
:10748200003C7E4B4979300000030371790F0700FD
:1074920000367F49497F360000064F49693F1E008A
:1074A2000000006666000000000080E66600000042
:1074B20000081C36634100000024242424242400F4
:1074C20000004163361C080000020351590F0600F8
:1074D200003E7F415D5D1F1E007C7E13137E7C009B
:1074E20000417F7F49497F36001C3E634141632250
:1074F20000417F7F41633E1C00417F7F495D4163C4
:1075020000417F7F491D0103001C3E63415173729C
:10751200007F7F08087F7F000000417F7F410000DD
:1075220000307040417F3F0100417F7F081C77633C
:1075320000417F7F41406070007F7F0E1C0E7F7F85
:10754200007F7F060C187F7F001C3E6341633E1C58
:1075520000417F7F49090F06001E3F21717F5E00B7
:1075620000417F7F09197F6600266F4D59733200F3
:107572000003417F7F410300007F7F40407F7F0007
:10758200001F3F60603F1F00007F7F3018307F7F09
:107592000043673C183C674300074F78784F070069
:1075A20000476371594D677300007F7F41410000BE
:1075B200000103060C183060000041417F7F00008B
:1075C20000080C0603060C08008080808080808002
:1075D200800000030704000000207454543C7840EB
:1075E20000417F3F4848783000387C44446C280092
:1075F20000307848493F7F4000387C54545C180082
:1076020000487E7F490302000098BCA4A4F87C04D1
:1076120000417F7F08047C780000447D7D400000AB
:107622000060E08080FD7D0000417F7F10386C4467
:107632000000417F7F400000007C7C18381C7C7871
:10764200007C7C04047C780000387C44447C380054
:107652000084FCF8A4243C1800183C24A4F8FC8400
:1076620000447C784C041C1800485C545474240078
:107672000000043E7F442400003C7C40403C7C40AF
:10768200001C3C60603C1C00003C7C7038707C3C00
:1076920000446C3810386C44009CBCA0A0FC7C00F8
:1076A200004C64745C4C64000008083E7741410061
:1076B2000000000077770000004141773E08080093
:1076C20000020301030203010070784C464C7870FB
:1076D200000E9F91B1FB4A00003A7A40407A7A400C
:1076E20000387C54555D19000002237555557D7B89
:1076F20042217554547D794000217555547C78405F
:1077020000207457577C784000183CA4A4E4400041
:1077120000023B7D55555D1B02397D54545D1900B5
:1077220000397D55545C18000001457C7C41010004
:10773200000203457D7D43020001457D7C4000003F
:1077420000797D1612167D790070782B2B787000E7
:1077520000447C7C5555450000207454547C7C5474
:10776200547C7E0B097F7F4900327B49497B320082
:1077720000327A48487A320000327A4A4878300039
:10778200003A7B41417B7A40003A7A424078784025
:10779200009ABAA0A0FA7A000001193C66663C1968
:1077A200013D7D40407D3D0000183C24E7E7242454
:1077B20000687E7F49436620002B2FFCFC2F2B00A4
:1077C20000FFFF09092FF6F8A040C088FE7F0903D9
:1077D20002207454557D79400000447D7D410000B3
:1077E200003078484A7A320000387840427A7A404B
:1077F200007A7A0A0A7A7000007D7D19317D7D0057
:107802000000262F292F2F280000262F292F26009F
:107812000030784D4560200000383808080808001C
:107822000008080808383800004F6F3018CCEEBB4B
:10783200914F6F30186C76FBF90000007B7B0000E3
:1078420000081C3622081C362222361C0822361C4E
:1078520008AA005500AA005500AA55AA55AA55AA79
:1078620055DDFFAA77DDAAFF77000000FFFF0000C9
:1078720000101010FFFF000000141414FFFF00009E
:10788200001010FFFF00FFFF001010F0F010F0F0EA
:1078920000141414FCFC0000001414F7F700FFFF9E
:1078A200000000FFFF00FFFF001414F4F404FCFCCE
:1078B2000014141717101F1F0010101F1F101F1F76
:1078C200001414141F1F000000101010F0F000002C
:1078D200000000001F1F1010101010101F1F1010AA
:1078E20010101010F0F0101010000000FFFF101028
:1078F200101010101010101010101010FFFF1010A8
:1079020010000000FFFF1414140000FFFF00FFFF2F
:107912001000001F1F101717140000FCFC04F4F4E1
:107922001414141717101717141414F4F404F4F49D
:10793200140000FFFF00F7F71414141414141414A5
:10794200141414F7F700F7F7141414141717141477
:107952001410101F1F101F1F10141414F4F4141409
:10796200141010F0F010F0F01000001F1F101F1F75
:10797200100000001F1F141414000000FCFC14145B
:10798200140000F0F010F0F0101010FFFF10FFFFD5
:1079920010141414FFFF1414141010101F1F0000F1
:1079A20000000000F0F0101010FFFFFFFFFFFFFFCC
:1079B200FFF0F0F0F0F0F0F0F0FFFFFFFF0000004A
:1079C2000000000000FFFFFFFF0F0F0F0F0F0F0F50
:1079D2000F387C446C386C4400FCFE2A2A3E1400AA
:1079E200007E7E020206060000027E7E027E7E028B
:1079F2000063775D4963630000387C447C3C040487
:107A02000080FE7E20203E1E000406027E7C0602CE
:107A12000099BDE7E7BD9900001C3E6B496B3E1C17
:107A2200004C7E7301737E4C0030784A4F7D3900E2
:107A320000183C243C3C243C1898FC643C3E273D06
:107A4200180000000000000000000000000000001C
:107A52000000000000000000000000000000000024
:107A62000000000000000000000000000000000014
:107A72000000000000000000000000000000000004
:107A820000000000000000000000000000000000F4
:107A920000000000000000000000000000000000E4
:107AA20000000000000000000000000000000000D4
:107AB20000000000000000000000000000000000C4
:107AC20000000000000000000000000000000000B4
:107AD2000000000000000000000000000F1FF8FF7F
:107AE200F81F0F0000FF3F1E000000000000000012
:107AF20000C300000000000000000000001E3F7FE5
:107B0200FFFEFCFEFF7F3F1E0000000000000000A1
:107B120000200000000000000000000000007CFEC9
:107B2200FFFFC78383820000000000000000000006
:107B32000000000000000000000000000000E0F073
:107B4200F0F0F0FF0306000000000000000000005B
:107B52000000000000000000000000000000010121
:107B62000100000000010000000000000000000011
:107B720002030200000000000000000000000000FC
:107B820000010101000000000000000000000002EE
:107B920002190200000000000000000000000000C6
:107BA20001010101010000000000000000000000CE
:107BB20000070202000000000000000000000001B7
:107BC20001010100000000000000000000000000B0
:107BD20000000000000000000000000000000000A3
:107BE2000000000000000000000000000000000093
:107BF2000000000000000000000000000000000083
:107C02000000000000000000000000000000000072
:107DE20000000000000000000000004040400000D1
:107DF20000E0404040404000000000000000000061
:107E02000000000000000000000000000000004030
:107E120040C04040000000000000000000000000E0
:107E220000000000000000000000000000004040D0
:107E320040C04040000000000000000000000000C0
:107E42000000000000000000000000000000000030
:107E52000000000000000000000000000000000020
:107E62000000000000000000000000000000000010
:107E72000000000000000000000000000000000000
:107E820000000000000000000000000000000000F0
:107E920000FF0000000000000000000000000000E1
:107EA20000000000000000000000000000000000D0
:107EB2000003000000000000000000FFFFFFFF8041
:107EC200FCFCFCFC80E0E0E0E000000000000000C0
:107ED20000000000005C000C000C7C287C7C447CD0
:107EE200241048285408000C00384400443800206C
:107EF20010081038108040001010100040002010B0
:107F020008384438007C006454484454281C107CCF
:107F12004C542438542004740C2854280854380033
:107F22005000805000102844282828442810045467
:107F320008384C5C7814787C54283844447C4438A3
:107F42007C54447C14043844347C107C007C002033
:107F5200403C7C106C7C40407C087C7C047C7C44F3
:107F62007C7C14083844787C1468485424047C04CB
:107F72007C407C3C403C7C207C6C106C1C601C6413
:107F8200544C7C4400081020447C00080408808083
:107F9200800408000F0CFF0C0F00FF1E456E657277
:107FA2006769653A005243323D65786974006578C5
:107FB20069742020004152454E44410050726F6A5C
:107FC200657400416D6F75723A0053746174733A4F
:107FD20000504147455300676F636869004D69630C
:107FE200726F004661696D3A00524330200046418B
:0D7FF200494C0052534B490054414F0000D0
:020000040020DA
:08000000FFFFFFFFFFFFFFFF00
:020000040030CA
:0E000000000C1F1FFF8381FF0FC00FE00F4099
:00000001FF
