:020000040000FA
:0400000011EF35F0D7
:106A22001C6A1B6A000EF86E0001B7EF37F0000E09
:106A3200046E000E036E03C001F004C002F022EFE8
:106A420035F01200000EFCEC35F009680A6832EFEE
:106A520035F018EC35F001C009F002C00AF032EF4F
:106A620035F020EE04F00650D9260750DA22DE0473
:106A7200D8B43EEF35F040EF35F02AEF35F042EF73
:106A820035F01200026E0250D8B44AEF35F04CEFE6
:106A920035F050EF35F08A808A9254EF35F08A92C1
:106AA2008A8254EF35F0000E956E8A9601C08CFFF3
:106AB2008A88080EE82EFED700F08A98080EE82E83
:106AC200FED700F08A908A92120001C0D9FF02C05C
:106AD200DAFF000EDF6E20EE01F00150D9260250DF
:106AE200DA22640EDF6E20EE02F00150D926025047
:106AF200DA22640EDF6E20EE03F00150D926025036
:106B0200DA22640EDF6E20EE04F00150D926025024
:106B1200DA22010EDF6E1200B3EF35F00E50D8B458
:106B220095EF35F097EF35F0A3EF35F00FC003F096
:106B32000CC0F6FF0DC0F7FF0800F55046EC38F028
:106B4200AFEF35F00FC003F00CC0F6FF0DC0F7FF3A
:106B52000800F550DCEC38F0AFEF35F00C4A0D2AA6
:106B6200B3EF35F00CC0F6FF0DC0F7FF0800F5508B
:106B72000009D8A4BFEF35F0C1EF35F08FEF35F043
:106B8200C3EF35F01200056E000E046E800E056034
:106B9200CDEF35F0CFEF35F0FBEF35F0070E0364A4
:106BA200D5EF35F0D7EF35F0DBEF35F0FBEF35F011
:106BB200FBEF35F005C01CF003C01BF03F0E05646F
:106BC200E5EF35F0E7EF35F0EDEF35F0400E055E1D
:106BD200010E046EEDEF35F08A9405504009016E06
:106BE200045043EC35F00350B809016E045043ECF5
:106BF20035F08A841200036E000E056E070E0564DE
:106C020005EF36F007EF36F00BEF36F057EF36F0C0
:106C120057EF36F08A94400E016E000E43EC35F0C9
:106C2200400E016E010E43EC35F00550B809016EBD
:106C3200000E43EC35F00550B809016E010E43EC2D
:106C420035F08A84000E046E3F0E04642BEF36F09A
:106C52002DEF36F031EF36F04CEF36F04CEF36F0E8
:106C62000350010DF3500008016E000E43EC35F0A5
:106C72000350010DF3500008016E010E43EC35F094
:106C8200042A3F0E046448EF36F04AEF36F031EF43
:106C920036F04CEF36F0052A070E056453EF36F056
:106CA20055EF36F00BEF36F057EF36F01200076E65
:106CB2009268000E806E0F0EC16E000E936E000E73
:106CC200816E000E956E000E836E000E836E8A9AA0
:106CD200310E066EB20EE82EFED7062EFCD700D07D
:106CE2008A8A8A988A908A928A94530EE82EFED7CC
:106CF20000F0C00E016E000E43EC35F0C00E016EC6
:106D0200010E43EC35F0400E016E000E43EC35F0FF
:106D1200400E016E010E43EC35F0B80E016E000E0E
:106D220043EC35F0B80E016E010E43EC35F007046A
:106D3200D8A49EEF36F0A0EF36F0AFEF36F0000E9B
:106D4200926E80683F0E016E000E43EC35F03F0EEE
:106D5200016E010E43EC35F0BBEF36F03E0E016ED4
:106D6200000E43EC35F03E0E016E010E43EC35F0A1
:106D7200BBEF36F0000EFCEC35F01200000E046E94
:106D8200000E036E000E066E070E0664CBEF36F0A1
:106D9200CDEF36F0D1EF36F027EF37F027EF37F0AF
:106DA200000E076E010E0764D9EF36F0DBEF36F006
:106DB200DFEF36F01EEF37F01EEF37F08A94400E09
:106DC200016E075043EC35F00650B809016E0750CA
:106DD20043EC35F08A84000E056E3F0E0564F4EF35
:106DE20036F0F6EF36F0FAEF36F013EF37F013EF36
:106DF20037F0FD0E0324F66E7A0E0420F76E0800BB
:106E0200F5CF01F0075043EC35F0034A042A052A76
:106E12003F0E05640FEF37F011EF37F0FAEF36F05F
:106E220013EF37F0072A010E07641AEF37F01CEF51
:106E320037F0DFEF36F01EEF37F0062A070E066452
:106E420025EF37F027EF37F0D1EF36F08A908A92AC
:106E52001200000EFCEC35F0000E036E000EC4ECC6
:106E620035F0D70E0C6E7F0E0D6E010E0E6E010EFA
:106E72000F6E8DEC35F0010E036E000EC4EC35F092
:106E8200EA0E0C6E7F0E0D6E010E0E6E010E0F6E6F
:106E92008DEC35F0010E036E320EC4EC35F0E40ECB
:106EA2000C6E7F0E0D6E010E0E6E010E0F6E8DECCE
:106EB20035F0030E036E000EC4EC35F0D00E0C6EEE
:106EC2007F0E0D6E010E0E6E010E0F6E8DEC35F003
:106ED200030E036E370EC4EC35F0F00E0C6E7F0E0F
:106EE2000D6E010E0E6E010E0F6E8DEC35F0040E5E
:106EF200036E000EC4EC35F0DE0E0C6E7F0E0D6ECE
:106F0200010E0E6E010E0F6E8DEC35F0050E036E46
:106F1200000EC4EC35F0FA0E0C6E7F0E0D6E010EF3
:106F22000E6E010E0F6E8DEC35F00B0E116E260EED
:106F3200106E5E0EE82EFED7102EFCD7112EFAD759
:106F4200000EFCEC35F0000E036E000EC4EC35F0C2
:106F5200BFEC36F00B0E116E260E106E5E0EE82E92
:106F6200FED7102EFCD7112EFAD712000F0EC16ECB
:106F72009568000E836E070E946E000E826E000EF0
:106F8200196E000E1A6E000E186E010E176E010EAB
:106F920058EC36F039EF38F082A0D2EF37F0D4EF68
:106FA20037F0E5EF37F0060E036E000EC4EC35F055
:106FB200F50E0C6E7F0E0D6E010E0E6E010E0F6E33
:106FC2008DEC35F0E5EF37F082A2EAEF37F0ECEF27
:106FD20037F0FDEF37F0060E036E000EC4EC35F00D
:106FE200FC0E0C6E7F0E0D6E010E0E6E010E0F6EFC
:106FF2008DEC35F0FDEF37F082A402EF38F004EFAC
:1070020038F015EF38F0060E036E000EC4EC35F0C2
:10701200C80E0C6E7F0E0D6E010E0E6E010E0F6EFF
:107022008DEC35F015EF38F019C001F01AC002F0FE
:1070320066EC35F02AEC37F019C006F01AC007F0FA
:1070420023EC35F020EE04F01950D9261A50DA223A
:10705200DF50D8A42FEF38F031EF38F039EF38F0A5
:10706200000E186E000E176E39EF38F039EF38F057
:1070720017041810D8B440EF38F042EF38F0CDEFD3
:1070820037F044EF38F000EF00F0086E000E0B6EA0
:107092000A0E0818D8A450EF38F052EF38F059EF22
:1070A20038F0000E1C6E1B2ADBEF38F0DBEF38F0F5
:1070B2003F0E1C645FEF38F061EF38F068EF38F094
:1070C200010E0B6E1C50C00F096E6CEF38F01CC025
:1070D20009F06CEF38F00850080DF3CF06F0F4CF4A
:1070E20007F0000E0A6E070E0A647AEF38F07CEFA2
:1070F20038F080EF38F0D9EF38F0D9EF38F03F0EA2
:10710200096486EF38F088EF38F09CEF38F0400ED3
:10711200095E010E0B6E8A9409504009016E0B50F4
:1071220043EC35F01B50B809016E0B5043EC35F0BF
:107132008A849CEF38F00350D8B4A2EF38F0A4EF61
:1071420038F0B8EF38F00A500624046E000E07201B
:10715200056EFD0E0424F66E720E0520F76E080011
:10716200F5CF01F00B5043EC35F0CDEF38F00A507B
:107172000624046E000E0720056EFD0E0424F66E32
:10718200720E0520F76E0800F550FF0A016E0B50D3
:1071920043EC35F0CDEF38F0092A0A2A070E0A64CB
:1071A200D5EF38F0D7EF38F080EF38F0D9EF38F07C
:1071B200080E1C261200076E000E096E0A0E071832
:1071C200D8A4E6EF38F0E8EF38F0EFEF38F0000E31
:1071D2001C6E1B2A7DEF39F07DEF39F03F0E1C64E7
:1071E200F5EF38F0F7EF38F0FEEF38F0010E096EE8
:1071F2001C50C00F066E02EF39F01CC006F002EF01
:1072020039F0200E075E000E086E020E08640CEFC5
:1072120039F00EEF39F012EF39F07BEF39F07BEFF6
:1072220039F03F0E066418EF39F01AEF39F02EEFFD
:1072320039F0400E065E010E096E8A94065040092E
:10724200016E095043EC35F01B50B809016E09502C
:1072520043EC35F08A842EEF39F00350D8B434EF82
:1072620039F036EF39F052EF39F00750030DFD0EC9
:10727200046E7E0E056EF3500426F450052208506B
:10728200010DF3500426F450052204C0F6FF05C098
:10729200F7FF0800F5CF01F0095043EC35F06FEF2E
:1072A20039F00750030DFD0E046E7E0E056EF3508D
:1072B2000426F45005220850010DF3500426F45020
:1072C200052204C0F6FF05C0F7FF0800F550FF0ACB
:1072D200016E095043EC35F06FEF39F0062A082AA7
:1072E200020E086477EF39F079EF39F012EF39F0D6
:1072F2007BEF39F0050E1C26120000000000000092
:10730200000000000000000000000000000000007B
:10731200000000000000000000000000000000006B
:10732200000000000000000000000000000000005B
:10733200000000000000000000000000000000004B
:10734200000000000000000000000000000000003B
:10735200000000000000000000000000000000002B
:10736200000000000000000000000000000000001B
:10737200000000000000000000000000000000000B
:1073820000000000000000000000000000000000FB
:1073920000000000000000000000000000000000EB
:1073A20000000000000000000000000000000000DB
:1073B20000000000000000000000000000000000CB
:1073C20000000000000000000000000000000000BB
:1073D20000000000000000000000000000000000AB
:1073E200000000000000000000000000000000009B
:1073F200000000000000000000000000000000008B
:1074020000000000065F5F0600000000070700079B
:10741200070000147F7F147F7F1400242E6B6B3AC9
:10742200120000466630180C666200307A4F5D37F3
:107432007A48000407030000000000001C3E63417C
:107442000000000041633E1C000000082A3E1C1C94
:107452003E2A0808083E3E080800000080E060005E
:10746200000000080808080808000000006060002A
:107472000000006030180C060301003E7F71594D78
:107482007F3E0040427F7F40400000627359496F57
:10749200660000226349497F360000181C16537F9C
:1074A2007F5000276745457D3900003C7E4B497976
:1074B200300000030371790F070000367F49497FCE
:1074C200360000064F49693F1E0000000066660054
:1074D2000000000080E66600000000081C366341E0
:1074E2000000002424242424240000004163361CCC
:1074F200080000020351590F0600003E7F415D5D06
:107502001F1E007C7E13137E7C0000417F7F494951
:107512007F36001C3E634141632200417F7F41630D
:107522003E1C00417F7F495D416300417F7F491DD1
:107532000103001C3E6341517372007F7F08087F84
:107542007F000000417F7F41000000307040417F9A
:107552003F0100417F7F081C776300417F7F4140EC
:107562006070007F7F0E1C0E7F7F007F7F060C18ED
:107572007F7F001C3E6341633E1C00417F7F4909BF
:107582000F06001E3F21717F5E0000417F7F0919B7
:107592007F6600266F4D597332000003417F7F41A1
:1075A2000300007F7F40407F7F00001F3F60603FFD
:1075B2001F00007F7F3018307F7F0043673C183CFC
:1075C200674300074F78784F070000476371594DB2
:1075D200677300007F7F41410000000103060C1821
:1075E2003060000041417F7F000000080C06030666
:1075F2000C08008080808080808080000003070467
:10760200000000207454543C784000417F3F4848B9
:10761200783000387C44446C280000307848493F78
:107622007F4000387C54545C180000487E7F490338
:1076320002000098BCA4A4F87C0400417F7F0804E7
:107642007C780000447D7D4000000060E08080FD89
:107652007D0000417F7F10386C440000417F7F40F5
:107662000000007C7C18381C7C78007C7C04047C44
:10767200780000387C44447C38000084FCF8A42460
:107682003C1800183C24A4F8FC8400447C784C0488
:107692001C1800485C54547424000000043E7F44CB
:1076A2002400003C7C40403C7C40001C3C60603C30
:1076B2001C00003C7C7038707C3C00446C381038F4
:1076C2006C44009CBCA0A0FC7C00004C64745C4C2C
:1076D20064000008083E774141000000000077770F
:1076E2000000004141773E08080000020301030246
:1076F20003010070784C464C7870000E9F91B1FBEC
:107702004A00003A7A40407A7A4000387C54555D0B
:1077120019000002237555557D7B42217554547D15
:10772200794000217555547C784000207457577C6D
:10773200784000183CA4A4E4400000023B7D55556B
:107742005D1B02397D54545D190000397D55545C2E
:1077520018000001457C7C410100000203457D7D4B
:1077620043020001457D7C40000000797D1612161F
:107772007D790070782B2B78700000447C7C555505
:10778200450000207454547C7C54547C7E0B097F49
:107792007F4900327B49497B320000327A48487A7D
:1077A200320000327A4A48783000003A7B41417B0D
:1077B2007A40003A7A4240787840009ABAA0A0FA19
:1077C2007A000001193C66663C19013D7D40407D0E
:1077D2003D0000183C24E7E7242400687E7F4943EB
:1077E2006620002B2FFCFC2F2B0000FFFF09092F26
:1077F200F6F8A040C088FE7F090302207454557D2C
:1078020079400000447D7D410000003078484A7A8A
:10781200320000387840427A7A40007A7A0A0A7A4C
:107822007000007D7D19317D7D000000262F292FFB
:107832002F280000262F292F26000030784D456082
:10784200200000383808080808000008080808382E
:107852003800004F6F3018CCEEBB914F6F30186C70
:1078620076FBF90000007B7B000000081C36220832
:107872001C362222361C0822361C08AA005500AAF1
:10788200005500AA55AA55AA55AA55DDFFAA77DDCB
:10789200AAFF77000000FFFF000000101010FFFF9A
:1078A200000000141414FFFF0000001010FFFF007E
:1078B200FFFF001010F0F010F0F000141414FCFCA4
:1078C2000000001414F7F700FFFF000000FFFF00A4
:1078D200FFFF001414F4F404FCFC00141417171036
:1078E2001F1F0010101F1F101F1F001414141F1F32
:1078F200000000101010F0F00000000000001F1F38
:107902001010101010101F1F101010101010F0F097
:10791200101010000000FFFF1010101010101010B7
:10792200101010101010FFFF101010000000FFFFC9
:107932001414140000FFFF00FFFF1000001F1F10AF
:107942001717140000FCFC04F4F414141417171095
:107952001717141414F4F404F4F4140000FFFF00D5
:10796200F7F71414141414141414141414F7F7005D
:10797200F7F714141414171714141410101F1F10EF
:107982001F1F10141414F4F41414141010F0F01037
:10799200F0F01000001F1F101F1F100000001F1F1B
:1079A200141414000000FCFC1414140000F0F01075
:1079B200F0F0101010FFFF10FFFF10141414FFFF5F
:1079C2001414141010101F1F000000000000F0F02B
:1079D200101010FFFFFFFFFFFFFFFFF0F0F0F0F0CD
:1079E200F0F0F0FFFFFFFF0000000000000000FFCA
:1079F200FFFFFF0F0F0F0F0F0F0F0F387C446C3874
:107A02006C4400FCFE2A2A3E1400007E7E0202061E
:107A1200060000027E7E027E7E020063775D49637D
:107A2200630000387C447C3C04040080FE7E2020FD
:107A32003E1E000406027E7C06020099BDE7E7BDF9
:107A42009900001C3E6B496B3E1C004C7E73017317
:107A52007E4C0030784A4F7D390000183C243C3C73
:107A6200243C1898FC643C3E273D180000000000AE
:107A72000000000000000000000000000000000004
:107A820000000000000000000000000000000000F4
:107A920000000000000000000000000000000000E4
:107AA20000000000000000000000000000000000D4
:107AB20000000000000000000000000000000000C4
:107AC20000000000000000000000000000000000B4
:107AD20000000000000000000000000000000000A4
:107AE2000000000000000000000000000000000094
:107AF2000000000000000000000000000000000084
:107B020000000000001E3820FE20303E0000FE7EF5
:107B12000000000000000000000000000000000063
:107B2200C0E0F8F8FCFC8600000000000000000045
:107B320000000000000000000000000000FCFEFE4B
:107B4200FEFCF8FCFEFEFEFE7800000000000000D5
:107B52000000000000000000000000000000C0C0A3
:107B6200C0C0FE0206060E3E00000000000000003B
:107B72000000000000000000000000000000000003
:107B820000000000000000000F00000000001F00C5
:107B920000000000000000000000000000000000E3
:107BA200010307070F0F0F0E0C0C0C000000000062
:107BB20000000000000000000000000000000103BF
:107BC2000307070F07070101000000000000000083
:107BD200000000000000000000000000000F0F1F66
:107BE2001F1F0F0F00000000000000000000000037
:107BF2000000000000000000000000000000000083
:107C02000000000000000000000000000000000072
:107C12000000000000000000000000000000000062
:107C22000000000000000000000000000000000052
:107EF2000000000000000000000000000000005C24
:107F0200000C000C7C287C7C447C241048285408FB
:107F1200000C00384400443800201008103810804B
:107F22004000101010004000201008384438007C37
:107F3200006454484454281C107C4C542438542067
:107F420004740C2854280854380050008050001043
:107F52002844282828442810045408384C5C7814F3
:107F6200787C54283844447C44387C54447C14043F
:107F72003844347C107C007C0020403C7C106C7CBB
:107F820040407C087C7C047C7C447C7C1408384423
:107F9200787C1468485424047C047C407C3C403C3B
:107FA2007C207C6C106C1C601C64544C7C4400086B
:107FB2001020447C000804088080800408000F0C14
:107FC200FF0C0F00FF1E787878787878780041529D
:107FD200454E44410050726F6A65740050414745F6
:107FE2005300676F636869004D6963726F00525393
:0D7FF2004B4900574557450054414F0000D2
:020000040020DA
:08000000FFFFFFFFFFFFFFFF00
:020000040030CA
:0E00000000051F1FFF8385FF0FC00FE00F409C
:00000001FF
