:020000040000FA
:04000000B8EF3FF026
:107F70000001BBEF3FF00F0E936E0F0E816E080EE7
:107F8000016E000E026EC9EC3FF0C7EF3FF000EF4C
:107F900000F001C0D9FF02C0DAFF000EDF6E20EE54
:107FA00001F00150D9260250DA22640EDF6E20EE75
:107FB00002F00150D9260250DA22640EDF6E20EE64
:107FC00003F00150D9260250DA22640EDF6E20EE53
:107FD00004F00150D9260250DA22640EDF6E20EE42
:107FE00005F00150D9260250DA22640EDF6E20EE31
:107FF00006F00150D9260250DA22640EDF6E12001C
:020000040020DA
:08000000FFFFFFFFFFFFFFFF00
:020000040030CA
:0E00000000051F1FFF8385FF0FC00FE00F409C
:00000001FF
