:020000040000FA
:0400000071EF38F074
:1070E0001200126A116A000EF86E0001AAEF38F061
:1070F0007CEF38F07CEF38F020EE04F00150D92618
:107100000250DA22DE04D8B488EF38F08AEF38F083
:107110007CEF38F08CEF38F01200026E0250D8B4D9
:1071200094EF38F096EF38F09AEF38F08A808A9230
:107130009EEF38F08A928A829EEF38F0000E956EAC
:107140008A9601C08CFF8A8800D08A9800D08A90E5
:107150008A921200070E926E070E806E9568000EDE
:10716000836E010EF1EC38F070EC38F0B8EF38F0C7
:107170000C0E016E000E026ECAEC38F00C0E016EA1
:10718000000E026E78EC38F0B8EF38F0B8EF38F057
:1071900000EF00F001C0D9FF02C0DAFF000EDF6E81
:1071A00020EE01F00150D9260250DA22640EDF6E83
:1071B00020EE02F00150D9260250DA22640EDF6E72
:1071C00020EE03F00150D9260250DA22640EDF6E61
:1071D00020EE04F00150D9260250DA22010EDF6EB3
:1071E0001200066E000E836E8A9A210EE82EFED7DC
:1071F00000F08A8A8A988A908A928A9400D0C00E77
:10720000016E000E8DEC38F0C00E016E010E8DEC9B
:1072100038F0400E016E000E8DEC38F0400E016E1D
:10722000010E8DEC38F0B80E016E000E8DEC38F0CA
:10723000B80E016E010E8DEC38F00604D8A423EFD1
:1072400039F025EF39F031EF39F03F0E016E000EC5
:107250008DEC38F03F0E016E010E8DEC38F03DEFF5
:1072600039F03E0E016E000E8DEC38F03E0E016ED0
:10727000010E8DEC38F03DEF39F0000E41EC39F0A5
:107280001200036E000E056E070E05644AEF39F01A
:107290004CEF39F050EF39F09CEF39F09CEF39F0BA
:1072A0008A94400E016E000E8DEC38F0400E016E97
:1072B000010E8DEC38F00550B809016E000E8DEC12
:1072C00038F00550B809016E010E8DEC38F08A8453
:1072D000000E046E3F0E046470EF39F072EF39F067
:1072E00076EF39F091EF39F091EF39F00350010D5D
:1072F000F3500008016E000E8DEC38F00350010DC4
:10730000F3500008016E010E8DEC38F0042A3F0E98
:1073100004648DEF39F08FEF39F076EF39F091EFAB
:1073200039F0052A070E056498EF39F09AEF39F025
:1073300050EF39F09CEF39F012000000000000001F
:10734000000000000000000000000000000000003D
:10735000000000000000000000000000000000002D
:10736000000000000000000000000000000000001D
:10737000000000000000000000000000000000000D
:1073800000000000000000000000000000000000FD
:1073900000000000000000000000000000000000ED
:1073A00000000000000000000000000000000000DD
:1073B00000000000000000000000000000000000CD
:1073C00000000000000000000000000000000000BD
:1073D00000000000000000000000000000000000AD
:1073E000000000000000000000000000000000009D
:1073F000000000000000000000000000000000008D
:10740000000000000000000000000000000000007C
:10741000000000000000000000000000000000006C
:10742000000000000000000000000000000000005C
:10743000000000000000000000000000000000004C
:1074400000000000065F5F0600000000070700075D
:10745000070000147F7F147F7F1400242E6B6B3A8B
:10746000120000466630180C666200307A4F5D37B5
:107470007A48000407030000000000001C3E63413E
:107480000000000041633E1C000000082A3E1C1C56
:107490003E2A0808083E3E080800000080E0600020
:1074A00000000008080808080800000000606000EC
:1074B0000000006030180C060301003E7F71594D3A
:1074C0007F3E0040427F7F40400000627359496F19
:1074D000660000226349497F360000181C16537F5E
:1074E0007F5000276745457D3900003C7E4B497938
:1074F000300000030371790F070000367F49497F90
:10750000360000064F49693F1E0000000066660015
:107510000000000080E66600000000081C366341A1
:107520000000002424242424240000004163361C8D
:10753000080000020351590F0600003E7F415D5DC7
:107540001F1E007C7E13137E7C0000417F7F494913
:107550007F36001C3E634141632200417F7F4163CF
:107560003E1C00417F7F495D416300417F7F491D93
:107570000103001C3E6341517372007F7F08087F46
:107580007F000000417F7F41000000307040417F5C
:107590003F0100417F7F081C776300417F7F4140AE
:1075A0006070007F7F0E1C0E7F7F007F7F060C18AF
:1075B0007F7F001C3E6341633E1C00417F7F490981
:1075C0000F06001E3F21717F5E0000417F7F091979
:1075D0007F6600266F4D597332000003417F7F4163
:1075E0000300007F7F40407F7F00001F3F60603FBF
:1075F0001F00007F7F3018307F7F0043673C183CBE
:10760000674300074F78784F070000476371594D73
:10761000677300007F7F41410000000103060C18E2
:107620003060000041417F7F000000080C06030627
:107630000C08008080808080808080000003070428
:10764000000000207454543C784000417F3F48487B
:10765000783000387C44446C280000307848493F3A
:107660007F4000387C54545C180000487E7F4903FA
:1076700002000098BCA4A4F87C0400417F7F0804A9
:107680007C780000447D7D4000000060E08080FD4B
:107690007D0000417F7F10386C440000417F7F40B7
:1076A0000000007C7C18381C7C78007C7C04047C06
:1076B000780000387C44447C38000084FCF8A42422
:1076C0003C1800183C24A4F8FC8400447C784C044A
:1076D0001C1800485C54547424000000043E7F448D
:1076E0002400003C7C40403C7C40001C3C60603CF2
:1076F0001C00003C7C7038707C3C00446C381038B6
:107700006C44009CBCA0A0FC7C00004C64745C4CED
:1077100064000008083E77414100000000007777D0
:107720000000004141773E08080000020301030207
:1077300003010070784C464C7870000E9F91B1FBAD
:107740004A00003A7A40407A7A4000387C54555DCD
:1077500019000002237555557D7B42217554547DD7
:10776000794000217555547C784000207457577C2F
:10777000784000183CA4A4E4400000023B7D55552D
:107780005D1B02397D54545D190000397D55545CF0
:1077900018000001457C7C410100000203457D7D0D
:1077A00043020001457D7C40000000797D161216E1
:1077B0007D790070782B2B78700000447C7C5555C7
:1077C000450000207454547C7C54547C7E0B097F0B
:1077D0007F4900327B49497B320000327A48487A3F
:1077E000320000327A4A48783000003A7B41417BCF
:1077F0007A40003A7A4240787840009ABAA0A0FADB
:107800007A000001193C66663C19013D7D40407DCF
:107810003D0000183C24E7E7242400687E7F4943AC
:107820006620002B2FFCFC2F2B0000FFFF09092FE7
:10783000F6F8A040C088FE7F090302207454557DED
:1078400079400000447D7D410000003078484A7A4C
:10785000320000387840427A7A40007A7A0A0A7A0E
:107860007000007D7D19317D7D000000262F292FBD
:107870002F280000262F292F26000030784D456044
:1078800020000038380808080800000808080838F0
:107890003800004F6F3018CCEEBB914F6F30186C32
:1078A00076FBF90000007B7B000000081C362208F4
:1078B0001C362222361C0822361C08AA005500AAB3
:1078C000005500AA55AA55AA55AA55DDFFAA77DD8D
:1078D000AAFF77000000FFFF000000101010FFFF5C
:1078E000000000141414FFFF0000001010FFFF0040
:1078F000FFFF001010F0F010F0F000141414FCFC66
:107900000000001414F7F700FFFF000000FFFF0065
:10791000FFFF001414F4F404FCFC001414171710F7
:107920001F1F0010101F1F101F1F001414141F1FF3
:10793000000000101010F0F00000000000001F1FF9
:107940001010101010101F1F101010101010F0F059
:10795000101010000000FFFF101010101010101079
:10796000101010101010FFFF101010000000FFFF8B
:107970001414140000FFFF00FFFF1000001F1F1071
:107980001717140000FCFC04F4F414141417171057
:107990001717141414F4F404F4F4140000FFFF0097
:1079A000F7F71414141414141414141414F7F7001F
:1079B000F7F714141414171714141410101F1F10B1
:1079C0001F1F10141414F4F41414141010F0F010F9
:1079D000F0F01000001F1F101F1F100000001F1FDD
:1079E000141414000000FCFC1414140000F0F01037
:1079F000F0F0101010FFFF10FFFF10141414FFFF21
:107A00001414141010101F1F000000000000F0F0EC
:107A1000101010FFFFFFFFFFFFFFFFF0F0F0F0F08E
:107A2000F0F0F0FFFFFFFF0000000000000000FF8B
:107A3000FFFFFF0F0F0F0F0F0F0F0F387C446C3835
:107A40006C4400FCFE2A2A3E1400007E7E020206E0
:107A5000060000027E7E027E7E020063775D49633F
:107A6000630000387C447C3C04040080FE7E2020BF
:107A70003E1E000406027E7C06020099BDE7E7BDBB
:107A80009900001C3E6B496B3E1C004C7E730173D9
:107A90007E4C0030784A4F7D390000183C243C3C35
:107AA000243C1898FC643C3E273D18000000000070
:107AB00000000000000000000000000000000000C6
:107AC00000000000000000000000000000000000B6
:107AD00000000000000000000000000000000000A6
:107AE0000000000000000000000000000000000096
:107AF0000000000000000000000000000000000086
:107B00000000000000000000000000000000000075
:107B10000000000000000000000000000000000065
:107B20000000000000000000000000000000000055
:107B30000000000000000000000000000000000045
:107B40000000008080808000000000000000000035
:107B500000000000000000800000800000800000A5
:107B60000000000000000000000000000000000015
:107B70000000000000000000000000000000000005
:107B800000000000000000000000000000000000F5
:107B900000000000000000000000000000000000E5
:107BA00000000000000000000000000000000000D5
:107BB00000000000000000000000000000000000C5
:107BC000003E4180808080413E0000D894A46C003B
:107BD000007884844C0088FC8081FF8081FF8000D5
:107BE00078848484780000D894A46C00007884841D
:107BF0004C000078848484780008FC4884847800F1
:107C000000789494580000000000D894A46C0004FC
:107C10001C6480740C0400D894A46C0004FF84409D
:107C200000789494580088FC8804FC8804F880004C
:107C30000000000000000000000000000000000044
:107C40000000000000000000000000000000000034
:107C50000000000000000000000000000000000024
:107C60000000000000000000000000000000000014
:107C700000000000000000000004070400000000F5
:107C800000000000000000000000000000000004F0
:107C900004060100000000000000000000000000D9
:107CA00000000000000000000000000000000000D4
:107CB00000000000000000000000000000000000C4
:107CC00000000000000000000000000000000000B4
:107CD00000000000000000000000000000000000A4
:107CE000000000000000000000000080F0F8181CF8
:107CF0000E0E1C1878F0C08000000000000000008C
:107D000000000000000000000080F0F8181C0C0EBD
:107D10000E1C18F8F08000000000000000000000B9
:107D20000000000000000000000000000000000053
:107D30000000000000000000000000000000000043
:107D40000000000000000000000000000000000033
:107D50000000000000000000000000000000000023
:107D600000000000000000000000F8FF0F0000000D
:107D70000000000000000FFFF800000000000000FD
:107D80000000000000000000F8FF0F0000000000ED
:107D9000000000000FFFF8000000000000000000DD
:107DA00000000000000000000000000000000000D3
:107DB00000000000000000000000000000000000C3
:107DC00000000000000000000000000000000000B3
:107DD0000000000800080008001CFCF880080008EB
:107DE0000008000800080008E0FF3F09000800083C
:107DF00000080008000800093FFFE008000800082C
:107E0000000800080008E0FF3F090008000800081B
:107E10000008000800090F0F000800080008000013
:107E20000000000000000000000000000000000052
:107E30000000000000000000000000000000000042
:107E40000000000000000000000000000000000032
:107E50000000000000000000000000073FFCE00000
:107E6000000000000080C0FC7F0700000000000050
:107E7000000000000000000000073FFCE0000000E0
:107E800000000000C0FC7F070000000000000000B0
:107E900000000000000000000000000000000000E2
:107EA00000000000000000000000000000000000D2
:107EB00000000000000000000000000000000000C2
:107EC00000000000000000000000000000000000B2
:107ED0000000000000000000000000000001070F8B
:107EE0001C18181C0F070100000000000000000013
:107EF000000000000000000000000001070F1C1837
:107F0000181C0C0F0701000000000000000000001A
:107F10000000000000000000000000000000000061
:107F20000000000000000000000000000000000051
:107F30000000000000000000000000000000005CE5
:107F4000000C000C7C287C7C447C241048285408BD
:107F5000000C00384400443800201008103810800D
:107F60004000101010004000201008384438007CF9
:107F7000006454484454281C107C4C542438542029
:107F800004740C2854280854380050008050001005
:107F90002844282828442810045408384C5C7814B5
:107FA000787C54283844447C44387C54447C140401
:107FB0003844347C107C007C0020403C7C106C7C7D
:107FC00040407C087C7C047C7C447C7C14083844E5
:107FD000787C1468485424047C047C407C3C403CFD
:107FE0007C207C6C106C1C601C64544C7C4400082D
:0F7FF0001020447C0008040880808004080000F2
:020000040020DA
:08000000FFFFFFFFFFFFFFFF00
:020000040030CA
:0E00000000051F1FFF8385FF0FC00FE00F409C
:00000001FF
