:020000040000FA
:0400000007EF00F016
:10000800598208ED0AF01EEF0BF0000ED5EC12F045
:10001800000E116E000E3CEC15F019EC10F0FF0EFE
:100028002E6E2D68000E306E010E2F6E95EC0AF0C4
:1000380029EC14F0000E0001EC6F000EEB6F000EBF
:10004800E86F000EE76F000EEA6F000EE96FA0EF91
:1000580001F0E951EA11D8A434EF00F036EF00F0CE
:10006800B3EF00F082A03BEF00F03DEF00F068EF47
:1000780000F0000EEA6F010EE96FEBC02DF0ECC046
:100088002EF0000E306E000E2F6E95EC0AF0000177
:10009800EB07D8A0EC07ECBF56EF00F054EF00F0E8
:1000A8005CEF00F0000EEC6F070EEB6F5CEF00F0FA
:1000B800EBC02DF0ECC02EF0000E306E010E2F6E4E
:1000C80095EC0AF0B3EF00F082A46DEF00F06FEF4B
:1000D80000F0A0EF00F0000EEA6F010EE96FEBC030
:1000E8002DF0ECC02EF0000E306E000E2F6E95EC49
:1000F8000AF00001EB4BEC2BECBF8CEF00F0EC515D
:1001080009E1080EEB5DD8A08CEF00F08EEF00F04F
:1001180094EF00F0000EEC6F000EEB6F94EF00F020
:10012800EBC02DF0ECC02EF0000E306E010E2F6EDD
:1001380095EC0AF0B3EF00F082A2A5EF00F0A7EF6C
:1001480000F0B3EF00F0000EEA6F020EE96FB3EFB4
:1001580000F0B3EF00F0B3EF00F0B3EF00F082B0BF
:10016800B8EF00F0BAEF00F0FCEF00F082B2BFEF9A
:1001780000F0C1EF00F0FCEF00F082B4C6EF00F031
:10018800C8EF00F0FCEF00F00001E951EA11D8B423
:10019800D0EF00F0D2EF00F0FCEF00F0020EE9190A
:1001A800EA11D8A4DAEF00F0DCEF00F0F5EF00F088
:1001B800EBC048F0ECC049F0EBEC10F0000E116E0B
:1001C800000E3CEC15F019EC10F0EBC02DF0ECC073
:1001D8002EF0000E306E010E2F6E95EC0AF0F5EF42
:1001E80000F0000E0001EA6F000EE96FFCEF00F06E
:1001F800320E0001D36103EF01F005EF01F009EFC2
:1002080001F0DAEC13F018EF01F00001D705D8B4CB
:1002180010EF01F012EF01F018EF01F029EC14F0E3
:1002280018EF01F018EF01F0330E0001D8611FEF4D
:1002380001F021EF01F025EF01F074EC15F05BEF10
:1002480001F0000E186E020E196E000E1B6E1E0EC7
:100258001A6E000E1D6E250E1C6E000E1F6E090E06
:100268001E6E000E216E0E0E206E000E236E000E06
:10027800226E75EC09F0820E186E000E196E000ED3
:100288001B6E200E1A6E000E1D6E200E1C6E000EC8
:100298001F6E040E1E6E000E216E060E206E000EDE
:1002A800236E000E226E75EC09F05BEF01F0000181
:1002B800D705D8A462EF01F064EF01F068EF01F010
:1002C800A3EC0BF0A0EF01F07E0E186E010E196E74
:1002D800000E1B6E580E1A6E000E1D6E140E1C6E4C
:1002E800000E1F6E060E1E6E000E216E060E206E8C
:1002F800000E236E000E226E75EC09F0B20E186E19
:10030800000E196E000E1B6E5F0E1A6E000E1D6E2B
:10031800120E1C6E000E1F6E040E1E6E000E216E55
:10032800040E206E000E236E000E226E75EC09F08E
:10033800A0EF01F0A0EF01F00001D605D8B4A7EFB7
:1003480001F0A9EF01F02DEF00F0ABEF01F0000E86
:10035800D5EC12F0000E116E000E3CEC15F0FB0E01
:100368001A6E7F0E1B6E010E1C6E010E1D6E31EC97
:1003780013F01200000E476E000E466E000E476E18
:10038800000E466ED3EF02F0DB0E3A6E000E3B6EA7
:10039800D8904634D96E4734DA6ED890D936DA36E2
:1003A8003A50D9263B50DA22DF503C6E3D6A0001B4
:1003B800D95162253E6E000E63213F6E3C503E5C73
:1003C8003F50800A406E3D50800A4058D8A0EFEF59
:1003D80001F0F1EF01F0CFEF02F0D95162253A6E4A
:1003E800000E63213B6EDB0E3C6E000E3D6ED89016
:1003F8004634D96E4734DA6ED890D936DA363C505E
:10040800D9263D50DA22DF503E6E3F6A46C040F0A2
:1004180047C041F0D89040364136D89040364136F2
:10042800030E4026000E4122DB0E4024D96E000E3A
:100438004120DA6EDF50426E42503E26000E3F22C7
:100448003A503E5C3F50800A436E3B50800A435806
:10045800D8A031EF02F033EF02F0CFEF02F046C040
:100468003AF047C03BF0D8903A363B36D8903A3607
:100478003B36010E3A26000E3B22DB0E3A24D96E9B
:10048800000E3B20DA6EDF503C6E3D6ADA51602583
:100498003E6E000E61213F6E3C503E5C3F50800A2C
:1004A800406E3D50800A4058D8A05DEF02F05FEFE3
:1004B80002F0CFEF02F0DA5160253A6E000E6121AA
:1004C8003B6E46C03CF047C03DF0D8903C363D36C8
:1004D800D8903C363D36010E3C26000E3D22DB0E00
:1004E8003C24D96E000E3D20DA6EDF503E6E3F6A26
:1004F80046C040F047C041F0D89040364136D890C9
:1005080040364136020E4026000E4122DB0E4024C2
:10051800D96E000E4120DA6EDF50426E42503E2600
:10052800000E3F223A503E5C3F50800A436E3B50DB
:10053800800A4358D8A0A3EF02F0A5EF02F0CFEF4E
:1005480002F0000EE46F010EE36FFF0E5524556EA6
:10055800FF0E5620566E000ED96F000EDA6F000E91
:10056800186E010E196E000E1B6E1E0E1A6E000E0E
:100578001D6E280E1C6E000E1F6E090E1E6E000EDC
:10058800216E0E0E206E000E236E000E226E75EC8C
:1005980009F0CFEF02F0464A472AD3EF02F057504E
:1005A800465C4750800A3A6E5850800A3A58D8A09C
:1005B800E0EF02F0E2EF02F0C8EF01F0E4EF02F042
:1005C8000001E305E411D8A4ECEF02F0EEEF02F02D
:1005D80048EF03F0000E456E000E446E1E0ED96FF4
:1005E800000EDA6F35EF03F052EC11F052EC11F017
:1005F80052EC11F0000E186E010E196ED9C01AF0E7
:100608001B6ADAC01CF01D6A000E1F6E090E1E6EF2
:10061800000E216E0E0E206E000E236E000E226E4E
:1006280075EC09F00A0E0001DA27000E186E010EAB
:10063800196ED9C01AF01B6ADAC01CF01D6A000EC8
:100648001F6E090E1E6E000E216E0E0E206E000E1D
:10065800236E010E226E75EC09F0444A452A35EFE7
:1006680003F0040E44184510D8A43DEF03F03FEF03
:1006780003F0F8EF02F041EF03F0000E0001E46F21
:10068800000EE36F48EF03F01200000000000000C6
:100698000000000000000000000000000000000052
:1006A8000000000000000000000000000000000042
:1006B8000000000000000000000000000000000032
:1006C8000000000000000000000000000000000022
:1006D8000000000000000000000000000000000012
:1006E8000000000000000000000000000000000002
:1006F80000000000000000000000000000000000F2
:1007080000000000000000000000000000000000E1
:1007180000000000000000000000000000000000D1
:1007280000000000000000000000000000000000C1
:1007380000000000000000000000000000000000B1
:1007480000000000000000000000000000000000A1
:100758000000000000000000000000000000000091
:100768000000000000000000000000000000000081
:100778000000000000000000000000000000000071
:10078800000000000000000000000000010000015F
:10079800010101000000010000000000000000014C
:1007A8000101010101010101010101010101010032
:1007B800000000000000000001010100000000002E
:1007C8000100000000000000000000000000000020
:1007D800010000000000000000000000010000000F
:1007E8000001000000000000000000000000000000
:1007F80000000000000000000000000000000100F0
:1008080000010101000000000000000000000000DD
:1008180000000000000000000000000000000000D0
:1008280001000100000000000000000000000000BE
:1008380000000000000000000000000000000000B0
:10084800000001000100000000000000000000009E
:100858000000000000000000000000000000000090
:10086800000000000100010000000000000000007E
:100878000000000000000000000000000000000070
:10088800000000000000010001010100000000005C
:100898000000000000000000000000000000000050
:1008A800000000000000000001000000000100003E
:1008B800000001010000000000000000000000002E
:1008C800000000000000000000000100000000011E
:1008D800000000000000010100000000000000000E
:1008E80000000000000000000000000100000000FF
:1008F80000010000000000000001010101010000EA
:1009080000000000000000010101010101000000D9
:1009180000000001000000000000000000000000CE
:1009280001000000000000000000000000010000BD
:1009380000000000000100000000000000000000AE
:10094800000001000000010000000000000000019C
:10095800000000000000000100000000000000008E
:10096800000000000100000001000000000000007D
:100978000001000000000000000101010101010167
:10098800010101010101010101010101010101014F
:100998000101010100000000000ED5EC12F0000E6C
:1009A800116E000E3CEC15F0C40E1A6E7F0E1B6E15
:1009B800010E1C6E010E1D6E31EC13F0000E116E4F
:1009C800320E3CEC15F0970E1A6E7F0E1B6E010E60
:1009D8001C6E010E1D6E31EC13F0000E1F6E000E22
:1009E8001E6EF7EF04F0020E116E000E3CEC15F0CF
:1009F800DD0E1A6E7F0E1B6E010E1C6E010E1D6E33
:100A080031EC13F0020E116E320E3CEC15F0D3C02F
:100A180015F0166A520E176E000E186EAEEC0FF037
:100A2800520E1A6E000E1B6E010E1C6E010E1D6E0C
:100A380031EC13F0520E076E000E086E000E0A6EAF
:100A4800000E096E000E0C6E030E0B6E25EC06F000
:100A5800030E116E000E3CEC15F08E0E1A6E7F0E12
:100A68001B6E010E1C6E010E1D6E31EC13F0030E91
:100A7800116E410E3CEC15F0D4C015F0166A520EFA
:100A8800176E000E186EAEEC0FF0520E1A6E000EB6
:100A98001B6E010E1C6E010E1D6E31EC13F0520E12
:100AA800076E000E086E000E0A6E000E096E000E2C
:100AB8000C6E030E0B6E25EC06F0040E116E000E84
:100AC8003CEC15F0BD0E1A6E7F0E1B6E010E1C6EEF
:100AD800010E1D6E31EC13F0040E116E370E3CEC56
:100AE80015F0D5C015F0166A520E176E000E186E66
:100AF800AEEC0FF0520E1A6E000E1B6E010E1C6E3D
:100B0800010E1D6E31EC13F0520E076E000E086ECA
:100B1800000E0A6E000E096E000E0C6E030E0B6EB0
:100B280025EC06F0050E116E000E3CEC15F0A00E3B
:100B38001A6E7F0E1B6E010E1C6E010E1D6E31ECBF
:100B480013F0050E116E3C0E3CEC15F0D8C015F0F4
:100B5800166A520E176E000E186EAEEC0FF0520E9B
:100B68001A6E000E1B6E010E1C6E010E1D6E31EC0E
:100B780013F0520E076E000E086E000E0A6E000E7D
:100B8800096E000E0C6E030E0B6E25EC06F0060EB9
:100B9800116E000E3CEC15F0F20E1A6E7F0E1B6EF5
:100BA800010E1C6E010E1D6E31EC13F0060E116E57
:100BB8001E0E3CEC15F0D2C015F0166A520E176ED8
:100BC800000E186EAEEC0FF0520E1A6E000E1B6E71
:100BD800010E1C6E010E1D6E31EC13F0520E076EE5
:100BE800000E086E000E0A6E000E096E000E0C6EE6
:100BF800030E0B6E25EC06F082A205EF06F007EF58
:100C080006F00DEF06F0000E1F6E010E1E6E0DEFC2
:100C180006F01E041F10D8B414EF06F016EF06F005
:100C280021EF06F082A21BEF06F01DEF06F0F7EFAA
:100C380004F021EF06F021EF06F0000ED5EC12F0DB
:100C4800120007C013F008C014F00B500C10D8A401
:100C580030EF06F032EF06F036EF06F003EF07F05C
:100C680003EF07F013C0D9FF14C0DAFF09C0DFFF94
:100C7800FF0E0D6EFF0E0E6E0BC00FF00CC010F0C5
:100C88000D500F260E5010220F501324D96E1050FD
:100C98001420DA6E09C0DFFF0C5007E1030E0B5C6D
:100CA800D8B059EF06F05BEF06F05FEF06F003EF00
:100CB80007F003EF07F020EE01F01350D926145087
:100CC800DA2209C0DFFF20EE02F01350D9261450B3
:100CD800DA2209C0DFFFFE0E0D6EFF0E0E6E0BC08E
:100CE8000FF00CC010F00D500F260E5010220F50B0
:100CF8001324D96E10501420DA6E09C0DFFFFD0EE0
:100D08000D6EFF0E0E6E0BC00FF00CC010F00D50E4
:100D18000F260E5010220F501324D96E1050142095
:100D2800DA6E09C0DFFF0C5007E1070E0B5CD8B084
:100D3800A0EF06F0A2EF06F0A6EF06F003EF07F02B
:100D480003EF07F020EE03F01350D9261450DA22EF
:100D580009C0DFFFFC0E0D6EFF0E0E6E0BC00FF00C
:100D68000CC010F00D500F260E5010220F501324F7
:100D7800D96E10501420DA6E09C0DFFF0C5007E15D
:100D8800090E0B5CD8B0CBEF06F0CDEF06F0D1EF33
:100D980006F003EF07F003EF07F013C00DF014C0DF
:100DA8000EF00D1E0E1E0D4A0E2A030E0D14116EA6
:100DB800126A115013261250142211500B5E125051
:100DC8000C5AFC0E0B16FF0E0C16F8EF06F013C0AB
:100DD800D9FF14C0DAFF09C0DFFF0B06D8A00C0644
:100DE800134A142AF8EF06F00B500C10D8A4FFEFA2
:100DF80006F001EF07F0EBEF06F003EF07F0120043
:100E0800000ED5EC12F0C1EC14F01E0E0001D96FE3
:100E1800280EDA6F000E186E010E196ED9C01AF07E
:100E28001B6ADAC01CF01D6A000E1F6E090E1E6ECA
:100E3800000E216E0E0E206E000E236E010E226E25
:100E480075EC09F028EF07F052EC11F0BEEC01F058
:100E580082A231EF07F033EF07F037EF07F0E0EC4D
:100E680008F037EF07F0000E116E640E3CEC15F039
:100E780055C015F056C016F0520E176E000E186EBB
:100E8800AEEC0FF0520E1A6E000E1B6E010E1C6EA9
:100E9800010E1D6E31EC13F0520E076E000E086E37
:100EA800000E0A6E000E096E000E0C6E030E0B6E1D
:100EB80025EC06F055505610D8A465EF07F067EFFB
:100EC80007F028EF07F06BEF07F06BEF07F0000E65
:100ED800116E000E3CEC15F0E80E1A6E7F0E1B6EBC
:100EE800010E1C6E010E1D6E31EC13F0040E116E16
:100EF800000E3CEC15F0A80E1A6E7F0E1B6E010E4C
:100F08001C6E010E1D6E31EC13F0060E116E000EF4
:100F18003CEC15F0E30E1A6E7F0E1B6E010E1C6E74
:100F2800010E1D6E31EC13F082A09DEF07F09FEFCC
:100F380007F06BEF07F0000E566E030E556EA7EF25
:100F480007F06BEF07F01200156E000E176E0A0E11
:100F58001518D8A4B2EF07F0B4EF07F0BBEF07F00D
:100F6800000E516E502A49EF08F049EF08F03F0E85
:100F78005164C1EF07F0C3EF07F0CAEF07F0010EA5
:100F8800176E5150C00F146ECEEF07F051C014F019
:100F9800CEEF07F0200E155E000E166E020E1664D8
:100FA800D8EF07F0DAEF07F0DEEF07F047EF08F0C9
:100FB80047EF08F03F0E1464E4EF07F0E6EF07F0A0
:100FC800FAEF07F0400E145E010E176E8A94145063
:100FD80040090F6E1750D2EC15F05050B8090F6E3B
:100FE8001750D2EC15F08A84FAEF07F01150D8B4F4
:100FF80000EF08F002EF08F01EEF08F01550030D9F
:10100800C30E126E7E0E136EF3501226F450132286
:101018001650010DF3501226F450132212C0F6FF99
:1010280013C0F7FF0800F5CF0FF01750D2EC15F0FA
:101038003BEF08F01550030DC30E126E7E0E136EB3
:10104800F3501226F45013221650010DF3501226B5
:10105800F450132212C0F6FF13C0F7FF0800F55032
:10106800FF0A0F6E1750D2EC15F03BEF08F0142A68
:10107800162A020E166443EF08F045EF08F0DEEF7B
:1010880007F047EF08F0050E51261200146E000E07
:10109800196E0A0E1418D8A454EF08F056EF08F089
:1010A8005DEF08F0000E516E502ADFEF08F0DFEF19
:1010B80008F03F0E516463EF08F065EF08F06CEF3D
:1010C80008F0010E196E5150C00F176E70EF08F03E
:1010D80051C017F070EF08F01450080DF3CF15F059
:1010E800F4CF16F0000E186E070E18647EEF08F0A5
:1010F80080EF08F084EF08F0DDEF08F0DDEF08F08E
:101108003F0E17648AEF08F08CEF08F0A0EF08F0A4
:10111800400E175E010E196E8A94175040090F6E23
:101128001950D2EC15F05050B8090F6E1950D2EC86
:1011380015F08A84A0EF08F01150D8B4A6EF08F093
:10114800A8EF08F0BCEF08F018501524126E000E36
:101158001620136EC30E1224F66E720E1320F76E4D
:101168000800F5CF0FF01950D2EC15F0D1EF08F0C8
:1011780018501524126E000E1620136EC30E12247A
:10118800F66E720E1320F76E0800F550FF0A0F6E08
:101198001950D2EC15F0D1EF08F0172A182A070ECB
:1011A8001864D9EF08F0DBEF08F084EF08F0DDEF02
:1011B80008F0080E51261200000E3B6E000E3A6E23
:1011C8001FEF09F052EC11F0000E186E010E196EA7
:1011D800D9C01AF01B6ADAC01CF01D6A000E1F6E17
:1011E800090E1E6E000E216E0E0E206E000E236E6E
:1011F800000E226E75EC09F0040E0001DA5F000E95
:10120800186E010E196ED9C01AF01B6ADAC01CF0EC
:101218001D6A000E1F6E090E1E6E000E216E0E0E48
:10122800206E000E236E010E226E75EC09F03A4A0C
:101238003B2A1FEF09F0050E3A183B10D8A427EFF8
:1012480009F029EF09F0E6EF08F068EF09F068EF18
:1012580009F052EC11F0000E186E010E196ED9C08B
:101268001AF01B6ADAC01CF01D6A000E1F6E090E08
:101278001E6E000E216E0E0E206E000E236E000EE6
:10128800226E75EC09F0040E0001DA27000E186EC4
:10129800010E196ED9C01AF01B6ADAC01CF01D6A5B
:1012A800000E1F6E090E1E6E000E216E0E0E206EB1
:1012B800000E236E010E226E75EC09F052EC11F04F
:1012C8003A4A3B2A68EF09F00A0E3A183B10D8A4AC
:1012D80070EF09F072EF09F02DEF09F074EF09F0E3
:1012E8001200000E2A6E000E296E000E2C6E000EE3
:1012F8002B6E000E286E000E276E1CC029F01DC034
:101308002AF0F0EF09F01AC02BF01BC02CF0D5EF33
:1013180009F027501824D96E28501920DA6EDF50AA
:10132800D8B499EF09F09BEF09F0ADEF09F022046A
:101338002310D8A4A2EF09F0A4EF09F0ADEF09F04B
:1013480029C011F0010E126E2B5069EC0EF0CFEF90
:1013580009F027501824D96E28501920DA6EDF506A
:10136800D8B4B9EF09F0BBEF09F0CFEF09F022507C
:101378002310D8A4C2EF09F0C4EF09F0CFEF09F0A9
:1013880029C011F0000E126E2B5069EC0EF0CFEF51
:1013980009F0CFEF09F0274A282A2B4A2C2AD5EF43
:1013A80009F020501A24246E21501B20256E245049
:1013B8002B5C2C50800A266E2550800A2658D8A00F
:1013C800E8EF09F0EAEF09F08DEF09F0ECEF09F02A
:1013D800294A2A2AF0EF09F01E501C24246E1F50B7
:1013E8001D20256E2450295C2A50800A266E25501F
:1013F800800A2658D8A003EF0AF005EF0AF087EF15
:1014080009F007EF0AF0120006009EA00EEF0AF09E
:1014180010EF0AF016EF0AF04E4A4F2A9D809E9070
:1014280016EF0AF04EC001F04FC002F0000E046E35
:10143800640E036E42EC0FF001500210D8A427EF9F
:101448000AF029EF0AF03AEF0AF00A0E0001D35F1A
:10145800D351D8A432EF0AF034EF0AF03AEF0AF089
:10146800000ED66F3AEF0AF03AEF0AF04EC001F0DC
:101478004FC002F0000E046E960E036E42EC0FF0A1
:1014880001500210D8A44BEF0AF04DEF0AF05FEFBD
:101498000AF00001D407D807D507D451D8A457EFCC
:1014A8000AF059EF0AF05FEF0AF0000ED66F5FEF0F
:1014B8000AF05FEF0AF00001D705D8A466EF0AF03A
:1014C80068EF0AF078EF0AF01E0E4E184F10D8A4F5
:1014D80070EF0AF072EF0AF078EF0AF0000ED76F9B
:1014E80078EF0AF078EF0AF04EC001F04FC002F032
:1014F800010E046EF40E036E42EC0FF00150021060
:10150800D8A489EF0AF08BEF0AF093EF0AF073EC96
:1015180016F0000E4F6E000E4E6E93EF0AF05992C1
:1015280011002D2806E12E28D8A49DEF0AF09FEF80
:101538000AF0BBEF0AF0640E186E000E196E000E6A
:101548001B6E0C0E1A6E000E1D6E0A0E1C6E000E1F
:101558001F6E030E1E6E000E216E0A0E206E2FC027
:1015680022F030C023F075EC09F01DEF0BF02EBE11
:10157800C9EF0AF02E5007E1040E2D5CD8B0C7EF72
:101588000AF0C9EF0AF0F2EF0AF0640E186E000EC6
:10159800196E2DC031F02EC032F0050ED8903136BC
:1015A8003236E82ED2EF0AF00C0E31241A6E000EF5
:1015B80032201B6E000E1D6E0A0E1C6E000E1F6E72
:1015C800030E1E6E000E216E0A0E206E2FC022F032
:1015D80030C023F075EC09F01DEF0BF0640E186EA7
:1015E800000E196E2DC031F02EC032F0050ED890C5
:1015F80031363236E82EFBEF0AF08C0E31241A6EA3
:10160800FF0E32201B6E000E1D6E320E1C6E000E79
:101618001F6E030E1E6E000E216E0A0E206E2FC066
:1016280022F030C023F075EC09F01DEF0BF01DEF30
:101638000BF01200920EF66E060EF76E000EF86EA4
:1016480004EEEEF013EE0EF00900F5CFEEFFE550D4
:10165800E150FAE1E250F8E13A0EF66E190EF76E33
:10166800000EF86E04EE00F010EEEEF00900F5CF73
:10167800EEFFE550E150FAE14C0EF66E180EF76EEB
:10168800000EF86E03EE00F010EEEEF00900F5CF54
:10169800EEFFE550E150FAE1140EF66E1B0EF76E00
:1016A800000EF86E02EE00F010EEE4F00900F5CF3F
:1016B800EEFFE550E150FAE1680EF66E230EF76E84
:1016C800000EF86E01EE00F010EEC2F00900F5CF42
:1016D800EEFFE550E150FAE1060EF66E2A0EF76EBF
:1016E800000EF86E00EE60F010EE72F00900F5CF13
:1016F800EEFFE550E150FAE10C0EF66E2D0EF76E96
:10170800000EF86E00EE55F010EE04F00900F5CF6B
:10171800EEFFE550E150FAE100EED2F0150EEE6A68
:10172800E806FDE100EE4EF0070EEE6AE806FDE180
:1017380059905992000EF86E000186EF13F0EE0EE4
:10174800186E040E196E000E1B6E340E1A6E000E03
:101758001D6E170E1C6E000E1F6E180E1E6E000EEC
:10176800216E220E206E000E236E010E226E75EC85
:1017780009F0000E186E030E196E000E1B6E340E63
:101788001A6E000E1D6E170E1C6E000E1F6E070ED1
:101798001E6E000E216E220E206E000E236E010EAC
:1017A800226E75EC09F0C20E186E000E196E000E4E
:1017B8001B6E4B0E1A6E000E1D6E230E1C6E000E55
:1017C8001F6E020E1E6E000E216E080E206E000E99
:1017D800236E010E226E75EC09F07E0E186E010E56
:1017E800196E000E1B6E580E1A6E000E1D6E140E2A
:1017F8001C6E000E1F6E060E1E6E000E216E060E6B
:10180800206E000E236E010E226E75EC09F0B20EEA
:10181800186E000E196E000E1B6E5F0E1A6E000E0B
:101828001D6E120E1C6E000E1F6E040E1E6E000E34
:10183800216E040E206E000E236E010E226E75ECD2
:1018480009F0120000000000000000000000000085
:101858000000000000000001010101010000010179
:10186800010100000000000000000000000000006E
:10187800000000000000000000010000000100005E
:10188800010000010000000000000000000000004E
:10189800000000000000000000000001010000013D
:1018A800000001000001000000000000000000002E
:1018B800000000000000000000000000000001001F
:1018C800000100000100000100000000000000000D
:1018D8000000000000000000000000000000000000
:1018E80001000001000001000001000000000000EC
:1018F80000000000000000000000000000000000E0
:1019080000000100000100000100000100000000CB
:1019180000000000000000000000000000000000BF
:1019280000000000010000010000010000010100AA
:10193800000000000000000000000000000000009F
:10194800000000000000000000000000000000008F
:10195800000000000000000000000000000000007F
:101968000000000000000001010101010001010167
:10197800010100000000000000000000000000005D
:10198800000000000000000000010000000100014C
:10199800000000010000000000000000000000003E
:1019A800000000000000000000000001010000012C
:1019B800000101000001000000000000000000001C
:1019C800000000000000000000000000000001000E
:1019D80000010000010000010000000000000000FC
:1019E80000000000000000000000000000000000EF
:1019F80001000001000001000001000000000000DB
:101A080000000000000000000000000000000000CE
:101A180000000100000100000100000101000000B9
:101A2800000E0C6E0ABE1DEF0DF01BEF0DF025EF3A
:101A38000DF0096C0A1ED8B00A2A010E0C6E25EFAB
:101A48000DF008BE2CEF0DF02AEF0DF034EF0DF07D
:101A5800076C081ED8B0082A010E0C1A34EF0DF0D6
:101A6800000E0E6E000E0D6E09500A10D8B43FEF2E
:101A78000DF041EF0DF075EF0DF0010E0B6E4BEF11
:101A88000DF0D89009360A360B2A4BEF0DF00AAE46
:101A980050EF0DF052EF0DF045EF0DF056EF0DF051
:101AA80056EF0DF0D8900D360E360950075C0A50E7
:101AB8000858D8A062EF0DF064EF0DF06BEF0DF051
:101AC8000950075E0A50085A0D806BEF0DF0D89048
:101AD8000A3209320B2E56EF0DF075EF0DF075EF47
:101AE8000DF00C50D8B47BEF0DF07DEF0DF083EFC7
:101AF8000DF00D6C0E1ED8B00E2A83EF0DF00DC040
:101B080007F00EC008F089EF0DF012000000000089
:101B180000000000000000000000000000000000BD
:101B280000010000000000000000000000000101AA
:101B38000100000000000000000000010101010197
:101B48000000000000000000010101010101010086
:101B58000000000000010100010101000101000076
:101B68000000000101000001000001010000000068
:101B78000101010101010101010101000000010150
:101B88000101000000010101010000000001000046
:101B9800000000000000000000000000000000003D
:101BA8000001010100000101010000000001010124
:101BB800000000000000000000000000000000001D
:101BC8000000000101010000010101000000010006
:101BD80000000000000000000000000000000000FD
:101BE80000000000000101010000010101000000E7
:101BF800000ED5EC12F0000E116E000E3CEC15F044
:101C0800B60E1A6E7F0E1B6E010E1C6E010E1D6E37
:101C180031EC13F0010E116E000E3CEC15F0D70EEE
:101C28001A6E7F0E1B6E010E1C6E010E1D6E31ECBE
:101C380013F0010E116E290E3CEC15F0D10E1A6E40
:101C48007F0E1B6E010E1C6E010E1D6E31EC13F023
:101C5800030E116E000E3CEC15F0AF0E1A6E7F0EDF
:101C68001B6E010E1C6E010E1D6E31EC13F0030E7F
:101C7800116E2F0E3CEC15F0ED0E1A6E7F0E1B6EDA
:101C8800010E1C6E010E1D6E31EC13F0040E116E68
:101C9800000E3CEC15F0CB0E1A6E7F0E1B6E010E7B
:101CA8001C6E010E1D6E31EC13F0050E116E000E48
:101CB8003CEC15F0F70E1A6E7F0E1B6E010E1C6EB3
:101CC800010E1D6E31EC13F01200156E000E176E2A
:101CD8003F0E156472EF0EF074EF0EF07AEF0EF00F
:101CE800400E155E010E176E7AEF0EF08A94159E5F
:101CF800158C15C00FF01750D2EC15F011C007F075
:101D0800086A000E0A6E080E096E14EC0DF00750F2
:101D1800BF0BB8090F6E1750D2EC15F08A84175014
:101D2800F5EC15F01750F5EC15F0166E8A9415C001
:101D38000FF01750D2EC15F01250D8B4A6EF0EF0F1
:101D4800A8EF0EF0BBEF0EF011C013F0070E13163C
:101D5800010E146E132AB3EF0EF0D8901436132E1A
:101D6800B1EF0EF014501610166ECFEF0EF011C032
:101D780013F0070E1316010E146E132AC6EF0EF099
:101D8800D8901436132EC4EF0EF01450FF0A161410
:101D9800166ECFEF0EF08A8416C00FF01750D2ECF3
:101DA80015F01200000E0C6E08BEDFEF0EF0DDEF2E
:101DB8000EF0E7EF0EF0076C081ED8B0082A010EE7
:101DC8000C6EE7EF0EF00ABEEEEF0EF0ECEF0EF041
:101DD800F4EF0EF0096C0A1ED8B00A2AF4EF0EF0E0
:101DE80009500A10D8B4FBEF0EF0FDEF0EF02DEFFE
:101DF8000FF0010E0B6E07EF0FF0D89009360A3678
:101E08000B2A07EF0FF00AAE0CEF0FF00EEF0FF0F2
:101E180001EF0FF012EF0FF012EF0FF00950075C0F
:101E28000A500858D8A01BEF0FF01DEF0FF023EF52
:101E38000FF00950075E0A50085A23EF0FF0D890A8
:101E48000A3209320B2E12EF0FF02DEF0FF02DEFA3
:101E58000FF00C50D8B433EF0FF035EF0FF03BEF25
:101E68000FF0076C081ED8B0082A3BEF0FF007C028
:101E780007F008C008F041EF0FF01200000E066EE0
:101E880002BE4BEF0FF049EF0FF053EF0FF0016C6C
:101E9800021ED8B0022A010E066E53EF0FF004BEE0
:101EA8005AEF0FF058EF0FF060EF0FF0036C041EBD
:101EB800D8B0042A60EF0FF003500410D8B467EFCD
:101EC8000FF069EF0FF099EF0FF0010E056E73EF49
:101ED8000FF0D89003360436052A73EF0FF004AEDE
:101EE80078EF0FF07AEF0FF06DEF0FF07EEF0FF055
:101EF8007EEF0FF00350015C04500258D8A087EF22
:101F08000FF089EF0FF08FEF0FF00350015E0450D0
:101F1800025A8FEF0FF0D89004320332052E7EEF6D
:101F28000FF099EF0FF099EF0FF00650D8B49FEF2C
:101F38000FF0A1EF0FF0A7EF0FF0016C021ED8B061
:101F4800022AA7EF0FF001C001F002C002F0ADEFC6
:101F58000FF0120015C019F016C01AF01ABEB9EF2A
:101F68000FF0B7EF0FF0BFEF0FF0156C161ED8B0DB
:101F7800162ABFEF0FF0000E1C6E000E1B6EC5EF89
:101F88000FF01B501724D96E1C501820DA6E15C09C
:101F980007F016C008F0000E0A6E0A0E096ED6EC9D
:101FA8000EF00750300FDF6E1B4A1C2A15C007F0D1
:101FB80016C008F0000E0A6E0A0E096E14EC0DF039
:101FC80007C015F008C016F016BEF5EF0FF0165052
:101FD80006E11504D8B0F3EF0FF0F5EF0FF0C5EFF9
:101FE8000FF0F7EF0FF01ABEFEEF0FF0FCEF0FF057
:101FF8000AEF10F01B501724D96E1C501820DA6E07
:102008002D0EDF6E1B4A1C2A0AEF10F01B501724F6
:10201800D96E1C501820DA6E000EDF6E17C00DF056
:1020280018C00EF078EC14F01200000E126E000EBC
:10203800116E000E146E070E146425EF10F027EFD2
:1020480010F02BEF10F081EF10F081EF10F0000E80
:10205800156E010E156433EF10F035EF10F039EFFF
:1020680010F078EF10F078EF10F08A94400E0F6EB1
:102078001550D2EC15F01450B8090F6E1550D2EC6B
:1020880015F08A84000E136E3F0E13644EEF10F0A5
:1020980050EF10F054EF10F06DEF10F06DEF10F0FE
:1020A800C30E1124F66E7A0E1220F76E0800F5CFD3
:1020B8000FF01550D2EC15F0114A122A132A3F0ED0
:1020C800136469EF10F06BEF10F054EF10F06DEF40
:1020D80010F0152A010E156474EF10F076EF10F069
:1020E80039EF10F078EF10F0142A070E14647FEF20
:1020F80010F081EF10F02BEF10F08A908A92120006
:10210800156E9268000E806E0F0EC16E000E936EF3
:10211800000E816E000E956E000E836E000E836EAB
:102128008A9A310E146EB20EE82EFED7142EFCD702
:1021380000D08A8A8A988A908A928A94530EE82EC6
:10214800FED700F0C00E0F6E000ED2EC15F0C00ED8
:102158000F6E010ED2EC15F0400E0F6E000ED2EC91
:1021680015F0400E0F6E010ED2EC15F0B80E0F6E82
:10217800000ED2EC15F0B80E0F6E010ED2EC15F071
:102188001504D8A4CAEF10F0CCEF10F0DBEF10F074
:10219800000E926E80683F0E0F6E000ED2EC15F0A6
:1021A8003F0E0F6E010ED2EC15F0E7EF10F03E0E69
:1021B8000F6E000ED2EC15F03E0E0F6E010ED2EC33
:1021C80015F0E7EF10F0000ED5EC12F0120082B215
:1021D800F0EF10F0F2EF10F0EBEF10F0F4EF10F07A
:1021E80048504910D8A4FBEF10F0FDEF10F001EFB4
:1021F80011F040EC16F001EF11F048044910D8A492
:1022080008EF11F00AEF11F00EEF11F052EC16F092
:102218000EEF11F0020E48184910D8A416EF11F06D
:1022280018EF11F01CEF11F063EC16F01CEF11F031
:10223800030E48184910D8A424EF11F026EF11F026
:102248002AEF11F004EC07F02AEF11F0040E4818F9
:102258004910D8A432EF11F034EF11F038EF11F033
:1022680082EC16F038EF11F0070E48184910D8A480
:1022780040EF11F042EF11F048EF11F0D0EC04F00C
:1022880048EF11F048EF11F082B24DEF11F04FEF27
:1022980011F048EF11F051EF11F0120015EC12F0A7
:1022A800000E396E000E386E000E396E000E386E54
:1022B800A0EF11F0DB0E356E000E366ED890383474
:1022C800D96E3934DA6ED890D936DA363550D926FF
:1022D8003650DA22030EDF5EDB0E356E000E366EE8
:1022E800D8903834D96E3934DA6ED890D936DA368F
:1022F8003550D9263650DA22050EDF6086EF11F008
:1023080088EF11F09CEF11F0DB0E356E000E366E83
:10231800D8903834D96E3934DA6ED890D936DA365E
:102328003550D9263650DA226E0EDF6E9CEF11F04A
:10233800384A392AA0EF11F05750385C3950800AD2
:10234800356E5850800A3558D8A0ADEF11F0AFEF70
:1023580011F05EEF11F0B1EF11F075EC12F0120010
:10236800000000000000000101010001010100005F
:102378000000000000010001000100010000000051
:10238800000000010001000100010000000101013E
:10239800010100010101000100000001000000002E
:1023A8000000000000010000000100000000000122
:1023B800000100010001010100000000000100010E
:1023C8000001000100000000000000000000000102
:1023D80000010101010101010101010101010101E6
:1023E80001010101000000000100000000010000DF
:1023F80000000100000000010000000001010101CF
:1024080001010101000000000101000101000001BB
:1024180001000101010000010101010101000001A9
:102428000101000E346E000E336E000E346E000E85
:10243800336E63EF12F0000E186E020E196EDB0E8B
:102448002D6E000E2E6ED8903334D96E3434DA6E79
:10245800D890D936DA362D50D9262E50DA22DF50C8
:102468002F6E2F501A6E1B6A33C030F034C031F013
:10247800D89030363136D89030363136010E302685
:10248800000E3122DB0E3024D96E000E3120DA6EB8
:10249800DF50326E32501C6E1D6A000E1F6E090E20
:1024A8001E6E000E216E0E0E206E000E236E000EA4
:1024B800226E75EC09F0334A342A63EF12F0575054
:1024C800335C3450800A2D6E5850800A2D58D8A09D
:1024D80070EF12F072EF12F01FEF12F074EF12F0BB
:1024E8001200000E346E000E336E000E346E000EB5
:1024F800336EC3EF12F0000E186E020E196EDB0E6B
:102508002D6E000E2E6ED8903334D96E3434DA6EB8
:10251800D890D936DA362D50D9262E50DA22DF5007
:102528002F6E2F501A6E1B6A33C030F034C031F052
:10253800D89030363136D89030363136010E3026C4
:10254800000E3122DB0E3024D96E000E3120DA6EF7
:10255800DF50326E32501C6E1D6A000E1F6E090E5F
:102568001E6E000E216E0E0E206E000E236E010EE2
:10257800226E75EC09F0334A342AC3EF12F0575033
:10258800335C3450800A2D6E5850800A2D58D8A0DC
:10259800D0EF12F0D2EF12F07FEF12F0D4EF12F07A
:1025A8001200116E000E136E070E1364DEEF12F0A8
:1025B800E0EF12F0E4EF12F030EF13F030EF13F029
:1025C8008A94400E0F6E000ED2EC15F0400E0F6E7E
:1025D800010ED2EC15F01350B8090F6E000ED2ECB4
:1025E80015F01350B8090F6E010ED2EC15F08A845D
:1025F800000E126E3F0E126404EF13F006EF13F094
:102608000AEF13F025EF13F025EF13F01150010D29
:10261800F35000080F6E000ED2EC15F01150010DAA
:10262800F35000080F6E010ED2EC15F0122A3F0E7F
:10263800126421EF13F023EF13F00AEF13F025EFE4
:1026480013F0132A070E13642CEF13F02EEF13F078
:10265800E4EF12F030EF13F012006BEF13F01C50A0
:10266800D8B439EF13F03BEF13F051EF13F01DC05E
:1026780011F01AC0F6FF1BC0F7FFF86A070EF764DF
:1026880003D00800F55005D0F6CFE1FFF7CFE2FF01
:10269800E7504AEC08F067EF13F01DC011F01AC0BC
:1026A800F6FF1BC0F7FFF86A070EF76403D00800AF
:1026B800F55005D0F6CFE1FFF7CFE2FFE750A8ECE1
:1026C80007F067EF13F01A4A1B2A6BEF13F01AC0D2
:1026D800F6FF1BC0F7FFF86A070EF76403D008007F
:1026E800F55005D0F6CFE1FFF7CFE2FFE75000093C
:1026F800D8A481EF13F083EF13F033EF13F085EFD5
:1027080013F012000F0EC16E9568000E836E070E4F
:10271800946E000E826ECD80CD92CD9ACD98F28CBB
:102728009D809E90F28E000E4D6E010E4C6E010E35
:1027380084EC10F0CDEF13F018EC16F0FCEC0DF073
:102748000B0E4B6E260E4A6E5E0EE82EFED74A2EF4
:10275800FCD74B2EFAD709EC00F00B0E4B6E260E69
:102768004A6E5E0EE82EFED74A2EFCD74B2EFAD7BD
:102778000001D651D8A4C3EF13F0C5EF13F0CDEF85
:1027880013F0000E4D6E000E4C6ECDEF13F0CDEF32
:1027980013F04C044D10D8B4D4EF13F0D6EF13F067
:1027A800A0EF13F0D8EF13F007EF00F0EE0E186E5D
:1027B800040E196E000E1B6E340E1A6E000E1D6E7E
:1027C800170E1C6E000E1F6E180E1E6E000E216E68
:1027D800220E206E000E236E010E226E75EC09F09B
:1027E800000E186E030E196E000E1B6E340E1A6E54
:1027F800000E1D6E170E1C6E000E1F6E070E1E6E4D
:10280800000E216E220E206E000E236E010E226E27
:1028180075EC09F0A20E186E010E196E000E1B6EF3
:102828004B0E1A6E000E1D6E200E1C6E000E1F6ED3
:10283800040E1E6E000E216E080E206E000E236E12
:10284800010E226E75EC09F01200EE0E186E040EE1
:10285800196E000E1B6E340E1A6E000E1D6E170ECA
:102868001C6E000E1F6E180E1E6E000E216E220EBC
:10287800206E000E236E010E226E75EC09F0000E1C
:10288800186E030E196E000E1B6E340E1A6E000EB3
:102898001D6E170E1C6E000E1F6E070E1E6E000EAC
:1028A800216E220E206E000E236E010E226E75EC34
:1028B80009F07E0E186E020E196E000E1B6E340E95
:1028C8001A6E000E1D6E210E1C6E000E1F6E030E7A
:1028D8001E6E000E216E220E206E000E236E010E5B
:1028E800226E75EC09F01200000E126E000E116EC9
:1028F8000DC007F00EC008F0A9EC15F0FF0E072474
:10290800136EFF0E0820146EAFEF14F011500D2453
:10291800D96E12500E20DA6EDF50106E13500D244F
:10292800D96E14500E20DA6E11500D24E16E12503B
:102938000E20E26EDFCFE7FF13500D24D96E14503E
:102948000E20DA6E10C0DFFF114A122A1306D8A033
:102958001406AFEF14F01350115C1250800A0F6E7A
:102968001450800A0F58D8A0BCEF14F0BEEF14F032
:102978008AEF14F0C0EF14F01200640E126E000E0D
:10298800146E000E136E000E146E000E136EF1EF2F
:1029980014F0280E076E12502CEC16F0DB0E106E99
:1029A800000E116ED8901334D96E1434DA6ED890A4
:1029B800D936DA361050D9261150DA2207C0DEFF90
:1029C80008C0DEFF09C0DEFF0AC0DEFF12503C0F60
:1029D800126E134A142AF1EF14F05750135C145076
:1029E800800A106E5850800A1058D8A0FEEF14F0D4
:1029F80000EF15F0CDEF14F002EF15F0120008000B
:102A08000D000101010101010101010101010101A3
:102A1800010101010101010101010101010101019E
:102A28000100000000010001000001000000010198
:102A38000000000001010000010001000001000188
:102A48000001000000000100010001000001000178
:102A58000101010100000100000100000101010164
:102A68000101010000010101010101000001010152
:102A7800136E000E126E800E136045EF15F047EFCF
:102A880015F073EF15F0070E11644DEF15F04FEFC9
:102A980015F053EF15F073EF15F073EF15F013C041
:102AA80051F011C050F03F0E13645DEF15F05FEF69
:102AB80015F065EF15F0400E135E010E126E65EF0E
:102AC80015F08A94135040090F6E1250D2EC15F08D
:102AD8001150B8090F6E1250D2EC15F08A8412000A
:102AE800000E186E020E196E000E1B6E1E0E1A6E68
:102AF800000E1D6E250E1C6E000E1F6E090E1E6E3A
:102B0800000E216E0E0E206E000E236E010E226E38
:102B180075EC09F0820E186E000E196E000E1B6E11
:102B2800200E1A6E000E1D6E200E1C6E000E1F6EFB
:102B3800040E1E6E000E216E060E206E000E236E11
:102B4800010E226E75EC09F0120007C00BF008C0E8
:102B58000CF0B3EF15F0074A082AB3EF15F007C0D9
:102B6800D9FF08C0DAFFDF50D8A4BDEF15F0BFEFDA
:102B780015F0AFEF15F0C1EF15F00BC009F00CC060
:102B88000AF0091E0A1E094A0A2A07500924076E74
:102B980008500A20086ED1EF15F01200106E105080
:102BA800D8B4D9EF15F0DBEF15F0DFEF15F08A8018
:102BB8008A92E3EF15F08A928A82E3EF15F0000E0D
:102BC800956E8A960FC08CFF8A88080EE82EFED76D
:102BD80000F08A98080EE82EFED700F08A908A92B4
:102BE8001200076E0750D8B4FCEF15F0FEEF15F091
:102BF80002EF16F08A808A9204EF16F08A928A828F
:102C080095688A868A88080EE82EFED700F083CF5A
:102C180008F08A98080EE82EFED700F08A908A926B
:102C2800085017EF16F01200010E0001D26F500E77
:102C3800D36F500ED46F500ED56F010ED66F3C0E69
:102C4800D96F3C0EDA6F000ED76F5A0ED86F12008C
:102C58000B6E0BC00CF007C00DF0090E0E6E0A0EBD
:102C68000F6E0CC007F00DC008F00EC009F00FC0C1
:102C78000AF03FEF16F01200140E0001D327640E7D
:102C8800D36549EF16F04BEF16F04FEF16F0640ED0
:102C9800D36F4FEF16F0280ED85F12000001D55100
:102CA800140FD56F640ED5655CEF16F05EEF16F065
:102CB80062EF16F0640ED56F62EF16F012001E0E6A
:102CC8000001D427640ED4656CEF16F06EEF16F091
:102CD80070EF16F0640ED46F010ED76F120000016A
:102CE800D22B630ED2657BEF16F07DEF16F081EFE5
:102CF80016F0000ED66F81EF16F01200640E000178
:082D0800D86F12000300020065
:1072C20000000000000000000000000000000000BC
:1072D20000000000000000000000000000000000AC
:1072E200000000000000000000000000000000009C
:1072F200000000000000000000000000000000008C
:10730200000000000000000000000000000000007B
:10731200000000000000000000000000000000006B
:10732200000000000000000000000000000000005B
:10733200000000000000000000000000000000004B
:10734200000000000000000000000000000000003B
:10735200000000000000000000000000000000002B
:10736200000000000000000000000000000000001B
:10737200000000000000000000000000000000000B
:1073820000000000000000000000000000000000FB
:1073920000000000000000000000000000000000EB
:1073A20000000000000000000000000000000000DB
:1073B20000000000000000000000000000000000CB
:1073C20000000000000000000000065F5F060000F1
:1073D200000007070007070000147F7F147F7F1457
:1073E20000242E6B6B3A120000466630180C66625F
:1073F20000307A4F5D377A4800040703000000002E
:1074020000001C3E63410000000041633E1C00007E
:1074120000082A3E1C1C3E2A0808083E3E080800B6
:10742200000080E06000000000080808080808006A
:107432000000006060000000006030180C060301CC
:10744200003E7F71594D7F3E0040427F7F404000A9
:1074520000627359496F660000226349497F360012
:1074620000181C16537F7F5000276745457D390061
:10747200003C7E4B4979300000030371790F07000D
:1074820000367F49497F360000064F49693F1E009A
:107492000000006666000000000080E66600000052
:1074A20000081C3663410000002424242424240004
:1074B20000004163361C080000020351590F060008
:1074C200003E7F415D5D1F1E007C7E13137E7C00AB
:1074D20000417F7F49497F36001C3E634141632260
:1074E20000417F7F41633E1C00417F7F495D4163D4
:1074F20000417F7F491D0103001C3E6341517372AD
:10750200007F7F08087F7F000000417F7F410000ED
:1075120000307040417F3F0100417F7F081C77634C
:1075220000417F7F41406070007F7F0E1C0E7F7F95
:10753200007F7F060C187F7F001C3E6341633E1C68
:1075420000417F7F49090F06001E3F21717F5E00C7
:1075520000417F7F09197F6600266F4D5973320003
:107562000003417F7F410300007F7F40407F7F0017
:10757200001F3F60603F1F00007F7F3018307F7F19
:107582000043673C183C674300074F78784F070079
:1075920000476371594D677300007F7F41410000CE
:1075A200000103060C183060000041417F7F00009B
:1075B20000080C0603060C08008080808080808012
:1075C200800000030704000000207454543C7840FB
:1075D20000417F3F4848783000387C44446C2800A2
:1075E20000307848493F7F4000387C54545C180092
:1075F20000487E7F490302000098BCA4A4F87C04E2
:1076020000417F7F08047C780000447D7D400000BB
:107612000060E08080FD7D0000417F7F10386C4477
:107622000000417F7F400000007C7C18381C7C7881
:10763200007C7C04047C780000387C44447C380064
:107642000084FCF8A4243C1800183C24A4F8FC8410
:1076520000447C784C041C1800485C545474240088
:107662000000043E7F442400003C7C40403C7C40BF
:10767200001C3C60603C1C00003C7C7038707C3C10
:1076820000446C3810386C44009CBCA0A0FC7C0008
:10769200004C64745C4C64000008083E7741410071
:1076A2000000000077770000004141773E080800A3
:1076B20000020301030203010070784C464C78700B
:1076C200000E9F91B1FB4A00003A7A40407A7A401C
:1076D20000387C54555D19000002237555557D7B99
:1076E20042217554547D794000217555547C78406F
:1076F20000207457577C784000183CA4A4E4400052
:1077020000023B7D55555D1B02397D54545D1900C5
:1077120000397D55545C18000001457C7C41010014
:10772200000203457D7D43020001457D7C4000004F
:1077320000797D1612167D790070782B2B787000F7
:1077420000447C7C5555450000207454547C7C5484
:10775200547C7E0B097F7F4900327B49497B320092
:1077620000327A48487A320000327A4A4878300049
:10777200003A7B41417B7A40003A7A424078784035
:10778200009ABAA0A0FA7A000001193C66663C1978
:10779200013D7D40407D3D0000183C24E7E7242464
:1077A20000687E7F49436620002B2FFCFC2F2B00B4
:1077B20000FFFF09092FF6F8A040C088FE7F0903E9
:1077C20002207454557D79400000447D7D410000C3
:1077D200003078484A7A320000387840427A7A405B
:1077E200007A7A0A0A7A7000007D7D19317D7D0067
:1077F2000000262F292F2F280000262F292F2600B0
:107802000030784D4560200000383808080808002C
:107812000008080808383800004F6F3018CCEEBB5B
:10782200914F6F30186C76FBF90000007B7B0000F3
:1078320000081C3622081C362222361C0822361C5E
:1078420008AA005500AA005500AA55AA55AA55AA89
:1078520055DDFFAA77DDAAFF77000000FFFF0000D9
:1078620000101010FFFF000000141414FFFF0000AE
:10787200001010FFFF00FFFF001010F0F010F0F0FA
:1078820000141414FCFC0000001414F7F700FFFFAE
:10789200000000FFFF00FFFF001414F4F404FCFCDE
:1078A2000014141717101F1F0010101F1F101F1F86
:1078B200001414141F1F000000101010F0F000003C
:1078C200000000001F1F1010101010101F1F1010BA
:1078D20010101010F0F0101010000000FFFF101038
:1078E200101010101010101010101010FFFF1010B8
:1078F20010000000FFFF1414140000FFFF00FFFF40
:107902001000001F1F101717140000FCFC04F4F4F1
:107912001414141717101717141414F4F404F4F4AD
:10792200140000FFFF00F7F71414141414141414B5
:10793200141414F7F700F7F7141414141717141487
:107942001410101F1F101F1F10141414F4F4141419
:10795200141010F0F010F0F01000001F1F101F1F85
:10796200100000001F1F141414000000FCFC14146B
:10797200140000F0F010F0F0101010FFFF10FFFFE5
:1079820010141414FFFF1414141010101F1F000001
:1079920000000000F0F0101010FFFFFFFFFFFFFFDC
:1079A200FFF0F0F0F0F0F0F0F0FFFFFFFF0000005A
:1079B2000000000000FFFFFFFF0F0F0F0F0F0F0F60
:1079C2000F387C446C386C4400FCFE2A2A3E1400BA
:1079D200007E7E020206060000027E7E027E7E029B
:1079E2000063775D4963630000387C447C3C040497
:1079F2000080FE7E20203E1E000406027E7C0602DF
:107A02000099BDE7E7BD9900001C3E6B496B3E1C27
:107A1200004C7E7301737E4C0030784A4F7D3900F2
:107A220000183C243C3C243C1898FC643C3E273D16
:107A3200180000000000000000000000000000002C
:107A42000000000000000000000000000000000034
:107A52000000000000000000000000000000000024
:107A62000000000000000000000000000000000014
:107A72000000000000000000000000000000000004
:107A820000000000000000000000000000000000F4
:107A920000000000000000000000000000000000E4
:107AA20000000000000000000000000000000000D4
:107AB20000000000000000000000000000000000C4
:107AC2000000000000000000000000000F1FF8FF8F
:107AD200F81F0F0000FF3F1E000000000000000022
:107AE200000000000000000000000000001E3F7FB8
:107AF200FFFEFCFEFF7F3F1E0000000000000000B2
:107B020000000000000000000000000000007CFEF9
:107B1200FFFFC78383820000000000000000000016
:107B22000000000000000000000000000000E0F083
:107B3200F0F0F0FF0306000000000000000000006B
:107B42000000000000000000000000000000010131
:107B52000100000000010000000000000000000021
:107B62000000000000000000000000000000000013
:107B72000001010100000000000000000000000000
:107B820000000000000000000000000000000000F3
:107B920001010101010000000000000000000000DE
:107BA20000000000000000000000000000000001D2
:107BB20001010100000000000000000000000000C0
:107BC20000000000000000000000000000000000B3
:107BD20000000000000000000000000000000000A3
:107BE2000000000000000000000000000000000093
:107BF2000000000000000000000000000000000083
:107DD2000080000000000000000000000000000021
:107DE2000000000000000000000000000000000091
:107DF2000000000000000000000000000000000081
:107E02000000000000000000000000000000000070
:107E12000000000000000000000000000000000060
:107E22000000000000000000000000000000000050
:107E32000000000000000000000000000000000040
:107E42000000000000000004080001E2E0FCFCFC6D
:107E5200FFFFFFFCFCFCE0E000000000000000006F
:107E62000000000000000000000000000000000010
:107E72000000000000000000000000000000000000
:107E820000000000000000000000000000000000F0
:107E920000000000000000000000000000000000E0
:107EA2000000000000000000000000FFFFFFFF8054
:107EB200FCFCFCFC80E0E0E0E000000000000000D0
:107EC20000000000005C000C000C7C287C7C447CE0
:107ED200241048285408000C00384400443800207C
:107EE20010081038108040001010100040002010C0
:107EF20008384438007C006454484454281C107CE0
:107F02004C542438542004740C2854280854380043
:107F12005000805000102844282828442810045477
:107F220008384C5C7814787C54283844447C4438B3
:107F32007C54447C14043844347C107C007C002043
:107F4200403C7C106C7C40407C087C7C047C7C4403
:107F52007C7C14083844787C1468485424047C04DB
:107F62007C407C3C403C7C207C6C106C1C601C6423
:107F7200544C7C4400081020447C00080408808093
:107F8200800408000F0CFF0C0F00FF1E456E657287
:107F92006769653A005243323D65786974005072F0
:107FA2006F7072653A00657869742020004152450D
:107FB2004E44410050726F6A657400416D6F757274
:107FC2003A0053746174733A005041474553006755
:107FD2006F636869004D6963726F004661696D3A4B
:107FE2000052433020004641494C0052534B490055
:0E7FF2004167653A0054414F0052495000006B
:020000040020DA
:08000000FFFFFFFFFFFFFFFF00
:020000040030CA
:0E000000000C1F1FFF8381FF0FC00FE00F4099
:00000001FF
