:020000040000FA
:0400000025EF36F0C2
:106B630050414745530052534B49006F63686900D6
:106B730054414F004152454E4441004D6963726F89
:106B8300670050726F6A657400D0EF35F020EE0431
:106B9300F00150D9260250DA22000EDF6E20EE04F7
:106BA300F00150D9260250DA22DE04D8B4DCEF35E6
:106BB300F0DEEF35F0C8EF35F0E0EF35F01200020C
:106BC3006E0250D8B4E8EF35F0EAEF35F0EEEF356A
:106BD300F08A808A92F2EF35F08A928A82F2EF3558
:106BE300F0000E956E8A9601C08CFF8A8800D08AC9
:106BF3009800D08A908A92120001C0D9FF02C0DAAD
:106C0300FF000EDF6E20EE01F00150D9260250DAAC
:106C130022640EDF6E20EE02F00150D9260250DA14
:106C230022640EDF6E20EE03F00150D9260250DA03
:106C330022640EDF6E20EE04F00150D9260250DAF2
:106C430022010EDF6E1200770EF66E6B0EF76E00EA
:106C53000EF86E00EE60F010EE15F00900F5CFEEC1
:106C6300FFE550E150FAE1630EF66E6B0EF76E002E
:106C73000EF86E00EE44F010EE14F00900F5CFEEBE
:106C8300FFE550E150FAE1596A586A000EF86E00C8
:106C930001B7EF36F070EF36F00E50D8B454EF363C
:106CA300F056EF36F061EF36F00FC003F00CC0D9A9
:106CB300FF0DC0DAFFDF50AEEC37F06CEF36F00FAC
:106CC300C003F00CC0D9FF0DC0DAFFDF5044EC382D
:106CD300F06CEF36F00C4A0D2A70EF36F00CC0D989
:106CE300FF0DC0DAFFDF50D8A47AEF36F07CEF3621
:106CF300F04EEF36F07EEF36F01200056E000E0414
:106D03006E800E056088EF36F08AEF36F0B6EF3608
:106D1300F0070E036490EF36F092EF36F096EF36FD
:106D2300F0B6EF36F0B6EF36F005C059F003C058B1
:106D3300F03F0E0564A0EF36F0A2EF36F0A8EF3671
:106D4300F0400E055E010E046EA8EF36F08A94053E
:106D5300504009016E0450E1EC35F00350B80901CD
:106D63006E0450E1EC35F08A8412000F0EC16E07F9
:106D73000E926E070E806E9568000E836E000E9362
:106D83006E000E816E010E02EC37F0000E426E00B3
:106D93000E436E000E416E010E406EF5EF36F0426B
:106DA300C001F043C002F0FEEC35F0E6EC38F042EF
:106DB300C001F043C002F0C6EC35F020EE04F0420F
:106DC30050D9264350DA22DF50D8A4EBEF36F0ED4A
:106DD300EF36F0F5EF36F0000E416E000E406EF523
:106DE300EF36F0F5EF36F040044110D8B4FCEF363F
:106DF300F0FEEF36F0D1EF36F000EF37F000EF00A2
:106E0300F0066E000E836E8A9A210EE82EFED700DE
:106E1300F08A8A8A988A908A928A9400D0C00E0156
:106E23006E000EE1EC35F0C00E016E010EE1EC35A3
:106E3300F0400E016E000EE1EC35F0400E016E01E4
:106E43000EE1EC35F0B80E016E000EE1EC35F0B852
:106E53000E016E010EE1EC35F00604D8A434EF37D1
:106E6300F036EF37F042EF37F03F0E016E000EE1E0
:106E7300EC35F03F0E016E010EE1EC35F04EEF37CD
:106E8300F03E0E016E000EE1EC35F03E0E016E0198
:106E93000EE1EC35F04EEF37F0000E52EC37F01206
:106EA30000036E000E056E070E05645BEF37F05DA1
:106EB300EF37F061EF37F0ADEF37F0ADEF37F08A32
:106EC30094400E016E000EE1EC35F0400E016E01B0
:106ED3000EE1EC35F00550B809016E000EE1EC351A
:106EE300F00550B809016E010EE1EC35F08A84001B
:106EF3000E046E3F0E046481EF37F083EF37F087A3
:106F0300EF37F0A2EF37F0A2EF37F00350010DF3A4
:106F1300500008016E000EE1EC35F00350010DF353
:106F2300500008016E010EE1EC35F0042A3F0E0417
:106F3300649EEF37F0A0EF37F087EF37F0A2EF371B
:106F4300F0052A070E0564A9EF37F0ABEF37F061C0
:106F5300EF37F0ADEF37F01200086E000E0B6E0A3C
:106F63000E0818D8A4B8EF37F0BAEF37F0C1EF37EF
:106F7300F0000E596E582A43EF38F043EF38F03FD4
:106F83000E5964C7EF37F0C9EF37F0D0EF37F00190
:106F93000E0B6E5950C00F096ED4EF37F059C0096C
:106FA300F0D4EF37F00850080DF3CF06F0F4CF0715
:106FB300F0000E0A6E070E0A64E2EF37F0E4EF37D3
:106FC300F0E8EF37F041EF38F041EF38F03F0E09CA
:106FD30064EEEF37F0F0EF37F004EF38F0400E09CE
:106FE3005E010E0B6E8A9409504009016E0B50E14D
:106FF300EC35F05850B809016E0B50E1EC35F08ACE
:107003008404EF38F00350D8B40AEF38F00CEF38AB
:10701300F020EF38F00A500624046E000E07200516
:107023006E3B0E0424F66E730E0520F76E0800F512
:10703300CF01F00B50E1EC35F035EF38F00A500694
:1070430024046E000E0720056E3B0E0424F66E73B7
:107053000E0520F76E0800F550FF0A016E0B50E194
:10706300EC35F035EF38F0092A0A2A070E0A643D99
:10707300EF38F03FEF38F0E8EF37F041EF38F00842
:107083000E59261200076E000E096E0A0E0718D855
:10709300A44EEF38F050EF38F057EF38F0000E59A8
:1070A3006E582AE5EF38F0E5EF38F03F0E59645D8E
:1070B300EF38F05FEF38F066EF38F0010E096E59E4
:1070C30050C00F066E6AEF38F059C006F06AEF3809
:1070D300F0200E075E000E086E020E086474EF388F
:1070E300F076EF38F07AEF38F0E3EF38F0E3EF388B
:1070F300F03F0E066480EF38F082EF38F096EF38F9
:10710300F0400E065E010E096E8A94065040090196
:107113006E0950E1EC35F05850B809016E0950E1A1
:10712300EC35F08A8496EF38F00350D8B49CEF38EE
:10713300F09EEF38F0BAEF38F00750030D3B0E0422
:107143006E7F0E056EF3500426F45005220850019D
:107153000DF3500426F450052204C0F6FF05C0F7D2
:10716300FF0800F5CF01F00950E1EC35F0D7EF3817
:10717300F00750030D3B0E046E7F0E056EF35004B3
:1071830026F45005220850010DF3500426F450054F
:107193002204C0F6FF05C0F7FF0800F550FF0A01FF
:1071A3006E0950E1EC35F0D7EF38F0062A082A02D1
:1071B3000E0864DFEF38F0E1EF38F07AEF38F0E3F0
:1071C300EF38F0050E59261200000E52EC37F0206E
:1071D300EE6EF010EE12F0060EDBCFE3FFE806FCD6
:1071E300E220EE67F010EE19F0060EDBCFE3FFE8C6
:1071F30006FCE220EE4FF010EE2DF0040EDBCFE3A1
:10720300FFE806FCE220EE60F010EE20F0060EDB55
:10721300CFE3FFE806FCE220EE4AF010EE32F00482
:107223000EDBCFE3FFE806FCE220EE44F010EE278E
:10723300F0050EDBCFE3FFE806FCE254C037F05560
:10724300C038F056C039F057C03AF0000E036E0054
:107253000E7FEC36F0120E0C6E000E0D6E010E0E4C
:107263006E010E0F6E4CEC36F0010E036E000E7FB6
:10727300EC36F0190E0C6E000E0D6E010E0E6E0143
:107283000E0F6E4CEC36F0010E036E320E7FEC36B1
:10729300F02D0E0C6E000E0D6E010E0E6E010E0F14
:1072A3006E4CEC36F0030E036E000E7FEC36F020CE
:1072B3000E0C6E000E0D6E010E0E6E010E0F6E4C57
:1072C300EC36F0030E036E310E7FEC36F0320E0C0B
:1072D3006E000E0D6E010E0E6E010E0F6E4CEC362F
:1072E300F0040E036E000E7FEC36F0270E0C6E00DA
:1072F3000E0D6E010E0E6E010E0F6E4CEC36F00588
:107303000E036E000E7FEC36F0370E0C6E000E0D82
:107313006E010E0E6E010E0F6E4CEC36F0070E1161
:107323006E170E106E6A0EE82EFED7102EFCD711C4
:107333002EFAD700D0120000000000000000000069
:10734300000000000000000000000000000000003A
:10735300000000000000000000000000000000002A
:10736300000000000000000000000000000000001A
:10737300000000000000000000000000000000000A
:1073830000000000000000000000000000000000FA
:1073930000000000000000000000000000000000EA
:1073A30000000000000000000000000000000000DA
:1073B30000000000000000000000000000000000CA
:1073C30000000000000000000000000000000000BA
:1073D30000000000000000000000000000000000AA
:1073E300000000000000000000000000000000009A
:1073F300000000000000000000000000000000008A
:107403000000000000000000000000000000000079
:107413000000000000000000000000000000000069
:107423000000000000000000000000000000000059
:107433000000000000000000000000000000000049
:1074430000065F5F06000000000707000707000053
:10745300147F7F147F7F1400242E6B6B3A1200007D
:10746300466630180C666200307A4F5D377A480002
:107473000407030000000000001C3E6341000000FD
:107483000041633E1C000000082A3E1C1C3E2A08E3
:1074930008083E3E080800000080E060000000008D
:1074A30008080808080800000000606000000000E9
:1074B3006030180C060301003E7F71594D7F3E007A
:1074C30040427F7F40400000627359496F6600006D
:1074D300226349497F360000181C16537F7F5000F2
:1074E300276745457D3900003C7E4B4979300000D4
:1074F300030371790F070000367F49497F36000087
:10750300064F49693F1E0000000066660000000048
:107513000080E66600000000081C3663410000009E
:107523002424242424240000004163361C08000082
:10753300020351590F0600003E7F415D5D1F1E008F
:107543007C7E13137E7C0000417F7F49497F360098
:107553001C3E634141632200417F7F41633E1C0027
:10756300417F7F495D416300417F7F491D010300E6
:107573001C3E6341517372007F7F08087F7F0000C8
:1075830000417F7F41000000307040417F3F010098
:10759300417F7F081C776300417F7F41406070001B
:1075A3007F7F0E1C0E7F7F007F7F060C187F7F007E
:1075B3001C3E6341633E1C00417F7F49090F060067
:1075C3001E3F21717F5E0000417F7F09197F6600A6
:1075D300266F4D597332000003417F7F4103000042
:1075E3007F7F40407F7F00001F3F60603F1F0000A0
:1075F3007F7F3018307F7F0043673C183C67430030
:10760300074F78784F070000476371594D67730040
:10761300007F7F41410000000103060C1830600029
:107623000041417F7F000000080C0603060C0800A0
:107633008080808080808080000003070400000039
:10764300207454543C784000417F3F4848783000D0
:10765300387C44446C280000307848493F7F400020
:10766300387C54545C180000487E7F4903020000B4
:1076730098BCA4A4F87C0400417F7F08047C7800B4
:1076830000447D7D4000000060E08080FD7D0000BF
:10769300417F7F10386C440000417F7F4000000031
:1076A3007C7C18381C7C78007C7C04047C7800008B
:1076B300387C44447C38000084FCF8A4243C180043
:1076C300183C24A4F8FC8400447C784C041C180067
:1076D300485C54547424000000043E7F442400009A
:1076E3003C7C40403C7C40001C3C60603C1C0000F7
:1076F3003C7C7038707C3C00446C3810386C44001F
:107703009CBCA0A0FC7C00004C64745C4C64000036
:1077130008083E7741410000000000777700000031
:107723004141773E08080000020301030203010000
:1077330070784C464C7870000E9F91B1FB4A000064
:107743003A7A40407A7A4000387C54555D190000FB
:1077530002237555557D7B42217554547D79400034
:10776300217555547C784000207457577C7840002D
:10777300183CA4A4E4400000023B7D55555D1B0268
:10778300397D54545D190000397D55545C1800004F
:1077930001457C7C410100000203457D7D430200DD
:1077A30001457D7C40000000797D1612167D79002D
:1077B30070782B2B78700000447C7C555545000075
:1077C300207454547C7C54547C7E0B097F7F490085
:1077D300327B49497B320000327A48487A320000D2
:1077E300327A4A48783000003A7B41417B7A400044
:1077F3003A7A4240787840009ABAA0A0FA7A000018
:1078030001193C66663C19013D7D40407D3D000009
:10781300183C24E7E7242400687E7F494366200060
:107823002B2FFCFC2F2B0000FFFF09092FF6F8A0DC
:1078330040C088FE7F090302207454557D794000BF
:1078430000447D7D410000003078484A7A320000D0
:10785300387840427A7A40007A7A0A0A7A700000CD
:107863007D7D19317D7D000000262F292F2F2800D3
:1078730000262F292F26000030784D456020000078
:1078830038380808080800000808080838380000D5
:107893004F6F3018CCEEBB914F6F30186C76FBF9FD
:1078A3000000007B7B000000081C3622081C3622E7
:1078B30022361C0822361C08AA005500AA005500CF
:1078C300AA55AA55AA55AA55DDFFAA77DDAAFF77BF
:1078D300000000FFFF000000101010FFFF00000079
:1078E300141414FFFF0000001010FFFF00FFFF003F
:1078F3001010F0F010F0F000141414FCFC00000061
:107903001414F7F700FFFF000000FFFF00FFFF0064
:107913001414F4F404FCFC0014141717101F1F00B4
:1079230010101F1F101F1F001414141F1F0000002E
:10793300101010F0F00000000000001F1F101010C6
:107943001010101F1F101010101010F0F010101056
:10795300000000FFFF101010101010101010101076
:10796300101010FFFF101010000000FFFF1414147C
:107973000000FFFF00FFFF1000001F1F1017171468
:107983000000FCFC04F4F414141417171017171454
:107993001414F4F404F4F4140000FFFF00F7F714D4
:1079A30014141414141414141414F7F700F7F7141C
:1079B300141414171714141410101F1F101F1F1062
:1079C300141414F4F41414141010F0F010F0F01054
:1079D30000001F1F101F1F100000001F1F1414148E
:1079E300000000FCFC1414140000F0F010F0F01080
:1079F3001010FFFF10FFFF10141414FFFF141414D2
:107A03001010101F1F000000000000F0F0101010F5
:107A1300FFFFFFFFFFFFFFFFF0F0F0F0F0F0F0F0EB
:107A2300FFFFFFFF0000000000000000FFFFFFFF5B
:107A33000F0F0F0F0F0F0F0F387C446C386C44007F
:107A4300FCFE2A2A3E1400007E7E02020606000087
:107A5300027E7E027E7E020063775D4963630000DF
:107A6300387C447C3C04040080FE7E20203E1E00C3
:107A73000406027E7C06020099BDE7E7BD9900007B
:107A83001C3E6B496B3E1C004C7E7301737E4C00A5
:107A930030784A4F7D390000183C243C3C243C1884
:107AA30098FC643C3E273D180000000000000000E5
:107AB30000000000000000000000000000000000C3
:107AC30000000000000000000000000000000000B3
:107AD30000000000000000000000000000000000A3
:107AE3000000000000000000000000000000000093
:107AF3000000000000000000000000000000000083
:107B03000000000000000000000000000000000072
:107B13000000000000000000000000000000000062
:107B23000000000000000000000000000000000052
:107B33000000000000000000000000000000000042
:107B43008080808000000000000000000000000032
:107B530000000000800000800000800000000000A2
:107B63000000000000000000000000000000000012
:107B73000000000000000000000000000000000002
:107B830000000000000000000000000000000000F2
:107B930000000000000000000000000000000000E2
:107BA30000000000000000000000000000000000D2
:107BB30000000000000000000000000000003E4143
:107BC30080808080413E0000D894A46C00007884BB
:107BD300844C0088FC8081FF8081FF80007884844E
:107BE30084780000D894A46C00007884844C00004E
:107BF30078848484780008FC48848478000078942E
:107C030094580000000000D894A46C00041C648005
:107C1300740C0400D894A46C0004FF84400078948E
:107C230094580088FC8804FC8804F8800000000055
:107C33000000000000000000000000000000000041
:107C43000000000000000000000000000000000031
:107C53000000000000000000000000000000000021
:107C63000000000000000000000000000000000011
:107C730000000000000004070400000000000000F2
:107C830000000000000000000000000004040601E2
:107C930000000000000000000000000000000000E1
:107CA30000000000000000000000000000000000D1
:107CB30000000000000000000000000000000000C1
:107CC30000000000000000000000000000000000B1
:107CD30000000000000000000000000000000000A1
:107CE300000000000000000080F0F8181C0E0E1CBD
:107CF3001878F0C0800000000000000000000000C1
:107D030000000000000080F0F8181C0C0E0E1C1878
:107D1300F8F08000000000000000000000000000F8
:107D23000000000000000000000000000000000050
:107D33000000000000000000000000000000000040
:107D43000000000000000000000000000000000030
:107D53000000000000000000000000000000000020
:107D630000000000000000F8FF0F0000000000000A
:107D73000000000FFFF800000000000000000000FA
:107D83000000000000F8FF0F0000000000000000EA
:107D9300000FFFF8000000000000000000000000DA
:107DA30000000000000000000000000000000000D0
:107DB30000000000000000000000000000000000C0
:107DC30000000000000000000000000000000000B0
:107DD3000800080008001CFCF880080008000800E0
:107DE3000800080008E0FF3F090008000800080039
:107DF30008000800093FFFE0080008000800080029
:107E0300080008E0FF3F0900080008000800080018
:107E13000800090F0F000800080008000000000018
:107E2300000000000000000000000000000000004F
:107E3300000000000000000000000000000000003F
:107E4300000000000000000000000000000000002F
:107E53000000000000000000073FFCE000000000FD
:107E6300000080C0FC7F070000000000000000004D
:107E7300000000000000073FFCE0000000000000DD
:107E830000C0FC7F070000000000000000000000AD
:107E930000000000000000000000000000000000DF
:107EA30000000000000000000000000000000000CF
:107EB30000000000000000000000000000000000BF
:107EC30000000000000000000000000000000000AF
:107ED3000000000000000000000001070F1C18183C
:107EE3001C0F07010000000000000000000000005C
:107EF300000000000000000001070F1C18181C0CF4
:107F03000F07010000000000000000000000000057
:107F1300000000000000000000000000000000005E
:107F2300000000000000000000000000000000004E
:107F33000000000000000000000000005C000C00D6
:107F43000C7C287C7C447C241048285408000C00BA
:107F530038440044380020100810381080400010C6
:107F63001010004000201008384438007C0064548E
:107F7300484454281C107C4C542438542004740C5A
:107F830028542808543800500080500010284428F2
:107F93002828442810045408384C5C7814787C54FE
:107FA300283844447C44387C54447C140438443496
:107FB3007C107C007C0020403C7C106C7C40407C2E
:107FC300087C7C047C7C447C7C14083844787C14D6
:107FD30068485424047C047C407C3C403C7C207CEA
:107FE3006C106C1C601C64544C7C440008102044CE
:0C7FF3007C000804088080800408000066
:020000040020DA
:08000000FFFFFFFFFFFFFFFF00
:020000040030CA
:0E00000000051F1FFF8385FF0FC00FE00F409C
:00000001FF
