:020000040000FA
:0400000007EF00F016
:100008005A82E9ED11F0CAEF0AF0000E8DEC11F0FA
:10001800000E0B6E000E41EC14F0D1EC0EF0FF0E4A
:10002800286E2768000E2A6E010E296EBEEC09F0B4
:10003800E4EC12F0000E496E000E486E000E456E9C
:10004800000E446E000E476E000E466E9BEF01F0E8
:1000580046504710D8A433EF00F035EF00F0B0EF6A
:1000680000F082A03AEF00F03CEF00F066EF00F0FD
:10007800000E476E010E466E48C027F049C028F0B2
:10008800000E2A6E000E296EBEEC09F04806D8A0B4
:10009800490649BE54EF00F052EF00F05AEF00F065
:1000A800000E496E070E486E5AEF00F048C027F060
:1000B80049C028F0000E2A6E010E296EBEEC09F028
:1000C800B0EF00F082A46BEF00F06DEF00F09DEF51
:1000D80000F0000E476E010E466E48C027F049C07A
:1000E80028F0000E2A6E000E296EBEEC09F0484A70
:1000F800492A49BE89EF00F0495009E1080E485CD9
:10010800D8A089EF00F08BEF00F091EF00F0000E1F
:10011800496E000E486E91EF00F048C027F049C0C4
:1001280028F0000E2A6E010E296EBEEC09F0B0EF21
:1001380000F082A2A2EF00F0A4EF00F0B0EF00F010
:10014800000E476E020E466EB0EF00F0B0EF00F002
:10015800B0EF00F0B0EF00F082B0B5EF00F0B7EF0D
:1001680000F0F7EF00F082B2BCEF00F0BEEF00F055
:10017800F7EF00F082B4C3EF00F0C5EF00F0F7EF3F
:1001880000F046504710D8B4CCEF00F0CEEF00F0A6
:10019800F7EF00F0020E46184710D8A4D6EF00F08B
:1001A800D8EF00F0F1EF00F048C042F049C043F04A
:1001B800A3EC0FF0000E0B6E000E41EC14F0D1EC26
:1001C8000EF048C027F049C028F0000E2A6E010E34
:1001D800296EBEEC09F0F1EF00F0000E476E000E3C
:1001E800466EF7EF00F0320E0001D561FEEF00F029
:1001F80000EF01F004EF01F095EC12F013EF01F0BD
:100208000001D905D8B40BEF01F00DEF01F013EFA1
:1002180001F0E4EC12F013EF01F013EF01F0330EEC
:100228000001DA611AEF01F01CEF01F020EF01F094
:1002380079EC14F056EF01F0000E126E020E136EF8
:10024800000E156E1E0E146E000E176E250E166E1D
:10025800000E196E090E186E000E1B6E0E0E1A6E29
:10026800000E1D6E000E1C6E2BEC09F0840E126E33
:10027800000E136E000E156E200E146E000E176E13
:10028800200E166E000E196E040E186E000E1B6EF0
:10029800060E1A6E000E1D6E000E1C6E2BEC09F079
:1002A80056EF01F00001D905D8A45DEF01F05FEF2A
:1002B80001F063EF01F047EC0AF09BEF01F07E0ECE
:1002C800126E010E136E000E156E580E146E000E8F
:1002D800176E140E166E000E196E060E186E000EAE
:1002E8001B6E060E1A6E000E1D6E000E1C6E2BEC99
:1002F80009F0B40E126E000E136E000E156E5F0E2E
:10030800146E000E176E120E166E000E196E040E85
:10031800186E000E1B6E040E1A6E000E1D6E000E77
:100328001C6E2BEC09F09BEF01F09BEF01F0000134
:10033800D805D8B4A2EF01F0A4EF01F02CEF00F03B
:10034800A6EF01F01200000E416E000E406E000E86
:10035800416E000E406EBCEF02F0DD0E346E000EF2
:10036800356ED8904034D96E4134DA6ED890D9368B
:10037800DA363450D9263550DA22DF50366E376AED
:100388000001DB516425386E000E6521396E365048
:10039800385C3950800A3A6E3750800A3A58D8A0EB
:1003A800D8EF01F0DAEF01F0B8EF02F0DB51642585
:1003B800346E000E6521356EDD0E366E000E376E1A
:1003C800D8904034D96E4134DA6ED890D936DA36BE
:1003D8003650D9263750DA22DF50386E396A40C095
:1003E8003AF041C03BF0D8903A363B36D8903A368E
:1003F8003B36030E3A26000E3B22DD0E3A24D96E18
:10040800000E3B20DA6EDF503C6E3C503826000E62
:1004180039223450385C3950800A3D6E3550800A94
:100428003D58D8A01AEF02F01CEF02F0B8EF02F026
:1004380040C034F041C035F0D89034363536D890C5
:1004480034363536010E3426000E3522DD0E3424BE
:10045800D96E000E3520DA6EDF50366E376ADC5101
:100468006225386E000E6321396E3650385C39507B
:10047800800A3A6E3750800A3A58D8A046EF02F000
:1004880048EF02F0B8EF02F0DC516225346E000E3E
:100498006321356E40C036F041C037F0D89036360B
:1004A8003736D89036363736010E3626000E3722C4
:1004B800DD0E3624D96E000E3720DA6EDF50386E26
:1004C800396A40C03AF041C03BF0D8903A363B36E2
:1004D800D8903A363B36020E3A26000E3B22DD0E05
:1004E8003A24D96E000E3B20DA6EDF503C6E3C5049
:1004F8003826000E39223450385C3950800A3D6E57
:100508003550800A3D58D8A08CEF02F08EEF02F0EB
:10051800B8EF02F0000EE66F010EE56FFF0E6025E2
:10052800606FFF0E6121616F000EDB6F000EDC6FE4
:10053800000E126E010E136E000E156E1E0E146E56
:10054800000E176E280E166E000E196E090E186E24
:10055800000E1B6E0E0E1A6E000E1D6E000E1C6E27
:100568002BEC09F0B8EF02F0404A412ABCEF02F048
:100578005850405C4150800A346E5950800A3458B3
:10058800D8A0C9EF02F0CBEF02F0B1EF01F0CDEF48
:1005980002F00001E505E611D8A4D5EF02F0D7EF87
:1005A80002F031EF03F0000E3F6E000E3E6E1E0E9D
:1005B800DB6F000EDC6F1EEF03F00AEC10F00AECA4
:1005C80010F00AEC10F0000E126E010E136EDBC074
:1005D80014F0156ADCC016F0176A000E196E090EC1
:1005E800186E000E1B6E0E0E1A6E000E1D6E000E9B
:1005F8001C6E2BEC09F00A0E0001DC27000E126EAF
:10060800010E136EDBC014F0156ADCC016F0176A11
:10061800000E196E090E186E000E1B6E0E0E1A6E65
:10062800000E1D6E010E1C6E2BEC09F03E4A3F2A8F
:100638001EEF03F0040E3E183F10D8A426EF03F077
:1006480028EF03F0E1EF02F02AEF03F0000E0001BB
:10065800E66F000EE56F31EF03F0120000000000B6
:100668000000000000000000000000000000000082
:100678000000000000000000000000000000000072
:100688000000000000000000000000000000000062
:100698000000000000000000000000000000000052
:1006A8000000000000000000000000000000000042
:1006B8000000000000000000000000000000000032
:1006C8000000000000000000000000000000000022
:1006D8000000000000000000000000000000000012
:1006E8000000000000000000000000000000000002
:1006F80000000000000000000000000000000000F2
:1007080000000000000000000000000000000000E1
:1007180000000000000000000000000000000000D1
:1007280000000000000000000000000000000000C1
:1007380000000000000000000000000000000000B1
:1007480000000000000000000000000000000000A1
:100758000000000000000000000000000000010090
:10076800000101010100000001000000000000007C
:100778000001010101010101010101010101010162
:10078800010000000000000000000101010000005D
:100798000000010000000000000000000000000050
:1007A800000001000000000000000000000001003F
:1007B8000000000100000000000000000000000030
:1007C8000000000000000000000000000000000021
:1007D800010000010101000000000000000000000D
:1007E8000000000000000000000000000000000001
:1007F80000000100010000000000000000000000EF
:1008080000000000000000000000000000000000E0
:1008180000000000010001000000000000000000CE
:1008280000000000000000000000000000000000C0
:1008380000000000000001000100000000000000AE
:1008480000000000000000000000000000000000A0
:10085800000000000000000001000101010000008C
:100868000000000000000000000000000000000080
:10087800000000000000000000000100000000016E
:10088800000000000101000000000000000000005E
:10089800000000000000000000000000010000004F
:1008A800000100000000000001010000000000003D
:1008B800000000000000000000000000000100002F
:1008C800000000010000000000000001010101011A
:1008D800000000000000000000010101010101000A
:1008E80000000000000100000000000000000000FF
:1008F80000000100000000000000000000000001EE
:1009080000000000000000010000000000000000DE
:1009180000000000010000000100000000000000CD
:1009280000010000000000000001000000000000BD
:1009380000000000000001000000010000000000AD
:100948000000000100000000000000010101010199
:10095800010101010101010101010101010101017F
:1009680001010101010100000000000E8DEC11F0F1
:10097800000E0B6E000E41EC14F0CC0E146E7F0EC0
:10098800156E010E166E010E176E40EC12F0000E79
:100998000B6E320E41EC14F09F0E146E7F0E156E26
:1009A800010E166E010E176E40EC12F0000E196E55
:1009B800000E186EE0EF04F0020E0B6E000E41EC14
:1009C80014F0E50E146E7F0E156E010E166E010EF4
:1009D800176E40EC12F0020E0B6E320E41EC14F062
:1009E800D5C00FF0106A550E116E000E126E66EC2F
:1009F8000EF0550E146E000E156E010E166E010ED9
:100A0800176E40EC12F0550E016E000E026E000ECD
:100A1800046E000E036E000E066E030E056ED9EC12
:100A280005F0030E0B6E000E41EC14F0960E146EDA
:100A38007F0E156E010E166E010E176E40EC12F049
:100A4800030E0B6E410E41EC14F0D6C00FF0106A85
:100A5800550E116E000E126E66EC0EF0550E146EE9
:100A6800000E156E010E166E010E176E40EC12F098
:100A7800550E016E000E026E000E046E000E036E1F
:100A8800000E066E030E056ED9EC05F0040E0B6E13
:100A9800000E41EC14F0C50E146E7F0E156E010E9B
:100AA800166E010E176E40EC12F0040E0B6E370E28
:100AB80041EC14F0D7C00FF0106A550E116E000EFD
:100AC800126E66EC0EF0550E146E000E156E010EC9
:100AD800166E010E176E40EC12F0550E016E000EE8
:100AE800026E000E046E000E036E000E066E030EFC
:100AF800056ED9EC05F0050E0B6E000E41EC14F0F6
:100B0800A80E146E7F0E156E010E166E010E176E6E
:100B180040EC12F0050E0B6E3C0E41EC14F0DAC0FE
:100B28000FF0106A550E116E000E126E66EC0EF084
:100B3800550E146E000E156E010E166E010E176E10
:100B480040EC12F0550E016E000E026E000E046E9F
:100B5800000E036E000E066E030E056ED9EC05F04E
:100B680082A2B9EF05F0BBEF05F0C1EF05F0000E6A
:100B7800196E010E186EC1EF05F018041910D8B4DB
:100B8800C8EF05F0CAEF05F0D5EF05F082A2CFEF68
:100B980005F0D1EF05F0E0EF04F0D5EF05F0D5EF63
:100BA80005F0000E8DEC11F0120001C00DF002C02E
:100BB8000EF005500610D8A4E4EF05F0E6EF05F0B6
:100BC800EAEF05F0B7EF06F0B7EF06F00DC0D9FF72
:100BD8000EC0DAFF03C0DFFFFF0E076EFF0E086EC0
:100BE80005C009F006C00AF00750092608500A2275
:100BF80009500D24D96E0A500E20DA6E03C0DFFFAB
:100C0800065007E1030E055CD8B00DEF06F00FEFB4
:100C180006F013EF06F0B7EF06F0B7EF06F020EE98
:100C280001F00D50D9260E50DA2203C0DFFF20EE66
:100C380002F00D50D9260E50DA2203C0DFFFFE0E57
:100C4800076EFF0E086E05C009F006C00AF00750CF
:100C5800092608500A2209500D24D96E0A500E2080
:100C6800DA6E03C0DFFFFD0E076EFF0E086E05C0CB
:100C780009F006C00AF00750092608500A22095050
:100C88000D24D96E0A500E20DA6E03C0DFFF06501D
:100C980007E1070E055CD8B054EF06F056EF06F0F2
:100CA8005AEF06F0B7EF06F0B7EF06F020EE03F0C4
:100CB8000D50D9260E50DA2203C0DFFFFC0E076E56
:100CC800FF0E086E05C009F006C00AF00750092695
:100CD80008500A2209500D24D96E0A500E20DA6EE7
:100CE80003C0DFFF065007E1090E055CD8B07FEFAF
:100CF80006F081EF06F085EF06F0B7EF06F0B7EFE4
:100D080006F00DC007F00EC008F0071E081E074ABF
:100D1800082A030E07140B6E0C6A0B500D260C5094
:100D28000E220B50055E0C50065AFC0E0516FF0EDF
:100D38000616ACEF06F00DC0D9FF0EC0DAFF03C0EF
:100D4800DFFF0506D8A006060D4A0E2AACEF06F00E
:100D580005500610D8A4B3EF06F0B5EF06F09FEFE4
:100D680006F0B7EF06F01200000E8DEC11F0C5EC9E
:100D780013F01E0E0001DB6F280EDC6F000E126EE2
:100D8800010E136EDBC014F0156ADCC016F0176A8A
:100D9800000E196E090E186E000E1B6E0E0E1A6EDE
:100DA800000E1D6E010E1C6E2BEC09F0DCEF06F038
:100DB8000AEC10F0A7EC01F082A2E5EF06F0E7EFED
:100DC80006F0EBEF06F096EC08F0EBEF06F0000EFD
:100DD8000B6E640E41EC14F060C00FF061C010F0AF
:100DE800550E116E000E126E66EC0EF0550E146E56
:100DF800000E156E010E166E010E176E40EC12F005
:100E0800550E016E000E026E000E046E000E036E8B
:100E1800000E066E030E056ED9EC05F00001605158
:100E28006111D8A41AEF07F01CEF07F0DCEF06F009
:100E380020EF07F020EF07F0000E0B6E000E41ECDC
:100E480014F0F00E146E7F0E156E010E166E010E64
:100E5800176E40EC12F0040E0B6E000E41EC14F00D
:100E6800B00E146E7F0E156E010E166E010E176E03
:100E780040EC12F0060E0B6E000E41EC14F0EB0E77
:100E8800146E7F0E156E010E166E010E176E40EC75
:100E980012F082A052EF07F054EF07F020EF07F0AE
:100EA800000E0001616F030E606F5DEF07F020EF29
:100EB80007F012000F6E000E116E0A0E0F18D8A45C
:100EC80068EF07F06AEF07F071EF07F0000E546E55
:100ED800532AFFEF07F0FFEF07F03F0E546477EF58
:100EE80007F079EF07F080EF07F0010E116E54500C
:100EF800C00F0E6E84EF07F054C00EF084EF07F0B9
:100F0800200E0F5E000E106E020E10648EEF07F0BA
:100F180090EF07F094EF07F0FDEF07F0FDEF07F013
:100F28003F0E0E649AEF07F09CEF07F0B0EF07F062
:100F3800400E0E5E010E116E8A940E504009096E25
:100F48001150D7EC14F05350B809096E1150D7EC72
:100F580014F08A84B0EF07F00B50D8B4B6EF07F05E
:100F6800B8EF07F0D4EF07F00F50030DCB0E0C6E5F
:100F78007E0E0D6EF3500C26F4500D221050010D0C
:100F8800F3500C26F4500D220CC0F6FF0DC0F7FFED
:100F98000800F5CF09F01150D7EC14F0F1EF07F085
:100FA8000F50030DCB0E0C6E7E0E0D6EF3500C26FB
:100FB800F4500D221050010DF3500C26F4500D2260
:100FC8000CC0F6FF0DC0F7FF0800F550FF0A096EC8
:100FD8001150D7EC14F0F1EF07F00E2A102A020E88
:100FE8001064F9EF07F0FBEF07F094EF07F0FDEF5F
:100FF80007F0050E54261200106E000E136E0A0E2E
:101008001018D8A40AEF08F00CEF08F013EF08F056
:10101800000E546E532A95EF08F095EF08F03F0E36
:10102800546419EF08F01BEF08F022EF08F0010EE6
:10103800136E5450C00F116E26EF08F054C011F013
:1010480026EF08F01050080DF3CF0EF0F4CF0FF094
:10105800000E126E070E126434EF08F036EF08F037
:101068003AEF08F093EF08F093EF08F03F0E1164A1
:1010780040EF08F042EF08F056EF08F0400E115E1E
:10108800010E136E8A9411504009096E1350D7EC63
:1010980014F05350B809096E1350D7EC14F08A8431
:1010A80056EF08F00B50D8B45CEF08F05EEF08F08C
:1010B80072EF08F012500E240C6E000E0F200D6E09
:1010C800CB0E0C24F66E720E0D20F76E0800F5CFCD
:1010D80009F01350D7EC14F087EF08F012500E24E3
:1010E8000C6E000E0F200D6ECB0E0C24F66E720ED9
:1010F8000D20F76E0800F550FF0A096E1350D7EC63
:1011080014F087EF08F0112A122A070E12648FEFE5
:1011180008F091EF08F03AEF08F093EF08F0080EA6
:1011280054261200000E356E000E346ED5EF08F00E
:101138000AEC10F0000E126E010E136EDBC014F0F4
:10114800156ADCC016F0176A000E196E090E186EC3
:10115800000E1B6E0E0E1A6E000E1D6E000E1C6E1B
:101168002BEC09F0040E0001DC5F000E126E010E7C
:10117800136EDBC014F0156ADCC016F0176A000E97
:10118800196E090E186E000E1B6E0E0E1A6E000EEA
:101198001D6E010E1C6E2BEC09F0344A352AD5EF72
:1011A80008F0050E34183510D8A4DDEF08F0DFEF8D
:1011B80008F09CEF08F01EEF09F01EEF09F00AECAA
:1011C80010F0000E126E010E136EDBC014F0156ADB
:1011D800DCC016F0176A000E196E090E186E000EA4
:1011E8001B6E0E0E1A6E000E1D6E000E1C6E2BEC82
:1011F80009F0040E0001DC27000E126E010E136EBA
:10120800DBC014F0156ADCC016F0176A000E196E00
:10121800090E186E000E1B6E0E0E1A6E000E1D6E55
:10122800010E1C6E2BEC09F00AEC10F0344A352A3A
:101238001EEF09F00A0E34183510D8A426EF09F06D
:1012480028EF09F0E3EF08F02AEF09F01200000E8A
:10125800246E000E236E000E266E000E256E000E04
:10126800226E000E216E16C023F017C024F0A6EFE0
:1012780009F014C025F015C026F08BEF09F02150B5
:101288001224D96E22501320DA6EDF50D8B44FEFF3
:1012980009F051EF09F063EF09F01C041D10D8A400
:1012A80058EF09F05AEF09F063EF09F023C00BF08B
:1012B800010E0C6E25508DEC0DF085EF09F02150D4
:1012C8001224D96E22501320DA6EDF50D8B46FEF93
:1012D80009F071EF09F085EF09F01C501D10D8A432
:1012E80078EF09F07AEF09F085EF09F023C00BF0E9
:1012F800000E0C6E25508DEC0DF085EF09F085EF92
:1013080009F0214A222A254A262A8BEF09F01A5089
:1013180014241E6E1B5015201F6E1E50255C26506F
:10132800800A206E1F50800A2058D8A09EEF09F02E
:10133800A0EF09F043EF09F0A2EF09F0234A242AAD
:10134800A6EF09F0185016241E6E195017201F6EAC
:101358001E50235C2450800A206E1F50800A20589B
:10136800D8A0B9EF09F0BBEF09F03DEF09F0BDEFE8
:1013780009F01200272806E12828D8A4C6EF09F0AA
:10138800C8EF09F0E4EF09F0660E126E000E136E56
:10139800000E156E0C0E146E000E176E0A0E166EE9
:1013A800000E196E030E186E000E1B6E0A0E1A6ED2
:1013B80029C01CF02AC01DF02BEC09F046EF0AF0FA
:1013C80028BEF2EF09F0285007E1040E275CD8B0D8
:1013D800F0EF09F0F2EF09F01BEF0AF0660E126E5B
:1013E800000E136E27C02BF028C02CF0050ED890E5
:1013F8002B362C36E82EFBEF09F00C0E2B24146E3E
:10140800000E2C20156E000E176E0A0E166E000EBA
:10141800196E030E186E000E1B6E0A0E1A6E29C086
:101428001CF02AC01DF02BEC09F046EF0AF0660EFE
:10143800126E000E136E27C02BF028C02CF0050E7C
:10144800D8902B362C36E82E24EF0AF08C0E2B245D
:10145800146EFF0E2C20156E000E176E320E166ECF
:10146800000E196E030E186E000E1B6E0A0E1A6E11
:1014780029C01CF02AC01DF02BEC09F046EF0AF039
:1014880046EF0AF01200EE0E126E040E136E000EF6
:10149800156E340E146E000E176E170E166E000EB3
:1014A800196E180E186E000E1B6E220E1A6E000EA4
:1014B8001D6E010E1C6E2BEC09F0000E126E030E51
:1014C800136E000E156E340E146E000E176E170E86
:1014D800166E000E196E070E186E000E1B6E220E89
:1014E8001A6E000E1D6E010E1C6E2BEC09F0C40E58
:1014F800126E000E136E000E156E4B0E146E000E5B
:10150800176E230E166E000E196E020E186E000E60
:101518001B6E080E1A6E000E1D6E010E1C6E2BEC53
:1015280009F07E0E126E010E136E000E156E580E27
:10153800146E000E176E140E166E000E196E060E3F
:10154800186E000E1B6E060E1A6E000E1D6E010E32
:101558001C6E2BEC09F0B40E126E000E136E000E0A
:10156800156E5F0E146E000E176E120E166E000EBC
:10157800196E040E186E000E1B6E040E1A6E000E05
:101588001D6E010E1C6E2BEC09F01200640EF66E37
:10159800060EF76E000EF86E04EEEEF013EE0EF087
:1015A8000900F5CFEEFFE550E150FAE1E250F8E12D
:1015B800820EF66E170EF76E000EF86E04EE00F04F
:1015C80010EEEEF00900F5CFEEFFE550E150FAE13C
:1015D800940EF66E160EF76E000EF86E03EE00F01F
:1015E80010EEEEF00900F5CFEEFFE550E150FAE11C
:1015F8005C0EF66E190EF76E000EF86E02EE00F035
:1016080010EEE4F00900F5CFEEFFE550E150FAE105
:10161800D80EF66E200EF76E000EF86E01EE00F092
:1016280010EEC2F00900F5CFEEFFE550E150FAE107
:101638000E0EF66E280EF76E000EF86E00EE60F0D5
:1016480010EE74F00900F5CFEEFFE550E150FAE135
:10165800B40EF66E2A0EF76E000EF86E0900F5CF7E
:1016680058F00900F5CF59F000EED4F0170EEE6AE5
:10167800E806FDE1576A566A556A546A536A5A90F1
:101688005A92000EF86E000133EF13F000000000CC
:101698000000000000000000000000000000000141
:1016A800010101010000010101010000000000002A
:1016B8000000000000000000000000000000000022
:1016C800000100000001000001000001000000000E
:1016D8000000000000000000000000000000000002
:1016E80000000001010000010000010000010000ED
:1016F80000000000000000000000000000000000E2
:1017080000000000000001000001000001000001CD
:1017180000000000000000000000000000000000C1
:1017280000000000000000000100000100000100AE
:1017380000010000000000000000000000000000A0
:10174800000000000000000000000100000100008F
:10175800010000010000000000000000000000007F
:10176800000000000000000000000000010000016F
:10177800000001000001010000000000000000005E
:101788000000000000000000000000000000000051
:101798000000000000000000000000000000000041
:1017A8000000000000000000000000000000000130
:1017B8000101010100010101010100000000000018
:1017C8000000000000000000000000000000000011
:1017D80000010000000100010000000100000000FD
:1017E80000000000000000000000000000000000F1
:1017F80000000001010000010001010000010000DB
:1018080000000000000000000000000000000000D0
:1018180000000000000001000001000001000001BC
:1018280000000000000000000000000000000000B0
:10183800000000000000000001000001000001009D
:10184800000100000000000000000000000000008F
:10185800000000000000000000000100000100007E
:101868000100000101000000000E066E04BE41EFF9
:101878000CF03FEF0CF049EF0CF0036C041ED8B0ED
:10188800042A010E066E49EF0CF002BE50EF0CF070
:101898004EEF0CF058EF0CF0016C021ED8B0022A83
:1018A800010E061A58EF0CF0000E086E000E076EB7
:1018B80003500410D8B463EF0CF065EF0CF099EF07
:1018C8000CF0010E056E6FEF0CF0D890033604365D
:1018D800052A6FEF0CF004AE74EF0CF076EF0CF005
:1018E80069EF0CF07AEF0CF07AEF0CF0D89007362D
:1018F80008360350015C04500258D8A086EF0CF05B
:1019080088EF0CF08FEF0CF00350015E0450025A80
:1019180007808FEF0CF0D89004320332052E7AEF4F
:101928000CF099EF0CF099EF0CF00650D8B49FEF3B
:101938000CF0A1EF0CF0A7EF0CF0076C081ED8B064
:10194800082AA7EF0CF007C001F008C002F0ADEFBD
:101958000CF0120000000000000000000000000071
:10196800000000000000000000010000000000006E
:10197800000000000000010101000000000000005C
:10198800000000010101010100000000000000004A
:101998000101010101010100000000000001010036
:1019A8000101010001010000000000010100000127
:1019B8000000010100000000010101010101010115
:1019C8000101010000000101010100000001010105
:1019D80001000000000100000000000000000000FD
:1019E80000000000000000000001010100000101EA
:1019F80001000000000101010000000000000000DB
:101A080000000000000000000000000101010000CB
:101A180001010100000001000000000000000000BA
:101A280000000000000000000000000000010101AB
:101A38000000010101000000000E8DEC11F0000E05
:101A48000B6E000E41EC14F0BE0E146E7F0E156E78
:101A5800010E166E010E176E40EC12F0010E0B6EA1
:101A6800000E41EC14F0DF0E146E7F0E156E010EA1
:101A7800166E010E176E40EC12F0010E0B6E290E59
:101A880041EC14F0D90E146E7F0E156E010E166E11
:101A9800010E176E40EC12F0030E0B6E000E41ECB7
:101AA80014F0B70E146E7F0E156E010E166E010E31
:101AB800176E40EC12F0030E0B6E2F0E41EC14F073
:101AC800F50E146E7F0E156E010E166E010E176E52
:101AD80040EC12F0040E0B6E000E41EC14F0D30E25
:101AE800146E7F0E156E010E166E010E176E40EC09
:101AF80012F0050E0B6E000E41EC14F0FA0E146E87
:101B08007F0E156E010E166E010E176E40EC12F068
:101B180012000F6E000E116E3F0E0F6496EF0DF05F
:101B280098EF0DF09EEF0DF0400E0F5E010E116E56
:101B38009EEF0DF08A940F9E0F8C0FC009F0115084
:101B4800D7EC14F00BC001F0026A000E046E080E08
:101B5800036E38EC0CF00150BF0BB809096E115038
:101B6800D7EC14F08A841150FAEC14F01150FAEC06
:101B780014F0106E8A940FC009F01150D7EC14F0CD
:101B88000C50D8B4CAEF0DF0CCEF0DF0DFEF0DF02C
:101B98000BC00DF0070E0D16010E0E6E0D2AD7EFB5
:101BA8000DF0D8900E360D2ED5EF0DF00E5010100A
:101BB800106EF3EF0DF00BC00DF0070E0D16010EB1
:101BC8000E6E0D2AEAEF0DF0D8900E360D2EE8EFC6
:101BD8000DF00E50FF0A1014106EF3EF0DF08A840A
:101BE80010C009F01150D7EC14F01200000E066E68
:101BF80002BE03EF0EF001EF0EF00BEF0EF0016CDA
:101C0800021ED8B0022A010E066E0BEF0EF004BEBB
:101C180012EF0EF010EF0EF018EF0EF0036C041E2A
:101C2800D8B0042A18EF0EF003500410D8B41FEFF0
:101C38000EF021EF0EF051EF0EF0010E056E2BEFB6
:101C48000EF0D89003360436052A2BEF0EF004AEBA
:101C580030EF0EF032EF0EF025EF0EF036EF0EF00B
:101C680036EF0EF00350015C04500258D8A03FEF45
:101C78000EF041EF0EF047EF0EF00350015E0450F6
:101C8800025A47EF0EF0D89004320332052E36EF91
:101C98000EF051EF0EF051EF0EF00650D8B457EF9A
:101CA8000EF059EF0EF05FEF0EF0016C021ED8B087
:101CB800022A5FEF0EF001C001F002C002F065EFEA
:101CC8000EF012000FC013F010C014F014BE71EF24
:101CD8000EF06FEF0EF077EF0EF00F6C101ED8B00D
:101CE800102A77EF0EF0000E166E000E156E7DEFBF
:101CF8000EF015501124D96E16501220DA6E0FC04E
:101D080001F010C002F0000E046E0A0E036EFAEC29
:101D18000DF00150300FDF6E154A162A0FC001F082
:101D280010C002F0000E046E0A0E036E38EC0CF0C0
:101D380001C00FF002C010F010BEADEF0EF0105051
:101D480006E10F04D8B0ABEF0EF0ADEF0EF07DEF6B
:101D58000EF0AFEF0EF014BEB6EF0EF0B4EF0EF0CB
:101D6800C2EF0EF015501124D96E16501220DA6EFB
:101D78002D0EDF6E154A162AC2EF0EF015501124EB
:101D8800D96E16501220DA6E000EDF6E11C007F001
:101D980012C008F07CEC13F01200000E0C6E000E5E
:101DA8000B6E000E0E6E070E0E64DDEF0EF0DFEF09
:101DB8000EF0E3EF0EF039EF0FF039EF0FF0000EF1
:101DC8000F6E010E0F64EBEF0EF0EDEF0EF0F1EF7A
:101DD8000EF030EF0FF030EF0FF08A94400E096EDE
:101DE8000F50D7EC14F00E50B809096E0F50D7EC0D
:101DF80014F08A84000E0D6E3F0E0D6406EF0FF08E
:101E080008EF0FF00CEF0FF025EF0FF025EF0FF0B4
:101E1800CB0E0B24F66E7A0E0C20F76E0800F5CF69
:101E280009F00F50D7EC14F00B4A0C2A0D2A3F0E7C
:101E38000D6421EF0FF023EF0FF00CEF0FF025EFFB
:101E48000FF00F2A010E0F642CEF0FF02EEF0FF09A
:101E5800F1EF0EF030EF0FF00E2A070E0E6437EF99
:101E68000FF039EF0FF0E3EF0EF08A908A9212002C
:101E78000F6E9268000E806E0F0EC16E000E936E8C
:101E8800000E816E000E956E000E836E000E836E3E
:101E98008A9A310E0E6EB20EE82EFED70E2EFCD7A1
:101EA80000D08A8A8A988A908A928A94530EE82E59
:101EB800FED700F0C00E096E000ED7EC14F0C00E6D
:101EC800096E010ED7EC14F0400E096E000ED7EC27
:101ED80014F0400E096E010ED7EC14F0B80E096E1E
:101EE800000ED7EC14F0B80E096E010ED7EC14F002
:101EF8000F04D8A482EF0FF084EF0FF093EF0FF0E8
:101F0800000E926E80683F0E096E000ED7EC14F03A
:101F18003F0E096E010ED7EC14F09FEF0FF03E0E46
:101F2800096E000ED7EC14F03E0E096E010ED7ECC8
:101F380014F09FEF0FF0000E8DEC11F0120082B23A
:101F4800A8EF0FF0AAEF0FF0A3EF0FF0ACEF0FF030
:101F580042504310D8A4B3EF0FF0B5EF0FF0B9EF2C
:101F68000FF045EC15F0B9EF0FF042044310D8A478
:101F7800C0EF0FF0C2EF0FF0C6EF0FF051EC15F005
:101F8800C6EF0FF0020E42184310D8A4CEEF0FF0A0
:101F9800D0EF0FF0D4EF0FF04BEC15F0D4EF0FF0BB
:101FA800030E42184310D8A4DCEF0FF0DEEF0FF059
:101FB800E2EF0FF0B8EC06F0E2EF0FF0040E421873
:101FC8004310D8A4EAEF0FF0ECEF0FF0F0EF0FF0AA
:101FD80056EC15F0F0EF0FF0070E42184310D8A496
:101FE800F8EF0FF0FAEF0FF000EF10F0B9EC04F093
:101FF80000EF10F000EF10F082B205EF10F007EFDD
:1020080010F000EF10F009EF10F01200CDEC10F016
:10201800000E336E000E326E000E336E000E326EFE
:1020280058EF10F0DD0E2F6E000E306ED89032345F
:10203800D96E3334DA6ED890D936DA362F50D9269D
:102048003050DA22030EDF5EDD0E2F6E000E306E8A
:10205800D8903234D96E3334DA6ED890D936DA362D
:102068002F50D9263050DA22050EDF603EEF10F0EF
:1020780040EF10F054EF10F0DD0E2F6E000E306EB2
:10208800D8903234D96E3334DA6ED890D936DA36FD
:102098002F50D9263050DA226E0EDF6E54EF10F032
:1020A800324A332A58EF10F05850325C3350800AC5
:1020B8002F6E5950800A2F58D8A065EF10F067EF9F
:1020C80010F016EF10F069EF10F02DEC11F012007F
:1020D80000000000000000010101000101010000F2
:1020E80000000000000100010001000100000000E4
:1020F80000000001000100010001000000010101D1
:1021080001010001010100010000000100000000C0
:1021180000000000000100000001000000000001B4
:1021280000010001000101010000000000010001A0
:102138000001000100000000000000000000000194
:102148000001010101010101010101010101010178
:102158000101010100000000010000000001000071
:102168000000010000000001000000000101010161
:10217800010101010000000001010001010000014E
:10218800010001010100000101010101010000013C
:102198000101000E2E6E000E2D6E000E2E6E000E2A
:1021A8002D6E1BEF11F0000E126E020E136EDD0E77
:1021B800276E000E286ED8902D34D96E2E34DA6E24
:1021C800D890D936DA362750D9262850DA22DF5067
:1021D800296E2950146E156A2DC02AF02EC02BF0D6
:1021E800D8902A362B36D8902A362B36010E2A2636
:1021F800000E2B22DD0E2A24D96E000E2B20DA6E5B
:10220800DF502C6E2C50166E176A000E196E090ED0
:10221800186E000E1B6E0E0E1A6E000E1D6E000E4E
:102228001C6E2BEC09F02D4A2E2A1BEF11F058508A
:102238002D5C2E50800A276E5950800A2758D8A046
:1022480028EF11F02AEF11F0D7EF10F02CEF11F072
:102258001200000E2E6E000E2D6E000E2E6E000E59
:102268002D6E7BEF11F0000E126E020E136EDD0E56
:10227800276E000E286ED8902D34D96E2E34DA6E63
:10228800D890D936DA362750D9262850DA22DF50A6
:10229800296E2950146E156A2DC02AF02EC02BF015
:1022A800D8902A362B36D8902A362B36010E2A2675
:1022B800000E2B22DD0E2A24D96E000E2B20DA6E9A
:1022C800DF502C6E2C50166E176A000E196E090E10
:1022D800186E000E1B6E0E0E1A6E000E1D6E010E8D
:1022E8001C6E2BEC09F02D4A2E2A7BEF11F058506A
:1022F8002D5C2E50800A276E5950800A2758D8A086
:1023080088EF11F08AEF11F037EF11F08CEF11F030
:1023180012000B6E000E0D6E070E0D6496EF11F095
:1023280098EF11F09CEF11F0E8EF11F0E8EF11F0E1
:102338008A94400E096E000ED7EC14F0400E096E18
:10234800010ED7EC14F00D50B809096E000ED7EC49
:1023580014F00D50B809096E010ED7EC14F08A84F8
:10236800000E0C6E3F0E0C64BCEF11F0BEEF11F0C6
:10237800C2EF11F0DDEF11F0DDEF11F00B50010DA0
:10238800F3500008096E000ED7EC14F00B50010D45
:10239800F3500008096E010ED7EC14F00C2A3F0E1A
:1023A8000C64D9EF11F0DBEF11F0C2EF11F0DDEFA3
:1023B80011F00D2A070E0D64E4EF11F0E6EF11F0AD
:1023C8009CEF11F0E8EF11F0120006009EA0EFEF6D
:1023D80011F0F1EF11F0F8EF11F00001E94BEA2BE1
:1023E8009D809E90F8EF11F05A0E0001E919EA114C
:1023F800D8A401EF12F003EF12F005EF12F00A0E65
:10240800D55F1E0EE919EA11D8A40DEF12F00FEFEF
:1024180012F014EF12F0D607DA07D70714EF12F00C
:10242800D905D8A41AEF12F01CEF12F02CEF12F015
:102438001E0EE919EA11D8A424EF12F026EF12F0C3
:102448002CEF12F0000ED96F2CEF12F02CEF12F0D7
:102458002C0EE91906E1EA05D8A435EF12F037EF9A
:1024680012F03EEF12F0D42B000EEA6F000EE96F67
:102478003EEF12F05A9211007AEF12F01650D8B4CB
:1024880048EF12F04AEF12F060EF12F017C00BF0AD
:1024980014C0F6FF15C0F7FFF86A070EF76403D0FB
:1024A8000800F55005D0F6CFE1FFF7CFE2FFE7507F
:1024B80000EC08F076EF12F017C00BF014C0F6FF2E
:1024C80015C0F7FFF86A070EF76403D00800F55047
:1024D80005D0F6CFE1FFF7CFE2FFE7505EEC07F05B
:1024E80076EF12F0144A152A7AEF12F014C0F6FFAC
:1024F80015C0F7FFF86A070EF76403D00800F55017
:1025080005D0F6CFE1FFF7CFE2FFE7500009D8A4E6
:1025180090EF12F092EF12F042EF12F094EF12F0F7
:102528001200EE0E126E040E136E000E156E340EAF
:10253800146E000E176E170E166E000E196E180E1A
:10254800186E000E1B6E220E1A6E000E1D6E010E06
:102558001C6E2BEC09F0000E126E030E136E000EAB
:10256800156E340E146E000E176E170E166E000ED2
:10257800196E070E186E000E1B6E220E1A6E000ED4
:102588001D6E010E1C6E2BEC09F0A20E126E010ED0
:10259800136E000E156E4B0E146E000E176E200E85
:1025A800166E000E196E040E186E000E1B6E080EC5
:1025B8001A6E000E1D6E010E1C6E2BEC09F0120037
:1025C800EE0E126E040E136E000E156E340E146E9F
:1025D800000E176E170E166E000E196E180E186E76
:1025E800000E1B6E220E1A6E000E1D6E010E1C6E62
:1025F8002BEC09F0000E126E030E136E000E156E12
:10260800340E146E000E176E170E166E000E196E2D
:10261800070E186E000E1B6E220E1A6E000E1D6E2F
:10262800010E1C6E2BEC09F07E0E126E020E136E5C
:10263800000E156E340E146E000E176E210E166EF7
:10264800000E196E030E186E000E1B6E220E1A6E07
:10265800000E1D6E010E1C6E2BEC09F012000F0E01
:10266800C16E9568000E836E070E946E000E826E22
:10267800CD80CD92CD9ACD98F28C9D809E90F28E91
:10268800000E526E010E516E010E3CEC0FF06FEF12
:1026980013F01DEC15F020EC0DF00B0E506E260E0D
:1026A8004F6E5E0EE82EFED74F2EFCD7502EFAD76F
:1026B80009EC00F00001D851D8A465EF13F067EFDA
:1026C80013F06FEF13F0000E526E000E516E6FEFA5
:1026D80013F06FEF13F051045210D8B476EF13F0E3
:1026E80078EF13F04DEF13F07AEF13F007EF00F0E7
:1026F800000E0C6E000E0B6E07C001F008C002F051
:10270800AEEC14F0FF0E01240D6EFF0E02200E6ECB
:10271800B3EF13F00B500724D96E0C500820DA6E73
:10272800DF500A6E0D500724D96E0E500820DA6E5D
:102738000B500724E16E0C500820E26EDFCFE7FF54
:102748000D500724D96E0E500820DA6E0AC0DFFF3C
:102758000B4A0C2A0D06D8A00E06B3EF13F00D5045
:102768000B5C0C50800A096E0E50800A0958D8A0DC
:10277800C0EF13F0C2EF13F08EEF13F0C4EF13F0B5
:102788001200640E0E6E000E0D6E000E0C6E000E22
:102798000D6E000E0C6EF5EF13F0280E016E0E5044
:1027A80031EC15F0DD0E0A6E000E0B6ED8900C346D
:1027B800D96E0D34DA6ED890D936DA360A50D92661
:1027C8000B50DA2201C0DEFF02C0DEFF03C0DEFFCD
:1027D80004C0DEFF0E503C0F0E6E0C4A0D2AF5EFBA
:1027E80013F058500C5C0D50800A0A6E5950800A3C
:1027F8000A58D8A002EF14F004EF14F0D1EF13F048
:1028080006EF14F01200030008000D000101010199
:1028180001010101010101010101010101010101A0
:102828000101010101010101010101000000000194
:10283800000100000100000001010000000001018A
:10284800000001000100000100010001000000007B
:102858000100010001000001000101010101000067
:102868000100000100000101010101010100000156
:10287800010101010100000101010D6E000E0C6E45
:10288800800E0D604AEF14F04CEF14F078EF14F05E
:10289800070E0B6452EF14F054EF14F058EF14F0D5
:1028A80078EF14F078EF14F00DC054F00BC053F02B
:1028B8003F0E0D6462EF14F064EF14F06AEF14F049
:1028C800400E0D5E010E0C6E6AEF14F08A940D50E6
:1028D8004009096E0C50D7EC14F00B50B809096E7A
:1028E8000C50D7EC14F08A841200000E126E020EFF
:1028F800136E000E156E1E0E146E000E176E250E4A
:10290800166E000E196E090E186E000E1B6E0E0E56
:102918001A6E000E1D6E010E1C6E2BEC09F0840E53
:10292800126E000E136E000E156E200E146E000E41
:10293800176E200E166E000E196E040E186E000E1D
:102948001B6E060E1A6E000E1D6E010E1C6E2BEC11
:1029580009F0120001C005F002C006F0B8EF14F04B
:10296800014A022AB8EF14F001C0D9FF02C0DAFF09
:10297800DF50D8A4C2EF14F0C4EF14F0B4EF14F091
:10298800C6EF14F005C003F006C004F0031E041ED1
:10299800034A042A01500324016E02500420026EE7
:1029A800D6EF14F012000A6E0A50D8B4DEEF14F015
:1029B800E0EF14F0E4EF14F08A808A92E8EF14F064
:1029C8008A928A82E8EF14F0000E956E8A9609C002
:1029D8008CFF8A88080EE82EFED700F08A98080E29
:1029E800E82EFED700F08A908A921200016E0150FC
:1029F800D8B401EF15F003EF15F007EF15F08A8052
:102A08008A9209EF15F08A928A8295688A868A885E
:102A1800080EE82EFED700F083CF02F08A98080E41
:102A2800E82EFED700F08A908A9202501CEF15F02B
:102A38001200000E0001D46F500ED56F500ED66FE5
:102A4800500ED76F010ED86F3C0EDB6F3C0EDC6F5B
:102A5800000ED96F640EDA6F1200056E05C006F01D
:102A680001C007F0090E086E0A0E096E06C001F0D3
:102A780007C002F008C003F009C004F044EF15F0E5
:102A88001200140E0001D527280EDA5F1200140E6A
:102A98000001D627010ED96F12000001D751140F7B
:0E2AA800D76F1200640E0001DA6F12000200F8
:1072CA0000000000000000000000000000000000B4
:1072DA0000000000000000000000000000000000A4
:1072EA000000000000000000000000000000000094
:1072FA000000000000000000000000000000000084
:10730A000000000000000000000000000000000073
:10731A000000000000000000000000000000000063
:10732A000000000000000000000000000000000053
:10733A000000000000000000000000000000000043
:10734A000000000000000000000000000000000033
:10735A000000000000000000000000000000000023
:10736A000000000000000000000000000000000013
:10737A000000000000000000000000000000000003
:10738A0000000000000000000000000000000000F3
:10739A0000000000000000000000000000000000E3
:1073AA0000000000000000000000000000000000D3
:1073BA0000000000000000000000000000000000C3
:1073CA0000000000000000000000065F5F060000E9
:1073DA00000007070007070000147F7F147F7F144F
:1073EA0000242E6B6B3A120000466630180C666257
:1073FA0000307A4F5D377A48000407030000000026
:10740A0000001C3E63410000000041633E1C000076
:10741A0000082A3E1C1C3E2A0808083E3E080800AE
:10742A00000080E060000000000808080808080062
:10743A000000006060000000006030180C060301C4
:10744A00003E7F71594D7F3E0040427F7F404000A1
:10745A0000627359496F660000226349497F36000A
:10746A0000181C16537F7F5000276745457D390059
:10747A00003C7E4B4979300000030371790F070005
:10748A0000367F49497F360000064F49693F1E0092
:10749A000000006666000000000080E6660000004A
:1074AA0000081C36634100000024242424242400FC
:1074BA0000004163361C080000020351590F060000
:1074CA00003E7F415D5D1F1E007C7E13137E7C00A3
:1074DA0000417F7F49497F36001C3E634141632258
:1074EA0000417F7F41633E1C00417F7F495D4163CC
:1074FA0000417F7F491D0103001C3E6341517372A5
:10750A00007F7F08087F7F000000417F7F410000E5
:10751A0000307040417F3F0100417F7F081C776344
:10752A0000417F7F41406070007F7F0E1C0E7F7F8D
:10753A00007F7F060C187F7F001C3E6341633E1C60
:10754A0000417F7F49090F06001E3F21717F5E00BF
:10755A0000417F7F09197F6600266F4D59733200FB
:10756A000003417F7F410300007F7F40407F7F000F
:10757A00001F3F60603F1F00007F7F3018307F7F11
:10758A000043673C183C674300074F78784F070071
:10759A0000476371594D677300007F7F41410000C6
:1075AA00000103060C183060000041417F7F000093
:1075BA0000080C0603060C0800808080808080800A
:1075CA00800000030704000000207454543C7840F3
:1075DA0000417F3F4848783000387C44446C28009A
:1075EA0000307848493F7F4000387C54545C18008A
:1075FA0000487E7F490302000098BCA4A4F87C04DA
:10760A0000417F7F08047C780000447D7D400000B3
:10761A000060E08080FD7D0000417F7F10386C446F
:10762A000000417F7F400000007C7C18381C7C7879
:10763A00007C7C04047C780000387C44447C38005C
:10764A000084FCF8A4243C1800183C24A4F8FC8408
:10765A0000447C784C041C1800485C545474240080
:10766A000000043E7F442400003C7C40403C7C40B7
:10767A00001C3C60603C1C00003C7C7038707C3C08
:10768A0000446C3810386C44009CBCA0A0FC7C0000
:10769A00004C64745C4C64000008083E7741410069
:1076AA000000000077770000004141773E0808009B
:1076BA0000020301030203010070784C464C787003
:1076CA00000E9F91B1FB4A00003A7A40407A7A4014
:1076DA0000387C54555D19000002237555557D7B91
:1076EA0042217554547D794000217555547C784067
:1076FA0000207457577C784000183CA4A4E440004A
:10770A0000023B7D55555D1B02397D54545D1900BD
:10771A0000397D55545C18000001457C7C4101000C
:10772A00000203457D7D43020001457D7C40000047
:10773A0000797D1612167D790070782B2B787000EF
:10774A0000447C7C5555450000207454547C7C547C
:10775A00547C7E0B097F7F4900327B49497B32008A
:10776A0000327A48487A320000327A4A4878300041
:10777A00003A7B41417B7A40003A7A42407878402D
:10778A00009ABAA0A0FA7A000001193C66663C1970
:10779A00013D7D40407D3D0000183C24E7E724245C
:1077AA0000687E7F49436620002B2FFCFC2F2B00AC
:1077BA0000FFFF09092FF6F8A040C088FE7F0903E1
:1077CA0002207454557D79400000447D7D410000BB
:1077DA00003078484A7A320000387840427A7A4053
:1077EA00007A7A0A0A7A7000007D7D19317D7D005F
:1077FA000000262F292F2F280000262F292F2600A8
:10780A000030784D45602000003838080808080024
:10781A000008080808383800004F6F3018CCEEBB53
:10782A00914F6F30186C76FBF90000007B7B0000EB
:10783A0000081C3622081C362222361C0822361C56
:10784A0008AA005500AA005500AA55AA55AA55AA81
:10785A0055DDFFAA77DDAAFF77000000FFFF0000D1
:10786A0000101010FFFF000000141414FFFF0000A6
:10787A00001010FFFF00FFFF001010F0F010F0F0F2
:10788A0000141414FCFC0000001414F7F700FFFFA6
:10789A00000000FFFF00FFFF001414F4F404FCFCD6
:1078AA000014141717101F1F0010101F1F101F1F7E
:1078BA00001414141F1F000000101010F0F0000034
:1078CA00000000001F1F1010101010101F1F1010B2
:1078DA0010101010F0F0101010000000FFFF101030
:1078EA00101010101010101010101010FFFF1010B0
:1078FA0010000000FFFF1414140000FFFF00FFFF38
:10790A001000001F1F101717140000FCFC04F4F4E9
:10791A001414141717101717141414F4F404F4F4A5
:10792A00140000FFFF00F7F71414141414141414AD
:10793A00141414F7F700F7F714141414171714147F
:10794A001410101F1F101F1F10141414F4F4141411
:10795A00141010F0F010F0F01000001F1F101F1F7D
:10796A00100000001F1F141414000000FCFC141463
:10797A00140000F0F010F0F0101010FFFF10FFFFDD
:10798A0010141414FFFF1414141010101F1F0000F9
:10799A0000000000F0F0101010FFFFFFFFFFFFFFD4
:1079AA00FFF0F0F0F0F0F0F0F0FFFFFFFF00000052
:1079BA000000000000FFFFFFFF0F0F0F0F0F0F0F58
:1079CA000F387C446C386C4400FCFE2A2A3E1400B2
:1079DA00007E7E020206060000027E7E027E7E0293
:1079EA000063775D4963630000387C447C3C04048F
:1079FA000080FE7E20203E1E000406027E7C0602D7
:107A0A000099BDE7E7BD9900001C3E6B496B3E1C1F
:107A1A00004C7E7301737E4C0030784A4F7D3900EA
:107A2A0000183C243C3C243C1898FC643C3E273D0E
:107A3A001800000000000000000000000000000024
:107A4A00000000000000000000000000000000002C
:107A5A00000000000000000000000000000000001C
:107A6A00000000000000000000000000000000000C
:107A7A0000000000000000000000000000000000FC
:107A8A0000000000000000000000000000000000EC
:107A9A0000000000000000000000000000000000DC
:107AAA0000000000000000000000000000000000CC
:107ABA0000000000000000000000000000000000BC
:107ACA000000000000000000000000000F1FF8FF87
:107ADA00F81F0F0000FF3F1E00000000000000001A
:107AEA00000000000000000000000000001E3F7FB0
:107AFA00FFFEFCFEFF7F3F1E0000000000000000AA
:107B0A0000000000000000000000000000007CFEF1
:107B1A00FFFFC7838382000000000000000000000E
:107B2A000000000000000000000000000000E0F07B
:107B3A00F0F0F0FF03060000000000000000000063
:107B4A000000000000000000000000000000010129
:107B5A000100000000010000000000000000000019
:107B6A00000000000000000000000000000000000B
:107B7A0000010101000000000000000000000000F8
:107B8A0000000000000000000000000000000000EB
:107B9A0001010101010000000000000000000000D6
:107BAA0000000000000000000000000000000001CA
:107BBA0001010100000000000000000000000000B8
:107BCA0000000000000000000000000000000000AB
:107BDA00000000000000000000000000000000009B
:107BEA00000000000000000000000000000000008B
:107BFA00000000000000000000000000000000007B
:107DDA000080000000000000000000000000000019
:107DEA000000000000000000000000000000000089
:107DFA000000000000000000000000000000000079
:107E0A000000000000000000000000000000000068
:107E1A000000000000000000000000000000000058
:107E2A000000000000000000000000000000000048
:107E3A000000000000000000000000000000000038
:107E4A000000000000000004080001E2E0FCFCFC65
:107E5A00FFFFFFFCFCFCE0E0000000000000000067
:107E6A000000000000000000000000000000000008
:107E7A0000000000000000000000000000000000F8
:107E8A0000000000000000000000000000000000E8
:107E9A0000000000000000000000000000000000D8
:107EAA000000000000000000000000FFFFFFFF804C
:107EBA00FCFCFCFC80E0E0E0E000000000000000C8
:107ECA0000000000005C000C000C7C287C7C447CD8
:107EDA00241048285408000C003844004438002074
:107EEA0010081038108040001010100040002010B8
:107EFA0008384438007C006454484454281C107CD8
:107F0A004C542438542004740C285428085438003B
:107F1A00500080500010284428282844281004546F
:107F2A0008384C5C7814787C54283844447C4438AB
:107F3A007C54447C14043844347C107C007C00203B
:107F4A00403C7C106C7C40407C087C7C047C7C44FB
:107F5A007C7C14083844787C1468485424047C04D3
:107F6A007C407C3C403C7C207C6C106C1C601C641B
:107F7A00544C7C4400081020447C0008040880808B
:107F8A00800408000F0CFF0C0F00FF1E456E65727F
:107F9A006769653A005243323D65786974005072E8
:107FAA006F7072653A006578697420200041524505
:107FBA004E44410050726F6A657400416D6F75726C
:107FCA003A0053746174733A00504147455300674D
:107FDA006F636869004D6963726F004661696D3A43
:107FEA000052433020004641494C0052534B49004D
:057FFA0054414F00009E
:020000040020DA
:08000000FFFFFFFFFFFFFFFF00
:020000040030CA
:0E000000000C1F1FFF8381FF0FC00FE00F4099
:00000001FF
