:020000040000FA
:0400000007EF00F016
:1000080059829DED09F0F0EF0BF0000E476E000EDF
:10001800466E000E476E000E466E4BEF01F0DB0E8B
:100028003A6E000E3B6ED8904634D96E4734DA6E7D
:10003800D890D936DA363A50D9263B50DA22DF50F2
:100048003C6E3D6A0001D95162253E6E000E632167
:100058003F6E3C503E5C3F50800A406E3D50800AE7
:100068004058D8A03AEF00F03CEF00F047EF01F01D
:10007800D95162253A6E000E63213B6EDB0E3C6E51
:10008800000E3D6ED8904634D96E4734DA6ED8905B
:10009800D936DA363C50D9263D50DA22DF503E6E4A
:1000A8003F6A46C040F047C041F0D89040364136DC
:1000B800D89040364136030E4026000E4122DB0E12
:1000C8004024D96E000E4120DA6EDF50426E425055
:1000D8003E26000E3F223A503E5C3F50800A436E57
:1000E8003B50800A4358D8A07CEF00F07EEF00F028
:1000F80047EF01F046C03AF047C03BF0D8903A3697
:100108003B36D8903A363B36010E3A26000E3B2253
:10011800DB0E3A24D96E000E3B20DA6EDF503C6EBF
:100128003D6ADA5160253E6E000E61213F6E3C50FB
:100138003E5C3F50800A406E3D50800A4058D8A02F
:10014800A8EF00F0AAEF00F047EF01F0DA516025C0
:100158003A6E000E61213B6E46C03CF047C03DF050
:10016800D8903C363D36D8903C363D36010E3C267C
:10017800000E3D22DB0E3C24D96E000E3D20DA6EC7
:10018800DF503E6E3F6A46C040F047C041F0D8900D
:1001980040364136D89040364136020E4026000E91
:1001A8004122DB0E4024D96E000E4120DA6EDF506A
:1001B800426E42503E26000E3F223A503E5C3F506F
:1001C800800A436E3B50800A4358D8A0EEEF00F0F7
:1001D800F0EF00F047EF01F0000EE46F010EE36F5F
:1001E800FF0E5524556EFF0E5620566E55C015F05D
:1001F80056C016F0520E176E000E186E80EC10F0F6
:10020800000E116E640E5FEC16F0520E1A6E000EA0
:100218001B6E010E1C6E010E1D6E05EC14F0520EC5
:10022800076E000E086E000E0A6E000E096E000EB4
:100238000C6E030E0B6E56EC07F0000E0001D96F22
:10024800000EDA6F000E186E010E196E000E1B6E8E
:100258001E0E1A6E000E1D6E280E1C6E000E1F6EEE
:10026800090E1E6E000E216E0E0E206E000E236EFD
:10027800000E226ED4EC0AF0000E116E640E5FECD4
:1002880016F047EF01F0464A472A4BEF01F0575066
:10029800465C4750800A3A6E5850800A3A58D8A0AF
:1002A80058EF01F05AEF01F013EF00F05CEF01F0A6
:1002B8000001E305E411D8A464EF01F066EF01F052
:1002C800C0EF01F0000E456E000E446E1E0ED96F91
:1002D800000EDA6FADEF01F026EC12F026EC12F00A
:1002E80026EC12F0000E186E010E196ED9C01AF025
:1002F8001B6ADAC01CF01D6A000E1F6E090E1E6E06
:10030800000E216E0E0E206E000E236E000E226E61
:10031800D4EC0AF00A0E0001DA27000E186E010E5E
:10032800196ED9C01AF01B6ADAC01CF01D6A000EDB
:100338001F6E090E1E6E000E216E0E0E206E000E30
:10034800236E010E226ED4EC0AF0444A452AADEF22
:1003580001F0040E44184510D8A4B5EF01F0B7EF2A
:1003680001F070EF01F0B9EF01F0000E0001E46F49
:10037800000EE36FC0EF01F01200000EA9EC13F0BD
:10038800000E116E000E5FEC16F0EBEC10F0FF0E95
:100398002E6E2D68000E306E010E2F6E67EC0BF07E
:1003A8004CEC15F0000E0001EC6F000EEB6F000E28
:1003B800E86F000EE76F000EEA6F000EE96F58EF66
:1003C80003F0E951EA11D8A4ECEF01F0EEEF01F0E7
:1003D8006BEF02F082A0F3EF01F0F5EF01F020EFF0
:1003E80002F0000EEA6F010EE96FEBC02DF0ECC0D1
:1003F8002EF0000E306E000E2F6E67EC0BF0000131
:10040800EB07D8A0EC07ECBF0EEF02F00CEF02F000
:1004180014EF02F0000EEC6F070EEB6F14EF02F012
:10042800EBC02DF0ECC02EF0000E306E010E2F6EDA
:1004380067EC0BF06BEF02F082A425EF02F027EFD8
:1004480002F058EF02F0000EEA6F010EE96FEBC000
:100458002DF0ECC02EF0000E306E000E2F6E67EC03
:100468000BF00001EB4BEC2BECBF44EF02F0EC512E
:1004780009E1080EEB5DD8A044EF02F046EF02F068
:100488004CEF02F0000EEC6F000EEB6F4CEF02F039
:10049800EBC02DF0ECC02EF0000E306E010E2F6E6A
:1004A80067EC0BF06BEF02F082A25DEF02F05FEFFA
:1004B80002F06BEF02F0000EEA6F020EE96F6BEFCD
:1004C80002F06BEF02F06BEF02F06BEF02F082B01C
:1004D80070EF02F072EF02F0B4EF02F082B277EF41
:1004E80002F079EF02F0B4EF02F082B47EEF02F08E
:1004F80080EF02F0B4EF02F00001E951EA11D8B43C
:1005080088EF02F08AEF02F0B4EF02F0020EE91968
:10051800EA11D8A492EF02F094EF02F0ADEF02F0E6
:10052800EBC048F0ECC049F056EC11F0000E116E2B
:10053800000E5FEC16F0EBEC10F0EBC02DF0ECC009
:100548002EF0000E306E010E2F6E67EC0BF0ADEF43
:1005580002F0000E0001EA6F000EE96FB4EF02F03E
:10056800320E0001D361BBEF02F0BDEF02F0C1EF24
:1005780002F0AEEC14F0D0EF02F00001D705D8B4C9
:10058800C8EF02F0CAEF02F0D0EF02F04CEC15F021
:10059800D0EF02F0D0EF02F0330E0001D861D7EFB0
:1005A80002F0D9EF02F0DDEF02F097EC16F013EF4E
:1005B80003F0000E186E020E196E000E1B6E1E0E52
:1005C8001A6E000E1D6E250E1C6E000E1F6E090E93
:1005D8001E6E000E216E0E0E206E000E236E000E93
:1005E800226ED4EC0AF0820E186E000E196E000E00
:1005F8001B6E200E1A6E000E1D6E200E1C6E000E55
:100608001F6E040E1E6E000E216E060E206E000E6A
:10061800236E000E226ED4EC0AF013EF03F00001F3
:10062800D705D8A41AEF03F01CEF03F020EF03F06E
:1006380075EC0CF058EF03F07E0E186E010E196E73
:10064800000E1B6E580E1A6E000E1D6E140E1C6ED8
:10065800000E1F6E060E1E6E000E216E060E206E18
:10066800000E236E000E226ED4EC0AF0B20E186E45
:10067800000E196E000E1B6E5F0E1A6E000E1D6EB8
:10068800120E1C6E000E1F6E040E1E6E000E216EE2
:10069800040E206E000E236E000E226ED4EC0AF0BB
:1006A80058EF03F058EF03F00001D605D8B45FEF18
:1006B80003F061EF03F0E5EF01F063EF03F0000EE4
:1006C800A9EC13F0000E116E000E5FEC16F0FB0E95
:1006D8001A6E7F0E1B6E010E1C6E010E1D6E05EC50
:1006E80014F0FDEC14F012000000000000000000FF
:1006F80000000000000000000000000000000000F2
:1007080000000000000000000000000000000000E1
:1007180000000000000000000000000000000000D1
:1007280000000000000000000000000000000000C1
:1007380000000000000000000000000000000000B1
:1007480000000000000000000000000000000000A1
:100758000000000000000000000000000000000091
:100768000000000000000000000000000000000081
:100778000000000000000000000000000000000071
:100788000000000000000000000000000000000061
:100798000000000000000000000000000000000051
:1007A8000000000000000000000000000000000041
:1007B8000000000000000000000000000000000031
:1007C8000000000000000000000000000000000021
:1007D8000000000000000000000000000000000011
:1007E80000000000000000000000010000010101FD
:1007F80001000000010000000000000000010101EC
:1008080001010101010101010101010101000000D3
:1008180000000000000001010100000000000100CC
:1008280000000000000000000000000000000100BF
:1008380000000000000000000000010000000001AE
:1008480000000000000000000000000000000000A0
:10085800000000000000000000000000010000018E
:10086800010100000000000000000000000000007E
:10087800000000000000000000000000000001006F
:10088800010000000000000000000000000000005F
:100898000000000000000000000000000000000050
:1008A800010001000000000000000000000000003E
:1008B8000000000000000000000000000000000030
:1008C800000001000100000000000000000000001E
:1008D8000000000000000000000000000000000010
:1008E80000000000010001010100000000000000FC
:1008F80000000000000000000000000000000000F0
:1009080000000000000001000000000100000000DD
:1009180001010000000000000000000000000000CD
:1009280000000000000000000100000000010000BD
:1009380000000000010100000000000000000000AD
:10094800000000000000000000010000000000019D
:10095800000000000000000101010101000000008A
:100968000000000000010101010101000000000079
:10097800000100000000000000000000000001006D
:10098800000000000000000000000001000000005E
:10099800000000010000000000000000000000004E
:1009A800010000000100000000000000000100003C
:1009B800000000000001000000000000000000002E
:1009C800000001000000010000000000000000011C
:1009D8000000000000000001010101010101010106
:1009E80001010101010101010101010101010101EF
:1009F800010100000000000EA9EC13F0000E116EBA
:100A0800000E5FEC16F0C00E1A6E7F0E1B6E010E04
:100A18001C6E010E1D6E05EC14F0000E116E320EE8
:100A28005FEC16F0930E1A6E7F0E1B6E010E1C6E95
:100A3800010E1D6E05EC14F0000E1F6E000E1E6EEA
:100A480026EF05F0020E116E000E5FEC16F0D90EBF
:100A58001A6E7F0E1B6E010E1C6E010E1D6E05ECCC
:100A680014F0020E116E320E5FEC16F0D3C015F0C2
:100A7800166A520E176E000E186E80EC10F0520EA9
:100A88001A6E000E1B6E010E1C6E010E1D6E05EC1B
:100A980014F0520E076E000E086E000E0A6E000E5D
:100AA800096E000E0C6E030E0B6E56EC07F0030E6B
:100AB800116E000E5FEC16F08A0E1A6E7F0E1B6E1A
:100AC800010E1C6E010E1D6E05EC14F0030E116E66
:100AD800410E5FEC16F0D4C015F0166A520E176E70
:100AE800000E186E80EC10F0520E1A6E000E1B6E7F
:100AF800010E1C6E010E1D6E05EC14F0520E076EF1
:100B0800000E086E000E0A6E000E096E000E0C6EC6
:100B1800030E0B6E56EC07F0040E116E000E5FEC20
:100B280016F0B90E1A6E7F0E1B6E010E1C6E010EAA
:100B38001D6E05EC14F0040E116E370E5FEC16F006
:100B4800D5C015F0166A520E176E000E186E80EC9E
:100B580010F0520E1A6E000E1B6E010E1C6E010E66
:100B68001D6E05EC14F0520E076E000E086E000E96
:100B78000A6E000E096E000E0C6E030E0B6E56EC1C
:100B880007F0050E116E000E5FEC16F09C0E1A6E43
:100B98007F0E1B6E010E1C6E010E1D6E05EC14F00F
:100BA800050E116E3C0E5FEC16F0D8C015F0166AF3
:100BB800520E176E000E186E80EC10F0520E1A6E60
:100BC800000E1B6E010E1C6E010E1D6E05EC14F05E
:100BD800520E076E000E086E000E0A6E000E096EA9
:100BE800000E0C6E030E0B6E56EC07F0060E116E1F
:100BF800000E5FEC16F0EE0E1A6E7F0E1B6E010EE5
:100C08001C6E010E1D6E05EC14F0060E116E1E0E04
:100C18005FEC16F0D2C015F0166A520E176E000E71
:100C2800186E80EC10F0520E1A6E000E1B6E010E3C
:100C38001C6E010E1D6E05EC14F0520E076E000EB0
:100C4800086E000E0A6E000E096E000E0C6E030E82
:100C58000B6E56EC07F082A234EF06F036EF06F082
:100C68003CEF06F0000E1F6E010E1E6E3CEF06F004
:100C78001E041F10D8B443EF06F045EF06F050EFFE
:100C880006F082A24AEF06F04CEF06F026EF05F0D8
:100C980050EF06F050EF06F0000EA9EC13F012002A
:100CA8009D90000EA9EC13F0E4EC15F01E0E000167
:100CB800D96F280EDA6F000E186E010E196ED9C0A2
:100CC8001AF01B6ADAC01CF01D6A000E1F6E090EAE
:100CD8001E6E000E216E0E0E206E000E236E010E8B
:100CE800226ED4EC0AF079EF06F026EC12F009EC4B
:100CF80000F082A282EF06F084EF06F088EF06F09B
:100D080035EC08F088EF06F055C015F056C016F01F
:100D1800520E176E000E186E80EC10F0000E116E59
:100D2800640E5FEC16F0520E1A6E000E1B6E010E6A
:100D38001C6E010E1D6E05EC14F056BEAFEF06F0EA
:100D4800565007E1060E555CD8B0ADEF06F0AFEF90
:100D580006F0C0EF06F056BEBCEF06F0565006E1AE
:100D68005504D8B0BAEF06F0BCEF06F079EF06F0FC
:100D7800C0EF06F0C0EF06F055505610D8A4C7EFE4
:100D880006F0C9EF06F00AEF07F0CBEF06F0000E09
:100D9800116E000E5FEC16F0E40E1A6E7F0E1B6EDD
:100DA800010E1C6E010E1D6E05EC14F0040E116E82
:100DB800000E5FEC16F0A40E1A6E7F0E1B6E010E6D
:100DC8001C6E010E1D6E05EC14F0060E116E000E61
:100DD8005FEC16F0DF0E1A6E7F0E1B6E010E1C6E96
:100DE800010E1D6E05EC14F082A0FDEF06F0FFEF7A
:100DF80006F0CBEF06F0000E566E030E556E9D8082
:100E08000AEF07F0CBEF06F00AEF07F0060E5518C9
:100E18005610D8A412EF07F014EF07F055EF07F0BB
:100E280016EF07F0000E116E000E5FEC16F0F30ED1
:100E38001A6E7F0E1B6E010E1C6E010E1D6E05ECE8
:100E480014F0040E116E000E5FEC16F0A40E1A6E6C
:100E58007F0E1B6E010E1C6E010E1D6E05EC14F04C
:100E6800060E116E000E5FEC16F0DF0E1A6E7F0E86
:100E78001B6E010E1C6E010E1D6E05EC14F082A097
:100E880048EF07F04AEF07F016EF07F0000E566E2E
:100E9800030E556E9D8055EF07F016EF07F055EFDE
:100EA80007F0120007C013F008C014F00B500C1024
:100EB800D8A461EF07F063EF07F067EF07F034EFAE
:100EC80008F034EF08F013C0D9FF14C0DAFF09C0E6
:100ED800DFFFFF0E0D6EFF0E0E6E0BC00FF00CC085
:100EE80010F00D500F260E5010220F501324D96EFB
:100EF80010501420DA6E09C0DFFF0C5007E1030E12
:100F08000B5CD8B08AEF07F08CEF07F090EF07F092
:100F180034EF08F034EF08F020EE01F01350D92632
:100F28001450DA2209C0DFFF20EE02F01350D92650
:100F38001450DA2209C0DFFFFE0E0D6EFF0E0E6E92
:100F48000BC00FF00CC010F00D500F260E501022E1
:100F58000F501324D96E10501420DA6E09C0DFFF29
:100F6800FD0E0D6EFF0E0E6E0BC00FF00CC010F0D4
:100F78000D500F260E5010220F501324D96E10500A
:100F88001420DA6E09C0DFFF0C5007E1070E0B5C76
:100F9800D8B0D1EF07F0D3EF07F0D7EF07F034EF71
:100FA80008F034EF08F020EE03F01350D92614505F
:100FB800DA2209C0DFFFFC0E0D6EFF0E0E6E0BC0AD
:100FC8000FF00CC010F00D500F260E5010220F50CD
:100FD8001324D96E10501420DA6E09C0DFFF0C50AC
:100FE80007E1090E0B5CD8B0FCEF07F0FEEF07F045
:100FF80002EF08F034EF08F034EF08F013C00DF0FA
:1010080014C00EF00D1E0E1E0D4A0E2A030E0D14EE
:10101800116E126A115013261250142211500B5ED1
:1010280012500C5AFC0E0B16FF0E0C1629EF08F086
:1010380013C0D9FF14C0DAFF09C0DFFF0B06D8A020
:101048000C06134A142A29EF08F00B500C10D8A4E8
:1010580030EF08F032EF08F01CEF08F034EF08F03A
:101068001200000E3D6E000E3C6E000E3B6E000E30
:101078003A6E010E5524556E000E5620566E000E1F
:10108800116E640E5FEC16F055C015F056C016F0E0
:10109800520E176E000E186E80EC10F0520E1A6E7B
:1010A800000E1B6E010E1C6E010E1D6E05EC14F079
:1010B800520E076E000E086E000E0A6E000E096EC4
:1010C800000E0C6E030E0B6E56EC07F0A5EF08F041
:1010D80026EC12F0000E186E010E196ED9C01AF027
:1010E8001B6ADAC01CF01D6A000E1F6E090E1E6E08
:1010F800000E216E0E0E206E000E236E000E226E64
:10110800D4EC0AF0040E0001DA5F000E186E010E2E
:10111800196ED9C01AF01B6ADAC01CF01D6A000EDD
:101128001F6E090E1E6E000E216E0E0E206E000E32
:10113800236E010E226ED4EC0AF03C4A3D2AA5EF3C
:1011480008F0050E3C183D10D8A4ADEF08F0AFEF3D
:1011580008F06CEF08F0EEEF08F0EEEF08F026EC80
:1011680012F0000E186E010E196ED9C01AF01B6A23
:10117800DAC01CF01D6A000E1F6E090E1E6E000EEE
:10118800216E0E0E206E000E236E000E226ED4EC21
:101198000AF0040E0001DA27000E186E010E196E0F
:1011A800D9C01AF01B6ADAC01CF01D6A000E1F6E47
:1011B800090E1E6E000E216E0E0E206E000E236E9E
:1011C800010E226ED4EC0AF026EC12F03C4A3D2ABD
:1011D800EEEF08F00A0E3C183D10D8A4F6EF08F020
:1011E800F8EF08F0B3EF08F0FAEF08F01200156E08
:1011F800000E176E0A0E1518D8A405EF09F007EFB0
:1012080009F00EEF09F0000E516E502A9CEF09F01C
:101218009CEF09F03F0E516414EF09F016EF09F046
:101228001DEF09F0010E176E5150C00F146E21EF1B
:1012380009F051C014F021EF09F0200E155E000EE0
:10124800166E020E16642BEF09F02DEF09F031EF40
:1012580009F09AEF09F09AEF09F03F0E146437EF9E
:1012680009F039EF09F04DEF09F0400E145E010E58
:10127800176E8A94145040090F6E1750F5EC16F04B
:101288005050B8090F6E1750F5EC16F08A844DEFE0
:1012980009F01150D8B453EF09F055EF09F071EF88
:1012A80009F01550030DBF0E126E7E0E136EF3502B
:1012B8001226F45013221650010DF3501226F45042
:1012C800132212C0F6FF13C0F7FF0800F5CF0FF086
:1012D8001750F5EC16F08EEF09F01550030DBF0E00
:1012E800126E7E0E136EF3501226F450132216500F
:1012F800010DF3501226F450132212C0F6FF13C04A
:10130800F7FF0800F550FF0A0F6E1750F5EC16F0BE
:101318008EEF09F0142A162A020E166496EF09F0C9
:1013280098EF09F031EF09F09AEF09F0050E512610
:10133800120006009EA0A3EF09F0A5EF09F0ABEF9D
:1013480009F04E4A4F2A9D809E90ABEF09F04EC09F
:1013580001F04FC002F0000E046EC80E036E14ECCC
:1013680010F001500210D8A4BCEF09F0BEEF09F04C
:10137800CFEF09F00A0E0001D35FD351D8A4C7EF0D
:1013880009F0C9EF09F0CFEF09F0000ED66FCFEFE3
:1013980009F0CFEF09F04EC001F04FC002F0000E87
:1013A800046E960E036E14EC10F001500210D8A4CF
:1013B800E0EF09F0E2EF09F008EF0AF00001D407C6
:1013C800D807D507D451D8A4ECEF09F0EEEF09F00F
:1013D800F0EF09F0000ED66FD851D8A4F6EF09F057
:1013E800F8EF09F0FAEF09F0000ED86FD551D8A43C
:1013F80000EF0AF002EF0AF008EF0AF0000ED56FCE
:1014080008EF0AF008EF0AF00001D705D8A40FEF9B
:101418000AF011EF0AF021EF0AF01E0E4E184F10D5
:10142800D8A419EF0AF01BEF0AF021EF0AF0000E1A
:10143800D76F21EF0AF021EF0AF04EC001F04FC03C
:1014480002F0010E046EF40E036E14EC10F001505D
:101458000210D8A432EF0AF034EF0AF03CEF0AF099
:10146800BEEC17F0000E4F6E000E4E6E3CEF0AF009
:1014780059921100146E000E196E0A0E1418D8A491
:1014880048EF0AF04AEF0AF051EF0AF0000E516EE9
:10149800502AD3EF0AF0D3EF0AF03F0E516457EF0A
:1014A8000AF059EF0AF060EF0AF0010E196E515078
:1014B800C00F176E64EF0AF051C017F064EF0AF01E
:1014C8001450080DF3CF15F0F4CF16F0000E186E77
:1014D800070E186472EF0AF074EF0AF078EF0AF05A
:1014E800D1EF0AF0D1EF0AF03F0E17647EEF0AF051
:1014F80080EF0AF094EF0AF0400E175E010E196EA5
:101508008A94175040090F6E1950F5EC16F0505098
:10151800B8090F6E1950F5EC16F08A8494EF0AF0AA
:101528001150D8B49AEF0AF09CEF0AF0B0EF0AF025
:1015380018501524126E000E1620136EBF0E1224BA
:10154800F66E720E1320F76E0800F5CF0FF01950E3
:10155800F5EC16F0C5EF0AF018501524126E000EBF
:101568001620136EBF0E1224F66E720E1320F76E3D
:101578000800F550FF0A0F6E1950F5EC16F0C5EF8C
:101588000AF0172A182A070E1864CDEF0AF0CFEFD1
:101598000AF078EF0AF0D1EF0AF0080E512612008F
:1015A800000E2A6E000E296E000E2C6E000E2B6E99
:1015B800000E286E000E276E1CC029F01DC02AF0F0
:1015C8004FEF0BF01AC02BF01BC02CF034EF0BF0D0
:1015D80027501824D96E28501920DA6EDF50D8B455
:1015E800F8EF0AF0FAEF0AF00CEF0BF022042310E0
:1015F800D8A401EF0BF003EF0BF00CEF0BF029C0B0
:1016080011F0010E126E2B503BEC0FF02EEF0BF089
:1016180027501824D96E28501920DA6EDF50D8B414
:1016280018EF0BF01AEF0BF02EEF0BF022502310EF
:10163800D8A421EF0BF023EF0BF02EEF0BF029C00D
:1016480011F0000E126E2B503BEC0FF02EEF0BF04A
:101658002EEF0BF0274A282A2B4A2C2A34EF0BF0BE
:1016680020501A24246E21501B20256E24502B5CF8
:101678002C50800A266E2550800A2658D8A047EF9D
:101688000BF049EF0BF0ECEF0AF04BEF0BF0294AA7
:101698002A2A4FEF0BF01E501C24246E1F501D20C9
:1016A800256E2450295C2A50800A266E2550800A0F
:1016B8002658D8A062EF0BF064EF0BF0E6EF0AF0C3
:1016C80066EF0BF012002D2806E12E28D8A46FEF44
:1016D8000BF071EF0BF08DEF0BF0640E186E000E2F
:1016E800196E000E1B6E0C0E1A6E000E1D6E0A0E81
:1016F8001C6E000E1F6E030E1E6E000E216E0A0E6B
:10170800206E2FC022F030C023F0D4EC0AF0EFEFA7
:101718000BF02EBE9BEF0BF02E5007E1040E2D5C54
:10172800D8B099EF0BF09BEF0BF0C4EF0BF0640E01
:10173800186E000E196E2DC031F02EC032F0050E55
:10174800D89031363236E82EA4EF0BF00C0E312447
:101758001A6E000E32201B6E000E1D6E0A0E1C6ED5
:10176800000E1F6E030E1E6E000E216E0A0E206EF6
:101778002FC022F030C023F0D4EC0AF0EFEF0BF0CA
:10178800640E186E000E196E2DC031F02EC032F0A6
:10179800050ED89031363236E82ECDEF0BF08C0E90
:1017A80031241A6EFF0E32201B6E000E1D6E320E93
:1017B8001C6E000E1F6E030E1E6E000E216E0A0EAA
:1017C800206E2FC022F030C023F0D4EC0AF0EFEFE7
:1017D8000BF0EFEF0BF01200F00EF66E060EF76E40
:1017E800000EF86E04EEEEF013EE0EF00900F5CFE1
:1017F800EEFFE550E150FAE1E250F8E1DE0EF66E58
:101808001A0EF76E000EF86E04EE00F010EEEEF011
:101818000900F5CFEEFFE550E150FAE1F00EF66E63
:10182800190EF76E000EF86E03EE00F010EEEEF0F3
:101838000900F5CFEEFFE550E150FAE1B80EF66E7B
:101848001C0EF76E000EF86E02EE00F010EEE4F0DB
:101858000900F5CFEEFFE550E150FAE1100EF66E03
:10186800250EF76E000EF86E01EE00F010EEC2F0D5
:101878000900F5CFEEFFE550E150FAE14C0EF66EA7
:101888002C0EF76E000EF86E00EE60F010EE72F09F
:101898000900F5CFEEFFE550E150FAE1A20EF66E31
:1018A8002F0EF76E000EF86E00EE55F010EE04F0F5
:1018B8000900F5CFEEFFE550E150FAE100EED2F075
:1018C800150EEE6AE806FDE100EE4EF0070EEE6A30
:1018D800E806FDE159905992000EF86E00015AEFA2
:1018E80014F0EE0E186E040E196E000E1B6E340EF8
:1018F8001A6E000E1D6E170E1C6E000E1F6E180E4F
:101908001E6E000E216E220E206E000E236E010E3A
:10191800226ED4EC0AF0000E186E030E196E000E3B
:101928001B6E340E1A6E000E1D6E170E1C6E000E06
:101938001F6E070E1E6E000E216E220E206E000E08
:10194800236E010E226ED4EC0AF0C20E186E000E41
:10195800196E000E1B6E4B0E1A6E000E1D6E230EB6
:101968001C6E000E1F6E020E1E6E000E216E080EFB
:10197800206E000E236E010E226ED4EC0AF07E0E4D
:10198800186E010E196E000E1B6E580E1A6E000EA0
:101998001D6E140E1C6E000E1F6E060E1E6E000EBF
:1019A800216E060E206E000E236E010E226ED4EC00
:1019B8000AF0B20E186E000E196E000E1B6E5F0E46
:1019C8001A6E000E1D6E120E1C6E000E1F6E040E97
:1019D8001E6E000E216E040E206E000E236E010E88
:1019E800226ED4EC0AF01200000000000000000093
:1019F80000000000000000000000000101010101DA
:101A080000000101010100000000000000000000CA
:101A180000000000000000000000000000010000BD
:101A280000010000010000010000000000000000AB
:101A3800000000000000000000000000000000019D
:101A4800010000010000010000010000000000008A
:101A5800000000000000000000000000000000007E
:101A6800000001000001000001000001000000006A
:101A7800000000000000000000000000000000005E
:101A8800000000000100000100000100000100004A
:101A9800000000000000000000000000000000003E
:101AA800000000000000010000010000010000012A
:101AB800000000000000000000000000000000001E
:101AC800000000000000000001000001000001000B
:101AD80000010100000000000000000000000000FC
:101AE80000000000000000000000000000000000EE
:101AF80000000000000000000000000000000000DE
:101B080000000000000000000000000101010101C8
:101B180000010101010100000000000000000000B8
:101B280000000000000000000000000000010000AC
:101B3800000100010000000100000000000000009A
:101B4800000000000000000000000000000000018C
:101B58000100000100010100000100000000000078
:101B6800000000000000000000000000000000006D
:101B78000000010000010000010000010000000059
:101B8800000000000000000000000000000000004D
:101B98000000000001000001000001000001000039
:101BA800000000000000000000000000000000002D
:101BB8000000000000000100000100000100000119
:101BC80001000000000E0C6E0ABEEFEF0DF0EDEF05
:101BD8000DF0F7EF0DF0096C0A1ED8B00A2A010EB5
:101BE8000C6EF7EF0DF008BEFEEF0DF0FCEF0DF0F8
:101BF80006EF0EF0076C081ED8B0082A010E0C1A62
:101C080006EF0EF0000E0E6E000E0D6E09500A1053
:101C1800D8B411EF0EF013EF0EF047EF0EF0010EEF
:101C28000B6E1DEF0EF0D89009360A360B2A1DEF01
:101C38000EF00AAE22EF0EF024EF0EF017EF0EF0C2
:101C480028EF0EF028EF0EF0D8900D360E3609501A
:101C5800075C0A500858D8A034EF0EF036EF0EF0A3
:101C68003DEF0EF00950075E0A50085A0D803DEF0F
:101C78000EF0D8900A3209320B2E28EF0EF047EFFB
:101C88000EF047EF0EF00C50D8B44DEF0EF04FEFBA
:101C98000EF055EF0EF00D6C0E1ED8B00E2A55EF53
:101CA8000EF00DC007F00EC008F05BEF0EF012004A
:101CB800000000000000000000000000000000001C
:101CC800000000000001000000000000000000000B
:101CD80000000101010000000000000000000001F8
:101CE80001010101000000000000000001010101E4
:101CF80001010100000000000001010001010100D4
:101D080001010000000000010100000100000101C4
:101D180000000000010101010101010101010100B0
:101D280000000101010100000001010101000000A3
:101D3800000100000000000000000000000000009A
:101D48000000000000010101000001010100000085
:101D58000001010100000000000000000000000078
:101D68000000000000000001010100000101010065
:101D7800000001000000000000000000000000005A
:101D88000000000000000000000101010000010146
:101D980001000000000EA9EC13F0000E116E000EF9
:101DA8005FEC16F0B20E1A6E7F0E1B6E010E1C6EE3
:101DB800010E1D6E05EC14F0010E116E000E5FECA5
:101DC80016F0D30E1A6E7F0E1B6E010E1C6E010EDE
:101DD8001D6E05EC14F0010E116E290E5FEC16F065
:101DE800CD0E1A6E7F0E1B6E010E1C6E010E1D6E3F
:101DF80005EC14F0030E116E000E5FEC16F0AB0E3E
:101E08001A6E7F0E1B6E010E1C6E010E1D6E05EC08
:101E180014F0030E116E2F0E5FEC16F0E90E1A6E19
:101E28007F0E1B6E010E1C6E010E1D6E05EC14F06C
:101E3800040E116E000E5FEC16F0C70E1A6E7F0EC0
:101E48001B6E010E1C6E010E1D6E05EC14F0050EC6
:101E5800116E000E5FEC16F0F70E1A6E7F0E1B6EF9
:101E6800010E1C6E010E1D6E05EC14F01200156EAD
:101E7800000E176E3F0E156444EF0FF046EF0FF09B
:101E88004CEF0FF0400E155E010E176E4CEF0FF081
:101E98008A94159E158C15C00FF01750F5EC16F0A6
:101EA80011C007F0086A000E0A6E080E096EE6EC0B
:101EB8000DF00750BF0BB8090F6E1750F5EC16F070
:101EC8008A84175018EC17F0175018EC17F0166E94
:101ED8008A9415C00FF01750F5EC16F01250D8B4CC
:101EE80078EF0FF07AEF0FF08DEF0FF011C013F0CD
:101EF800070E1316010E146E132A85EF0FF0D890F3
:101F08001436132E83EF0FF014501610166EA1EF2F
:101F18000FF011C013F0070E1316010E146E132ADA
:101F280098EF0FF0D8901436132E96EF0FF0145048
:101F3800FF0A1614166EA1EF0FF08A8416C00FF070
:101F48001750F5EC16F01200000E0C6E08BEB1EF3B
:101F58000FF0AFEF0FF0B9EF0FF0076C081ED8B015
:101F6800082A010E0C6EB9EF0FF00ABEC0EF0FF091
:101F7800BEEF0FF0C6EF0FF0096C0A1ED8B00A2AA0
:101F8800C6EF0FF009500A10D8B4CDEF0FF0CFEF1D
:101F98000FF0FFEF0FF0010E0B6ED9EF0FF0D89096
:101FA80009360A360B2AD9EF0FF00AAEDEEF0FF02A
:101FB800E0EF0FF0D3EF0FF0E4EF0FF0E4EF0FF0E6
:101FC8000950075C0A500858D8A0EDEF0FF0EFEF62
:101FD8000FF0F5EF0FF00950075E0A50085AF5EFB9
:101FE8000FF0D8900A3209320B2EE4EF0FF0FFEF12
:101FF8000FF0FFEF0FF00C50D8B405EF10F007EF1B
:1020080010F00DEF10F0076C081ED8B0082A0DEF7D
:1020180010F007C007F008C008F013EF10F0120026
:10202800000E066E02BE1DEF10F01BEF10F025EF3C
:1020380010F0016C021ED8B0022A010E066E25EFC0
:1020480010F004BE2CEF10F02AEF10F032EF10F071
:10205800036C041ED8B0042A32EF10F003500410A9
:10206800D8B439EF10F03BEF10F06BEF10F0010E21
:10207800056E45EF10F0D89003360436052A45EF73
:1020880010F004AE4AEF10F04CEF10F03FEF10F0F4
:1020980050EF10F050EF10F00350015C045002585C
:1020A800D8A059EF10F05BEF10F061EF10F003507B
:1020B800015E0450025A61EF10F0D89004320332E6
:1020C800052E50EF10F06BEF10F06BEF10F006508C
:1020D800D8B471EF10F073EF10F079EF10F0016CD5
:1020E800021ED8B0022A79EF10F001C001F002C038
:1020F80002F07FEF10F0120015C019F016C01AF0A8
:102108001ABE8BEF10F089EF10F091EF10F0156CFC
:10211800161ED8B0162A91EF10F0000E1C6E000E95
:102128001B6E97EF10F01B501724D96E1C50182007
:10213800DA6E15C007F016C008F0000E0A6E0A0E17
:10214800096EA8EC0FF00750300FDF6E1B4A1C2AEF
:1021580015C007F016C008F0000E0A6E0A0E096EC8
:10216800E6EC0DF007C015F008C016F016BEC7EF74
:1021780010F0165006E11504D8B0C5EF10F0C7EFFF
:1021880010F097EF10F0C9EF10F01ABED0EF10F072
:10219800CEEF10F0DCEF10F01B501724D96E1C5056
:1021A8001820DA6E2D0EDF6E1B4A1C2ADCEF10F0A9
:1021B8001B501724D96E1C501820DA6E000EDF6EE3
:1021C80017C00DF018C00EF09BEC15F01200000EB1
:1021D800126E000E116E000E146E070E1464F7EFE7
:1021E80010F0F9EF10F0FDEF10F053EF11F053EF8E
:1021F80011F0000E156E010E156405EF11F007EFD2
:1022080011F00BEF11F04AEF11F04AEF11F08A9438
:10221800400E0F6E1550F5EC16F01450B8090F6EFD
:102228001550F5EC16F08A84000E136E3F0E1364F9
:1022380020EF11F022EF11F026EF11F03FEF11F02F
:102248003FEF11F0BF0E1124F66E7A0E1220F76ED2
:102258000800F5CF0FF01550F5EC16F0114A122AC8
:10226800132A3F0E13643BEF11F03DEF11F026EFF8
:1022780011F03FEF11F0152A010E156446EF11F029
:1022880048EF11F00BEF11F04AEF11F0142A070E86
:10229800146451EF11F053EF11F0FDEF10F08A9034
:1022A8008A92120082B25BEF11F05DEF11F056EFE7
:1022B80011F05FEF11F048504910D8A466EF11F003
:1022C80068EF11F06CEF11F03BEC17F06CEF11F0C8
:1022D80048044910D8A473EF11F075EF11F079EFA5
:1022E80011F09DEC17F079EF11F0020E4818491023
:1022F800D8A481EF11F083EF11F087EF11F0AEEC65
:1023080017F087EF11F0030E48184910D8A48FEF83
:1023180011F091EF11F097EF11F054EC06F059EC31
:1023280017F097EF11F0040E48184910D8A49FEF42
:1023380011F0A1EF11F0A5EF11F0CDEC17F0A5EF1A
:1023480011F0070E48184910D8A4ADEF11F0AFEFFF
:1023580011F0B5EF11F0FFEC04F0B5EF11F0B5EFA7
:1023680011F082B2BAEF11F0BCEF11F0B5EF11F035
:10237800BEEF11F01200156E9268000E806E0F0EFF
:10238800C16E000E936E000E816E000E956E000EEB
:10239800836E000E836E8A9A310E146EB20EE82E8A
:1023A800FED7142EFCD700D08A8A8A988A908A92FF
:1023B8008A94530EE82EFED700F0C00E0F6E000E62
:1023C800F5EC16F0C00E0F6E010EF5EC16F0400E8F
:1023D8000F6E000EF5EC16F0400E0F6E010EF5ECC8
:1023E80016F0B80E0F6E000EF5EC16F0B80E0F6E64
:1023F800010EF5EC16F01504D8A405EF12F007EF5E
:1024080012F016EF12F0000E926E80683F0E0F6EFB
:10241800000EF5EC16F03F0E0F6E010EF5EC16F0FF
:1024280022EF12F03E0E0F6E000EF5EC16F03E0E87
:102438000F6E010EF5EC16F022EF12F0000EA9EC6B
:1024480013F01200E9EC12F0000E396E000E386E2F
:10245800000E396E000E386E74EF12F0DB0E356E1A
:10246800000E366ED8903834D96E3934DA6ED8907A
:10247800D936DA363550D9263650DA22030EDF5EE1
:10248800DB0E356E000E366ED8903834D96E39347E
:10249800DA6ED890D936DA363550D9263650DA225F
:1024A800050EDF605AEF12F05CEF12F070EF12F0D9
:1024B800DB0E356E000E366ED8903834D96E39344E
:1024C800DA6ED890D936DA363550D9263650DA222F
:1024D8006E0EDF6E70EF12F0384A392A74EF12F080
:1024E8005750385C3950800A356E5850800A355834
:1024F800D8A081EF12F083EF12F032EF12F085EFDF
:1025080012F049EC13F01200000000000000000176
:1025180001010001010100000000000000010001AC
:10252800000100010000000000000001000100019E
:102538000001000000010101010100010101000189
:102548000000000100000000000000000001000081
:10255800000100000000000100010001000101016C
:10256800000000000001000100010001000000005F
:10257800000000000000000100010101010101014B
:102588000101010101010101010101010000000037
:10259800010000000001000000000100000000012F
:1025A800000000000101010101010101000000001B
:1025B8000101000101000001010001010100000109
:1025C80001010101010000010101000E346E000E3D
:1025D800336E000E346E000E336E37EF13F0000EBC
:1025E800186E020E196EDB0E2D6E000E2E6ED89030
:1025F8003334D96E3434DA6ED890D936DA362D5071
:10260800D9262E50DA22DF502F6E2F501A6E1B6AF1
:1026180033C030F034C031F0D89030363136D890ED
:1026280030363136010E3026000E3122DB0E3024D2
:10263800D96E000E3120DA6EDF50326E32501C6EC9
:102648001D6A000E1F6E090E1E6E000E216E0E0E04
:10265800206E000E236E000E226ED4EC0AF0334A70
:10266800342A37EF13F05750335C3450800A2D6EFC
:102678005850800A2D58D8A044EF13F046EF13F0B5
:10268800F3EF12F048EF13F01200000E346E000E54
:10269800336E000E346E000E336E97EF13F0000E9B
:1026A800186E020E196EDB0E2D6E000E2E6ED8906F
:1026B8003334D96E3434DA6ED890D936DA362D50B0
:1026C800D9262E50DA22DF502F6E2F501A6E1B6A31
:1026D80033C030F034C031F0D89030363136D8902D
:1026E80030363136010E3026000E3122DB0E302412
:1026F800D96E000E3120DA6EDF50326E32501C6E09
:102708001D6A000E1F6E090E1E6E000E216E0E0E43
:10271800206E000E236E010E226ED4EC0AF0334AAE
:10272800342A97EF13F05750335C3450800A2D6EDB
:102738005850800A2D58D8A0A4EF13F0A6EF13F034
:1027480053EF13F0A8EF13F01200116E000E136E82
:10275800070E1364B2EF13F0B4EF13F0B8EF13F0F1
:1027680004EF14F004EF14F08A94400E0F6E000E7C
:10277800F5EC16F0400E0F6E010EF5EC16F0135046
:10278800B8090F6E000EF5EC16F01350B8090F6E6D
:10279800010EF5EC16F08A84000E126E3F0E1264DC
:1027A800D8EF13F0DAEF13F0DEEF13F0F9EF13F0D0
:1027B800F9EF13F01150010DF35000080F6E000EE1
:1027C800F5EC16F01150010DF35000080F6E010ED4
:1027D800F5EC16F0122A3F0E1264F5EF13F0F7EF3E
:1027E80013F0DEEF13F0F9EF13F0132A070E13645A
:1027F80000EF14F002EF14F0B8EF13F004EF14F048
:1028080012003FEF14F01C50D8B40DEF14F00FEF86
:1028180014F025EF14F01DC011F01AC0F6FF1BC00C
:10282800F7FFF86A070EF76403D00800F55005D0E3
:10283800F6CFE1FFF7CFE2FFE7503EEC0AF03BEFBF
:1028480014F01DC011F01AC0F6FF1BC0F7FFF86A9C
:10285800070EF76403D00800F55005D0F6CFE1FF66
:10286800F7CFE2FFE750FBEC08F03BEF14F01A4A11
:102878001B2A3FEF14F01AC0F6FF1BC0F7FFF86AD7
:10288800070EF76403D00800F55005D0F6CFE1FF36
:10289800F7CFE2FFE7500009D8A455EF14F057EF3F
:1028A80014F007EF14F059EF14F012000F0EC16E78
:1028B8009568000E836E070E946E000E826ECD80B2
:1028C800CD92CD9ACD98F28C9D809E90F28E000E7E
:1028D8004D6E010E4C6E010EBFEC11F0A1EF14F01D
:1028E80075EC17F0CEEC0EF00B0E4B6E260E4A6E02
:1028F8005E0EE82EFED74A2EFCD74B2EFAD7C1EC37
:1029080001F00B0E4B6E260E4A6E5E0EE82EFED7B9
:102918004A2EFCD74B2EFAD70001D651D8A497EFF0
:1029280014F099EF14F0A1EF14F0000E4D6E000EA4
:102938004C6EA1EF14F0A1EF14F04C044D10D8B474
:10294800A8EF14F0AAEF14F074EF14F0ACEF14F041
:1029580007EF00F0EE0E186E040E196E000E1B6ED7
:10296800340E1A6E000E1D6E170E1C6E000E1F6EB2
:10297800180E1E6E000E216E220E206E000E236EA3
:10298800010E226ED4EC0AF0000E186E030E196EBA
:10299800000E1B6E340E1A6E000E1D6E170E1C6E86
:1029A800000E1F6E070E1E6E000E216E220E206E88
:1029B800000E236E010E226ED4EC0AF0A20E186EE1
:1029C800010E196E000E1B6E4B0E1A6E000E1D6E58
:1029D800210E1C6E000E1F6E040E1E6E000E216E60
:1029E800080E206E000E236E010E226ED4EC0AF043
:1029F8001200EE0E186E040E196E000E1B6E340EC9
:102A08001A6E000E1D6E170E1C6E000E1F6E180E2D
:102A18001E6E000E216E220E206E000E236E010E19
:102A2800226ED4EC0AF0000E186E030E196E000E1A
:102A38001B6E340E1A6E000E1D6E170E1C6E000EE5
:102A48001F6E070E1E6E000E216E220E206E000EE7
:102A5800236E010E226ED4EC0AF09A0E186E000E48
:102A6800196E000E1B6E4B0E1A6E000E1D6E210E97
:102A78001C6E000E1F6E030E1E6E000E216E080ED9
:102A8800206E000E236E010E226ED4EC0AF01200A6
:102A9800EE0E186E040E196E000E1B6E340E1A6EB2
:102AA800000E1D6E170E1C6E000E1F6E180E1E6E89
:102AB800000E216E220E206E000E236E010E226E75
:102AC800D4EC0AF0000E186E030E196E000E1B6E81
:102AD800340E1A6E000E1D6E170E1C6E000E1F6E41
:102AE800070E1E6E000E216E220E206E000E236E43
:102AF800010E226ED4EC0AF07E0E186E020E196ECC
:102B0800000E1B6E340E1A6E000E1D6E210E1C6E0A
:102B1800000E1F6E030E1E6E000E216E220E206E1A
:102B2800000E236E010E226ED4EC0AF01200000E85
:102B3800126E000E116E0DC007F00EC008F0CCEC3E
:102B480016F0FF0E0724136EFF0E0820146ED2EF46
:102B580015F011500D24D96E12500E20DA6EDF5088
:102B6800106E13500D24D96E14500E20DA6E1150C9
:102B78000D24E16E12500E20E26EDFCFE7FF1350F6
:102B88000D24D96E14500E20DA6E10C0DFFF114AE2
:102B9800122A1306D8A01406D2EF15F01350115CB0
:102BA8001250800A0F6E1450800A0F58D8A0DFEF19
:102BB80015F0E1EF15F0ADEF15F0E3EF15F01200A9
:102BC800640E126E000E146E000E136E000E146E5C
:102BD800000E136E14EF16F0280E076E125089ECD3
:102BE80017F0DB0E106E000E116ED8901334D96EEC
:102BF8001434DA6ED890D936DA361050D9261150F6
:102C0800DA2207C0DEFF08C0DEFF09C0DEFF0AC007
:102C1800DEFF12503C0F126E134A142A14EF16F0FE
:102C28005750135C1450800A106E5850800A105880
:102C3800D8A021EF16F023EF16F0F0EF15F025EFEE
:102C480016F0120008000D00010101010101010147
:102C5800010101010101010101010101010101015C
:102C68000101010101010100000000010001000053
:102C78000100000001010000000001010000010046
:102C88000100000100010001000000000100010036
:102C98000100000100010101010100000100000123
:102CA8000000010101010101010000010101010110
:102CB800010000010101136E000E126E800E1360F8
:102CC80068EF16F06AEF16F096EF16F0070E11642B
:102CD80070EF16F072EF16F076EF16F096EF16F02A
:102CE80096EF16F013C051F011C050F03F0E136468
:102CF80080EF16F082EF16F088EF16F0400E135EA4
:102D0800010E126E88EF16F08A94135040090F6E68
:102D18001250F5EC16F01150B8090F6E1250F5EC80
:102D280016F08A841200000E186E020E196E000E3C
:102D38001B6E1E0E1A6E000E1D6E250E1C6E000EEA
:102D48001F6E090E1E6E000E216E0E0E206E000EF6
:102D5800236E010E226ED4EC0AF0820E186E000E5D
:102D6800196E000E1B6E200E1A6E000E1D6E200EC0
:102D78001C6E000E1F6E040E1E6E000E216E060ED7
:102D8800206E000E236E010E226ED4EC0AF01200A3
:102D980007C00BF008C00CF0D6EF16F0074A082A57
:102DA800D6EF16F007C0D9FF08C0DAFFDF50D8A465
:102DB800E0EF16F0E2EF16F0D2EF16F0E4EF16F0BF
:102DC8000BC009F00CC00AF0091E0A1E094A0A2A9B
:102DD80007500924076E08500A20086EF4EF16F011
:102DE8001200106E1050D8B4FCEF16F0FEEF16F07B
:102DF80002EF17F08A808A9206EF17F08A928A8289
:102E080006EF17F0000E956E8A960FC08CFF8A8821
:102E1800080EE82EFED700F08A98080EE82EFED796
:102E280000F08A908A921200076E0750D8B41FEFFC
:102E380017F021EF17F025EF17F08A808A9227EF15
:102E480017F08A928A8295688A868A88080EE82E00
:102E5800FED700F083CF08F08A98080EE82EFED738
:102E680000F08A908A9208503AEF17F01200140E78
:102E78000001D327640ED36544EF17F046EF17F02F
:102E88004AEF17F0640ED36F4AEF17F01E0ED85FA3
:102E9800D851D8A452EF17F054EF17F058EF17F0A5
:102EA800000ED86F58EF17F012000A0E0001D45F19
:102EB80062EF17F0000ED46F62EF17F00A0ED35FBF
:102EC8006AEF17F0000ED36F6AEF17F00A0ED85F9B
:102ED80072EF17F0000ED86F72EF17F09DEC17F035
:102EE8001200010E0001D26F500ED36F500ED46F36
:102EF800500ED56F010ED66F3C0ED96F3C0EDA6FAF
:102F0800000ED76F5A0ED86F12000B6E0BC00CF064
:102F180007C00DF0090E0E6E0A0E0F6E0CC007F0FA
:102F28000DC008F00EC009F00FC00AF09CEF17F0B2
:102F380012000001D551140FD56F640ED565A7EFA7
:102F480017F0A9EF17F0ADEF17F0640ED56FADEFDE
:102F580017F012001E0E0001D427640ED465B7EFD7
:102F680017F0B9EF17F0BBEF17F0640ED46F010E2E
:102F7800D76F12000001D22B630ED265C6EF17F08F
:102F8800C8EF17F0CCEF17F0000ED66FCCEF17F0A4
:0E2F98001200640E0001D86F12000300020048
:1072BE0000000000000000000000000000000000C0
:1072CE0000000000000000000000000000000000B0
:1072DE0000000000000000000000000000000000A0
:1072EE000000000000000000000000000000000090
:1072FE000000000000000000000000000000000080
:10730E00000000000000000000000000000000006F
:10731E00000000000000000000000000000000005F
:10732E00000000000000000000000000000000004F
:10733E00000000000000000000000000000000003F
:10734E00000000000000000000000000000000002F
:10735E00000000000000000000000000000000001F
:10736E00000000000000000000000000000000000F
:10737E0000000000000000000000000000000000FF
:10738E0000000000000000000000000000000000EF
:10739E0000000000000000000000000000000000DF
:1073AE0000000000000000000000000000000000CF
:1073BE0000000000000000000000065F5F060000F5
:1073CE00000007070007070000147F7F147F7F145B
:1073DE0000242E6B6B3A120000466630180C666263
:1073EE0000307A4F5D377A48000407030000000032
:1073FE0000001C3E63410000000041633E1C000083
:10740E0000082A3E1C1C3E2A0808083E3E080800BA
:10741E00000080E06000000000080808080808006E
:10742E000000006060000000006030180C060301D0
:10743E00003E7F71594D7F3E0040427F7F404000AD
:10744E0000627359496F660000226349497F360016
:10745E0000181C16537F7F5000276745457D390065
:10746E00003C7E4B4979300000030371790F070011
:10747E0000367F49497F360000064F49693F1E009E
:10748E000000006666000000000080E66600000056
:10749E0000081C3663410000002424242424240008
:1074AE0000004163361C080000020351590F06000C
:1074BE00003E7F415D5D1F1E007C7E13137E7C00AF
:1074CE0000417F7F49497F36001C3E634141632264
:1074DE0000417F7F41633E1C00417F7F495D4163D8
:1074EE0000417F7F491D0103001C3E6341517372B1
:1074FE00007F7F08087F7F000000417F7F410000F2
:10750E0000307040417F3F0100417F7F081C776350
:10751E0000417F7F41406070007F7F0E1C0E7F7F99
:10752E00007F7F060C187F7F001C3E6341633E1C6C
:10753E0000417F7F49090F06001E3F21717F5E00CB
:10754E0000417F7F09197F6600266F4D5973320007
:10755E000003417F7F410300007F7F40407F7F001B
:10756E00001F3F60603F1F00007F7F3018307F7F1D
:10757E000043673C183C674300074F78784F07007D
:10758E0000476371594D677300007F7F41410000D2
:10759E00000103060C183060000041417F7F00009F
:1075AE0000080C0603060C08008080808080808016
:1075BE00800000030704000000207454543C7840FF
:1075CE0000417F3F4848783000387C44446C2800A6
:1075DE0000307848493F7F4000387C54545C180096
:1075EE0000487E7F490302000098BCA4A4F87C04E6
:1075FE0000417F7F08047C780000447D7D400000C0
:10760E000060E08080FD7D0000417F7F10386C447B
:10761E000000417F7F400000007C7C18381C7C7885
:10762E00007C7C04047C780000387C44447C380068
:10763E000084FCF8A4243C1800183C24A4F8FC8414
:10764E0000447C784C041C1800485C54547424008C
:10765E000000043E7F442400003C7C40403C7C40C3
:10766E00001C3C60603C1C00003C7C7038707C3C14
:10767E0000446C3810386C44009CBCA0A0FC7C000C
:10768E00004C64745C4C64000008083E7741410075
:10769E000000000077770000004141773E080800A7
:1076AE0000020301030203010070784C464C78700F
:1076BE00000E9F91B1FB4A00003A7A40407A7A4020
:1076CE0000387C54555D19000002237555557D7B9D
:1076DE0042217554547D794000217555547C784073
:1076EE0000207457577C784000183CA4A4E4400056
:1076FE0000023B7D55555D1B02397D54545D1900CA
:10770E0000397D55545C18000001457C7C41010018
:10771E00000203457D7D43020001457D7C40000053
:10772E0000797D1612167D790070782B2B787000FB
:10773E0000447C7C5555450000207454547C7C5488
:10774E00547C7E0B097F7F4900327B49497B320096
:10775E0000327A48487A320000327A4A487830004D
:10776E00003A7B41417B7A40003A7A424078784039
:10777E00009ABAA0A0FA7A000001193C66663C197C
:10778E00013D7D40407D3D0000183C24E7E7242468
:10779E0000687E7F49436620002B2FFCFC2F2B00B8
:1077AE0000FFFF09092FF6F8A040C088FE7F0903ED
:1077BE0002207454557D79400000447D7D410000C7
:1077CE00003078484A7A320000387840427A7A405F
:1077DE00007A7A0A0A7A7000007D7D19317D7D006B
:1077EE000000262F292F2F280000262F292F2600B4
:1077FE000030784D45602000003838080808080031
:10780E000008080808383800004F6F3018CCEEBB5F
:10781E00914F6F30186C76FBF90000007B7B0000F7
:10782E0000081C3622081C362222361C0822361C62
:10783E0008AA005500AA005500AA55AA55AA55AA8D
:10784E0055DDFFAA77DDAAFF77000000FFFF0000DD
:10785E0000101010FFFF000000141414FFFF0000B2
:10786E00001010FFFF00FFFF001010F0F010F0F0FE
:10787E0000141414FCFC0000001414F7F700FFFFB2
:10788E00000000FFFF00FFFF001414F4F404FCFCE2
:10789E000014141717101F1F0010101F1F101F1F8A
:1078AE00001414141F1F000000101010F0F0000040
:1078BE00000000001F1F1010101010101F1F1010BE
:1078CE0010101010F0F0101010000000FFFF10103C
:1078DE00101010101010101010101010FFFF1010BC
:1078EE0010000000FFFF1414140000FFFF00FFFF44
:1078FE001000001F1F101717140000FCFC04F4F4F6
:10790E001414141717101717141414F4F404F4F4B1
:10791E00140000FFFF00F7F71414141414141414B9
:10792E00141414F7F700F7F714141414171714148B
:10793E001410101F1F101F1F10141414F4F414141D
:10794E00141010F0F010F0F01000001F1F101F1F89
:10795E00100000001F1F141414000000FCFC14146F
:10796E00140000F0F010F0F0101010FFFF10FFFFE9
:10797E0010141414FFFF1414141010101F1F000005
:10798E0000000000F0F0101010FFFFFFFFFFFFFFE0
:10799E00FFF0F0F0F0F0F0F0F0FFFFFFFF0000005E
:1079AE000000000000FFFFFFFF0F0F0F0F0F0F0F64
:1079BE000F387C446C386C4400FCFE2A2A3E1400BE
:1079CE00007E7E020206060000027E7E027E7E029F
:1079DE000063775D4963630000387C447C3C04049B
:1079EE000080FE7E20203E1E000406027E7C0602E3
:1079FE000099BDE7E7BD9900001C3E6B496B3E1C2C
:107A0E00004C7E7301737E4C0030784A4F7D3900F6
:107A1E0000183C243C3C243C1898FC643C3E273D1A
:107A2E001800000000000000000000000000000030
:107A3E000000000000000000000000000000000038
:107A4E000000000000000000000000000000000028
:107A5E000000000000000000000000000000000018
:107A6E000000000000000000000000000000000008
:107A7E0000000000000000000000000000000000F8
:107A8E0000000000000000000000000000000000E8
:107A9E0000000000000000000000000000000000D8
:107AAE0000000000000000000000000000000000C8
:107ABE000000000000000000000000000F1FF8FF93
:107ACE00F81F0F0000FF3F1E000000000000000026
:107ADE00000000000000000000000000001E3F7FBC
:107AEE00FFFEFCFEFF7F3F1E0000000000000000B6
:107AFE0000000000000000000000000000007CFEFE
:107B0E00FFFFC7838382000000000000000000001A
:107B1E000000000000000000000000000000E0F087
:107B2E00F0F0F0FF0306000000000000000000006F
:107B3E000000000000000000000000000000010135
:107B4E000100000000010000000000000000000025
:107B5E000000000000000000000000000000000017
:107B6E000001010100000000000000000000000004
:107B7E0000000000000000000000000000000000F7
:107B8E0001010101010000000000000000000000E2
:107B9E0000000000000000000000000000000001D6
:107BAE0001010100000000000000000000000000C4
:107BBE0000000000000000000000000000000000B7
:107BCE0000000000000000000000000000000000A7
:107BDE000000000000000000000000000000000097
:107BEE000000000000000000000000000000000087
:107DCE000080000000000000000000000000000025
:107DDE000000000000000000000000000000000095
:107DEE000000000000000000000000000000000085
:107DFE000000000000000000000000000000000075
:107E0E000000000000000000000000000000000064
:107E1E000000000000000000000000000000000054
:107E2E000000000000000000000000000000000044
:107E3E000000000000000004080001E2E0FCFCFC71
:107E4E00FFFFFFFCFCFCE0E0000000000000000073
:107E5E000000000000000000000000000000000014
:107E6E000000000000000000000000000000000004
:107E7E0000000000000000000000000000000000F4
:107E8E0000000000000000000000000000000000E4
:107E9E000000000000000000000000FFFFFFFF8058
:107EAE00FCFCFCFC80E0E0E0E000000000000000D4
:107EBE0000000000005C000C000C7C287C7C447CE4
:107ECE00241048285408000C003844004438002080
:107EDE0010081038108040001010100040002010C4
:107EEE0008384438007C006454484454281C107CE4
:107EFE004C542438542004740C2854280854380048
:107F0E00500080500010284428282844281004547B
:107F1E0008384C5C7814787C54283844447C4438B7
:107F2E007C54447C14043844347C107C007C002047
:107F3E00403C7C106C7C40407C087C7C047C7C4407
:107F4E007C7C14083844787C1468485424047C04DF
:107F5E007C407C3C403C7C207C6C106C1C601C6427
:107F6E00544C7C4400081020447C00080408808097
:107F7E00800408000F0CFF0C0F00FF1E456E65728B
:107F8E006769653A005243323D65786974005072F4
:107F9E006F7072653A006578697420200041524511
:107FAE004E44410050726F6A657400416D6F757278
:107FBE003A0053746174733A005041474553006759
:107FCE006F636869004D6963726F004661696D3A4F
:107FDE000052433020004641494C0052534B490059
:107FEE004167653A0057494E0054414F005249507F
:027FFE00000081
:020000040020DA
:08000000FFFFFFFFFFFFFFFF00
:020000040030CA
:0E000000000C1F1FFF8381FF0FC00FE00F4099
:00000001FF
