:020000040000FA
:0400000007EF00F016
:1000080055823AED0BF076EF0BF0000E19EC08F084
:10001800000E0B6E000EAFEC0BF047EC07F0FF0E76
:10002800286E2768000E2A6E010E296E97EC04F0E0
:10003800000E376E000E366E000E336E000E326EF6
:10004800000E356E000E346EF7EF00F034503510A8
:10005800D8A431EF00F033EF00F0AEEF00F082A04B
:1000680038EF00F03AEF00F064EF00F0000E356E64
:10007800010E346E36C027F037C028F0000E2A6E05
:10008800000E296E97EC04F03606D8A0370637BE66
:1000980052EF00F050EF00F058EF00F0000E376E0E
:1000A800070E366E58EF00F036C027F037C028F03C
:1000B800000E2A6E010E296E97EC04F0AEEF00F0E8
:1000C80082A469EF00F06BEF00F09BEF00F0000EE8
:1000D800356E010E346E36C027F037C028F0000E9A
:1000E8002A6E000E296E97EC04F0364A372A37BE7E
:1000F80087EF00F0375009E1080E365CD8A087EF8B
:1001080000F089EF00F08FEF00F0000E376E000E60
:10011800366E8FEF00F036C027F037C028F0000E9B
:100128002A6E010E296E97EC04F0AEEF00F082A261
:10013800A0EF00F0A2EF00F0AEEF00F0000E356E79
:10014800020E346EAEEF00F0AEEF00F0AEEF00F04E
:10015800AEEF00F082B0B3EF00F0B5EF00F0F7EFCC
:1001680000F082B2BAEF00F0BCEF00F0F7EF00F059
:1001780082B4C1EF00F0C3EF00F0F7EF00F03450A5
:100188003510D8B4CAEF00F0CCEF00F0F7EF00F06C
:10019800020E34183510D8A4D4EF00F0D6EF00F0D2
:1001A800EFEF00F036C030F037C031F075EC08F0F2
:1001B800000E0B6E000EAFEC0BF047EC07F036C0EC
:1001C80027F037C028F0000E2A6E010E296E97EC32
:1001D80004F0EFEF00F0000E356E000E346EF7EF0E
:1001E80000F0F7EF00F04504D8B4FDEF00F0FFEFA2
:1001F80000F02AEF00F001EF01F01200000E19ECF8
:1002080008F0000E0B6E000EAFEC0BF0D70E146E5C
:100218007F0E156E010E166E010E176E7AEC09F040
:10022800000E0B6E320EAFEC0BF0B90E146E7F0E93
:10023800156E010E166E010E176E7AEC09F0000E9F
:10024800196E000E186E29EF01F0020E0B6E000EEB
:10025800AFEC0BF0F00E146E7F0E156E010E166EDD
:10026800010E176E7AEC09F0020E0B6E320EAFEC2F
:100278000BF042C00FF0106A500E116E000E126E95
:10028800DCEC06F0500E146E000E156E010E166EA4
:10029800010E176E7AEC09F0500E016E000E026E18
:1002A800000E046E000E036E000E066E030E056E41
:1002B800EDEC01F0030E0B6E000EAFEC0BF0B00E80
:1002C800146E7F0E156E010E166E010E176E7AEC07
:1002D80009F0030E0B6E410EAFEC0BF043C00FF0AC
:1002E800106A500E116E000E126EDCEC06F0500E05
:1002F800146E000E156E010E166E010E176E7AEC56
:1003080009F0500E016E000E026E000E046E000E13
:10031800036E000E066E030E056EEDEC01F0040E82
:100328000B6E000EAFEC0BF0D00E146E7F0E156E38
:10033800010E166E010E176E7AEC09F0040E0B6EA4
:10034800370EAFEC0BF044C00FF0106A500E116E70
:10035800000E126EDCEC06F0500E146E000E156ED8
:10036800010E166E010E176E7AEC09F0500E016E32
:10037800000E026E000E046E000E036E000E066E76
:10038800030E056EEDEC01F082A2CDEF01F0CFEF88
:1003980001F0D5EF01F0000E196E010E186ED5EFC1
:1003A80001F018041910D8B4DCEF01F0DEEF01F009
:1003B800E9EF01F082A2E3EF01F0E5EF01F029EFA8
:1003C80001F0E9EF01F0E9EF01F0000E19EC08F097
:1003D800120001C00DF002C00EF005500610D8A49E
:1003E800F8EF01F0FAEF01F0FEEF01F0CBEF02F0C9
:1003F800CBEF02F00DC0D9FF0EC0DAFF03C0DFFF5C
:10040800FF0E076EFF0E086E05C009F006C00AF061
:100418000750092608500A2209500D24D96E0A509F
:100428000E20DA6E03C0DFFF065007E1030E055CFD
:10043800D8B021EF02F023EF02F027EF02F0CBEF64
:1004480002F0CBEF02F020EE01F00D50D9260E504D
:10045800DA2203C0DFFF20EE02F00D50D9260E503D
:10046800DA2203C0DFFFFE0E076EFF0E086E05C01E
:1004780009F006C00AF00750092608500A22095058
:100488000D24D96E0A500E20DA6E03C0DFFFFD0E70
:10049800076EFF0E086E05C009F006C00AF0075087
:1004A800092608500A2209500D24D96E0A500E2038
:1004B800DA6E03C0DFFF065007E1070E055CD8B00F
:1004C80068EF02F06AEF02F06EEF02F0CBEF02F095
:1004D800CBEF02F020EE03F00D50D9260E50DA22B1
:1004E80003C0DFFFFC0E076EFF0E086E05C009F0A3
:1004F80006C00AF00750092608500A2209500D24A0
:10050800D96E0A500E20DA6E03C0DFFF065007E1ED
:10051800090E055CD8B093EF02F095EF02F099EF61
:1005280002F0CBEF02F0CBEF02F00DC007F00EC0E7
:1005380008F0071E081E074A082A030E07140B6E48
:100548000C6A0B500D260C500E220B50055E0C50F9
:10055800065AFC0E0516FF0E0616C0EF02F00DC077
:10056800D9FF0EC0DAFF03C0DFFF0506D8A00606D4
:100578000D4A0E2AC0EF02F005500610D8A4C7EFA6
:1005880002F0C9EF02F0B3EF02F0CBEF02F0120075
:100598000F6E000E116E0A0E0F18D8A4D6EF02F0D7
:1005A800D8EF02F0DFEF02F0000E4F6E4E2A6DEF2B
:1005B80003F06DEF03F03F0E4F64E5EF02F0E7EF55
:1005C80002F0EEEF02F0010E116E4F50C00F0E6EEA
:1005D800F2EF02F04FC00EF0F2EF02F0200E0F5EC5
:1005E800000E106E020E1064FCEF02F0FEEF02F037
:1005F80002EF03F06BEF03F06BEF03F03F0E0E64B6
:1006080008EF03F00AEF03F01EEF03F0400E0E5E52
:10061800010E116E8A940E504009096E115092EC29
:100628000CF04E50B809096E115092EC0CF08A8407
:100638001EEF03F00B50D8B424EF03F026EF03F0BD
:1006480042EF03F00F50030DE50E0C6E7E0E0D6E9B
:10065800F3500C26F4500D221050010DF3500C26C7
:10066800F4500D220CC0F6FF0DC0F7FF0800F5CFBF
:1006780009F0115092EC0CF05FEF03F00F50030DEE
:10068800E50E0C6E7E0E0D6EF3500C26F4500D2206
:100698001050010DF3500C26F4500D220CC0F6FF3B
:1006A8000DC0F7FF0800F550FF0A096E115092ECD3
:1006B8000CF05FEF03F00E2A102A020E106467EFA9
:1006C80003F069EF03F002EF03F06BEF03F0050EA0
:1006D8004F261200106E000E136E0A0E1018D8A4C2
:1006E80078EF03F07AEF03F081EF03F0000E4F6E1E
:1006F8004E2A03EF04F003EF04F03F0E4F6487EF38
:1007080003F089EF03F090EF03F0010E136E4F50E2
:10071800C00F116E94EF03F04FC011F094EF03F087
:100728001050080DF3CF0EF0F4CF0FF0000E126E3C
:10073800070E1264A2EF03F0A4EF03F0A8EF03F092
:1007480001EF04F001EF04F03F0E1164AEEF03F087
:10075800B0EF03F0C4EF03F0400E115E010E136E0C
:100768008A9411504009096E135092EC0CF04E50C7
:10077800B809096E135092EC0CF08A84C4EF03F0A8
:100788000B50D8B4CAEF03F0CCEF03F0E0EF03F05E
:1007980012500E240C6E000E0F200D6EE50E0C2468
:1007A800F66E720E0D20F76E0800F5CF09F01350A3
:1007B80092EC0CF0F5EF03F012500E240C6E000EC4
:1007C8000F200D6EE50E0C24F66E720E0D20F76EDE
:1007D8000800F550FF0A096E135092EC0CF0F5EF83
:1007E80003F0112A122A070E1264FDEF03F0FFEF3F
:1007F80003F0A8EF03F001EF04F0080E4F261200F3
:10080800000E246E000E236E000E266E000E256E5E
:10081800000E226E000E216E16C023F017C024F0C1
:100828007FEF04F014C025F015C026F064EF04F043
:1008380021501224D96E22501320DA6EDF50D8B41A
:1008480028EF04F02AEF04F03CEF04F01C041D101C
:10085800D8A431EF04F033EF04F03CEF04F023C0E8
:100868000BF0010E0C6E255003EC06F05EEF04F061
:1008780021501224D96E22501320DA6EDF50D8B4DA
:1008880048EF04F04AEF04F05EEF04F01C501D102E
:10089800D8A451EF04F053EF04F05EEF04F023C046
:1008A8000BF0000E0C6E255003EC06F05EEF04F022
:1008B8005EEF04F0214A222A254A262A64EF04F032
:1008C8001A5014241E6E1B5015201F6E1E50255CD6
:1008D8002650800A206E1F50800A2058D8A077EF33
:1008E80004F079EF04F01CEF04F07BEF04F0234AE6
:1008F800242A7FEF04F0185016241E6E1950172072
:100908001F6E1E50235C2450800A206E1F50800AE0
:100918002058D8A092EF04F094EF04F016EF04F0FA
:1009280096EF04F01200272806E12828D8A49FEFA4
:1009380004F0A1EF04F0BDEF04F0DE0E126E000E1D
:10094800136E000E156E0C0E146E000E176E0A0E46
:10095800166E000E196E030E186E000E1B6E0A0E30
:100968001A6E29C01CF02AC01DF004EC04F01FEF19
:1009780005F028BECBEF04F0285007E1040E275CF1
:10098800D8B0C9EF04F0CBEF04F0F4EF04F0DE0EBA
:10099800126E000E136E27C02BF028C02CF0050E27
:1009A800D8902B362C36E82ED4EF04F00C0E2B24DE
:1009B800146E000E2C20156E000E176E0A0E166EA1
:1009C800000E196E030E186E000E1B6E0A0E1A6EBC
:1009D80029C01CF02AC01DF004EC04F01FEF05F03C
:1009E800DE0E126E000E136E27C02BF028C02CF0FE
:1009F800050ED8902B362C36E82EFDEF04F08C0E21
:100A08002B24146EFF0E2C20156E000E176E320E5E
:100A1800166E000E196E030E186E000E1B6E0A0E6F
:100A28001A6E29C01CF02AC01DF004EC04F01FEF58
:100A380005F01FEF05F01200000E066E04BE29EF48
:100A480005F027EF05F031EF05F0036C041ED8B070
:100A5800042A010E066E31EF05F002BE38EF05F0EC
:100A680036EF05F040EF05F0016C021ED8B0022AFF
:100A7800010E061A40EF05F0000E086E000E076E14
:100A880003500410D8B44BEF05F04DEF05F081EF9B
:100A980005F0010E056E57EF05F0D89003360436C1
:100AA800052A57EF05F004AE5CEF05F05EEF05F0A0
:100AB80051EF05F062EF05F062EF05F0D8900736C8
:100AC80008360350015C04500258D8A06EEF05F0B8
:100AD80070EF05F077EF05F00350015E0450025AFD
:100AE800078077EF05F0D89004320332052E62EFC5
:100AF80005F081EF05F081EF05F00650D8B487EFD7
:100B080005F089EF05F08FEF05F0076C081ED8B0E7
:100B1800082A8FEF05F007C001F008C002F095EF32
:100B280005F01200000E19EC08F0000E0B6E000E16
:100B3800AFEC0BF0C90E146E7F0E156E010E166E1B
:100B4800010E176E7AEC09F0010E0B6E000EAFEC79
:100B58000BF0EA0E146E7F0E156E010E166E010E66
:100B6800176E7AEC09F0010E0B6E290EAFEC0BF044
:100B7800E40E146E7F0E156E010E166E010E176EC2
:100B88007AEC09F0030E0B6E000EAFEC0BF0C20E00
:100B9800146E7F0E156E010E166E010E176E7AEC2E
:100BA80009F0030E0B6E2F0EAFEC0BF0F60E146E61
:100BB8007F0E156E010E166E010E176E7AEC09F097
:100BC800040E0B6E000EAFEC0BF0DE0E146E7F0EF3
:100BD800156E010E166E010E176E7AEC09F0050EF1
:100BE8000B6E000EAFEC0BF0FB0E146E7F0E156E45
:100BF800010E166E010E176E7AEC09F012000F6ED8
:100C0800000E116E3F0E0F640CEF06F00EEF06F0AB
:100C180014EF06F0400E0F5E010E116E14EF06F091
:100C28008A940F9E0F8C0FC009F0115092EC0CF0B3
:100C38000BC001F0026A000E046E080E036E20EC71
:100C480005F00150BF0BB809096E115092EC0CF079
:100C58008A8411506FEC0CF011506FEC0CF0106E90
:100C68008A940FC009F0115092EC0CF00C50D8B4D3
:100C780040EF06F042EF06F055EF06F00BC00DF01E
:100C8800070E0D16010E0E6E0D2A4DEF06F0D890C8
:100C98000E360D2E4BEF06F00E501010106E69EF49
:100CA80006F00BC00DF0070E0D16010E0E6E0D2A84
:100CB80060EF06F0D8900E360D2E5EEF06F00E505F
:100CC800FF0A1014106E69EF06F08A8410C009F04C
:100CD800115092EC0CF01200000E066E02BE79EF75
:100CE80006F077EF06F081EF06F0016C021ED8B02F
:100CF800022A010E066E81EF06F004BE88EF06F0A8
:100D080086EF06F08EEF06F0036C041ED8B0042AB6
:100D18008EEF06F003500410D8B495EF06F097EF65
:100D280006F0C7EF06F0010E056EA1EF06F0D890A9
:100D380003360436052AA1EF06F004AEA6EF06F046
:100D4800A8EF06F09BEF06F0ACEF06F0ACEF06F06C
:100D58000350015C04500258D8A0B5EF06F0B7EF75
:100D680006F0BDEF06F00350015E0450025ABDEFD5
:100D780006F0D89004320332052EACEF06F0C7EF28
:100D880006F0C7EF06F00650D8B4CDEF06F0CFEF67
:100D980006F0D5EF06F0016C021ED8B0022AD5EF96
:100DA80006F001C001F002C002F0DBEF06F012000D
:100DB8000FC013F010C014F014BEE7EF06F0E5EF13
:100DC80006F0EDEF06F00F6C101ED8B0102AEDEF0C
:100DD80006F0000E166E000E156EF3EF06F01550B5
:100DE8001124D96E16501220DA6E0FC001F010C00F
:100DF80002F0000E046E0A0E036E70EC06F001504D
:100E0800300FDF6E154A162A0FC001F010C002F02D
:100E1800000E046E0A0E036E20EC05F001C00FF000
:100E280002C010F010BE23EF07F0105006E10F04C7
:100E3800D8B021EF07F023EF07F0F3EF06F025EF26
:100E480007F014BE2CEF07F02AEF07F038EF07F091
:100E580015501124D96E16501220DA6E2D0EDF6E41
:100E6800154A162A38EF07F015501124D96E165076
:100E78001220DA6E000EDF6E11C007F012C008F003
:100E88006AEC0AF01200000E0C6E000E0B6E000EDB
:100E98000E6E070E0E6453EF07F055EF07F059EF8B
:100EA80007F0AFEF07F0AFEF07F0000E0F6E010E7F
:100EB8000F6461EF07F063EF07F067EF07F0A6EF45
:100EC80007F0A6EF07F08A94400E096E0F5092ECD7
:100ED8000CF00E50B809096E0F5092EC0CF08A8491
:100EE800000E0D6E3F0E0D647CEF07F07EEF07F0ED
:100EF80082EF07F09BEF07F09BEF07F0E50E0B245E
:100F0800F66E7A0E0C20F76E0800F5CF09F00F5038
:100F180092EC0CF00B4A0C2A0D2A3F0E0D6497EF49
:100F280007F099EF07F082EF07F09BEF07F00F2A21
:100F3800010E0F64A2EF07F0A4EF07F067EF07F0C8
:100F4800A6EF07F00E2A070E0E64ADEF07F0AFEF1D
:100F580007F059EF07F08A908A9212000F6E926894
:100F6800000E806E0F0EC16E000E936E000E816E25
:100F7800000E956E000E836E000E836E8A9A310EF7
:100F88000E6EB20EE82EFED70E2EFCD700D08A8A3F
:100F98008A988A908A928A94530EE82EFED700F097
:100FA800C00E096E000E92EC0CF0C00E096E010E18
:100FB80092EC0CF0400E096E000E92EC0CF0400E14
:100FC800096E010E92EC0CF0B80E096E000E92EC50
:100FD8000CF0B80E096E010E92EC0CF00F04D8A4B8
:100FE800F8EF07F0FAEF07F009EF08F0000E926E3D
:100FF80080683F0E096E000E92EC0CF03F0E096EF1
:10100800010E92EC0CF015EF08F03E0E096E000E82
:1010180092EC0CF03E0E096E010E92EC0CF015EFFE
:1010280008F0000E19EC08F012000B6E000E0D6EA1
:10103800070E0D6422EF08F024EF08F028EF08F0FF
:1010480074EF08F074EF08F08A94400E096E000EF1
:1010580092EC0CF0400E096E010E92EC0CF00D5063
:10106800B809096E000E92EC0CF00D50B809096E23
:10107800010E92EC0CF08A84000E0C6E3F0E0C648C
:1010880048EF08F04AEF08F04EEF08F069EF08F073
:1010980069EF08F00B50010DF3500008096E000EBF
:1010A80092EC0CF00B50010DF3500008096E010E84
:1010B80092EC0CF00C2A3F0E0C6465EF08F067EF19
:1010C80008F04EEF08F069EF08F00D2A070E0D64DE
:1010D80070EF08F072EF08F028EF08F074EF08F0EE
:1010E800120082B27AEF08F07CEF08F075EF08F092
:1010F8007EEF08F030503110D8A485EF08F087EF64
:1011080008F08BEF08F0D0EC0CF08BEF08F030040F
:101118003110D8A492EF08F094EF08F098EF08F097
:10112800CCEC0CF098EF08F0020E30183110D8A46F
:10113800A0EF08F0A2EF08F0A6EF08F0D3EC0CF04F
:10114800A6EF08F0030E30183110D8A4AEEF08F05F
:10115800B0EF08F0B4EF08F047EC0CF0B4EF08F08B
:10116800070E30183110D8A4BCEF08F0BEEF08F015
:10117800C4EF08F002EC01F0C4EF08F0C4EF08F087
:1011880082B2C9EF08F0CBEF08F0C4EF08F0CDEF5A
:1011980008F01200000E2C6E000E2B6E000E2C6E46
:1011A800000E2B6E12EF09F0600E126E000E136E19
:1011B800D8902B34D96E2C34DA6E460ED926000E10
:1011C800DA22DF50276E2750146E156A2BC028F0DC
:1011D8002CC029F0D89028362936010E2826000E72
:1011E8002922460E2824D96E000E2920DA6EDF50F7
:1011F8002A6E2A50166E176A000E196E090E186E9E
:10120800000E1B6E0E0E1A6E000E1D6E000E1C6E6A
:1012180004EC04F02B4A2C2A12EF09F053502B5CF3
:101228002C50800A276E5450800A2758D8A01FEFE8
:1012380009F021EF09F0D8EF08F023EF09F01200C8
:10124800000E2C6E000E2B6E000E2C6E000E2B6EF8
:1012580068EF09F0600E126E000E136ED8902B34F2
:10126800D96E2C34DA6E460ED926000EDA22DF50FB
:10127800276E2750146E156A2BC028F02CC029F051
:10128800D89028362936010E2826000E2922460E27
:101298002824D96E000E2920DA6EDF502A6E2A50D3
:1012A800166E176A000E196E090E186E000E1B6E68
:1012B8000E0E1A6E000E1D6E010E1C6E04EC04F06C
:1012C8002B4A2C2A68EF09F053502B5C2C50800ACB
:1012D800276E5450800A2758D8A075EF09F077EF89
:1012E80009F02EEF09F079EF09F01200B4EF09F0D8
:1012F8001650D8B482EF09F084EF09F09AEF09F09C
:1013080017C00BF014C0F6FF15C0F7FFF86A070EF8
:10131800F76403D00800F55005D0F6CFE1FFF7CF0A
:10132800E2FFE7506EEC03F0B0EF09F017C00BF0E6
:1013380014C0F6FF15C0F7FFF86A070EF76403D06C
:101348000800F55005D0F6CFE1FFF7CFE2FFE750F0
:10135800CCEC02F0B0EF09F0144A152AB4EF09F00A
:1013680014C0F6FF15C0F7FFF86A070EF76403D03C
:101378000800F55005D0F6CFE1FFF7CFE2FFE750C0
:101388000009D8A4CAEF09F0CCEF09F07CEF09F006
:10139800CEEF09F01200000000000000000000007D
:1013A8000000000000000000000000010000000034
:1013B8000000000000000000010101000000000022
:1013C8000000000000010101010100000000000010
:1013D80000000101010101010100000000000001FD
:1013E80001000101010001010000000000010100ED
:1013F80000010000010100000000010101010101DC
:1014080001010101010000000101010100000001CA
:1014180001010100010101010101010101010101B5
:1014280001010101010101010101010101010101A4
:101438000101CEEC08F0000E2F6E000E2E6E000E8D
:101448002F6E000E2E6E56EF0AF0D8902E34D96EFD
:101458002F34DA6E460ED926000EDA22020EDF5E2F
:10146800D8902E34D96E2F34DA6E460ED926000E57
:10147800DA22DF50D8A443EF0AF045EF0AF052EF22
:101488000AF0D8902E34D96E2F34DA6E460ED9264B
:10149800000EDA226E0EDF6E52EF0AF02E4A2F2A65
:1014A80056EF0AF053502E5C2F50800A2D6E545080
:1014B800800A2D58D8A063EF0AF065EF0AF029EFEB
:1014C8000AF067EF0AF024EC09F01200000E0C6E27
:1014D800000E0B6E07C001F008C002F01EEC0CF005
:1014E800FF0E01240D6EFF0E02200E6EA1EF0AF012
:1014F8000B500724D96E0C500820DA6EDF500A6EA4
:101508000D500724D96E0E500820DA6E0B500724B0
:10151800E16E0C500820E26EDFCFE7FF0D50072484
:10152800D96E0E500820DA6E0AC0DFFF0B4A0C2A6B
:101538000D06D8A00E06A1EF0AF00D500B5C0C505A
:10154800800A096E0E50800A0958D8A0AEEF0AF03A
:10155800B0EF0AF07CEF0AF0B2EF0AF012000F0EBB
:10156800C16E9568000E836E070E946E000E826E33
:10157800CD80CD92CD8ACD88F28C9D809E90F28EC2
:10158800000E406E010E3F6E010EB2EC07F0EEEF5A
:101598000AF0C1EC0CF096EC05F00B0E3E6E260E30
:1015A8003D6E5E0EE82EFED73D2EFCD73E2EFAD7B6
:1015B80009EC00F04550D8A4E4EF0AF0E6EF0AF091
:1015C800EEEF0AF0000E406E000E3F6EEEEF0AF0EE
:1015D800EEEF0AF03F044010D8B4F5EF0AF0F7EF49
:1015E8000AF0CDEF0AF0F9EF0AF007EF00F000007B
:1015F80000000000000000000000000000000000E3
:1016080000000001000000000000000000000000D1
:1016180001010100000000000000000000010101BC
:1016280001010000000000000000010101010101AA
:10163800010000000000000101000101010001019A
:10164800000000000001010000010000010100008D
:101658000000010101010101010101010100000077
:1016680001010101000000010101010006009EA026
:1016780040EF0BF042EF0BF048EF0BF04C4A4D2ACD
:101688009D809E9048EF0BF05A0E4C184D10D8A430
:1016980050EF0BF052EF0BF054EF0BF00A0E425ED6
:1016A8001E0E4C184D10D8A45CEF0BF05EEF0BF03B
:1016B80062EF0BF04306440662EF0BF02C0E4C1859
:1016C80006E14D04D8A46BEF0BF06DEF0BF074EF4F
:1016D8000BF0412A000E4D6E000E4C6E74EF0BF0AD
:1016E80055921100F60EF66E150EF76E000EF86E96
:1016F80001EE00F010EE7EF00900F5CFEEFFE550A8
:10170800E150FAE19E0EF66E130EF76E000EF86EBB
:1017180000EE60F010EE9CF00900F5CFEEFFE5500A
:10172800E150FAE1AC0EF66E190EF76E000EF86E87
:101738000900F5CF53F00900F5CF54F000EE41F061
:10174800120EEE6AE806FDE155905592000EF86E0D
:101758000001B3EF0AF00D6E000E0C6E800E0D60E6
:10176800B8EF0BF0BAEF0BF0E6EF0BF0070E0B64D7
:10177800C0EF0BF0C2EF0BF0C6EF0BF0E6EF0BF08B
:10178800E6EF0BF00DC04FF00BC04EF03F0E0D64AE
:10179800D0EF0BF0D2EF0BF0D8EF0BF0400E0D5E50
:1017A800010E0C6ED8EF0BF08A940D504009096EAB
:1017B8000C5092EC0CF00B50B809096E0C5092ECDE
:1017C8000CF08A8412006E0E096E000E086E000E70
:1017D800076E000E086E000E076E0CEF0CF0280E58
:1017E800016E0950B5EC0CF0D8900734D96E083466
:1017F800DA6E460ED926000EDA2201C0DEFF02C0DC
:10180800DDFF0950100F096E074A082A0CEF0CF08B
:101818005350075C0850800A066E5450800A0658D8
:10182800D8A019EF0CF01BEF0CF0F3EF0BF01DEF45
:101838000CF0120001C005F002C006F028EF0CF011
:10184800014A022A28EF0CF001C0D9FF02C0DAFFD2
:10185800DF50D8A432EF0CF034EF0CF024EF0CF08A
:1018680036EF0CF005C003F006C004F0031E041E9A
:10187800034A042A01500324016E02500420026E18
:1018880046EF0CF01200000E19EC08F0E7EC0BF034
:10189800000E126E010E136E000E156E0A0E146EF7
:1018A800000E176E280E166E000E196E090E186EB1
:1018B800000E1B6E0E0E1A6E000E1D6E010E1C6EB3
:1018C80004EC04F068EF0CF01DEC0AF068EF0CF083
:1018D80068EF0CF01200016E0150D8B476EF0CF0EE
:1018E80078EF0CF07CEF0CF08A808A927EEF0CF097
:1018F8008A928A8295688A868A88080EE82EFED798
:1019080000F083CF02F08A98080EE82EFED700F088
:101918008A908A92025091EF0CF012000A6E0A50D7
:10192800D8B499EF0CF09BEF0CF09FEF0CF08A8085
:101938008A92A3EF0CF08A928A82A3EF0CF0000E31
:10194800956E8A9609C08CFF8A88080EE82EFED705
:1019580000F08A98080EE82EFED700F08A908A9246
:101968001200036E03C004F001C005F004C001F0CA
:1019780005C002F0C0EF0CF01200000E416E500ED0
:10198800426E500E436E500E446E010E456E1200AC
:101998004450140F446E1200140E42261200140E06
:0619A800432612000100BD
:1072E400000000000000000000000000000000009A
:1072F400000000000000000000000000000000008A
:107304000000000000000000000000000000000079
:107314000000000000000000000000000000000069
:107324000000000000000000000000000000000059
:107334000000000000000000000000000000000049
:107344000000000000000000000000000000000039
:107354000000000000000000000000000000000029
:107364000000000000000000000000000000000019
:107374000000000000000000000000000000000009
:1073840000000000000000000000000000000000F9
:1073940000000000000000000000000000000000E9
:1073A40000000000000000000000000000000000D9
:1073B40000000000000000000000000000000000C9
:1073C40000000000000000000000000000000000B9
:1073D40000000000000000000000000000000000A9
:1073E40000000000000000000000065F5F060000CF
:1073F400000007070007070000147F7F147F7F1435
:1074040000242E6B6B3A120000466630180C66623C
:1074140000307A4F5D377A4800040703000000000B
:1074240000001C3E63410000000041633E1C00005C
:1074340000082A3E1C1C3E2A0808083E3E08080094
:10744400000080E060000000000808080808080048
:107454000000006060000000006030180C060301AA
:10746400003E7F71594D7F3E0040427F7F40400087
:1074740000627359496F660000226349497F3600F0
:1074840000181C16537F7F5000276745457D39003F
:10749400003C7E4B4979300000030371790F0700EB
:1074A40000367F49497F360000064F49693F1E0078
:1074B4000000006666000000000080E66600000030
:1074C40000081C36634100000024242424242400E2
:1074D40000004163361C080000020351590F0600E6
:1074E400003E7F415D5D1F1E007C7E13137E7C0089
:1074F40000417F7F49497F36001C3E63414163223E
:1075040000417F7F41633E1C00417F7F495D4163B1
:1075140000417F7F491D0103001C3E63415173728A
:10752400007F7F08087F7F000000417F7F410000CB
:1075340000307040417F3F0100417F7F081C77632A
:1075440000417F7F41406070007F7F0E1C0E7F7F73
:10755400007F7F060C187F7F001C3E6341633E1C46
:1075640000417F7F49090F06001E3F21717F5E00A5
:1075740000417F7F09197F6600266F4D59733200E1
:107584000003417F7F410300007F7F40407F7F00F5
:10759400001F3F60603F1F00007F7F3018307F7FF7
:1075A4000043673C183C674300074F78784F070057
:1075B40000476371594D677300007F7F41410000AC
:1075C400000103060C183060000041417F7F000079
:1075D40000080C0603060C080080808080808080F0
:1075E400800000030704000000207454543C7840D9
:1075F40000417F3F4848783000387C44446C280080
:1076040000307848493F7F4000387C54545C18006F
:1076140000487E7F490302000098BCA4A4F87C04BF
:1076240000417F7F08047C780000447D7D40000099
:107634000060E08080FD7D0000417F7F10386C4455
:107644000000417F7F400000007C7C18381C7C785F
:10765400007C7C04047C780000387C44447C380042
:107664000084FCF8A4243C1800183C24A4F8FC84EE
:1076740000447C784C041C1800485C545474240066
:107684000000043E7F442400003C7C40403C7C409D
:10769400001C3C60603C1C00003C7C7038707C3CEE
:1076A40000446C3810386C44009CBCA0A0FC7C00E6
:1076B400004C64745C4C64000008083E774141004F
:1076C4000000000077770000004141773E08080081
:1076D40000020301030203010070784C464C7870E9
:1076E400000E9F91B1FB4A00003A7A40407A7A40FA
:1076F40000387C54555D19000002237555557D7B77
:1077040042217554547D794000217555547C78404C
:1077140000207457577C784000183CA4A4E440002F
:1077240000023B7D55555D1B02397D54545D1900A3
:1077340000397D55545C18000001457C7C410100F2
:10774400000203457D7D43020001457D7C4000002D
:1077540000797D1612167D790070782B2B787000D5
:1077640000447C7C5555450000207454547C7C5462
:10777400547C7E0B097F7F4900327B49497B320070
:1077840000327A48487A320000327A4A4878300027
:10779400003A7B41417B7A40003A7A424078784013
:1077A400009ABAA0A0FA7A000001193C66663C1956
:1077B400013D7D40407D3D0000183C24E7E7242442
:1077C40000687E7F49436620002B2FFCFC2F2B0092
:1077D40000FFFF09092FF6F8A040C088FE7F0903C7
:1077E40002207454557D79400000447D7D410000A1
:1077F400003078484A7A320000387840427A7A4039
:10780400007A7A0A0A7A7000007D7D19317D7D0044
:107814000000262F292F2F280000262F292F26008D
:107824000030784D4560200000383808080808000A
:107834000008080808383800004F6F3018CCEEBB39
:10784400914F6F30186C76FBF90000007B7B0000D1
:1078540000081C3622081C362222361C0822361C3C
:1078640008AA005500AA005500AA55AA55AA55AA67
:1078740055DDFFAA77DDAAFF77000000FFFF0000B7
:1078840000101010FFFF000000141414FFFF00008C
:10789400001010FFFF00FFFF001010F0F010F0F0D8
:1078A40000141414FCFC0000001414F7F700FFFF8C
:1078B400000000FFFF00FFFF001414F4F404FCFCBC
:1078C4000014141717101F1F0010101F1F101F1F64
:1078D400001414141F1F000000101010F0F000001A
:1078E400000000001F1F1010101010101F1F101098
:1078F40010101010F0F0101010000000FFFF101016
:10790400101010101010101010101010FFFF101095
:1079140010000000FFFF1414140000FFFF00FFFF1D
:107924001000001F1F101717140000FCFC04F4F4CF
:107934001414141717101717141414F4F404F4F48B
:10794400140000FFFF00F7F7141414141414141493
:10795400141414F7F700F7F7141414141717141465
:107964001410101F1F101F1F10141414F4F41414F7
:10797400141010F0F010F0F01000001F1F101F1F63
:10798400100000001F1F141414000000FCFC141449
:10799400140000F0F010F0F0101010FFFF10FFFFC3
:1079A40010141414FFFF1414141010101F1F0000DF
:1079B40000000000F0F0101010FFFFFFFFFFFFFFBA
:1079C400FFF0F0F0F0F0F0F0F0FFFFFFFF00000038
:1079D4000000000000FFFFFFFF0F0F0F0F0F0F0F3E
:1079E4000F387C446C386C4400FCFE2A2A3E140098
:1079F400007E7E020206060000027E7E027E7E0279
:107A04000063775D4963630000387C447C3C040474
:107A14000080FE7E20203E1E000406027E7C0602BC
:107A24000099BDE7E7BD9900001C3E6B496B3E1C05
:107A3400004C7E7301737E4C0030784A4F7D3900D0
:107A440000183C243C3C243C1898FC643C3E273DF4
:107A5400180000000000000000000000000000000A
:107A64000000000000000000000000000000000012
:107A74000000000000000000000000000000000002
:107A840000000000000000000000000000000000F2
:107A940000000000000000000000000000000000E2
:107AA40000000000000000000000000000000000D2
:107AB40000000000000000000000000000000000C2
:107AC40000000000000000000000000000000000B2
:107AD40000000000000000000000000000000000A2
:107AE4000000000000000000000000000F1FF8FF6D
:107AF400F81F0F0000FF3F1E000000000000000000
:107B040000C300000000000000000000001E3F7FD2
:107B1400FFFEFCFEFF7F3F1E00000000000000008F
:107B240000200000000000000000000000007CFEB7
:107B3400FFFFC783838200000000000000000000F4
:107B44000000000000000000000000000000E0F061
:107B5400F0F0F0FF03060000000000000000000049
:107B6400000000000000000000000000000001010F
:107B740001000000000100000000000000000000FF
:107B840002030200000000000000000000000000EA
:107B940000010101000000000000000000000002DC
:107BA40002190200000000000000000000000000B4
:107BB40001010101010000000000000000000000BC
:107BC40000070202000000000000000000000001A5
:107BD400010101000000000000000000000000009E
:107BE4000000000000000000000000000000000091
:107BF4000000000000000000000000000000000081
:107C04000000000000000000000000000000000070
:107C14000000000000000000000000000000000060
:107DF40000000000000000000000004040400000BF
:107E040000E040404040400000000000000000004E
:107E1400000000000000000000000000000000401E
:107E240040C04040000000000000000000000000CE
:107E340000000000000000000000000000004040BE
:107E440040C04040000000000000000000000000AE
:107E5400000000000000000000000000000000001E
:107E6400000000000000000000000000000000000E
:107E740000000000000000000000000000000000FE
:107E840000000000000000000000000000000000EE
:107E940000000000000000000000000000000000DE
:107EA40000FF0000000000000000000000000000CF
:107EB40000000000000000000000000000000000BE
:107EC4000003000000000000000000FFFFFFFF802F
:107ED400FCFCFCFC80E0E0E0E000000000000000AE
:107EE40000000000005C000C000C7C287C7C447CBE
:107EF400241048285408000C00384400443800205A
:107F0400100810381080400010101000400020109D
:107F140008384438007C006454484454281C107CBD
:107F24004C542438542004740C2854280854380021
:107F34005000805000102844282828442810045455
:107F440008384C5C7814787C54283844447C443891
:107F54007C54447C14043844347C107C007C002021
:107F6400403C7C106C7C40407C087C7C047C7C44E1
:107F74007C7C14083844787C1468485424047C04B9
:107F84007C407C3C403C7C207C6C106C1C601C6401
:107F9400544C7C4400081020447C00080408808071
:107FA400800408000F0CFF0C0F00FF1E456E657265
:107FB4006769653A005243323D65786974004152FD
:107FC400454E44410050726F6A657400416D6F758F
:107FD400723A0053746174733A0050414745530038
:107FE400676F636869004D6963726F004661696D0C
:0C7FF4003A0052534B490054414F00002A
:020000040020DA
:08000000FFFFFFFFFFFFFFFF00
:020000040030CA
:0E000000000C1F1FFF8381FF0FC00FE00F4099
:00000001FF
