:020000040000FA
:040000005FEF32F08C
:10648C00120020EE01F05B50D9265C50DA22140E7B
:10649C00DF261200010101010101010101010101CD
:1064AC0001010101010101010101010101010101D0
:1064BC000101A00EF66E640EF76E000EF86E00EE83
:1064CC003BF010EE1EF00900F5CFEEFFE550E15069
:1064DC00FAE15E6A5D6A5C6A5B6A5A6A596A000E26
:1064EC00F86E000187EF33F00A6E0A50D8B481EFD2
:1064FC0032F083EF32F087EF32F08A808A928BEFA2
:10650C0032F08A928A828BEF32F0000E956E8A9668
:10651C0009C08CFF8A88080EE82EFED700F08A98F6
:10652C00080EE82EFED700F08A908A921200016EB7
:10653C000150D8B4A4EF32F0A6EF32F0AAEF32F04B
:10654C008A808A92ACEF32F08A928A8295688A8627
:10655C008A88080EE82EFED700F083CF02F08A98C6
:10656C00080EE82EFED700F08A908A920250BFEFF8
:10657C0032F0120018501910D8A4C7EF32F0C9EF3E
:10658C0032F0CDEF32F047EC32F0CDEF32F0070EB7
:10659C0018181910D8A4D5EF32F0D7EF32F0DBEF82
:1065AC0032F046EC32F0DBEF32F0060E0B6E000EE2
:1065BC004FEC33F0CE0E146E7F0E156E010E166E70
:1065CC00010E176E18EC33F0120001C0D9FF02C097
:1065DC00DAFF000EDF6E20EE01F00150D9260250DA
:1065EC00DA22640EDF6E20EE02F00150D926025042
:1065FC00DA22640EDF6E20EE03F00150D926025031
:10660C00DA22640EDF6E20EE04F00150D92602501F
:10661C00DA22010EDF6E01C001F002C002F017EFAA
:10662C0033F012003EEF33F01650D8B420EF33F0B5
:10663C0022EF33F02EEF33F017C00BF014C0F6FF3F
:10664C0015C0F7FF0800F55070EC37F03AEF33F057
:10665C0017C00BF014C0F6FF15C0F7FF0800F5507B
:10666C0006EC38F03AEF33F0144A152A3EEF33F0CB
:10667C0014C0F6FF15C0F7FF0800F5500009D8A4A8
:10668C004AEF33F04CEF33F01AEF33F04EEF33F0B8
:10669C0012000D6E000E0C6E800E0D6058EF33F074
:1066AC005AEF33F086EF33F0070E0B6460EF33F0E4
:1066BC0062EF33F066EF33F086EF33F086EF33F0B2
:1066CC000DC05EF00BC05DF03F0E0D6470EF33F04B
:1066DC0072EF33F078EF33F0400E0D5E010E0C6E5E
:1066EC0078EF33F08A940D504009096E0C507AEC17
:1066FC0032F00B50B809096E0C507AEC32F08A84E7
:10670C0012000F0EC16E9568000E836E070E946E0C
:10671C00000E826E000E3A6E010E396E010E26ECE2
:10672C0034F0BDEF33F05BC001F05CC002F0EBEC79
:10673C0032F001C05BF002C05CF0DBEC35F0A8EC91
:10674C0038F020EE04F05B50D9265C50DA22DF5092
:10675C00D8A4B3EF33F0B5EF33F0BDEF33F0000E48
:10676C003A6E000E396EBDEF33F0BDEF33F03904E5
:10677C003A10D8B4C4EF33F0C6EF33F099EF33F0DE
:10678C00C8EF33F000EF00F00B6E000E0D6E070E2D
:10679C000D64D3EF33F0D5EF33F0D9EF33F025EFB1
:1067AC0034F025EF34F08A94400E096E000E7AEC2A
:1067BC0032F0400E096E010E7AEC32F00D50B80931
:1067CC00096E000E7AEC32F00D50B809096E010E0C
:1067DC007AEC32F08A84000E0C6E3F0E0C64F9EFEA
:1067EC0033F0FBEF33F0FFEF33F01AEF34F01AEF26
:1067FC0034F00B50010DF3500008096E000E7AECCA
:10680C0032F00B50010DF3500008096E010E7AECBA
:10681C0032F00C2A3F0E0C6416EF34F018EF34F003
:10682C00FFEF33F01AEF34F00D2A070E0D6421EF51
:10683C0034F023EF34F0D9EF33F025EF34F01200BD
:10684C000F6E9268000E806E0F0EC16E000E936E6E
:10685C00000E816E000E956E000E836E000E836E20
:10686C008A9A310E0E6EB20EE82EFED70E2EFCD783
:10687C0000D08A8A8A988A908A928A94530EE82E3B
:10688C00FED700F0C00E096E000E7AEC32F0C00E8E
:10689C00096E010E7AEC32F0400E096E000E7AECA5
:1068AC0032F0400E096E010E7AEC32F0B80E096E21
:1068BC00000E7AEC32F0B80E096E010E7AEC32F062
:1068CC000F04D8A46CEF34F06EEF34F07DEF34F09D
:1068DC00000E926E80683F0E096E000E7AEC32F05C
:1068EC003F0E096E010E7AEC32F089EF34F03E0E59
:1068FC00096E000E7AEC32F03E0E096E010E7AEC47
:10690C0032F089EF34F0000ECAEC33F01200000EB6
:10691C000C6E000E0B6E000E0E6E070E0E6499EFD1
:10692C0034F09BEF34F09FEF34F0F5EF34F0F5EFEB
:10693C0034F0000E0F6E010E0F64A7EF34F0A9EFC8
:10694C0034F0ADEF34F0ECEF34F0ECEF34F08A943B
:10695C00400E096E0F507AEC32F00E50B809096EE9
:10696C000F507AEC32F08A84000E0D6E3F0E0D64DF
:10697C00C2EF34F0C4EF34F0C8EF34F0E1EF34F090
:10698C00E1EF34F0030E0B24F66E7B0E0C20F76E49
:10699C000800F5CF09F00F507AEC32F00B4A0C2AB4
:1069AC000D2A3F0E0D64DDEF34F0DFEF34F0C8EF4D
:1069BC0034F0E1EF34F00F2A010E0F64E8EF34F0FD
:1069CC00EAEF34F0ADEF34F0ECEF34F00E2A070EB2
:1069DC000E64F3EF34F0F5EF34F09FEF34F08A905F
:1069EC008A9212000F6E000E116E3F0E0F6401EFB3
:1069FC0035F003EF35F009EF35F0400E0F5E010E68
:106A0C00116E09EF35F08A940F9E0F8C0FC009F0B0
:106A1C0011507AEC32F00BC001F0026A000E046ED9
:106A2C00080E036E65EC35F00150BF0BB809096E0A
:106A3C0011507AEC32F08A8411509DEC32F01150E6
:106A4C009DEC32F0106E8A940FC009F011507AEC64
:106A5C0032F00C50D8B435EF35F037EF35F04AEF53
:106A6C0035F00BC00DF0070E0D16010E0E6E0D2A33
:106A7C0042EF35F0D8900E360D2E40EF35F00E501B
:106A8C001010106E5EEF35F00BC00DF0070E0D16EA
:106A9C00010E0E6E0D2A55EF35F0D8900E360D2ED8
:106AAC0053EF35F00E50FF0A1014106E5EEF35F0F8
:106ABC008A8410C009F011507AEC32F01200000EEA
:106ACC00066E04BE6EEF35F06CEF35F076EF35F0F8
:106ADC00036C041ED8B0042A010E066E76EF35F056
:106AEC0002BE7DEF35F07BEF35F085EF35F0016CB4
:106AFC00021ED8B0022A010E061A85EF35F0000EE0
:106B0C00086E000E076E03500410D8B490EF35F0E9
:106B1C0092EF35F0C6EF35F0010E056E9CEF35F0B7
:106B2C00D89003360436052A9CEF35F004AEA1EF5D
:106B3C0035F0A3EF35F096EF35F0A7EF35F0A7EF72
:106B4C0035F0D890073608360350015C04500258D3
:106B5C00D8A0B3EF35F0B5EF35F0BCEF35F00350FE
:106B6C00015E0450025A0780BCEF35F0D890043215
:106B7C000332052EA7EF35F0C6EF35F0C6EF35F032
:106B8C000650D8B4CCEF35F0CEEF35F0D4EF35F06D
:106B9C00076C081ED8B0082AD4EF35F007C001F0F6
:106BAC0008C002F0DAEF35F01200000ECAEC33F038
:106BBC00000E0B6E000E4FEC33F0DC0E146E7F0EDD
:106BCC00156E010E166E010E176E18EC33F0010ED9
:106BDC000B6E000E4FEC33F0EF0E146E7F0E156E35
:106BEC00010E166E010E176E18EC33F0010E0B6EC3
:106BFC00320E4FEC33F0E90E146E7F0E156E010E53
:106C0C00166E010E176E18EC33F0030E0B6E000EA1
:106C1C004FEC33F0D50E146E7F0E156E010E166E02
:106C2C00010E176E18EC33F0030E0B6E370E4FEC93
:106C3C0033F0F50E146E7F0E156E010E166E010EEE
:106C4C00176E18EC33F0040E0B6E000E4FEC33F095
:106C5C00E30E146E7F0E156E010E166E010E176E7E
:106C6C0018EC33F0050E0B6E000E4FEC33F0FA0EF1
:106C7C00146E7F0E156E010E166E010E176E18EC4B
:106C8C0033F0150E196E4B0E186EBE0EE82EFED795
:106C9C00182EFCD7192EFAD700D01200272806E19F
:106CAC002828D8A45CEF36F05EEF36F07AEF36F099
:106CBC003B0E126E000E136E000E156E0C0E146E43
:106CCC00000E176E0A0E166E000E196E030E186E5D
:106CDC00000E1B6E0A0E1A6E29C01CF02AC01DF085
:106CEC00DDEC36F0DCEF36F028BE88EF36F02850BD
:106CFC0007E1040E275CD8B086EF36F088EF36F04B
:106D0C00B1EF36F03B0E126E000E136E27C02BF057
:106D1C0028C02CF0050ED8902B362C36E82E91EF8F
:106D2C0036F00C0E2B24146E000E2C20156E000E5B
:106D3C00176E0A0E166E000E196E030E186E000EEC
:106D4C001B6E0A0E1A6E29C01CF02AC01DF0DDEC59
:106D5C0036F0DCEF36F03B0E126E000E136E27C0D1
:106D6C002BF028C02CF0050ED8902B362C36E82EA4
:106D7C00BAEF36F08C0E2B24146EFF0E2C20156EF1
:106D8C00000E176E320E166E000E196E030E186E74
:106D9C00000E1B6E0A0E1A6E29C01CF02AC01DF0C4
:106DAC00DDEC36F0DCEF36F0DCEF36F01200000EE6
:106DBC00246E000E236E000E266E000E256E000E45
:106DCC00226E000E216E16C023F017C024F058EF6F
:106DDC0037F014C025F015C026F03DEF37F02150E8
:106DEC001224D96E22501320DA6EDF50D8B401EF82
:106DFC0037F003EF37F015EF37F01C041D10D8A453
:106E0C000AEF37F00CEF37F015EF37F023C00BF02B
:106E1C00010E0C6E2550F8EC34F037EF37F02150A2
:106E2C001224D96E22501320DA6EDF50D8B421EF21
:106E3C0037F023EF37F037EF37F01C501D10D8A484
:106E4C002AEF37F02CEF37F037EF37F023C00BF089
:106E5C00000E0C6E2550F8EC34F037EF37F037EFAE
:106E6C0037F0214A222A254A262A3DEF37F01A50BC
:106E7C0014241E6E1B5015201F6E1E50255C2650B0
:106E8C00800A206E1F50800A2058D8A050EF37F08F
:106E9C0052EF37F0F5EF36F054EF37F0234A242A4F
:106EAC0058EF37F0185016241E6E195017201F6E0D
:106EBC001E50235C2450800A206E1F50800A2058DC
:106ECC00D8A06BEF37F06DEF37F0EFEF36F06FEFD8
:106EDC0037F01200106E000E136E0A0E1018D8A4A4
:106EEC007AEF37F07CEF37F083EF37F0000E5E6E01
:106EFC005D2A05EF38F005EF38F03F0E5E6489EF40
:106F0C0037F08BEF37F092EF37F0010E136E5E50C7
:106F1C00C00F116E96EF37F05EC011F096EF37F0A0
:106F2C001050080DF3CF0EF0F4CF0FF0000E126ED0
:106F3C00070E1264A4EF37F0A6EF37F0AAEF37F084
:106F4C0003EF38F003EF38F03F0E1164B0EF37F079
:106F5C00B2EF37F0C6EF37F0400E115E010E136E34
:106F6C008A9411504009096E13507AEC32F05D503E
:106F7C00B809096E13507AEC32F08A84C6EF37F0F8
:106F8C000B50D8B4CCEF37F0CEEF37F0E2EF37F050
:106F9C0012500E240C6E000E0F200D6E030E0C24DE
:106FAC00F66E730E0D20F76E0800F5CF09F0135036
:106FBC007AEC32F0F7EF37F012500E240C6E000E14
:106FCC000F200D6E030E0C24F66E730E0D20F76E53
:106FDC000800F550FF0A096E13507AEC32F0F7EF07
:106FEC0037F0112A122A070E1264FFEF37F001EF67
:106FFC0038F0AAEF37F003EF38F0080E5E261200D7
:10700C000F6E000E116E0A0E0F18D8A410EF38F088
:10701C0012EF38F019EF38F0000E5E6E5D2AA7EF14
:10702C0038F0A7EF38F03F0E5E641FEF38F021EF19
:10703C0038F028EF38F0010E116E5E50C00F0E6E56
:10704C002CEF38F05EC00EF02CEF38F0200E0F5EF7
:10705C00000E106E020E106436EF38F038EF38F078
:10706C003CEF38F0A5EF38F0A5EF38F03F0E0E648A
:10707C0042EF38F044EF38F058EF38F0400E0E5E27
:10708C00010E116E8A940E504009096E11507AEC63
:10709C0032F05D50B809096E11507AEC32F08A84E6
:1070AC0058EF38F00B50D8B45EEF38F060EF38F092
:1070BC007CEF38F00F50030D030E0C6E7F0E0D6E2F
:1070CC00F3500C26F4500D221050010DF3500C26E9
:1070DC00F4500D220CC0F6FF0DC0F7FF0800F5CFE1
:1070EC0009F011507AEC32F099EF38F00F50030D93
:1070FC00030E0C6E7F0E0D6EF3500C26F4500D2209
:10710C001050010DF3500C26F4500D220CC0F6FF5C
:10711C000DC0F7FF0800F550FF0A096E11507AEC0C
:10712C0032F099EF38F00E2A102A020E1064A1EFFB
:10713C0038F0A3EF38F03CEF38F0A5EF38F0050E3F
:10714C005E261200000ECAEC33F0000E0B6E000E21
:10715C004FEC33F08DEC34F0FF0E286E2768000EE8
:10716C002A6E010E296E54EC36F0000E336E000EB2
:10717C00326E000E2F6E000E2E6E000E316E000E53
:10718C00306E70EF39F030503110D8A4D0EF38F0A9
:10719C00D2EF38F053EF39F082A0D7EF38F0D9EFB7
:1071AC0038F003EF39F0000E316E010E306E32C044
:1071BC0027F033C028F0000E2A6E000E296E54EC16
:1071CC0036F03206D8A0330633BEF1EF38F0EFEFCD
:1071DC0038F0F7EF38F0000E336E000E326EF7EF2A
:1071EC0038F032C027F033C028F0000E2A6E010EA2
:1071FC00296E54EC36F053EF39F082A408EF39F0D5
:10720C000AEF39F03AEF39F0000E316E010E306EA4
:10721C0032C027F033C028F0000E2A6E000E296E03
:10722C0054EC36F0324A332A33BE26EF39F0335061
:10723C0009E1080E325CD8A026EF39F028EF39F0BE
:10724C002EEF39F0000E336E070E326E2EEF39F042
:10725C0032C027F033C028F0000E2A6E010E296EC2
:10726C0054EC36F053EF39F082A23FEF39F041EF96
:10727C0039F053EF39F0000E316E010E306E32C022
:10728C0018F033C019F0C0EC32F053EF39F053EF73
:10729C0039F053EF39F053EF39F082B058EF39F041
:1072AC005AEF39F070EF39F082B25FEF39F061EFDD
:1072BC0039F070EF39F082B466EF39F068EF39F0DD
:1072CC0070EF39F0000E316E000E306E70EF39F049
:1072DC0070EF39F020EE04F05B50D9265C50DA22C6
:1072EC00DE04D8B47CEF39F07EEF39F0C9EF38F01A
:1072FC0080EF39F0120000000000000000000000D8
:10730C000000000000000000000000000000000071
:10731C000000000000000000000000000000000061
:10732C000000000000000000000000000000000051
:10733C000000000000000000000000000000000041
:10734C000000000000000000000000000000000031
:10735C000000000000000000000000000000000021
:10736C000000000000000000000000000000000011
:10737C000000000000000000000000000000000001
:10738C0000000000000000000000000000000000F1
:10739C0000000000000000000000000000000000E1
:1073AC0000000000000000000000000000000000D1
:1073BC0000000000000000000000000000000000C1
:1073CC0000000000000000000000000000000000B1
:1073DC0000000000000000000000000000000000A1
:1073EC000000000000000000000000000000000091
:1073FC000000000000000000000000000000000081
:10740C00065F5F0600000000070700070700001476
:10741C007F7F147F7F1400242E6B6B3A1200004682
:10742C006630180C666200307A4F5D377A4800047B
:10743C0007030000000000001C3E63410000000038
:10744C0041633E1C000000082A3E1C1C3E2A080812
:10745C00083E3E080800000080E0600000000008C4
:10746C0008080808080000000060600000000060C8
:10747C0030180C060301003E7F71594D7F3E0040D1
:10748C00427F7F40400000627359496F66000022C2
:10749C006349497F360000181C16537F7F50002724
:1074AC006745457D3900003C7E4B4979300000032F
:1074BC000371790F070000367F49497F36000006BB
:1074CC004F49693F1E000000006666000000000086
:1074DC0080E66600000000081C36634100000024B2
:1074EC0024242424240000004163361C08000002DC
:1074FC000351590F0600003E7F415D5D1F1E007C4D
:10750C007E13137E7C0000417F7F49497F36001C2F
:10751C003E634141632200417F7F41633E1C004139
:10752C007F7F495D416300417F7F491D0103001C42
:10753C003E6341517372007F7F08087F7F0000001B
:10754C00417F7F41000000307040417F3F0100418E
:10755C007F7F081C776300417F7F41406070007F14
:10756C007F0E1C0E7F7F007F7F060C187F7F001C18
:10757C003E6341633E1C00417F7F49090F06001E9C
:10758C003F21717F5E0000417F7F09197F660026D5
:10759C006F4D597332000003417F7F410300007F20
:1075AC007F40407F7F00001F3F60603F1F00007FD7
:1075BC007F3018307F7F0043673C183C67430007DF
:1075CC004F78784F070000476371594D677300007F
:1075DC007F7F41410000000103060C183060000061
:1075EC0041417F7F000000080C0603060C08008058
:1075FC0080808080808080000003070400000020D1
:10760C007454543C784000417F3F484878300038EF
:10761C007C44446C280000307848493F7F40003857
:10762C007C54545C180000487E7F4903020000988B
:10763C00BCA4A4F87C0400417F7F08047C78000083
:10764C00447D7D4000000060E08080FD7D000041B5
:10765C007F7F10386C440000417F7F400000007C2D
:10766C007C18381C7C78007C7C04047C7800003806
:10767C007C44447C38000084FCF8A4243C1800189A
:10768C003C24A4F8FC8400447C784C041C1800486E
:10769C005C54547424000000043E7F442400003CDD
:1076AC007C40403C7C40001C3C60603C1C00003C2E
:1076BC007C7038707C3C00446C3810386C44009CF6
:1076CC00BCA0A0FC7C00004C64745C4C6400000802
:1076DC00083E774141000000000077770000004130
:1076EC0041773E0808000002030103020301007009
:1076FC00784C464C7870000E9F91B1FB4A00003AD2
:10770C007A40407A7A4000387C54555D190000026A
:10771C00237555557D7B42217554547D794000214C
:10772C007555547C784000207457577C784000186D
:10773C003CA4A4E4400000023B7D55555D1B02397E
:10774C007D54545D190000397D55545C18000001BE
:10775C00457C7C410100000203457D7D4302000114
:10776C00457D7C40000000797D1612167D790070F5
:10777C00782B2B78700000447C7C555545000020FC
:10778C007454547C7C54547C7E0B097F7F490032AA
:10779C007B49497B320000327A48487A3200003209
:1077AC007A4A48783000003A7B41417B7A40003A73
:1077BC007A4240787840009ABAA0A0FA7A00000188
:1077CC00193C66663C19013D7D40407D3D0000182A
:1077DC003C24E7E7242400687E7F49436620002B85
:1077EC002FFCFC2F2B0000FFFF09092FF6F8A040FF
:1077FC00C088FE7F090302207454557D7940000037
:10780C00447D7D410000003078484A7A32000038CF
:10781C007840427A7A40007A7A0A0A7A7000007DBF
:10782C007D19317D7D000000262F292F2F28000087
:10783C00262F292F26000030784D45602000003877
:10784C003808080808000008080808383800004FF5
:10785C006F3018CCEEBB914F6F30186C76FBF90083
:10786C0000007B7B000000081C3622081C362222FC
:10787C00361C0822361C08AA005500AA005500AA7E
:10788C0055AA55AA55AA55DDFFAA77DDAAFF7700A0
:10789C000000FFFF000000101010FFFF000000149C
:1078AC001414FFFF0000001010FFFF00FFFF00107A
:1078BC0010F0F010F0F000141414FCFC0000001494
:1078CC0014F7F700FFFF000000FFFF00FFFF00149C
:1078DC0014F4F404FCFC0014141717101F1F0010F0
:1078EC00101F1F101F1F001414141F1F0000001066
:1078FC001010F0F00000000000001F1F10101010FE
:10790C0010101F1F101010101010F0F0101010009D
:10791C000000FFFF1010101010101010101010109D
:10792C001010FFFF101010000000FFFF14141400C3
:10793C0000FFFF00FFFF1000001F1F10171714009F
:10794C0000FCFC04F4F41414141717101717141477
:10795C0014F4F404F4F4140000FFFF00F7F714140B
:10796C00141414141414141414F7F700F7F7141453
:10797C001414171714141410101F1F101F1F101499
:10798C001414F4F41414141010F0F010F0F010009F
:10799C00001F1F101F1F100000001F1F14141400C5
:1079AC000000FCFC1414140000F0F010F0F01010A7
:1079BC0010FFFF10FFFF10141414FFFF1414141009
:1079CC0010101F1F000000000000F0F0101010FF3E
:1079DC00FFFFFFFFFFFFFFF0F0F0F0F0F0F0F0FF23
:1079EC00FFFFFF0000000000000000FFFFFFFF0F83
:1079FC000F0F0F0F0F0F0F387C446C386C4400FCCA
:107A0C00FE2A2A3E1400007E7E02020606000002B8
:107A1C007E7E027E7E020063775D496363000038E0
:107A2C007C447C3C04040080FE7E20203E1E00042E
:107A3C0006027E7C06020099BDE7E7BD9900001C9A
:107A4C003E6B496B3E1C004C7E7301737E4C0030C8
:107A5C00784A4F7D390000183C243C3C243C189853
:107A6C00FC643C3E273D18000000000000000000B4
:107A7C0000000000000000000000000000000000FA
:107A8C0000000000000000000000000000000000EA
:107A9C0000000000000000000000000000000000DA
:107AAC0000000000000000000000000000000000CA
:107ABC0000000000000000000000000000000000BA
:107ACC0000000000000000000000000000000000AA
:107ADC00000000000000000000000000000000009A
:107AEC00000000000000000000000000000000008A
:107AFC00000000000000000000000000000000007A
:107B0C0000000F1FF8FFF81F0F0000FF3F1E0000C2
:107B1C0000000000000000C3000000000000000096
:107B2C000000001E3F7FFFFEFCFEFF7F3F1E00009B
:107B3C000000000000000020000000000000000019
:107B4C00000000007CFEFFFFC78383820000000062
:107B5C000000000000000000000000000000000019
:107B6C0000000000E0F0F0F0F0FF03060000000061
:107B7C0000000000000000000000000000000000F9
:107B8C0000000000010101000000000100000000E5
:107B9C0000000000000002030200000000000000D2
:107BAC0000000000000000010101000000000000C6
:107BBC00000000000002021902000000000000009A
:107BCC0000000000000001010101010000000000A4
:107BDC00000000000000000702020000000000008E
:107BEC000000000000010101010000000000000085
:107BFC000000000000000000000000000000000079
:107C0C000000000000000000000000000000000068
:107C1C000000000000000000000000000000000058
:107C2C000000000000000000000000000000000048
:107E1C0000404040000000E0404040404000000076
:107E2C000000000000000000000000000000000046
:107E3C0000000000004040C0404000000000000076
:107E4C000000000000000000000000000000000026
:107E5C0000000000404040C0404000000000000016
:107E6C000000000000000000000000000000000006
:107E7C0000000000000000000000000000000000F6
:107E8C0000000000000000000000000000000000E6
:107E9C0000000000000000000000000000000000D6
:107EAC0000000000000000000000000000000000C6
:107EBC0000000000000000FF0000000000000000B7
:107ECC0000000000000000000000000000000000A6
:107EDC000000000000000003000000000000000093
:107EEC0000FFFFFFFF80FCFCFCFC80E0E0E0E0001A
:107EFC0000000000000000000000005C000C000C02
:107F0C007C287C7C447C241048285408000C0038C5
:107F1C004400443800201008103810804000101025
:107F2C0010004000201008384438007C006454488D
:107F3C004454281C107C4C542438542004740C28B1
:107F4C005428085438005000805000102844282829
:107F5C0028442810045408384C5C7814787C542835
:107F6C003844447C44387C54447C14043844347C79
:107F7C00107C007C0020403C7C106C7C40407C08D9
:107F8C007C7C047C7C447C7C14083844787C1468AD
:107F9C00485424047C047C407C3C403C7C207C6C1D
:107FAC00106C1C601C64544C7C4400081020447CF5
:107FBC00000804088080800408000F0CFF0C0F00E0
:107FCC00FF1E414354494F4E004152454E4441001F
:107FDC0050726F6A657400504147455300676F6378
:107FEC006869004D6963726F0052534B49005441EC
:037FFC004F000033
:020000040020DA
:08000000FFFFFFFFFFFFFFFF00
:020000040030CA
:0E00000000051F1FFF8385FF0FC00FE00F409C
:00000001FF
