:020000040000FA
:0400000007EF00F016
:100008005A82A8ED11F06EEF09F0000E416E000E55
:10001800406E000E416E000E406E1EEF01F0D40ED1
:10002800346E000E356ED8904034D96E4134DA6E95
:10003800D890D936DA363450D9263550DA22DF50FE
:10004800366E376A0001E151B425386E000EB521CD
:10005800396E3650385C3950800A3A6E3750800A0B
:100068003A58D8A03AEF00F03CEF00F01AEF01F050
:10007800E151B425346E000EB521356ED40E366EBE
:10008800000E376ED8904034D96E4134DA6ED8906D
:10009800D936DA363650D9263750DA22DF50386E5C
:1000A800396A40C03AF041C03BF0D8903A363B3606
:1000B800D8903A363B36030E3A26000E3B22D40E31
:1000C8003A24D96E000E3B20DA6EDF503C6E3C506D
:1000D8003826000E39223450385C3950800A3D6E7B
:1000E8003550800A3D58D8A07CEF00F07EEF00F034
:1000F8001AEF01F040C034F041C035F0D8903436E2
:100108003536D89034363536010E3426000E352271
:10011800D40E3424D96E000E3520DA6EDF50366ED8
:10012800376AE251B225386E000EB321396E365067
:10013800385C3950800A3A6E3750800A3A58D8A04D
:10014800A8EF00F0AAEF00F01AEF01F0E251B22593
:10015800346E000EB321356E40C036F041C037F022
:10016800D89036363736D89036363736010E36269A
:10017800000E3722D40E3624D96E000E3720DA6EE0
:10018800DF50386E396A40C03AF041C03BF0D89031
:100198003A363B36D8903A363B36020E3A26000EAF
:1001A8003B22D40E3A24D96E000E3B20DA6EDF5083
:1001B8003C6E3C503826000E39223450385C395099
:1001C800800A3D6E3550800A3D58D8A0EEEF00F009
:1001D800F0EF00F01AEF01F0000EE46F010EE36F8C
:1001E800FF0EB025B06FFF0EB121B16F000EE16FA9
:1001F800000EE26F440E126E010E136E000E156EA5
:100208001E0E146E000E176E280E166E000E196E56
:10021800090E186E000E1B6E0E0E1A6E000E1D6E65
:10022800000E1C6E52EC08F01AEF01F0404A412A09
:100238001EEF01F05850405C4150800A346E59500E
:10024800800A3458D8A02BEF01F02DEF01F013EFFE
:1002580000F02FEF01F00001E305E411D8A437EF17
:1002680001F039EF01F093EF01F0000E3F6E000E40
:100278003E6E1E0EE16F000EE26F80EF01F047EC5C
:100288000EF047EC0EF047EC0EF0440E126E010E25
:10029800136EE1C014F0156AE2C016F0176A000E7A
:1002A800196E090E186E000E1B6E0E0E1A6E000ED9
:1002B8001D6E000E1C6E52EC08F00A0E0001E227BB
:1002C800440E126E010E136EE1C014F0156AE2C0FE
:1002D80016F0176A000E196E090E186E000E1B6EC6
:1002E8000E0E1A6E000E1D6E010E1C6E52EC08F0FA
:1002F8003E4A3F2A80EF01F0040E3E183F10D8A472
:1003080088EF01F08AEF01F043EF01F08CEF01F084
:10031800000E0001E46F000EE36F93EF01F012008E
:1003280000000000000000000000000000000000C5
:1003380000000000000000000000000000000000B5
:1003480000000000000000000000000000000000A5
:100358000000000000000000000000000000000095
:100368000000000000000000000000000000000085
:100378000000000000000000000000000000000075
:100388000000000000000000000000000000000065
:100398000000000000000000000000000000000055
:1003A8000000000000000000000000000000000045
:1003B8000000000000000000000000000000000035
:1003C8000000000000000000000000000000000025
:1003D8000000000000000000000000000000000015
:1003E8000000000000000000000000000000000005
:1003F80000000000000000000000000000000000F5
:1004080000000000000000000000000000000000E4
:1004180000000000000000000000000000000000D4
:1004280000000100000101010100000001000000BE
:1004380000000000000101010101010101010101A9
:10044800010101010100000000000000000001019D
:100458000100000000000100000000000000000092
:100468000000000000000100000000000000000083
:100478000000010000000001000000000000000072
:100488000000000000000000000000000000000064
:100498000000000001000001010100000000000050
:1004A8000000000000000000000000000000000044
:1004B8000000000000000100010000000000000032
:1004C8000000000000000000000000000000000024
:1004D8000000000000000000010001000000000012
:1004E8000000000000000000000000000000000004
:1004F80000000000000000000000010001000000F2
:1005080000000000000000000000000000000000E3
:1005180000000000000000000000000001000101D0
:1005280001000000000000000000000000000000C2
:1005380000000000000000000000000000000100B2
:1005480000000001000000000101000000000000A0
:100558000000000000000000000000000000000093
:10056800010000000001000000000000010100007F
:100578000000000000000000000000000000000073
:100588000001000000000001000000000000000160
:10059800010101010000000000000000000101014C
:1005A800010101000000000000010000000000003F
:1005B8000000000000000100000000000000000032
:1005C8000000000100000000000000010000000021
:1005D8000000000000000000010000000100000011
:1005E8000000000000010000000000000001000001
:1005F80000000000000000000000010000000100F1
:1006080000000000000000010000000000000001E0
:1006180001010101010101010101010101010101C2
:100628000101010101010101010100000000000EAA
:10063800CAEC0FF0000E0B6E000E20EC12F075ECF9
:100648000DF0FF0E286E2768000E2A6E010E296E27
:10065800E5EC08F0000E496E000E486E000E456E7F
:10066800000E446E000E476E000E466E09EF04F051
:1006780046504710D8A443EF03F045EF03F0C0EF0E
:1006880003F082A04AEF03F04CEF03F076EF03F09B
:10069800000E476E010E466E48C027F049C028F08C
:1006A800000E2A6E000E296EE5EC08F04806D8A068
:1006B800490649BE64EF03F062EF03F06AEF03F006
:1006C800000E496E070E486E6AEF03F048C027F027
:1006D80049C028F0000E2A6E010E296EE5EC08F0DC
:1006E800C0EF03F082A47BEF03F07DEF03F0ADEFE2
:1006F80003F0000E476E010E466E48C027F049C051
:1007080028F0000E2A6E000E296EE5EC08F0484A23
:10071800492A49BE99EF03F0495009E1080E485C9F
:10072800D8A099EF03F09BEF03F0A1EF03F0000EC0
:10073800496E000E486EA1EF03F048C027F049C08B
:1007480028F0000E2A6E010E296EE5EC08F0C0EFC5
:1007580003F082A2B2EF03F0B4EF03F0C0EF03F0AE
:10076800000E476E020E466EC0EF03F0C0EF03F0B6
:10077800C0EF03F0C0EF03F082B0C5EF03F0C7EF9E
:1007880003F009EF04F082B2CCEF03F0CEEF03F0F0
:1007980009EF04F082B4D3EF03F0D5EF03F009EFCB
:1007A80004F046504710D8B4DCEF03F0DEEF03F056
:1007B80009EF04F0020E46184710D8A4E6EF03F03C
:1007C800E8EF03F001EF04F048C042F049C043F0FD
:1007D80026EC10F0000E0B6E000E20EC12F075ECFB
:1007E8000DF048C027F049C028F0000E2A6E010E0F
:1007F800296EE5EC08F001EF04F0000E476E000EDC
:10080800466E09EF04F009EF04F00001E005D8B4E2
:1008180010EF04F012EF04F03CEF03F014EF04F0D3
:100828001200000ECAEC0FF0000E0B6E000E20EC4A
:1008380012F0CC0E146E7F0E156E010E166E010EA0
:10084800176E7FEC10F0000E0B6E320E20EC12F0DB
:10085800A70E146E7F0E156E010E166E010E176E22
:100868007FEC10F0000E196E000E186E3CEF04F0CD
:10087800020E0B6E000E20EC12F0E50E146E7F0EC9
:10088800156E010E166E010E176E7FEC10F0020E3B
:100898000B6E320E20EC12F0DDC00FF0106A550E10
:1008A800116E000E126E0AEC0DF0550E146E000E4D
:1008B800156E010E166E010E176E7FEC10F0550EB8
:1008C800016E000E026E000E046E000E036E000E26
:1008D800066E030E056E00EC05F0030E0B6E000E9F
:1008E80020EC12F09E0E146E7F0E156E010E166E21
:1008F800010E176E7FEC10F0030E0B6E410E20EC0C
:1009080012F0DEC00FF0106A550E116E000E126E56
:100918000AEC0DF0550E146E000E156E010E166ED3
:10092800010E176E7FEC10F0550E016E000E026E70
:10093800000E046E000E036E000E066E030E056EAA
:1009480000EC05F0040E0B6E000E20EC12F0C50E44
:10095800146E7F0E156E010E166E010E176E7FEC6B
:1009680010F0040E0B6E370E20EC12F0DFC00FF003
:10097800106A550E116E000E126E0AEC0DF0550E2F
:10098800146E000E156E010E166E010E176E7FECBA
:1009980010F0550E016E000E026E000E046E000E71
:1009A800036E000E066E030E056E00EC05F082A2C3
:1009B800E0EF04F0E2EF04F0E8EF04F0000E196E47
:1009C800010E186EE8EF04F018041910D8B4EFEF10
:1009D80004F0F1EF04F0FCEF04F082A2F6EF04F06B
:1009E800F8EF04F03CEF04F0FCEF04F0FCEF04F047
:1009F800000ECAEC0FF0120001C00DF002C00EF09C
:100A080005500610D8A40BEF05F00DEF05F011EF17
:100A180005F0DEEF05F0DEEF05F00DC0D9FF0EC0E2
:100A2800DAFF03C0DFFFFF0E076EFF0E086E05C07A
:100A380009F006C00AF00750092608500A22095092
:100A48000D24D96E0A500E20DA6E03C0DFFF06505F
:100A580007E1030E055CD8B034EF05F036EF05F07A
:100A68003AEF05F0DEEF05F0DEEF05F020EE01F0DD
:100A78000D50D9260E50DA2203C0DFFF20EE02F017
:100A88000D50D9260E50DA2203C0DFFFFE0E076E86
:100A9800FF0E086E05C009F006C00AF007500926C7
:100AA80008500A2209500D24D96E0A500E20DA6E19
:100AB80003C0DFFFFD0E076EFF0E086E05C009F0CC
:100AC80006C00AF00750092608500A2209500D24CA
:100AD800D96E0A500E20DA6E03C0DFFF065007E118
:100AE800070E055CD8B07BEF05F07DEF05F081EFD0
:100AF80005F0DEEF05F0DEEF05F020EE03F00D5017
:100B0800D9260E50DA2203C0DFFFFC0E076EFF0E57
:100B1800086E05C009F006C00AF0075009260850FB
:100B28000A2209500D24D96E0A500E20DA6E03C02D
:100B3800DFFF065007E1090E055CD8B0A6EF05F007
:100B4800A8EF05F0ACEF05F0DEEF05F0DEEF05F0FD
:100B58000DC007F00EC008F0071E081E074A082A35
:100B6800030E07140B6E0C6A0B500D260C500E2248
:100B78000B50055E0C50065AFC0E0516FF0E0616A5
:100B8800D3EF05F00DC0D9FF0EC0DAFF03C0DFFFB9
:100B98000506D8A006060D4A0E2AD3EF05F0055023
:100BA8000610D8A4DAEF05F0DCEF05F0C6EF05F083
:100BB800DEEF05F01200000ECAEC0FF066EC11F043
:100BC8001E0E0001E16F280EE26F440E126E010E38
:100BD800136EE1C014F0156AE2C016F0176A000E31
:100BE800196E090E186E000E1B6E0E0E1A6E000E90
:100BF8001D6E010E1C6E52EC08F003EF06F047EC78
:100C08000EF009EC00F082A20CEF06F00EEF06F0F1
:100C180012EF06F0BDEC07F012EF06F0000E0B6EB7
:100C2800640E20EC12F0B0C00FF0B1C010F0550EF9
:100C3800116E000E126E0AEC0DF0550E146E000EB9
:100C4800156E010E166E010E176E7FEC10F0550E24
:100C5800016E000E026E000E046E000E036E000E92
:100C6800066E030E056E00EC05F00001B051B111DF
:100C7800D8A441EF06F043EF06F003EF06F047EF84
:100C880006F047EF06F0000E0B6E000E20EC12F097
:100C9800F00E146E7F0E156E010E166E010E176E95
:100CA8007FEC10F0040E0B6E000E20EC12F0B00E6C
:100CB800146E7F0E156E010E166E010E176E7FEC08
:100CC80010F0060E0B6E000E20EC12F0EB0E146EF8
:100CD8007F0E156E010E166E010E176E7FEC10F06A
:100CE80082A079EF06F07BEF06F047EF06F0000EE2
:100CF8000001B16F030EB06F84EF06F047EF06F006
:100D080012000F6E000E116E0A0E0F18D8A48FEF86
:100D180006F091EF06F098EF06F0000E546E532A95
:100D280026EF07F026EF07F03F0E54649EEF06F01B
:100D3800A0EF06F0A7EF06F0010E116E5450C00F99
:100D48000E6EABEF06F054C00EF0ABEF06F0200EBF
:100D58000F5E000E106E020E1064B5EF06F0B7EFCE
:100D680006F0BBEF06F024EF07F024EF07F03F0E84
:100D78000E64C1EF06F0C3EF06F0D7EF06F0400EA1
:100D88000E5E010E116E8A940E504009096E1150C4
:100D9800A4EC12F05350B809096E1150A4EC12F0EB
:100DA8008A84D7EF06F00B50D8B4DDEF06F0DFEFFA
:100DB80006F0FBEF06F00F50030DD30E0C6E7E0EFF
:100DC8000D6EF3500C26F4500D221050010DF35007
:100DD8000C26F4500D220CC0F6FF0DC0F7FF0800DA
:100DE800F5CF09F01150A4EC12F018EF07F00F50EE
:100DF800030DD30E0C6E7E0E0D6EF3500C26F450C0
:100E08000D221050010DF3500C26F4500D220CC089
:100E1800F6FF0DC0F7FF0800F550FF0A096E1150E4
:100E2800A4EC12F018EF07F00E2A102A020E106434
:100E380020EF07F022EF07F0BBEF06F024EF07F0F2
:100E4800050E54261200106E000E136E0A0E1018AE
:100E5800D8A431EF07F033EF07F03AEF07F0000EB0
:100E6800546E532ABCEF07F0BCEF07F03F0E5464F2
:100E780040EF07F042EF07F049EF07F0010E136E5D
:100E88005450C00F116E4DEF07F054C011F04DEFE4
:100E980007F01050080DF3CF0EF0F4CF0FF0000E4E
:100EA800126E070E12645BEF07F05DEF07F061EF5B
:100EB80007F0BAEF07F0BAEF07F03F0E116467EFDB
:100EC80007F069EF07F07DEF07F0400E115E010EA5
:100ED800136E8A9411504009096E1350A4EC12F055
:100EE8005350B809096E1350A4EC12F08A847DEFB0
:100EF80007F00B50D8B483EF07F085EF07F099EFB0
:100F080007F012500E240C6E000E0F200D6ED30E3B
:100F18000C24F66E720E0D20F76E0800F5CF09F05E
:100F28001350A4EC12F0AEEF07F012500E240C6E22
:100F3800000E0F200D6ED30E0C24F66E720E0D20CF
:100F4800F76E0800F550FF0A096E1350A4EC12F072
:100F5800AEEF07F0112A122A070E1264B6EF07F057
:100F6800B8EF07F061EF07F0BAEF07F0080E542664
:100F78001200000E356E000E346EFCEF07F047ECE1
:100F88000EF0440E126E010E136EE1C014F0156AD5
:100F9800E2C016F0176A000E196E090E186E000EE0
:100FA8001B6E0E0E1A6E000E1D6E000E1C6E52EC9D
:100FB80008F0040E0001E25F440E126E010E136E7B
:100FC800E1C014F0156AE2C016F0176A000E196E37
:100FD800090E186E000E1B6E0E0E1A6E000E1D6E98
:100FE800010E1C6E52EC08F0344A352AFCEF07F06B
:100FF800050E34183510D8A404EF08F006EF08F0F1
:10100800C3EF07F045EF08F045EF08F047EC0EF0A6
:10101800440E126E010E136EE1C014F0156AE2C0A0
:1010280016F0176A000E196E090E186E000E1B6E68
:101038000E0E1A6E000E1D6E000E1C6E52EC08F09D
:10104800040E0001E227440E126E010E136EE1C079
:1010580014F0156AE2C016F0176A000E196E090E30
:10106800186E000E1B6E0E0E1A6E000E1D6E010E0F
:101078001C6E52EC08F047EC0EF0344A352A45EF66
:1010880008F00A0E34183510D8A44DEF08F04FEFC9
:1010980008F00AEF08F051EF08F01200000E246E75
:1010A800000E236E000E266E000E256E000E226EB8
:1010B800000E216E16C023F017C024F0CDEF08F003
:1010C80014C025F015C026F0B2EF08F02150122404
:1010D800D96E22501320DA6EDF50D8B476EF08F0BC
:1010E80078EF08F08AEF08F01C041D10D8A47FEFF1
:1010F80008F081EF08F08AEF08F023C00BF0010E2A
:101108000C6E255031EC0CF0ACEF08F02150122495
:10111800D96E22501320DA6EDF50D8B496EF08F05B
:1011280098EF08F0ACEF08F01C501D10D8A49FEF02
:1011380008F0A1EF08F0ACEF08F023C00BF0000EA8
:101148000C6E255031EC0CF0ACEF08F0ACEF08F069
:10115800214A222A254A262AB2EF08F01A501424D6
:101168001E6E1B5015201F6E1E50255C2650800ACF
:10117800206E1F50800A2058D8A0C5EF08F0C7EF8E
:1011880008F06AEF08F0C9EF08F0234A242ACDEFE7
:1011980008F0185016241E6E195017201F6E1E5086
:1011A800235C2450800A206E1F50800A2058D8A043
:1011B800E0EF08F0E2EF08F064EF08F0E4EF08F081
:1011C8001200272806E12828D8A4EDEF08F0EFEF51
:1011D80008F00BEF09F0B60E126E000E136E000E3B
:1011E800156E0C0E146E000E176E0A0E166E000E9B
:1011F800196E030E186E000E1B6E0A0E1A6E29C0A9
:101208001CF02AC01DF052EC08F06DEF09F028BE62
:1012180019EF09F0285007E1040E275CD8B017EF42
:1012280009F019EF09F042EF09F0B60E126E000E40
:10123800136E27C02BF028C02CF0050ED8902B3643
:101248002C36E82E22EF09F00C0E2B24146E000E1B
:101258002C20156E000E176E0A0E166E000E196EF3
:10126800030E186E000E1B6E0A0E1A6E29C01CF0B3
:101278002AC01DF052EC08F06DEF09F0B60E126EA0
:10128800000E136E27C02BF028C02CF0050ED89046
:101298002B362C36E82E4BEF09F08C0E2B24146ECF
:1012A800FF0E2C20156E000E176E320E166E000EF5
:1012B800196E030E186E000E1B6E0A0E1A6E29C0E8
:1012C8001CF02AC01DF052EC08F06DEF09F06DEF2C
:1012D80009F01200280EF66E030EF76E000EF86E77
:1012E80004EEEEF013EE0EF00900F5CFEEFFE55038
:1012F800E150FAE1E250F8E1CA0EF66E140EF76E0C
:10130800000EF86E04EE00F010EEEEF00900F5CFD6
:10131800EEFFE550E150FAE1DC0EF66E130EF76EC3
:10132800000EF86E03EE00F010EEEEF00900F5CFB7
:10133800EEFFE550E150FAE1A40EF66E160EF76ED8
:10134800000EF86E02EE00F010EEE4F00900F5CFA2
:10135800EEFFE550E150FAE1520EF66E1D0EF76E03
:10136800000EF86E01EE00F010EEC2F00900F5CFA5
:10137800EEFFE550E150FAE1CC0EF66E230EF76E63
:10138800000EF86E00EE60F010EE74F00900F5CF74
:10139800EEFFE550E150FAE1F40EF66E250EF76E19
:1013A800000EF86E0900F5CF58F00900F5CF59F096
:1013B80000EED4F0170EEE6AE806FDE1576A566AA9
:1013C800556A546A536A5A905A92000EF86E000190
:1013D800D4EF10F000000000000000000000000042
:1013E80000000000000000010101010100000101EE
:1013F80001010000000000000000000000000000E3
:1014080000000000000000000001000000010000D2
:1014180001000001000000000000000000000000C2
:1014280000000000000000000000000101000001B1
:1014380000000100000100000000000000000000A2
:101448000000000000000000000000000000010093
:101458000001000001000001000000000000000081
:101468000000000000000000000000000000000074
:101478000100000100000100000100000000000060
:101488000000000000000000000000000000000054
:101498000000010000010000010000010000000040
:1014A8000000000000000000000000000000000034
:1014B800000000000100000100000100000101001F
:1014C8000000000000000000000000000000000014
:1014D8000000000000000000000000000000000004
:1014E80000000000000000000000000000000000F4
:1014F80000000000000000010101010100010101DC
:1015080001010000000000000000000000000000D1
:1015180000000000000000000001000000010001C0
:1015280000000001000000000000000000000000B2
:1015380000000000000000000000000101000001A0
:101548000001010000010000000000000000000090
:101558000000000000000000000000000000010082
:101568000001000001000001000000000000000070
:101578000000000000000000000000000000000063
:10158800010000010000010000010000000000004F
:101598000000000000000000000000000000000043
:1015A800000001000001000001000001010000002E
:1015B800000E066E04BEE5EF0AF0E3EF0AF0EDEF69
:1015C8000AF0036C041ED8B0042A010E066EEDEF73
:1015D8000AF002BEF4EF0AF0F2EF0AF0FCEF0AF0AC
:1015E800016C021ED8B0022A010E061AFCEF0AF09E
:1015F800000E086E000E076E03500410D8B407EFF3
:101608000BF009EF0BF03DEF0BF0010E056E13EF39
:101618000BF0D89003360436052A13EF0BF004AE0E
:1016280018EF0BF01AEF0BF00DEF0BF01EEF0BF0AD
:101638001EEF0BF0D890073608360350015C0450B3
:101648000258D8A02AEF0BF02CEF0BF033EF0BF079
:101658000350015E0450025A078033EF0BF0D89014
:1016680004320332052E1EEF0BF03DEF0BF03DEF79
:101678000BF00650D8B443EF0BF045EF0BF04BEFEF
:101688000BF0076C081ED8B0082A4BEF0BF007C008
:1016980001F008C002F051EF0BF012000000000149
:1016A8000000000000000000000000000000000032
:1016B800000000010101000001010100000000011B
:1016C8000101000000000000000000000000000010
:1016D80000000000000101010000010101000000FC
:1016E80001000000000000000000000000000000F1
:1016F80000000000000000010101000001010100DC
:1017080000000000000000000000000000000000D1
:1017180000000000000000010000000000000000C0
:1017280000000000010101000000000000000000AE
:10173800000101010101000000000000000001019A
:101748000101010101000000000000010100010188
:10175800010001010000000000010100000100007B
:101768000101000000000101010101010101010165
:101778000100000001010101000000010101010058
:10178800000ECAEC0FF0000E0B6E000E20EC12F0EB
:10179800BE0E146E7F0E156E010E166E010E176EBC
:1017A8007FEC10F0010E0B6E000E20EC12F0DF0E35
:1017B800146E7F0E156E010E166E010E176E7FECFD
:1017C80010F0010E0B6E290E20EC12F0D90E146EDB
:1017D8007F0E156E010E166E010E176E7FEC10F05F
:1017E800030E0B6E000E20EC12F0B70E146E7F0E77
:1017F800156E010E166E010E176E7FEC10F0030EBB
:101808000B6E2F0E20EC12F0F50E146E7F0E156E77
:10181800010E166E010E176E7FEC10F0040E0B6EA3
:10182800000E20EC12F0D30E146E7F0E156E010E12
:10183800166E010E176E7FEC10F0050E0B6E000E83
:1018480020EC12F0FA0E146E7F0E156E010E166E55
:10185800010E176E7FEC10F012000F6E000E116E65
:101868003F0E0F643AEF0CF03CEF0CF042EF0CF037
:10187800400E0F5E010E116E42EF0CF08A940F9E1F
:101888000F8C0FC009F01150A4EC12F00BC001F03E
:10189800026A000E046E080E036EDCEC0AF00150BA
:1018A800BF0BB809096E1150A4EC12F08A841150CC
:1018B80081EC12F0115081EC12F0106E8A940FC076
:1018C80009F01150A4EC12F00C50D8B46EEF0CF0E3
:1018D80070EF0CF083EF0CF00BC00DF0070E0D1637
:1018E800010E0E6E0D2A7BEF0CF0D8900E360D2EE1
:1018F80079EF0CF00E501010106E97EF0CF00BC033
:101908000DF0070E0D16010E0E6E0D2A8EEF0CF05F
:10191800D8900E360D2E8CEF0CF00E50FF0A1014D6
:10192800106E97EF0CF08A8410C009F01150A4ECE7
:1019380012F01200000E066E02BEA7EF0CF0A5EF23
:101948000CF0AFEF0CF0016C021ED8B0022A010EA9
:10195800066EAFEF0CF004BEB6EF0CF0B4EF0CF06F
:10196800BCEF0CF0036C041ED8B0042ABCEF0CF0DA
:1019780003500410D8B4C3EF0CF0C5EF0CF0F5EF2A
:101988000CF0010E056ECFEF0CF0D890033604363C
:10199800052ACFEF0CF004AED4EF0CF0D6EF0CF024
:1019A800C9EF0CF0DAEF0CF0DAEF0CF00350015C41
:1019B80004500258D8A0E3EF0CF0E5EF0CF0EBEF81
:1019C8000CF00350015E0450025AEBEF0CF0D89073
:1019D80004320332052EDAEF0CF0F5EF0CF0F5EFD8
:1019E8000CF00650D8B4FBEF0CF0FDEF0CF003EF51
:1019F8000DF0016C021ED8B0022A03EF0DF001C0F1
:101A080001F002C002F009EF0DF012000FC013F050
:101A180010C014F014BE15EF0DF013EF0DF01BEF0E
:101A28000DF00F6C101ED8B0102A1BEF0DF0000E31
:101A3800166E000E156E21EF0DF015501124D96E9B
:101A480016501220DA6E0FC001F010C002F0000E1E
:101A5800046E0A0E036E9EEC0CF00150300FDF6E20
:101A6800154A162A0FC001F010C002F0000E046ECD
:101A78000A0E036EDCEC0AF001C00FF002C010F091
:101A880010BE51EF0DF0105006E10F04D8B04FEF23
:101A98000DF051EF0DF021EF0DF053EF0DF014BEE6
:101AA8005AEF0DF058EF0DF066EF0DF015501124B8
:101AB800D96E16501220DA6E2D0EDF6E154A162AD0
:101AC80066EF0DF015501124D96E16501220DA6EFB
:101AD800000EDF6E11C007F012C008F01DEC11F007
:101AE8001200000E0C6E000E0B6E000E0E6E070E2E
:101AF8000E6481EF0DF083EF0DF087EF0DF0DDEF51
:101B08000DF0DDEF0DF0000E0F6E010E0F648FEF7C
:101B18000DF091EF0DF095EF0DF0D4EF0DF0D4EF3F
:101B28000DF08A94400E096E0F50A4EC12F00E507E
:101B3800B809096E0F50A4EC12F08A84000E0D6EDD
:101B48003F0E0D64AAEF0DF0ACEF0DF0B0EF0DF005
:101B5800C9EF0DF0C9EF0DF0D30E0B24F66E7A0E17
:101B68000C20F76E0800F5CF09F00F50A4EC12F026
:101B78000B4A0C2A0D2A3F0E0D64C5EF0DF0C7EF76
:101B88000DF0B0EF0DF0C9EF0DF00F2A010E0F6444
:101B9800D0EF0DF0D2EF0DF095EF0DF0D4EF0DF082
:101BA8000E2A070E0E64DBEF0DF0DDEF0DF087EF68
:101BB8000DF08A908A9212000F6E9268000E806E65
:101BC8000F0EC16E000E936E000E816E000E956EA4
:101BD800000E836E000E836E8A9A310E0E6EB20E60
:101BE800E82EFED70E2EFCD700D08A8A8A988A90D3
:101BF8008A928A94530EE82EFED700F0C00E096E22
:101C0800000EA4EC12F0C00E096E010EA4EC12F046
:101C1800400E096E000EA4EC12F0400E096E010E83
:101C2800A4EC12F0B80E096E000EA4EC12F0B80E77
:101C3800096E010EA4EC12F00F04D8A426EF0EF0E2
:101C480028EF0EF037EF0EF0000E926E80683F0E10
:101C5800096E000EA4EC12F03F0E096E010EA4EC02
:101C680012F043EF0EF03E0E096E000EA4EC12F0D7
:101C78003E0E096E010EA4EC12F043EF0EF0000EBA
:101C8800CAEC0FF012000AEC0FF0000E336E000ED3
:101C9800326E000E336E000E326E95EF0EF0D40EDB
:101CA8002F6E000E306ED8903234D96E3334DA6E1F
:101CB800D890D936DA362F50D9263050DA22030E8A
:101CC800DF5ED40E2F6E000E306ED8903234D96E8F
:101CD8003334DA6ED890D936DA362F50D9263050C8
:101CE800DA22050EDF607BEF0EF07DEF0EF091EF4C
:101CF8000EF0D40E2F6E000E306ED8903234D96E9E
:101D08003334DA6ED890D936DA362F50D926305097
:101D1800DA226E0EDF6E91EF0EF0324A332A95EF1B
:101D28000EF05850325C3350800A2F6E5950800A9A
:101D38002F58D8A0A2EF0EF0A4EF0EF053EF0EF03C
:101D4800A6EF0EF06AEC0FF012000101010101018B
:101D58000000000001000000000100000000010078
:101D68000000000100000000010101010101010162
:101D78000000000001010001010000010100010153
:101D88000100000101010101010000010101000041
:101D98000000000000010101000101010000000035
:101DA8000000000100010001000100000000000027
:101DB8000001000100010001000000010101010112
:101DC8000001010100010000000100000000000006
:101DD80000000001000000010000000000010001F7
:101DE80000010001010100000000000100010001E4
:101DF80000010000000000000000000000010001D8
:101E0800010101010101010101010101000E2E6E14
:101E1800000E2D6E000E2E6E000E2D6E58EF0FF078
:101E2800660E126E020E136ED40E276E000E286E0A
:101E3800D8902D34D96E2E34DA6ED890D936DA3659
:101E48002750D9262850DA22DF50296E2950146EDF
:101E5800156A2DC02AF02EC02BF0D8902A362B36C2
:101E6800D8902A362B36010E2A26000E2B22D40EA5
:101E78002A24D96E000E2B20DA6EDF502C6E2C50DF
:101E8800166E176A000E196E090E186E000E1B6E7C
:101E98000E0E1A6E000E1D6E000E1C6E52EC08F02F
:101EA8002D4A2E2A58EF0FF058502D5C2E50800ADC
:101EB800276E5950800A2758D8A065EF0FF067EFB2
:101EC8000FF014EF0FF069EF0FF01200000E2E6EF6
:101ED800000E2D6E000E2E6E000E2D6EB8EF0FF058
:101EE800660E126E020E136ED40E276E000E286E4A
:101EF800D8902D34D96E2E34DA6ED890D936DA3699
:101F08002750D9262850DA22DF50296E2950146E1E
:101F1800156A2DC02AF02EC02BF0D8902A362B3601
:101F2800D8902A362B36010E2A26000E2B22D40EE4
:101F38002A24D96E000E2B20DA6EDF502C6E2C501E
:101F4800166E176A000E196E090E186E000E1B6EBB
:101F58000E0E1A6E000E1D6E010E1C6E52EC08F06D
:101F68002D4A2E2AB8EF0FF058502D5C2E50800ABB
:101F7800276E5950800A2758D8A0C5EF0FF0C7EF31
:101F88000FF074EF0FF0C9EF0FF012000B6E000E98
:101F98000D6E070E0D64D3EF0FF0D5EF0FF0D9EFEC
:101FA8000FF025EF10F025EF10F08A94400E096E1F
:101FB800000EA4EC12F0400E096E010EA4EC12F013
:101FC8000D50B809096E000EA4EC12F00D50B809B6
:101FD800096E010EA4EC12F08A84000E0C6E3F0EFE
:101FE8000C64F9EF0FF0FBEF0FF0FFEF0FF01AEFB3
:101FF80010F01AEF10F00B50010DF3500008096EA5
:10200800000EA4EC12F00B50010DF3500008096EFD
:10201800010EA4EC12F00C2A3F0E0C6416EF10F01F
:1020280018EF10F0FFEF0FF01AEF10F00D2A070E5F
:102038000D6421EF10F023EF10F0D9EF0FF025EF2A
:1020480010F0120082B22BEF10F02DEF10F026EFF7
:1020580010F02FEF10F042504310D8A436EF10F0D4
:1020680038EF10F03CEF10F0EBEC12F03CEF10F012
:1020780042044310D8A443EF10F045EF10F049EFA5
:1020880010F0F1EC12F049EF10F0020E4218431074
:10209800D8A451EF10F053EF10F057EF10F0F6EC12
:1020A80012F057EF10F0030E42184310D8A45FEF58
:1020B80010F061EF10F065EF10F0DFEC05F065EF60
:1020C80010F0070E42184310D8A46DEF10F06FEF10
:1020D80010F075EF10F015EC04F075EF10F075EFD7
:1020E80010F082B27AEF10F07CEF10F075EF10F07C
:1020F8007EEF10F01200B9EF10F01650D8B487EF49
:1021080010F089EF10F09FEF10F017C00BF014C01B
:10211800F6FF15C0F7FFF86A070EF76403D008004A
:10212800F55005D0F6CFE1FFF7CFE2FFE75027ECF7
:1021380007F0B5EF10F017C00BF014C0F6FF15C08C
:10214800F7FFF86A070EF76403D00800F55005D0CA
:10215800F6CFE1FFF7CFE2FFE75085EC06F0B5EFE9
:1021680010F0144A152AB9EF10F014C0F6FF15C084
:10217800F7FFF86A070EF76403D00800F55005D09A
:10218800F6CFE1FFF7CFE2FFE7500009D8A4CFEF81
:1021980010F0D1EF10F081EF10F0D3EF10F0120033
:1021A8000F0EC16E9568000E836E070E946E000EBA
:1021B800826ECD80CD92CD8ACD88F28C9D809E9006
:1021C800F28E000E526E010E516E010EE0EC0DF013
:1021D80010EF11F0DBEC12F0C4EC0BF00B0E506EAC
:1021E800260E4F6E5E0EE82EFED74F2EFCD7502ED1
:1021F800FAD71BEC03F00001E051D8A406EF11F068
:1022080008EF11F010EF11F0000E526E000E516E33
:1022180010EF11F010EF11F051045210D8B417EF6D
:1022280011F019EF11F0EEEF10F01BEF11F007EFBE
:1022380000F0000E0C6E000E0B6E07C001F008C017
:1022480002F058EC12F0FF0E01240D6EFF0E022072
:102258000E6E54EF11F00B500724D96E0C50082065
:10226800DA6EDF500A6E0D500724D96E0E50082022
:10227800DA6E0B500724E16E0C500820E26EDFCFB7
:10228800E7FF0D500724D96E0E500820DA6E0AC0F9
:10229800DFFF0B4A0C2A0D06D8A00E0654EF11F0EA
:1022A8000D500B5C0C50800A096E0E50800A0958BC
:1022B800D8A061EF11F063EF11F02FEF11F065EF87
:1022C80011F01200640E0E6E000E0D6E000E0C6EF4
:1022D800000E0D6E000E0C6E96EF11F0280E016EBA
:1022E8000E50C7EC12F0D40E0A6E000E0B6ED8908A
:1022F8000C34D96E0D34DA6ED890D936DA360A50E5
:10230800D9260B50DA2201C0DEFF02C0DEFF03C06F
:10231800DEFF04C0DEFF0E503C0F0E6E0C4A0D2A85
:1023280096EF11F058500C5C0D50800A0A6E595007
:10233800800A0A58D8A0A3EF11F0A5EF11F072EFA8
:1023480011F0A7EF11F0120006009EA0AEEF11F0F9
:10235800B0EF11F0B7EF11F00001E94BEA2B9D80C7
:102368009E90B7EF11F05A0E0001E919EA11D8A4AE
:10237800C0EF11F0C2EF11F0C4EF11F00A0EDD5FEB
:102388001E0EE919EA11D8A4CCEF11F0CEEF11F026
:10239800D2EF11F0DE07DF07D2EF11F02C0EE919AA
:1023A80006E1EA05D8A4DBEF11F0DDEF11F0E4EF68
:1023B80011F0DC2B000EEA6F000EE96FE4EF11F06C
:1023C8005A92110001000000000100010000010004
:1023D80000000101000000000101000001000100EF
:1023E80000010001000100000000010001000100DF
:1023F80000010001010101010000010000010000CD
:1024080001010101010101000001010101010100B7
:1024180000010101030008000D0001010101010193
:102428000101010101010101010101010101010194
:1024380001010101010101010D6E000E0C6E800EFB
:102448000D6029EF12F02BEF12F057EF12F0070E84
:102458000B6431EF12F033EF12F037EF12F057EF51
:1024680012F057EF12F00DC054F00BC053F03F0EAE
:102478000D6441EF12F043EF12F049EF12F0400EF5
:102488000D5E010E0C6E49EF12F08A940D50400952
:10249800096E0C50A4EC12F00B50B809096E0C50E0
:1024A800A4EC12F08A84120001C005F002C006F004
:1024B80062EF12F0014A022A62EF12F001C0D9FF5E
:1024C80002C0DAFFDF50D8A46CEF12F06EEF12F002
:1024D8005EEF12F070EF12F005C003F006C004F0D2
:1024E800031E041E034A042A01500324016E0250ED
:1024F8000420026E80EF12F01200016E0150D8B471
:1025080088EF12F08AEF12F08EEF12F08A808A922A
:1025180090EF12F08A928A8295688A868A88080ED5
:10252800E82EFED700F083CF02F08A98080EE82E36
:10253800FED700F08A908A920250A3EF12F01200A0
:102548000A6E0A50D8B4ABEF12F0ADEF12F0B1EF4B
:1025580012F08A808A92B5EF12F08A928A82B5EFD9
:1025680012F0000E956E8A9609C08CFF8A88080EB4
:10257800E82EFED700F08A98080EE82EFED700F065
:102588008A908A921200056E05C006F001C007F015
:10259800090E086E0A0E096E06C001F007C002F0A7
:1025A80008C003F009C004F0DAEF12F01200000EC0
:1025B8000001DC6F500EDD6F500EDE6F500EDF6FC6
:1025C800010EE06F3C0EE16F3C0EE26F1200140E3C
:1025D8000001DD27F0EF12F012000001DF51140FA7
:0E25E800DF6F1200140E0001DE271200020049
:1072D20000000000000000000000000000000000AC
:1072E200000000000000000000000000000000009C
:1072F200000000000000000000000000000000008C
:10730200000000000000000000000000000000007B
:10731200000000000000000000000000000000006B
:10732200000000000000000000000000000000005B
:10733200000000000000000000000000000000004B
:10734200000000000000000000000000000000003B
:10735200000000000000000000000000000000002B
:10736200000000000000000000000000000000001B
:10737200000000000000000000000000000000000B
:1073820000000000000000000000000000000000FB
:1073920000000000000000000000000000000000EB
:1073A20000000000000000000000000000000000DB
:1073B20000000000000000000000000000000000CB
:1073C20000000000000000000000000000000000BB
:1073D20000000000000000000000065F5F060000E1
:1073E200000007070007070000147F7F147F7F1447
:1073F20000242E6B6B3A120000466630180C66624F
:1074020000307A4F5D377A4800040703000000001D
:1074120000001C3E63410000000041633E1C00006E
:1074220000082A3E1C1C3E2A0808083E3E080800A6
:10743200000080E06000000000080808080808005A
:107442000000006060000000006030180C060301BC
:10745200003E7F71594D7F3E0040427F7F40400099
:1074620000627359496F660000226349497F360002
:1074720000181C16537F7F5000276745457D390051
:10748200003C7E4B4979300000030371790F0700FD
:1074920000367F49497F360000064F49693F1E008A
:1074A2000000006666000000000080E66600000042
:1074B20000081C36634100000024242424242400F4
:1074C20000004163361C080000020351590F0600F8
:1074D200003E7F415D5D1F1E007C7E13137E7C009B
:1074E20000417F7F49497F36001C3E634141632250
:1074F20000417F7F41633E1C00417F7F495D4163C4
:1075020000417F7F491D0103001C3E63415173729C
:10751200007F7F08087F7F000000417F7F410000DD
:1075220000307040417F3F0100417F7F081C77633C
:1075320000417F7F41406070007F7F0E1C0E7F7F85
:10754200007F7F060C187F7F001C3E6341633E1C58
:1075520000417F7F49090F06001E3F21717F5E00B7
:1075620000417F7F09197F6600266F4D59733200F3
:107572000003417F7F410300007F7F40407F7F0007
:10758200001F3F60603F1F00007F7F3018307F7F09
:107592000043673C183C674300074F78784F070069
:1075A20000476371594D677300007F7F41410000BE
:1075B200000103060C183060000041417F7F00008B
:1075C20000080C0603060C08008080808080808002
:1075D200800000030704000000207454543C7840EB
:1075E20000417F3F4848783000387C44446C280092
:1075F20000307848493F7F4000387C54545C180082
:1076020000487E7F490302000098BCA4A4F87C04D1
:1076120000417F7F08047C780000447D7D400000AB
:107622000060E08080FD7D0000417F7F10386C4467
:107632000000417F7F400000007C7C18381C7C7871
:10764200007C7C04047C780000387C44447C380054
:107652000084FCF8A4243C1800183C24A4F8FC8400
:1076620000447C784C041C1800485C545474240078
:107672000000043E7F442400003C7C40403C7C40AF
:10768200001C3C60603C1C00003C7C7038707C3C00
:1076920000446C3810386C44009CBCA0A0FC7C00F8
:1076A200004C64745C4C64000008083E7741410061
:1076B2000000000077770000004141773E08080093
:1076C20000020301030203010070784C464C7870FB
:1076D200000E9F91B1FB4A00003A7A40407A7A400C
:1076E20000387C54555D19000002237555557D7B89
:1076F20042217554547D794000217555547C78405F
:1077020000207457577C784000183CA4A4E4400041
:1077120000023B7D55555D1B02397D54545D1900B5
:1077220000397D55545C18000001457C7C41010004
:10773200000203457D7D43020001457D7C4000003F
:1077420000797D1612167D790070782B2B787000E7
:1077520000447C7C5555450000207454547C7C5474
:10776200547C7E0B097F7F4900327B49497B320082
:1077720000327A48487A320000327A4A4878300039
:10778200003A7B41417B7A40003A7A424078784025
:10779200009ABAA0A0FA7A000001193C66663C1968
:1077A200013D7D40407D3D0000183C24E7E7242454
:1077B20000687E7F49436620002B2FFCFC2F2B00A4
:1077C20000FFFF09092FF6F8A040C088FE7F0903D9
:1077D20002207454557D79400000447D7D410000B3
:1077E200003078484A7A320000387840427A7A404B
:1077F200007A7A0A0A7A7000007D7D19317D7D0057
:107802000000262F292F2F280000262F292F26009F
:107812000030784D4560200000383808080808001C
:107822000008080808383800004F6F3018CCEEBB4B
:10783200914F6F30186C76FBF90000007B7B0000E3
:1078420000081C3622081C362222361C0822361C4E
:1078520008AA005500AA005500AA55AA55AA55AA79
:1078620055DDFFAA77DDAAFF77000000FFFF0000C9
:1078720000101010FFFF000000141414FFFF00009E
:10788200001010FFFF00FFFF001010F0F010F0F0EA
:1078920000141414FCFC0000001414F7F700FFFF9E
:1078A200000000FFFF00FFFF001414F4F404FCFCCE
:1078B2000014141717101F1F0010101F1F101F1F76
:1078C200001414141F1F000000101010F0F000002C
:1078D200000000001F1F1010101010101F1F1010AA
:1078E20010101010F0F0101010000000FFFF101028
:1078F200101010101010101010101010FFFF1010A8
:1079020010000000FFFF1414140000FFFF00FFFF2F
:107912001000001F1F101717140000FCFC04F4F4E1
:107922001414141717101717141414F4F404F4F49D
:10793200140000FFFF00F7F71414141414141414A5
:10794200141414F7F700F7F7141414141717141477
:107952001410101F1F101F1F10141414F4F4141409
:10796200141010F0F010F0F01000001F1F101F1F75
:10797200100000001F1F141414000000FCFC14145B
:10798200140000F0F010F0F0101010FFFF10FFFFD5
:1079920010141414FFFF1414141010101F1F0000F1
:1079A20000000000F0F0101010FFFFFFFFFFFFFFCC
:1079B200FFF0F0F0F0F0F0F0F0FFFFFFFF0000004A
:1079C2000000000000FFFFFFFF0F0F0F0F0F0F0F50
:1079D2000F387C446C386C4400FCFE2A2A3E1400AA
:1079E200007E7E020206060000027E7E027E7E028B
:1079F2000063775D4963630000387C447C3C040487
:107A02000080FE7E20203E1E000406027E7C0602CE
:107A12000099BDE7E7BD9900001C3E6B496B3E1C17
:107A2200004C7E7301737E4C0030784A4F7D3900E2
:107A320000183C243C3C243C1898FC643C3E273D06
:107A4200180000000000000000000000000000001C
:107A52000000000000000000000000000000000024
:107A62000000000000000000000000000000000014
:107A72000000000000000000000000000000000004
:107A820000000000000000000000000000000000F4
:107A920000000000000000000000000000000000E4
:107AA20000000000000000000000000000000000D4
:107AB20000000000000000000000000000000000C4
:107AC20000000000000000000000000000000000B4
:107AD2000000000000000000000000000F1FF8FF7F
:107AE200F81F0F0000FF3F1E000000000000000012
:107AF20000C300000000000000000000001E3F7FE5
:107B0200FFFEFCFEFF7F3F1E0000000000000000A1
:107B120000200000000000000000000000007CFEC9
:107B2200FFFFC78383820000000000000000000006
:107B32000000000000000000000000000000E0F073
:107B4200F0F0F0FF0306000000000000000000005B
:107B52000000000000000000000000000000010121
:107B62000100000000010000000000000000000011
:107B720002030200000000000000000000000000FC
:107B820000010101000000000000000000000002EE
:107B920002190200000000000000000000000000C6
:107BA20001010101010000000000000000000000CE
:107BB20000070202000000000000000000000001B7
:107BC20001010100000000000000000000000000B0
:107BD20000000000000000000000000000000000A3
:107BE2000000000000000000000000000000000093
:107BF2000000000000000000000000000000000083
:107C02000000000000000000000000000000000072
:107DE20000000000000000000000004040400000D1
:107DF20000E0404040404000000000000000000061
:107E02000000000000000000000000000000004030
:107E120040C04040000000000000000000000000E0
:107E220000000000000000000000000000004040D0
:107E320040C04040000000000000000000000000C0
:107E42000000000000000000000000000000000030
:107E52000000000000000000000000000000000020
:107E62000000000000000000000000000000000010
:107E72000000000000000000000000000000000000
:107E820000000000000000000000000000000000F0
:107E920000FF0000000000000000000000000000E1
:107EA20000000000000000000000000000000000D0
:107EB2000003000000000000000000FFFFFFFF8041
:107EC200FCFCFCFC80E0E0E0E000000000000000C0
:107ED20000000000005C000C000C7C287C7C447CD0
:107EE200241048285408000C00384400443800206C
:107EF20010081038108040001010100040002010B0
:107F020008384438007C006454484454281C107CCF
:107F12004C542438542004740C2854280854380033
:107F22005000805000102844282828442810045467
:107F320008384C5C7814787C54283844447C4438A3
:107F42007C54447C14043844347C107C007C002033
:107F5200403C7C106C7C40407C087C7C047C7C44F3
:107F62007C7C14083844787C1468485424047C04CB
:107F72007C407C3C403C7C207C6C106C1C601C6413
:107F8200544C7C4400081020447C00080408808083
:107F9200800408000F0CFF0C0F00FF1E456E657277
:107FA2006769653A005243323D65786974006578C5
:107FB20069742020004152454E44410050726F6A5C
:107FC200657400416D6F75723A0053746174733A4F
:107FD20000504147455300676F636869004D69630C
:107FE200726F004661696D3A00524330200046418B
:0D7FF200494C0052534B490054414F0000D0
:020000040020DA
:08000000FFFFFFFFFFFFFFFF00
:020000040030CA
:0E000000000C1F1FFF8381FF0FC00FE00F4099
:00000001FF
